:020000022000DC
:1060000030770020C1B70200B993040095B70200B1
:1060100095B7020095B7020095B702000000000096
:10602000000000000000000000000000E5B80200D1
:1060300095B702000000000051B8020095B70200B9
:1060400005BB0200C1CE030005BB020005BB020078
:1060500005BB020005BB020005BB020005BB020038
:1060600005BB020005BB020005BB020005BB020028
:1060700005BB020005BB020005BB020005BB020018
:1060800005BB020005BB020005BB020005BB020008
:1060900005BB020005BB020005BB020005BB0200F8
:1060A00005BB020005BB020005BB020005BB0200E8
:1060B00005BB020005BB020005BB020005BB0200D8
:1060C00005BB020005BB020005BB020005BB0200C8
:1060D00005BB020005BB020005BB020005BB0200B8
:1060E00005BB020005BB020005BB020005BB0200A8
:1060F00005BB020005BB020005BB020005BB020098
:1061000053B94AB9002908BF00281CBF4FF0FF311E
:106110004FF0FF3000F00CB8ADF1080C6DE904CE83
:1061200000F008F8DDF804E0DDE9022304B0704770
:10613000704700BF2DE9F04786468C460846089E0A
:10614000154674461946002B40F0C2808542B2FACB
:1061500082F245D94AB1C2F1200300FA02FC2EFABC
:1061600003F3954043EA0C0C94404FEA154EA8B255
:10617000BCFBFEF8230C0EFB18CC08FB00F943EA2D
:106180000C43994528D9EB1808F1FF3704D29945FB
:1061900002D9A8F102072B44A3EB0903A4B2B3FB75
:1061A000FEFC0EFB1C330CFB00F044EA0344A0424F
:1061B00014D92C190CF1FF3304D2A04202D9ACF14E
:1061C00002032C44241A43EA07401EB1D4400023A2
:1061D00034607360BDE8F0874746DDE76346F1E76A
:1061E00092BB431B01214FEA154EAFB2B3FBFEFC3D
:1061F000200C0EFB1C330CFB07F840EA03439845C8
:1062000062D9EB180CF1FF3004D2984502D9ACF1F9
:1062100002002B44A3EB0803A4B2B3FBFEFC0EFB6D
:106220001C330CFB07F744EA0344A7424ED92C1950
:106230000CF1FF3304D2A74202D9ACF102032C4483
:10624000E41B43EA0040C0E7C2F1200320FA03F157
:10625000954090402EFA03F303434FEA154EAFB238
:10626000B1FBFEFC0EFB1C10190C0CFB07F841EAFD
:106270000041884504FA02F422D969180CF1FF3074
:1062800004D2884502D9ACF102002944A1EB0801EF
:106290009BB2B1FBFEFC0EFB1C110CFB07F743EAA3
:1062A00001439F420ED9EB180CF1FF3104D29F42FB
:1062B00002D9ACF102012B44DB1B41EA004192E719
:1062C0006046E3E76146F7E76046A3E76346B7E762
:1062D000834206D916B9002108467BE7C6E900E0EB
:1062E000F9E7B3FA83F78FB9834201D3724508D82F
:1062F000BEEB020460EB030301209C461EB90021A3
:1063000068E73846FAE7C6E9004CF8E7C7F1200C21
:10631000BB4022FA0CF41C432EFA0CF120FA0CF3C9
:10632000B84001434FEA14490EFA07F5B3FBF9F8F8
:106330001FFA84FE09FB18300B0C08FB0EFA43EA27
:1063400000439A4502FA07F240D9E31808F1FF30FA
:1063500004D29A4502D9A8F102002344A3EB0A0310
:1063600089B2B3FBF9F809FB183308FB0EFE41EACA
:1063700003418E452CD9611808F1FF3304D28E45B4
:1063800002D9A8F10203214443EA0040A0FB02988D
:10639000A1EB0E014145CE46434602D306D14D4501
:1063A00004D2B9EB020E68EB04030138002EA6D02C
:1063B000B5EB0E0261EB030101FA0CFC22FA07F3C4
:1063C0004CEA0303F940C6E9003198E74046C5E7C7
:1063D0004346D9E710F8012B11F8013B012A28BFE9
:1063E0009A42F7D0D01A7047034611F8012B03F8F0
:1063F000012B002AF9D17047034613F8012B002A1C
:10640000FBD1181A01387047F7B53E4DD5F85C310D
:10641000996811F0010121D101AA40F6034006F06C
:1064200043FA044600286AD10198C3681B789BB9D7
:10643000BFF35B8FD5F8D430BFF35B8F05F1D40287
:1064400003F00903BFF35B8F52E8001F42E80034FA
:10645000002CF9D1BFF35B8F19F024FC01AA0021B5
:1064600041F2030006F020FA0446002847D1019BC0
:10647000254EDA68D2F80100D2F8051003C6184696
:1064800019F010FC214601AA41F2010006F00CFAB5
:106490000446A0BB0198C3685A7885F870205A88D2
:1064A000A5F872201A7985F87120B3F80720A5F8AD
:1064B0007420B3F80530A5F8763019F0F3FB2146C7
:1064C00001AA41F2020006F0EFF90446B8B9019FB3
:1064D000FA68531C413218685968344603C40833BB
:1064E00093422646F7D1094823F025F8384619F09B
:1064F000D9FB95F87C305B060AD46FF01204204675
:1065000003B0F0BDC0000020380100204001002091
:1065100001AA002142F2030006F0C6F90446002851
:10652000EDD1019BB64EDA68D2F80100D2F8051021
:1065300003C6184619F0B6FB214601AA42F2020032
:1065400006F0B2F904460028D9D1019CE368B3F8FB
:10655000012091B249B1D97839B1A5F80421DA788E
:10656000114606F1280027F0CBFB204619F09AFBD4
:1065700095F87C6016F0200618D1022140F66D4097
:1065800006F036F90446002800F0CC8002210C30D9
:1065900026F0B3F80123037046702146324640F6D8
:1065A0006D4006F081F904460028A8D195F89C308A
:1065B0001F0712D501AA002142F21C0006F074F94F
:1065C000044600289BD10198C368D3F80120D3F872
:1065D0000530C5E9382319F065FB95F8D8309E06DB
:1065E00024D50DF10201684623F068FA044600281C
:1065F00085D1042142F2240006F0FAF8064600286C
:1066000000F0908004210C3026F077F8BDF80030BF
:106610000380BDF8023043802246314642F2240016
:1066200006F042F9044600287FF469AF95F8D830A7
:106630005C0610D501AA002142F22A0006F034F9C6
:10664000044600287FF45BAF0198C3685B7885F847
:10665000203119F027FB082142F2010006F0C8F8AA
:10666000044600285ED008210C3026F046F895F844
:10667000D81011F0400F024640F2022308BF032356
:1066800088074CBF43F02C0043F00C0095F8D9303C
:106690008F0648BF40F0400013F0090F95F8A23074
:1066A00018BF40F4006003F00603CE0748BF40F077
:1066B0001000062B08BF40F4C070002123F0CAF878
:1066C0002146002242F2010006F0EEF804460028BE
:1066D0007FF415AF95F87C30B5F80411980624D4F2
:1066E000C9B901AA41F2050006F0DEF80446002807
:1066F0007FF405AFB5F80431019C4BB9E368B3F8FA
:106700000120A5F804219A883E48114627F0F8FA9E
:10671000204619F0C7FA082140F6014006F068F853
:10672000044638B96FF06804E9E60029F3D16FF048
:106730000404E4E608210C3025F0DFFF95F8D8309A
:10674000D907024653BF4FF000512BA1D1E90001F8
:106750002D4823F07FF82146002240F6014006F044
:10676000A3F8044600287FF4CAAE014601AA4FF6FA
:10677000014006F099F8044620BB019819F092FAFE
:10678000214601AA4FF6024006F08EF80446C8B929
:106790000198C368B3F80130A5F8C13019F082FA46
:1067A00095F8C1305B070DD501AA21464FF603408D
:1067B00006F07AF830B90198C3685B7885F8C03084
:1067C00019F070FA23F0EEFB044600287FF497AE30
:1067D00007F0D6FF044600287FF491AEEB79002B3A
:1067E0003FF48DAE0821094822F077FF06F010FB38
:1067F00085E600BFAFF30080908800020080002093
:1068000098010020C8010020108800029401002097
:106810002DE9F843D0E90C35D0F82C805C193034E0
:10682000A0450F46164619D81D4DA3FB05011AA316
:10683000D3E90023FFF764FC0346A4EB0800A0FBA8
:10684000050123F07F4414A3D3E90023FFF758FC8C
:1068500020F07F403C603060BDE8F883DFF8409076
:106860000DA3D3E90023A8FB0901FFF749FC044667
:1068700005F1300008A3D3E90023A0FB0901FFF7CD
:106880003FFC24F07F4420F07F403C603060BDE856
:10689000F88300BFAFF300808D49FD1A07000000A8
:1068A00000CA9A3B000000009FED097B0E4B0F4A87
:1068B0000F4983ED007B9FED087B82ED007B9FED10
:1068C000087B0C4B002281ED007B1A600DF0AABF03
:1068D000FFFFFFFFFF1F000000000000000000009E
:1068E0001F00000000000000400200208819002066
:1068F00038020020B02D0020002800F046812DE94C
:10690000F04FC94C94F86A2012F001058DB040F0A8
:10691000788194F82500FF2300F0030084F82630E6
:1069200015F0B8FE94F86A00420727D494F829209D
:1069300094F8353004EB820204EB8303D66AD3F873
:10694000388086B1B84831460FF020FD33785B06B9
:1069500005D506210AF0F0FF002800F05481B24866
:1069600041460FF013FD337813F00E0F40F09E8078
:10697000236A93B10C200DB0BDE8F08F2A4604F1D4
:106980006B01C0F3C00015F0F5FFFF2884F8260066
:10699000CCD0284615F098FEC8E70DF08DF881465A
:1069A000002800F054810DF093F88246002800F092
:1069B0004B810FF0D9FF0546002800F04A81D0F83E
:1069C00088004FF6FF732B8505F11C0B002800F0A3
:1069D000208105F17C0205F178010AF0B9FFB5F8D4
:1069E000763023F4EF6323F0070343F4887343F016
:1069F0000103A5F8763095F8393003F03F0363F0D2
:106A00007F0385F8393095F88E3023F0070385F839
:106A10008E3095F83C3023F00703002785F83C3092
:106A20004FF4C023C5F888312846C5E91277C5F868
:106A30008870A5F88C706F86C5F82E7085F83B704D
:106A40002F65A5F88E71A5F8847112F0FFF885F80E
:106A50005071C5F8549110F013FA95F8943160F321
:106A6000020385F8943110F011FA95F8943160F32F
:106A7000C50385F8943195F8803167F3410385F8B3
:106A800080310121284610F01DFE05F1D40011F0DF
:106A900097FEC4E9189AC4F820B0C5E905772F70AD
:106AA000ED6116F0ADFF002840F0AF8094F824307F
:106AB0000121C3F342030DF12B008DF82B300BF0B5
:106AC000E5F80246002862D098F8011030460FF031
:106AD0001FFA31235549A360554BB4F86870A0FBE9
:106AE00001010025C01841F107014DA3D3E900239E
:106AF000C4E9055525706560E560FFF701FB20617D
:106B00000CF0D6FA00F109083FB9357805F00F0509
:106B1000A5F10105B5FA85F56D0994F824002369FE
:106B200065F3000010F0010584F8240036D0414AD6
:106B300009920020106002253F4A404F04930BAE9B
:106B4000019305920321CDE902000694434600908B
:106B5000089607972A460B950CF0ACF931460DF0D4
:106B600071F8A0B9364905914AF2D8330093CDE9BE
:106B70000300CDE9010007970896069443460122D9
:106B800003210B950CF07AF92EE00FF011B9236A6E
:106B9000002B3FF4EFAE0FF0C9F8EBE6254A294889
:106BA000049303F247130694029591211360A7FB07
:106BB000000301FB0731214B07931F4B05934FF651
:106BC000FF730992022703930BAE15A3D3E90023A9
:106BD0000B970896FFF794FA4346CDE900503A46E2
:106BE000284603210CF066F931460DF02BF80028F9
:106BF000CDD194F86A300120034384F86A3015F04F
:106C00002BFD0020B7E61220B5E60FF08FF8032029
:106C1000B1E605F18000C5F88800DAE6AFF3008040
:106C20008D49FD1A07000000E82D002000CA9A3B9C
:106C30008C49FD1ADC2D00208D5F03000932030012
:106C4000A95A0300002AE78448460CF03BFF0720BE
:106C500091E650460CF042FF48460CF033FFF6E751
:106C600070B590F824308AB0C3F342030D46044651
:106C700001210DF1230016468DF823300BF006F8A4
:106C80007178024628460FF043F91F491F4AA0FBBE
:106C90000131981841F1070119A3D3E90023FFF747
:106CA0002FFA23699842054621D21B1A002201922D
:106CB000174A0293174BA21AA3FB02320221920930
:106CC00000230A4409AE099113490591CDE9033324
:106CD0000321D2B20696009318460CF04BF93146C8
:106CE0000CF0B0FF38B9256100200AB070BDFBD9A7
:106CF000C21A0023DBE70C200AB070BDAFF300809E
:106D00008D49FD1A0700000000CA9A3B8C49FD1A04
:106D1000E82D002009CB3D8D093203000000000062
:106D20002DE9F04F05468BB08B46012002219A4693
:106D3000144618F04FFD00220221814601200AF07E
:106D400057FE39494FF4D07228460AF0E1FDC61CBF
:106D5000F6B2364B00953246012100200CF022F9A4
:106D600010F0FD0F0CD0324A3249334840F62F0361
:106D700020F03FFD404080F311884FF0030002DF18
:106D80002E4BA4FB0348204625A3D3E9002341460C
:106D9000FFF7B6F9089506952B690493284B20F068
:106DA0007F47A7FB0331E01A264B07934FF00702FA
:106DB000254B059302FB07114FF6FE7368EB0101AB
:106DC00003934FF47A720023FFF79AF9CDF800B0DD
:106DD000CDE9017053463246012100200CF04EF8F7
:106DE00010F0FD0F0CD0124A1249134840F644032C
:106DF00020F0FFFC404080F311884FF0030002DFD9
:106E0000B9F1000F02D10BB0BDE8F08F01220221D1
:106E100010460BB0BDE8F04F0AF0EABDAFF30080BA
:106E20008D49FD1A07000000901900201169030028
:106E30002CFE0400F0FE040064F9040000CA9A3B32
:106E40008D49FD1AB9680300C1BB030000000000B2
:106E50002DE9F043C469228D4FF6FF739A428DB03D
:106E600000F088800546204612F072F995F8283027
:106E7000012B00F00F81022B00F00281002B00F0AB
:106E8000E18094F85071002F40F0FD80E68DB4F859
:106E90003080002E71D1AA8C08F101060023CDE9C3
:106EA0000A33B6B2002A70D094F93930002BC0F200
:106EB00048810023A4F88A3195F82630D90740F19B
:106EC000EF800023A4F88E310DF1270231462046D1
:106ED00011F0F8FE743000F04681B4F888312BB11F
:106EE000B34240F20D819B1BA4F88831B4F8843181
:106EF0002BB1B34240F2FB809B1BA4F88431258E5A
:106F000017B9A84500F0EA800135ADB294F8D13048
:106F100013F001065AD1DDE90A130A46002B40F0AE
:106F2000ED80002900F0DC801E461846228DE469C1
:106F30000694CDE903570332A74D0290CDE9001620
:106F4000D2B20121002005950CF014F810F0FD0FCD
:106F500010D00CF0A1FE84420CD0A04AA049A14858
:106F600040F2155320F045FC404080F311884FF06B
:106F7000030002DF0DB0BDE8F083AA8C4644002375
:106F8000CDE90A33B6B2002A8ED195F82630DA0759
:106F900097D4B4F88A31002B00F08280B34240F2DB
:106FA000FA809B1BA4F88A31B4F88E31002B8BD069
:106FB0009E4280F0DE809B1B9BB20022062BA4F831
:106FC0008E31228600F2AC8001277DE794F93920CA
:106FD0006FF30003002A84F8D13077DB94F8760051
:106FE000C0F3C00100F0070016F070FBB4F86E208B
:106FF000B4F86C30134403F2D51303447A4A7B4847
:107000000721E3FB0021104671A3D3E90023FFF71A
:1070100077F8DDE90A1320F07F422069226190426F
:1070200035BF161A801A002000260A46002B7FF46E
:107030007DAF56EA010C7FF479AF002850D0194695
:107040001E4673E794F88E3003F01803182B7FF474
:1070500018AFA18DB4F886218B1D9A42C4BF931F2F
:107060005B1AB4F88211CCBF9BB21346994200F070
:107070008C80A4F88231A4F88431A4F8882100E738
:107080003D2784F85071394620460DB0BDE8F043E5
:107090000FF0D8BF0023A4F88831A4F88431F0E6BB
:1070A000B4F88E31002B83D1628DB4F88C3140F26C
:1070B000E24101FB02F242F2107101FB0323013BAA
:1070C000B3FBF2F39BB2A4F88E316FE794F877002C
:1070D000012100F0070016F0FBFA87E73D4615E7AF
:1070E000002D4BD000261146304633461EE70023C4
:1070F000A4F88431204611F085FE00E7304615E7FC
:107100000CF032FD014600283BD00023A4F8883162
:10711000238DC3801B23037100680CF0EFFCE5E6B0
:1071200094F939309342BFF6CFAEB8F1000F7FF437
:107130004BAFD4F878315A08DB0743D4C4F8782130
:10714000C2E628460AAA0BA904F1D409FFF760FB9E
:10715000484611F077FB18B3484611F073FB18B39B
:1071600000232386A5E69DF8271020460FF06AFF2E
:1071700000E7082120460FF065FFFBE6002FB1D1A4
:10718000F8E60123A4F88831B0E6B4F888110029A4
:107190007FF477AE6FE73E2120460FF053FFE9E61C
:1071A000FF200FF00FFFD7E70246D4E91E010AF0D7
:1071B000E7FB0028D4D194F83C30580744BFA38D96
:1071C000238676E642F00042C4F87821FCE600BF50
:1071D0008D49FD1A07000000796803002CFE0400A9
:1071E00054FF040064F904008C49FD1A00CA9A3B5C
:1071F0002DE9F04F87B0CDE90423BDF84420037892
:107200000292BDF84820BDF84080BDF84C50468E33
:10721000B0F82E90B0F814B1019104460392002BFF
:1072200000F08E80013EB6B2A368D4F80C71721BD8
:1072300092B2002B009209DAE168626823F0004301
:1072400091422CBF7F18BF18A360FF1A009A638D6C
:1072500013FB02F39BB2B3FBF8F218FB02F080B20F
:1072600083421FFA82FA5AD2C01A40F2E2425E49C1
:1072700002FB00F0A0FB010159A3D3E90023FEF7B4
:107280003FFF20F07F400744D94494F839304D4403
:10729000AD1B554440F2E246DB09E58506FB08F5E7
:1072A00052D1524A5249534840F6BA0320F0A1FA4B
:1072B000404080F311884FF0030002DF0026A9460A
:1072C000029BA385039BA4F88C3129462046A4F891
:1072D0002A8011F033FD484BA18D2B44881DB3FB50
:1072E000F5F39AB29042A4F8862102D2521A063AD5
:1072F00092B2019BA4F8822113B10023A4F88E312D
:107300003B464A4631462046FFF70AFD94F8803155
:1073100043F0010384F8803107B0BDE8F08F08FB2B
:107320001231314840F2E24389B203FB01F1A1FB83
:1073300000012BA3D3E90023FEF7E2FE3F1AA3E7E7
:107340004E445E44B6B26FE7226C0099A36CDFF83E
:1073500098B002FB1133A36416F0A2FB814694F8A7
:107360007401C0F3420016F09DFB049B814406FBB0
:1073700003F305FB09F9236509F574291F4B09F28D
:107380003F29A3FB09394FEA994303FB0AF0236421
:10739000A5EB0309A36C6A080344963A934228BFFD
:1073A0001346C4E911230023C4F87C31A0FB0B0170
:1073B0000BA3D3E90023FEF7A3FE114B059A3F1A56
:1073C000A3FB0230800A06FB00F005A3D3E90023EB
:1073D000A0FB0B01FEF794FE20F07F4670E700BF94
:1073E0008D49FD1A0700000000CA9A3B2CFE0400DC
:1073F000E4F9040064F904007FC3C90183DE1B4380
:107400005917B7D1000000002DE9F04F0B6891F833
:107410001180D3F80090037F176895B00446C3F33A
:107420008013D0F81E008DF83F30B8F1FF0F638C49
:1074300012900E461546ADF84C300DF1480A49D170
:107440009AE803001090ADF844102346E28D53F8FB
:107450002EBB9B78AB722A81D4F82A306B60D4F8AB
:107460003A30AB6105F1180094F83E300371052104
:107470000AF00CFC6B7F00F03F0060F305036B77B4
:1074800094F83F30C3F30402AA77A28EEA81012860
:1074900003F01F0392B205D91B3303F01F030B2B1C
:1074A00000D81ABB0022C9F8142095F8203062F3E6
:1074B000000385F82030E5680126584621462671EC
:1074C0000CF012FB28682E7129460CF017FB15B042
:1074D000BDE8F08F10AA0DF13F01404614F068FEA0
:1074E0009DF83F3002338DF83F30AEE7336800211E
:1074F0005960E38EEA892B8240F2E24303FB02F2F9
:107500000B92628E0D92384611F02CFC94F83F20BD
:1075100097F87411520962F3430187F8741116F059
:10752000BFFA0C9097F87401C0F3420016F0BAFA53
:107530000C9A0B99104401FB00F0B94A00F5742035
:1075400000F23F20A2FB00204A08800C963A6862B5
:10755000AA6294F8312040F2E24302FB03F3AB63EA
:10756000238FA7F88C31384611F0E8FB0B99AD4B0F
:10757000AD4AC7F890210B44B3FBF1F39AB2A7F8D8
:107580008621298A881D824204DDC1F57F41FA31B6
:107590000A4492B2A7F882216B68C7F87831234673
:1075A00013F81C2FC2F340120C92DA0700F113817A
:1075B0004FF48073A38399F8260015F0EFFA04F1D5
:1075C0002B03002800F0EB80626AC4F82B20228D88
:1075D0009A80B8F1FF0F00F0E680BAF804301298F4
:1075E000A4F82930C4F825009DF83F30A3771098FF
:1075F000BDF84430C4F81F00A4F82330EB8963863B
:107600002B8AA386B7F88C31E38697F87431C3F3DD
:10761000420384F8383038460FF0B2F9A881E08090
:107620002146584674680CF05FFAAB89E3801C234E
:1076300023710C9BD4F80080002B40F0BA800C9B87
:107640002377214640460CF059FA95F85B00B5F8CF
:107650005080B5F85240012100F0070016F038F8CC
:10766000444404F2D514DFF8CC81044482466F48C8
:107670000721E4FB080131230024BB607C6066A382
:10768000D3E90023FC60FEF73BFD20F07F4038612A
:107690000B9B6D6A0D995D1BF36840F2E24202FBA1
:1076A000013303F2B241A1EB0A0A22460221012072
:1076B0000AF09EF948460EF025FE0246AAFB080194
:1076C000924655A3D3E90023FEF71AFDCDF80490A6
:1076D000B3685749009120F07F480AF102023A3B13
:1076E000D2B22046434401210BF09EFC01287FD0FA
:1076F00099F82430DB0766D438460FF041F94D4B3A
:10770000A5FB03A9044644A3D3E9002350464946F8
:10771000FEF7F6FC484BB668484A079220F07F45D2
:10772000A5FB0331BAEB0300454B059340F2D1139F
:10773000069708933B694FF0000BCDE903B34FF078
:10774000070303FB051169EB01014FF47A72002373
:10775000FEF7D6FC03343A3EE4B2CDE90150CDF851
:10776000008033462246012158460BF087FB10F07B
:10777000FD0F0CD0334A344934484FF4E97320F0FC
:1077800038F8404080F311884FF0030002DF0122F7
:10779000022110460AF02CF915B0BDE8F08FC4F8AC
:1077A0002B00988015E70022C4F82520A4F8292092
:1077B0001AE76B7F43F040036B77281D14F002FB40
:1077C0000123E8833CE70023012200931846114679
:1077D0000BF0E8FB90E71B4A1D491C48F82320F0FA
:1077E00008F8404080F311884FF0030002DFDFE625
:1077F0000CF052FA81453FF47BAF124A1549134809
:1078000040F279231FF0F5FF404080F311884FF0DC
:10781000030002DF6CE700BF8D49FD1A070000007E
:1078200083DE1B437FC3C901404B4C008C49FD1ACA
:1078300085BB030000CA9A3B8D49FD1A55BB030066
:10784000C1BB0300DC030500F0FE040064F9040082
:1078500000FC04003804050010B5334C3349002304
:1078600004F1FF3C14F83320072A02EB820E05D8FE
:1078700011F83E206FF3451201F83E201CF833202A
:107880006FF300020CF833200133082BEAD1284AA9
:10789000284C002313700A7863F300020A7091F8F1
:1078A000282063F3000281F8282091F8502063F328
:1078B000000281F8502091F8782063F3000281F8EB
:1078C000782091F8A02063F3000281F8A02091F8BD
:1078D000C82063F3000281F8C82091F8F02063F318
:1078E000000281F8F02091F8182163F3000281F87A
:1078F0001821114A9FED0A7B1370104B83ED007B1A
:107900000F4B236028B1BDE810400E490E4826F009
:10791000BEBABDE810400C4826F0C7BAAFF30080ED
:10792000FFFFFFFFFFFFFFFF9134002050330020D7
:10793000744800206032002073480020601B002043
:10794000A0BB0D00B5C80300301B002000000000E4
:107950002DE9F04F8FB00DF137010446DFF8E0A0BC
:10796000DFF8E0800DF136000CF046F99DF8363076
:107970009DF837B00B930BF09BFBDAF80060A6FB89
:10798000085629A3D3E9002300278146314628461B
:10799000FEF7B6FBCDE90777069420F07F44DAF8CE
:1079A0000400234B0593A0FB08011FA3D3E9002388
:1079B000FEF7A6FB1F4B20F07F40A4FB03310722FC
:1079C00002FB0411CDE90370E81A66EB01014FF4E4
:1079D0007A720023FEF794FB0097CDE901404B46F5
:1079E0000B985A4603210BF049FA10F0FD0404D01D
:1079F0006FF08B000FB0BDE8F08F0F480F4A0023E7
:107A00001DF030FE20B9DAF80C000FB0BDE8F08FA1
:107A10009DF837209DF836000094234603210BF093
:107A2000C1FA6FF07300E5E78D49FD1A0700000009
:107A300049CE03008D49FD1A04350020447B0B001C
:107A40001C35002000CA9A3B38B50F4D04460BF098
:107A50002FFBA9680BF02EFB696803460B48B3FBAC
:107A6000F4F4A1FB00011C4405A3D3E90023FEF7B5
:107A700047FB20F07F40844294BF0020012038BDA6
:107A80008D49FD1A070000001C35002000CA9A3BF2
:107A9000F0B5C468636883B00546002B63D117F066
:107AA00025FA082017F048FA0021084617F036FAA0
:107AB00000222521082017F075FA454B019301A8F3
:107AC00017F058FA434940F25B6017F0FDFA237A49
:107AD000C3F3420262F306132046237216F000FA43
:107AE00015F030F958BB637A9B071FD127682E68C1
:107AF000384615F089FD06446A6806F1090101203F
:107B000017F02AFC17F0E8FC20460EF007FC811C59
:107B10003246C9B2384615F085FD054670BB204691
:107B200015F01AFD88B9002003B0F0BD012014F053
:107B300087FD4178821C007817F0AEFBD6E7607AAB
:107B400010F0030018BF0120F1E7234A234924481D
:107B500040F22C431FF04DFE404080F311884FF05F
:107B6000030002DFDFE793F820309A0797D01D4823
:107B7000214617F079F917F061FAD4E7164A1A4945
:107B8000174840F214431FF034FE184B0721A5FBA1
:107B9000030301FB05310CA3D3E90023FEF7B0FA80
:107BA0001349024613481FF024FE404080F3118819
:107BB0004FF0030002DF1048214617F055F917F087
:107BC0003DFA6FF08B00AFE700CA9A3B000000005F
:107BD000D6BE898E555555000C080500D0FA040014
:107BE00064F90400ADD70300E4F904008D49FD1ADF
:107BF000BC08050090080500B1DA03000000000091
:107C00002DE9F041C468A2894FF6FF739A4282B011
:107C100000F0C780054616F08BFC2B89628AE08A4B
:107C20001A4492B21044637FA28280B2411CE18266
:107C30005E064FF00001618204F1180100F18C80B2
:107C400003F03F000B46A17F009004F11F0014F0E9
:107C500071F80646D4E90B231344D4E90D02002140
:107C60000244E1626163A16AA26394F872208B42CC
:107C700028BF0B4612F00402236377D017F036F9C1
:107C8000082017F059F9201D17F074F92389A17AFB
:107C900040F25B6043EA014117F016FA304615F0F6
:107CA000D3FC2146584817F0DFF8962017F048FB20
:107CB00094F85A2094F85B00C2F3C003002102F04C
:107CC000070200F0070017F065FA204616F092FC54
:107CD00027682E68384615F097FC06446A6806F156
:107CE0000901002017F038FB804617F0C9FB00207F
:107CF00017F0E0FB236B94F85B0003F13002A36BF9
:107D000000F00700012103EB420517F089F9454413
:107D1000054494F85B0000F00700022824D00428F2
:107D20000CBF4FF4BC73282301211D4417F07AF9CE
:107D3000284417F097FBA18903313246C9B238466F
:107D400015F070FC054698BB204615F005FCD0B92F
:107D5000002002B0BDE8F0810A4603F03F03E18B4A
:107D600014F034F8064675E71823DDE7D4E9170167
:107D700009F006FE002881D194F8723043F0040324
:107D800084F872307AE7214A2149224840F255139B
:107D90001FF02FFD404080F311884FF0030002DFF9
:107DA000D6E71D48214617F05FF817F047F9CFE7EF
:107DB000164A1A49174840F24B131FF01AFD184B88
:107DC0000721A5FB030301FB05310DA3D3E9002324
:107DD000FEF796F91349024613481FF00AFD40408A
:107DE00080F311884FF0030002DF1048214617F09E
:107DF0003BF817F023F96FF08B00AAE7AFF3008090
:107E000000CA9A3B000000004DE803003409050059
:107E1000D0FA040064F90400ADD70300E4F90400CB
:107E20008D49FD1A880905009008050089D70300CF
:107E30002DE9F0472DED028B9FED498B4A4E84B022
:107E400004464FF02003EFF3118783F31288BFF34A
:107E50006F8FD4F8C8508DB9022104F1E00025F0ED
:107E60005FFF002843D100238DED008B029304F1C6
:107E7000D00239463D481EF0D3F8E2E7D4F8CC20D2
:107E80002B68C4F8C830954208BFC4F8CC30D4F889
:107E9000E03043F00203C4F8E030EB6823F0040361
:107EA00043F00103EB606B6887F31188BFF36F8FBA
:107EB000284698474FF02003EFF3118983F3128887
:107EC000BFF36F8FEB68990723F0010219D4EA60C2
:107ED000D4F8E03023F00203C4F8E03089F31188CD
:107EE000BFF36F8FDB05ACD41DF07AFFA9E704F177
:107EF000D80500220121284626F018F90028F8D1DB
:107F0000B1E7306823F00303EB600028E0D00027DE
:107F1000D0F80080BA460028DAD04268954201467F
:107F20000BD1016897B972683160824200D17160EB
:107F300040F808AB1DF070FB3946B8F1000F0BD0CC
:107F4000D8F8002040460F469046E4E73960726852
:107F5000824208BF7760EBE74246F3E7AFF3008069
:107F6000FFFFFFFFFFFFFFFF88450020DA4C0020E6
:107F700001481DF053BC00BFA002002007B526F049
:107F800012F94FF47A72A0FB020302FB0131C00B1D
:107F9000074A40EA4140106000234FF40042054880
:107FA000CDE900231EF01AFA002003B05DF804FBAF
:107FB000081F0020680D0020014B187800F0BEBAA1
:107FC000CC460020044B1A78824202D01870FFF78A
:107FD000F3BF0020704700BFCC46002008B526F054
:107FE000E2F84FF47A72A0FB020302FB0131114A5E
:107FF000C30B126843EA41439B1A0F4A934214DDB4
:1080000000F06AFE20B1BDE808400120FFF7DABFAA
:108010000220FFF7D7FF00F089F9002803DABDE856
:10802000084000F0BFB91FF0F1FB47F23052934215
:10803000E9DC08BD081F0020A0BB0D0008B526F034
:10804000B2F84FF47A72A0FB020302FB0131C00BBD
:10805000044A40EA41401060BDE808400020FFF7B4
:10806000B1BF00BF081F0020014B1878704700BF48
:10807000CC460020F8B5044610B900252846F8BDC6
:108080000378002BF9D00F4E0F4FBE420FD30D4E89
:10809000BE42F2D2306825F096FC30B135682146F8
:1080A0002868FEF797F90028E8D00436F0E7306832
:1080B00025F089FC18B135682B68A342DED0043660
:1080C000E3E700BF242B0500342B050070B5194CE5
:1080D000194D8CB00022002303A920461DF058F949
:1080E00008B10CB070BD2B68059E5868DDE903121D
:1080F0001EF045FD0028EDDBFF238DF81830B6FAA1
:1081000086F35B0907908DF8203026F04CF84FF489
:108110007A72A0FB020302FB0131C00B40EA41402E
:10812000C90B8DE8030006ABCDE90A010FCB00F0C7
:108130001FFACFE7A80E0020702000201FB50A4CC0
:108140002468A46884420DD183F00103CDE90112B3
:10815000039306480022002301A91DF0C3F8044838
:108160001DF05CFB04B010BD70200020A80E0020A4
:10817000602000201FB50023CDE90233044B8DF8A9
:108180000C0001A801931EF021FD05B05DF804FB71
:10819000FCF00400044B1A68044B9A4214BF6FF0C1
:1081A00012000020704700BF70200020E8F004009B
:1081B00038B5044600282FD0194D2B68834229D0AA
:1081C00053B1986840B183685B6803B198472B68E6
:1081D0000021986801F0CCFE1249134B8C4214BF69
:1081E000ED210021552200201EF0E3FC002812DBC7
:1081F000A0682C6070B1012101F0BAFE2B6898686C
:1082000083680A491B6898472B68986883689B684D
:1082100003B19847002038BD6FF01200FBE700BFA4
:1082200070200020E8F004000C1F00203D810200B7
:1082300038B5054648B90648FFF7BAFF041E02DB09
:108240002846FFF797FF204638BD6FF01504FAE780
:10825000E8F00400F7B50C4615460D4901AA1E4684
:108260001FF06BFE68B1019B6BB9012C0DD1094F5A
:10827000224639463046A847002802DD3878FFF705
:10828000D7FF03B0F0BD0020FBE76FF01500F8E763
:1082900052120500480C00200148FFF789BF00BFBB
:1082A000E8F0040008B50B480B4925F0ACFD0B487D
:1082B0001FF0C2FD18B1094801211FF090FD084AC6
:1082C000002342F8043B0133552BFAD1BDE80840A6
:1082D000FFF7E2BF60200020CD800200C4EB040065
:1082E0000C1F0020F8B50F4D0F4E761B07460C46AD
:1082F00005EBC105C6F3C706A64201DC00200CE071
:108300002A683B689A4209D13C716B6838461B6801
:10831000984718B1431E012BF0D9F8BD0134083538
:10832000EAE700BF101A0500481A050037B501A892
:108330001CF088FD194D019C00232B601823584325
:1083400018380444019B9C4202D2002003B030BD87
:10835000204625F038FBF0B120461FF036FDD0B99D
:1083600020461FF073FDB0B920461FF05BFD0146AB
:1083700088B9204601F0FCFD20F0200378330AD0B4
:1083800010F1860F07D00028E0DB2B68044A42F882
:10839000234001332B60183CD4E700BF7420002039
:1083A000040D002070B5084D084E2C68013C002CCF
:1083B00002DA00232B6070BD56F82400012101F081
:1083C000D7FD013CF3E700BF74200020040D00201E
:1083D00000B58BB0064B074A282168461EF0D6F838
:1083E00005490122684602F02FFD0BB05DF804FB41
:1083F0009A120500A4120500CD4600202DE9F8438D
:108400004768044600254FF001087B68AB420DD851
:108410002149224825F03BFDA3681B680BB120468B
:108420009847398939BB0020BDE8F8833A6802EBE8
:10843000C50352F835001979DB88D0F810C0D0F8A0
:108440000890DCF80060DA0754BF43F4B01383F4FB
:10845000D01323F4801208FA01FEDB074CBF46EA72
:108460000E0626EA0E06CCF80060D9F800309847D0
:1084700070B90135C9E740F2E7304FF47A72002352
:1084800000EBC1300021FDF73BFE1DF02BFDCAE7DC
:108490006FF00400C8E700BFD1830200E0100020A5
:1084A00008B5074B5A784AB901221A7005480022CC
:1084B00000231DF01BFA04481EF09EFB002008BD9F
:1084C000CD460020E0100020ACEB040008B54FF4CE
:1084D000F012002302481DF03DFA00EAE07008BDEA
:1084E000E0100020F7B50C461646114901AA1F46B8
:1084F0001FF023FDB0B1019BA3B9012C15D10D4D87
:10850000224629463846B047002806DB2B780A4821
:108510006C7023B11EF070FB002003B0F0BD1EF0A4
:1085200087FBF9E76FF00100F7E76FF01500F4E75C
:108530009A120500CD460020ACEB04001FB50023C5
:10854000CDE90233044B8DF80C0001A801931EF015
:108550003DFB05B05DF804FB20F104000268034B0D
:108560009A420CBF08300020704700BF20F1040081
:1085700084B030B589B00CAC84E80F0000230193BF
:108580000CAD084B00930FCD02AC0FC495E803006F
:1085900084E8030068461EF019FB09B0BDE83040CE
:1085A00004B0704724F104000268034B9A420CBFE8
:1085B00008300020704700BF24F104001FB50023DD
:1085C000CDE90233044B8DF80C0001A801931EF095
:1085D000FDFA05B05DF804FB2CF1040082B038B55B
:1085E00004A981E80C00054611481CF037FC04463C
:1085F000A0B16B68012B0CD0022B05D0A3B9BDE84C
:10860000384002B01EF051BB1EF056FB0028204639
:10861000F5DCBDE8384002B01EF040BB6FF004004E
:10862000BDE8384002B070476FF08500F8E700BF42
:108630009A12050082B010B502A981E80C00044628
:108640000B481CF00BFC78B16368022B04D00020AF
:10865000BDE8104002B070471EF02EFB0028CCBFD2
:10866000002001206060F2E76FF00400F0E700BF37
:108670009A1205001FB50023CDE90233044B8DF893
:108680000C0001A801931EF0A1FA05B05DF804FBEF
:1086900084F104000268034B9A420CBF08300020AA
:1086A000704700BF84F1040008B500F0DBFEBDE8B0
:1086B0000840014925F0D4BBC002002007B5084896
:1086C00025F081F948B14FF4F0120023CDE90023E1
:1086D0000448002200231DF081FE03B05DF804FB76
:1086E0000CEC0400A00D002008B5FFF737FF10B90F
:1086F0006FF0850008BDFFF7B7FC38B10138C0B294
:108700000128F5D8034825F095FD01E0FFF7D6FFD5
:108710000020EFE7A00D002037B5104CA5682D21F3
:10872000EB6820469847B8B92D212B696A46204648
:10873000984788B90A4C00982378834204D0C0B285
:108740002070FFF797FF38B902F050FB237898426A
:1087500002D0184602F050FB03B030BD0CEC040010
:10876000CF46002008B5054825F02DF918B1FFF7D0
:10877000A5FF002008BD6FF01200FBE70CEC040021
:10878000014B1878704700BFCF4600201FB500236B
:10879000CDE90233044B8DF80C0001A801931EF0C3
:1087A00015FA05B05DF804FB8CF1040008B5BDF8BE
:1087B00008101944012908DC3BB1054B1278054823
:1087C0001A701DF02BF8012008BD6FF00600FBE7C2
:1087D000D046002010030020014B1878FFF728BD79
:1087E000D04600201FB510240294044C0194BDF81B
:1087F0001840009422F0DDFF04B010BDE5460020D3
:1088000007B5064B00930649064805234FF43E7210
:108810001DF00AF8002003B05DF804FB90F104009D
:10882000E04C00201011002070B50F4D0F4E8AB0A3
:1088300000220023694628461CF0AAFD044608B120
:108840000AB070BD2146182204A825F071FE10233D
:108850000DEB030120460596CDF818D0ADF81C307D
:1088600007F0FAFDE4E700BFD80E0020ACF10400E9
:108870001FB50E490E4840F6CD4200231CF032FDD4
:10888000044670B110F10B0F08D100220023694695
:1088900007481CF07DFDFFF7EBFF0446204604B0BF
:1088A00010BD0449044825F0DBFAF7E7E54600204F
:1088B000D80E0020D00200201011002038B5037817
:1088C00023B1032B11D06FF0850038BD4278094DDC
:1088D00002F00701D40801228A4081782B5DD2B2D0
:1088E00029B113432B55FFF7C3FF0020EDE723EA1F
:1088F0000203F7E7E5460020014B1970704700BFFF
:10890000F8460020014B18600020704778200020B6
:10891000084A094B12781B78002062F30700074AC7
:1089200012785B0062F30F20DBB282B063F3174072
:1089300002B07047F5460020F9460020F6460020B8
:1089400013B50C4B1C6894B1FFF7E2FF8DF80400DF
:10895000C0F30723C0F307408DF805308DF80600FB
:1089600001990548234602B0BDE81040184702B0FF
:1089700010BD00BF78200020342B050010B500206A
:1089800004F058FA044610B9024802F0EDFA204605
:1089900010BD00BF2003002010B5084805F05EFDA3
:1089A000074805F0D9FE074B074800241C70074B09
:1089B00001221A701CF032FF204610BD580300201F
:1089C00048030020F746002038030020F546002029
:1089D0000C4B07B5187030B10B481CF01FFF00207E
:1089E00003B05DF804FB01900849012001AA05F0DD
:1089F0000BFC019810B1132121F035FD04F08CFF20
:108A0000EDE700BFF646002078030020216F040048
:108A10000B4BB1FA81F010B540090C461870FFF706
:108A2000B5FE3C2C0AD1074B1B783BB1064B0748DF
:108A300001221A70BDE810401CF0F0BE10BD00BF4E
:108A4000F9460020F6460020F74600207803002073
:108A500070B503788AB004460E4607AD032B20D8C4
:108A6000DFE803F002191B1D11492846FDF7BCFC85
:108A7000059563780493A3780393E37802932379AD
:108A8000019363790093A3790A4A1E2130461DF0B1
:108A90007DFD0AB070BD0849E7E70849E5E70849E8
:108AA000E3E7084A0A2128461DF070FDE0E700BF11
:108AB000D2130500FB130500D9130500E0130500D0
:108AC000EA130500F413050010B588B021F05BFD32
:108AD0006946FFF7BDFF0024074B20461C70FFF7D7
:108AE00055FE064B1B7823B1054B06481C701CF045
:108AF00095FE08B010BD00BFF9460020F6460020E4
:108B0000F74600207803002070B5204E204B3068D7
:108B1000B2881C781F49B3798AB003AD0390ADF8D1
:108B2000102000202A46AB7108F05CFD3146072278
:108B3000284625F0ADFE184B0646D0B1ACB903204F
:108B40002246214601241C700023CDE90602CDE90E
:108B50000815ADF814308DF8163000931A461946F2
:108B600005A804F0A7FE0AB070BD1320A022F021D2
:108B7000E8E70A4D18700FCD05AC0FC42B682360D1
:108B80000749009633460322EAE700BFFA150500BD
:108B9000F7460020A58B0200F8460020B0EE040046
:108BA0005CF2040038B507220C460649054625F05C
:108BB0006FFE28B12B682360AB88A380AB79A371CB
:108BC00038BD00BFFA15050000487047342B05007A
:108BD00073B5194C194EB442254602D36FF01200FA
:108BE00008E02B689B68043433B9154C2368AB420A
:108BF00011D1002002B070BD9847C0F307238DF853
:108C000004008DF80530C0F30743C0B28DF806307C
:108C10000028E0D0E9E723B11B685B680BB10020B6
:108C200098472B6825605B68002BE2D0012002B0DA
:108C3000BDE87040184700BF342B0500382B0500F5
:108C40007C20002007B5094B01911B68834207D1A6
:108C50009DF8063033B903B05DF804EBFFF7B8BFF9
:108C6000FFF7B6FF002003B05DF804FB7C20002076
:108C700070B5094C094D0A4EAC42234603D3BDE8FA
:108C80007040FFF7A5BF1B68DB680434002BF3D0EE
:108C900030469847F0E700BF342B0500382B05001D
:108CA000458C0200054B1B6823B11B6813B11B6880
:108CB00003B118476FF01200704700BF7C200020FE
:108CC00008B5044801F0BAFD002818BF6FF0150080
:108CD00008BD00BF018D0200084B1B780B2B4FF025
:108CE00001000AD8984010F4CD6F05D110F4016F3F
:108CF0000CBF01200020704702207047D40C0020D8
:108D00000A2808B5024613D00A4B0B491870FFF722
:108D1000E3FF02280AD10B78032A08BF43F00103BE
:108D20000B70BDE8084005481CF078BD0023F7E74C
:108D300008BD00BFD40C0020FA46002088030020A4
:108D40000246110E07EE101ADFED446A9FED446AE9
:108D5000B8EEC77AC2F30742C7EE267A80B23C2348
:108D6000B0FBF3F3DBB286B007EE102AB8EEC77A99
:108D7000062287EE265AB3FBF2F107EE100AB8EE90
:108D8000C77AC7EE066A07EE103AF8EEC75AB1EE98
:108D9000087A56EE875A02FB1133DBB2B7EE006A4F
:108DA000F0EE466A45EE656A013B76EE655A36EEB0
:108DB000457A05EEC56A27EE277A66EEA76A26EEA3
:108DC000276A042B04D8DFE803F0072D323942006C
:108DD000F0EE676AF0EE467A9FED226A66EE866AEA
:108DE00067EE867AFCEEE66A0023FCEEE77A27EE71
:108DF000067ACDED006A184663F307009DF800304F
:108E0000CDED017AFCEEC77A63F30F209DF80430B4
:108E1000CDED027A63F317409DF8083063F31F60CD
:108E200006B07047F0EE476AB0EE467AD4E7B0EE8F
:108E3000666AF0EE476AB0EE677ACBE7F0EE676AF3
:108E4000F0EE477AB0EE667AF0EE466AC4E7B0EE2E
:108E5000666AF0EE676AF0EE477AE5E70000C8421E
:108E60000000B44300007F43024903480A2201F096
:108E7000EBBF00BFA04500202D14050008B5054B31
:108E80001B7A33B100F0EEFABDE80840024924F045
:108E9000E7BF08BDA0450020A8030020084B10B57F
:108EA000B4220021184625F043FB064A0346106809
:108EB0008268146819462D222346BDE810401847E1
:108EC000FB46002080200020F0B585B00C461546FA
:108ED000124903AA1E461FF030F8C8B1039BBBB964
:108EE0000A2C18D10E4F224639463046A847002892
:108EF0000CDB3B7A4BB140F267620023CDE90023E3
:108F00000848002200231DF069FA002005B0F0BDDA
:108F10006FF00100FAE76FF01500F7E7C1120500E6
:108F2000A0450020D80D00200F4B104A13B51A6041
:108F30000F4B104C1A6822600F495A680F481B8962
:108F40002381626024F0A3FF237A4BB140F2676271
:108F50000023CDE900230A48002200231DF03EFA39
:108F6000002002B010BD00BF80200020DCEB040018
:108F700000EF0400A0450020698E0200F8110020D7
:108F8000D80D00202DE9FF476C4C6379032B27D8BF
:108F9000DFE803F002306E9D694E00256427E37818
:108FA000A27821888DF80220C3EB0313ADF80010DE
:108FB0009B00B3FBF7F38DF803300098FFF7C0FE7A
:108FC00006EB850306F82500C0F3072201355A7029
:108FD0002D2DC0F30742C0F307609A70D870DED120
:108FE000584B5749186883681B682D2204B0BDE8A8
:108FF000F0471847524F00264FF00C0A4FF03C093B
:109000004FF06408E588A3788DF80630A5F59663DF
:10901000002B2288ADF80420B8BF5B42B3FBFAF303
:10902000DBB209FB03F3B3FBF8F38DF807300198CB
:10903000FFF786FE07EB860307F82600C0F307223A
:1090400001365A702D2EC0F30742C0F307609A70A4
:10905000D870D7D1237903EB830305EB4305ADB279
:10906000B5F5166F01D8E580BAE70023E380B7E7CE
:10907000334F00264FF06408E378A278E5888DF836
:109080000A20C3EB0313ADF808509B00B3FBF8F3C1
:109090008DF80B300298FFF753FE07EB860307F8B5
:1090A0002600C0F3072201365A702D2EC0F3074266
:1090B000C0F307609A70D870DED123791D44ADB239
:1090C0004FF4B473B5FBF3F203FB1255CBE7DFF8B3
:1090D000708000264FF064094FF4B477E588E37898
:1090E000A1788DF80E1005EBC602C3EB0313B2FB9B
:1090F000F7F007FB1022ADF80C209B00B3FBF9F34F
:109100008DF80F300398FFF71BFE08EB860308F875
:109110002600C0F3072201365A702D2EC0F30742F5
:10912000C0F307609A70D870D8D1237905EB430556
:10913000ADB2B5FBF7F307FB135594E7A04500204C
:10914000FB4600208020002008B54FF4F0120023D9
:1091500002481CF0FFFB00EAE07008BDF811002097
:10916000054B1B6823B1054B1B7A03700020704729
:109170006FF01200704700BF80200020A045002043
:1091800007B50E4B1B689BB10D4B01221A720022D2
:10919000DA8040F267620023CDE90023094800220B
:1091A00000231DF01BF903B05DF804EBFFF7CCBF03
:1091B0006FF0120003B05DF804FB00BF80200020B8
:1091C000A0450020D80D002008B50A4B1B6873B1DC
:1091D00000F048F9084924F043FE084825F02AF831
:1091E000074B00221A72BDE80840FFF7ADBF6FF0D1
:1091F000120008BD8020002098030020D80D002018
:10920000A045002008B5FFF7A9F9C0B1FEF72CFF73
:109210000D4B02461978B0FA80F04009814211D016
:1092200018702AB95B7833B1BDE80840FFF7A8BFD2
:10923000064A127A5A70BDE80840FFF7C5BF6FF0C2
:10924000850008BD0020FCE7D50C0020A0450020CB
:10925000054B5B7904331844434203F0030300F0E9
:10926000030058BF58427047A0450020084B1B68B8
:109270003BB1032808D8074B00225871DA80FFF76A
:1092800063BF6FF0120070476FF01500704700BFAA
:1092900080200020A0450020034B1B7A0BB1FFF774
:1092A00093BFFFF76DBF00BFA045002082B083B21F
:1092B000B3F5B47F01900CD89DF80630642B08D824
:1092C0009DF80730642B04D8034B1860002002B0CF
:1092D00070476FF08500FAE7A04500200C4A13881C
:1092E00000EB800003F5B47303EB40034FF4B4715B
:1092F0009BB2B3FBF1F001FB10339BB2002063F390
:109300000F00538882B063F31F4002B0704700BF64
:10931000A045002013B50C4A9378D1788DF807103A
:109320000A2404FB00306428A8BF6420138820EAC4
:10933000E0708DF80600002063F30F00BDF80630E2
:1093400063F31F4002B010BDA045002013B50C4AC6
:10935000D37891788DF806100A2404FB0030642835
:10936000A8BF6420138820EAE0708DF80700002071
:1093700063F30F00BDF8063063F31F4002B010BD69
:10938000A045002010B5084B1B6853B1FFF7A6FF9E
:10939000064C2080C0F30F406080BDE81040FFF70E
:1093A000D3BE6FF0120010BD80200020A045002029
:1093B00010B5084B1B6853B1FFF7ACFF064C20807B
:1093C000C0F30F406080BDE81040FFF7BDBE6FF0F6
:1093D000120010BD80200020A045002010B5084BD1
:1093E0001B6853B1FFF7B2FF064C2080C0F30F405B
:1093F0006080BDE81040FFF7A7BE6FF0120010BDFF
:1094000080200020A04500200A4B1B686BB10A4A4F
:109410001379012B01D100280ADB0344DBB2052BB1
:1094200028BF05231371FFF78FBE6FF0120070473E
:109430000020704780200020A045002007B5064B83
:109440000093064906480A234FF440721CF0ECF9D9
:10945000002003B05DF804FB7CF20400D84F00202C
:1094600028120020004870472812002010B5094C2F
:109470000A44914200D110BD11F8013B5840030944
:109480000001E35CC0B2434018091B01205CDBB261
:109490005840EEE767140500014B1B68184700BFF2
:1094A000B803002030B585B004460D4610220021D7
:1094B000684625F03DF802238DF802302A46044B19
:1094C0000193214668461DF0F3F805B030BD00BF9A
:1094D0009994020080B505460E46174698461CF042
:1094E00035FD034625F024FADFF81890044649F8C4
:1094F0000030424630463946A84754F8090002F089
:1095000077F900BF080000002DE9F047058B0446FD
:109510002807904611D4022905F0070540F0CD80B8
:1095200020461EF03CF878B10138218B042811D870
:10953000DFE800F0C3106D85950001290CBF45F0F0
:10954000100545F02005258388F31188BFF36F8F40
:10955000BDE8F08701F0070AAA4500F0A6800027C1
:10956000B9463E46A368002B00F0BD8041F00801DB
:10957000218388F31188BFF36F8FA168002900F061
:10958000BB800D68002900F0B780D1F80480334615
:1095900052462046C047002D76D02B6829461D46EE
:1095A000F0E701F007035A1F012A1BD8002221F01F
:1095B0000701062B276889B2C4E9002209D13B467E
:1095C00003E0628B013262831B68002BF9D141F00A
:1095D0000201218320461DF0E2FF00287BD041F0EC
:1095E000200177E0042B0AD121F0070189B2218301
:1095F00020461DF0D4FF10B141F020012183218BC2
:1096000001F0070AAA4550D00027B946AAE7236906
:1096100021F0070141F00601062DD3F800902183C7
:109620002DD1B9F1000F40D041F00801218388F31A
:109630001188BFF36F8F3A492046C84729E021F0CF
:109640000701236941F0040189B2042DD3F8049085
:109650002183E6D000273E464FF0040A82E721F03E
:109660000701236941F0050189B2052DD3F808905F
:109670002183D6D000273E464FF0050A72E7002727
:109680003E464FF0060A6DE72B4687E7B9F1000F1B
:10969000D1D14FF02003EFF3118883F31288BFF389
:1096A0006F8F238B23F008032383258BEA062ED5A7
:1096B00025F01003238305F007056669218B002E32
:1096C000BFF66FAF00232768C4E9003321F007011C
:1096D00041F001012183218B01F0070AAA454FF0D7
:1096E00000097FF43FAF002F9BD041F00801218398
:1096F00088F31188BFF36F8F002FC7D03D683946BC
:109700003346524620461DF076FF2F46F4E7AB065F
:109710007FF51AAF25F02003238305F00705FFE648
:109720002376040008B504464FF02002EFF31183BE
:1097300082F31288BFF36F8F18F074FD204602F099
:10974000F1FA03481DF038FD02F0C2F9FCE700BF52
:109750007714050018F090BD08B54FF4404200237F
:1097600002481CF0C3F8002008BD00BF0000002024
:1097700010B505481BF072FB28B183681B6813B154
:10978000BDE81040184710BD9A12050002484FF47A
:10979000F01200231CF0DEB83000002037B5144C66
:1097A000204624F010F918B9FFF7F0FF03B030BDE0
:1097B000A5682D21EB68204698470028F4D12D217B
:1097C0002B696A46204698470028EDD19DF8004055
:1097D000FEF7D6FF8442E7D02046FEF74BFF01F0AC
:1097E00005FB8442E0D0204601F006FBDCE700BF29
:1097F0000CEC040007B5FEF7D7FEA8B1037A9BB1C5
:1098000000230DF107008DF80730FFF7A9FC58B9C8
:109810009DF8073043B9FFF7D7FC28B904484FF447
:10982000247200231CF096F8002003B05DF804FBBE
:10983000600000204FF0A042044BD2F824170B40E8
:1098400043F00303C2F82437704700BFF0F8FCFF71
:109850002DE9F74F24F0A7FC4FF47A72A0FB020326
:1098600002FB0133C20B42EA43425C4B1B68D21A33
:1098700042F6E063B2FBF3F103FB112258494FF4C7
:10988000B4756A430846B2FBF3F23C2402F1780750
:109890001E26B2FBF5F305FB13239BB2B3FBF4FECC
:1098A00004FB1E339BB206FB03FCC3F13C03734372
:1098B000BCFBF4FCB3FBF4F3BEF1040F46D8DFE8C5
:1098C0000EF00309343B3F005FFA8CFE00234FF09B
:1098D0001E0C04E05FFA83FC4FF01E0E00232832BA
:1098E000BA4280F800C080F801E0837000F1030004
:1098F000CFD13C4C182548F2060848F20D094B78A8
:109900008DF804300B788DF805308B788DF80630A3
:109910000DF1040CA5F118031CF801AB04EB43078F
:109920001A46802603F1080015E05FFA8CF34FF029
:109930001E0E4FF0000CD2E75FFA83FE1E23F8E7FD
:109940005FFA8CFC1E234FF0000EC8E7DBB24FF02D
:10995000000EBCE772461AEA060F02F1010E0CBFB8
:10996000C346CB46864527F802BB4FEA5606F1D1DF
:10997000A84201D00346CFE7402B01F1030103F1D8
:109980002005BCD102324FF4004324F8103024F8F3
:109990001230FFF74FFF1DF055FF134C502024F0FD
:1099A0000DF80023C4F810310123C4F80035A3607A
:1099B000D4F8103173B10023C4F81031C4F8003565
:1099C000FFF738FF1DF03EFF502003B0BDE8F04F19
:1099D00023F0F4BF1CF004FAEAE700BF10130020E4
:1099E000AF470020AA45002000C0014010B5FFF796
:1099F0002FFFBDE81040034840F21F5200231BF028
:109A000075BF00BF9000002038B5FFF713FF1DF0B1
:109A100019FF1E4B00240922C3F80045C3F8602536
:109A20004FF0FF32C3F86425C3F86825C3F86C25EE
:109A30001422C3F80445C3F80C45C3F80825144A9A
:109A4000C3F81445C3F81045C3F820254A22C3F8CB
:109A50002425C3F82845C3F82C4524F0A4FB4FF473
:109A60007A72A0FB020302FB01310A4DC00B40EAEF
:109A70004140C90BC5E90001FFF7EAFE40F21F5261
:109A8000002305481BF032FF204638BD00C00140CE
:109A9000AA45002010130020900000202DE9F74374
:109AA0000F4606460821C06ADFF850901DF05EFFA1
:109AB0003C68241A80463C6004EA0905AC4203D89D
:109AC000002003B0BDE8F08308236A4621463046F3
:109AD0001DF0BFFE0028F4D1694630461DF050FF4E
:109AE00040B1BDF80230BDF804203C6005EA09052C
:109AF00013441D44A4EB0804E0E700BF0000FFFF8F
:109B00002DE9F047044688B000F11407384624F0E8
:109B100039F8A06A8368DB689847E06228B96FF07B
:109B20001505284608B0BDE8F087A06A8368DB68A1
:109B300098470368013B1F2BF1D8A06A216805AA4A
:109B400022F06DFF0028EAD1A589002DE7D0069B01
:109B5000B5FBF3F203FB1255002DE0D1E389012B95
:109B6000DDD9E36A009593F804904FF0FF334FF08E
:109B7000FF3238461BF066FCE06A08211DF0F6FE55
:109B8000A8460646E3891FFA85FA534508D8E389B3
:109B9000434523D138461BF0CFFC6FF02C05C0E7BE
:109BA000A1892B04891B13FA81F14A460823204618
:109BB00000911DF09CFE78B1694620461DF057FECD
:109BC00008F10108009908234A4620461FFA88F840
:109BD0001DF08DFE0028DAD00135D3E753450BD1B7
:109BE000009908234A46891B20461DF080FE18B9BB
:109BF000694620461DF03BFE69462046FFF74EFFB2
:109C0000054618B138461BF097FC8AE7009B636055
:109C10004FEA13484FEA0848C4F80880D4E9011312
:109C200099420FD3082301AA20461DF012FE0546D3
:109C30000028E7D101AB13F8012B914533D1013551
:109C4000082DF8D163681B0C1B046946204600935D
:109C50001DF00DFEA38900994A4620461DF047FEDF
:109C6000051ECFDB636876D006EB03084FF6FF795D
:109C7000A389CDF800801FFA88F29B1B9A422ED34D
:109C800000236168002B43D0090C09040091204691
:109C900069461DF0ECFD009920461DF04DFE05467D
:109CA000002D74D0AEE701A920461DF069FE626860
:109CB00010B9921B6260B1E7BDF80850BDF80610FC
:109CC000E06AC4F8088029441DF050FE40449042E8
:109CD000A060EED1002DECD06FF01C0568E00823E9
:109CE00003AA414620461DF0B4FD0546002889D14F
:109CF00003A920461DF044FE30B1BDF80C304B45A1
:109D000002D1BDF810300BB1B044B1E70123B8E780
:109D100020461DF011FE054600287FF473AF6368EE
:109D2000264AA18913400B44A3EB4603636013400A
:109D3000A36020461DF008FFB1E75B1A4A462046A3
:109D40001DF0D5FD051EFFF65DAF08D0E26AA368E1
:109D500012681344A360D4E901318B42EDD86168E5
:109D6000A38901EB46029A429AD1DFF85080A2689B
:109D700001EA08039A4293D020461DF0DDFD054616
:109D800000287FF43FAF636803EA0803A360A38958
:109D9000A288A3EB46039A4206D038461BF0CCFBC0
:109DA000012323740025BCE620461DF0B6FE0546BF
:109DB00038461BF0C1FB002DF2D0B2E60000FFFFD9
:109DC0002DE9F04F1D46037C89B004468946904634
:109DD000002B00F0BE80C26A082110461DF0C6FDAF
:109DE0002946824610461DF0C1FDA389A3EB8A03D4
:109DF0009D42074600F2B0801DB1B8F1000F00F09F
:109E0000AB806368039304AA03A92046DDF80CB075
:109E10001DF0EEFD0646002864D1BDF810304B451C
:109E200005D06268039B9A42EDD1E5B95AE004A9D6
:109E300020461DF0A5FD0028F3D0BDF81200BDF8A6
:109E4000143075B19D420ED14FEA1B410904014403
:109E50002B46424620461DF017FD002803DC06462F
:109E600040E0002B3ED0002F40D104F114030193B9
:109E70004FF0FF320198DFF8E8B04FF0FF331BF0EE
:109E8000E1FAE3899E4261D0D4E90123F9188A42BC
:109E90002FD3ADF81A3006A8FF238DF81E30ADF889
:109EA0001890ADF81C501DF019FDA1682B464246D4
:109EB00020461DF0E7FD29468246E06A1DF056FD6A
:109EC000A2680244A260BAF1000F07D106A9204699
:109ED0001DF012FE002814BF8246AA4601981BF00E
:109EE0002BFB5646304609B0BDE8F08F5744BFB251
:109EF000BBE7E06A08211DF039FD4FF6FF73ADF8AE
:109F0000183000218DF81E30A389ADF81C101118EF
:109F100002EA0B021A44101A606006A8ADF81A1083
:109F20001DF0DCFC06A920461DF0E6FD211D2046A3
:109F30001DF09DFC636803EA0B03A36020461DF03F
:109F400003FE82460028C9D101369AE76FF01B0A4A
:109F5000C4E76FF00C06C5E76FF01506C2E700BF57
:109F60000000FFFF014B03600020704788F20400EF
:109F700070B5446903460D46002C3AD01DF066FFCB
:109F8000002839D12148227A465CB24237D0204895
:109F9000405C904236D1E26818469047002815DAB6
:109FA000022D11D0032D10D110F1860F0CD0BFF36C
:109FB0005B8F231D53E8001F41F0020143E80012AC
:109FC000002AF7D1BFF35B8F267270BD022D267277
:109FD00001D00020F9E70434BFF35B8F54E8003F61
:109FE00023F0020344E80032002AF7D1BFF35B8F6D
:109FF000EFE76FF05700E8E74FF0FF30E5E76FF06D
:10A000007700E2E76FF08500DFE700BFA4140500EA
:10A01000A014050070B5114B1C680D46DCB1104B47
:10A02000196800238B4202DB6FF0010070BD2246ED
:10A0300012F8106B864202D001331446F2E7E06852
:10A0400010B96FF01200F1E723F0BDFC0028F8D042
:10A050002C600020EAE76FF00C00E7E7BC0300206B
:10A0600088F2040070B588B005460C46C0B2694657
:10A070001646FFF7CFFF00281BDB0098C8B14368E6
:10A080000293836822680195CDE903360023CDE968
:10A0900006230593C5681DF0E3FE6DB12846084907
:10A0A00001AA22F0C0FC079808B9059B236008B0FC
:10A0B00070BD6FF01500FAE76FF01200F7E700BF10
:10A0C000637E0400F0B40C4B0C4E5F6A0C4BB34241
:10A0D00003D36FF08500F0BC70475D68BD4209D3C3
:10A0E0001C693CB195F802C00579AC4502D1234604
:10A0F000F0BC18472433EAE784200020DB1000205E
:10A10000DB1000202DE9F047134CDFF85080DFF81A
:10A11000509005460E461746444503D36FF0850020
:10A12000BDE8F0876268D9F824309A4212D3A36957
:10A1300083B190782979884205D13A46314628463C
:10A14000BDE8F04718475279012A03D13A46314613
:10A15000284698472434DFE7DB100020DB1000207E
:10A16000842000202DE9F0410B4CDFF830800546BB
:10A170000E461746444502D36FF0850009E0636937
:10A180000BB92434F6E73A4631462846984700286A
:10A19000F7D1BDE8F08100BFDB100020DB1000200C
:10A1A00010B5044622F018FB10F1780F00D050B91A
:10A1B000054A20461DF077FED2F8C43023EA00039A
:10A1C000C2F8C430002010BD84200020024B0022C1
:10A1D0001A605A60704700BF3F21002070B50B4BDA
:10A1E0000B4CA34201D3002070BD196A1E7F0022D0
:10A1F0000439D5B2AE4201D82433F2E7013211F866
:10A2000032508542F5D10120EEE700BFDB1000207F
:10A21000DB10002008B509480378C3F341130A3363
:10A2200050F823303BB100F1080200F110019847CB
:10A23000C043C00F08BD1846FCE700BF84200020C3
:10A2400004282DE9F14FDFF8A09004460F4616D000
:10A2500001282DD1DFF88C8098F8B93043B300F095
:10A2600065FD1F4D4D4520D2D5F820B04FF0000AB6
:10A270002B7F5FFA8AF6B34204D82435F2E7FFF762
:10A28000A5FFE7E70BEBC6060AF1010A307922F0D9
:10A29000A3FA024630791DF006FED8F8C430002A31
:10A2A00023EA0003C8F8C430E2DA002388F8B930A2
:10A2B0000B4D4D4508D30B4B1B6A6BB139462046FD
:10A2C00001B0BDE8F04F1847EB681BB13A46214694
:10A2D000284698472435ECE701B0BDE8F08F00BF71
:10A2E000DB10002084200020DB10002073B5C4B2F6
:10A2F00063060D468DF8074007D02046FFF76EFF36
:10A3000078B10D4B93F8BA0058B10B4E204655B1B9
:10A3100016F0D0F8F3691BB10DF10701082098473A
:10A32000012002B070BD16F0EDF8F369002BF7D0F4
:10A330000DF107010920F2E78420002073B586782B
:10A340008DF80060037942791C4C43EA0223ADF892
:10A350000230C378304603F003038DF804301DF05B
:10A36000A2FDD4F8C430184205460BD0304600F0A8
:10A37000BFFC3046FFF714FF23F0E5FB10B9962031
:10A380001BF0CAFD684616F071F810F1780F03D083
:10A3900010B1002002B070BD9DF8000016F0EEF87C
:10A3A00010F1780F01D00028F3D1D4F8C430012087
:10A3B0002B4384F8B900C4F8C430EBE784200020B4
:10A3C0002DE9F047A34EB36904460F461546FBB985
:10A3D000237803F01F03012B00F09D80022B00F077
:10A3E000048133BB94F900002A686178002834DACC
:10A3F000062912D008292BD0D9B901231370517026
:10A4000096F8C3305B0043F00103137002232AE186
:10A4100098470028DCD100200DE06288100A011F57
:10A420000129844605D9072803D8716AD2B20C786D
:10A430001CB96FF01500BDE8F0874E78664503D172
:10A440009A4200F00B8101332144F0E70B780AE1D6
:10A4500096F8BA301370012305E101390829E8D8CC
:10A4600001A353F821F000BF01A5020033A40200AC
:10A470000FA5020033A402008DA4020033A4020041
:10A4800033A4020033A4020099A40200A07815F0BE
:10A49000DBFF0028BFD0CCE76388756A63BBFFF79A
:10A4A00095FE638886F8BA30F369002BB3D06A4909
:10A4B00003209847AFE76B78042B10D0052B11D001
:10A4C000022B04D16F796388BB4208BF01202B782F
:10A4D0001D442B78002BEED10028AAD0DFE795F899
:10A4E0000380F4E76388BB42F1D1B8F1000FEED1ED
:10A4F0002846FFF723FFEAE7FF270020B846E8E7F2
:10A500006388012B95D1002386F8C33083E76388E5
:10A51000012B8ED1F8E796F8BA30D5F800C0002BA1
:10A5200087D0756AA38894F804E02A46107800283A
:10A530003FF47FAF5178022904D192F80480F045AE
:10A5400000F293800244F1E78CF800208CF801209F
:10A55000396060E7154494E00B2A7FF46AAF002766
:10A560004FF0FF08C146BA4606E06B78042B0FD0C7
:10A57000052B21D02B781D442B78002BF5D1F369C6
:10A5800013B1514607209847002F7FF444AF50E79E
:10A5900095F80280A38895F803909845EAD16388DE
:10A5A0009945E7D1B8F1070F1CD806EB0803AA4676
:10A5B00083F8BB900127DDE7A3884345DAD1A37870
:10A5C0004B450AD0AF78384600F092FB3846FFF78B
:10A5D000E7FDB0FA80F77F09CCE72846FFF7AEFE2B
:10A5E0000746C7E7AA460027C4E794F90020637826
:10A5F000002A18DA002B7FF41CAF24792D6863063B
:10A600000AD02046FFF7EAFD00283FF412AF96F883
:10A61000BA30002B3FF40DAF2946204615F092FFCB
:10A6200000236B70F2E6012B08D0032B7FF401AFFF
:10A630006388002B7FF4FDAE012103E061880029CF
:10A640007FF4F7AEA088FFF751FE00287FF4E3AE59
:10A65000EFE600BF842000203E2100200228296070
:10A660007FF4F4AE4B883B60D5E694F90000627845
:10A670000028BFF671AF002A3FF466AF0A2A7FF4C4
:10A68000D8AE2A78002A3FF4D4AE697804297FF442
:10A6900061AFA9788B427FF45DAF072B96BF9B1902
:10A6A000002393F8BB308CF80030D4E613B5164C79
:10A6B000237DF3B9E268A168019201AB80201DF00F
:10A6C00000FC019AA3681344A360E3689B1AE3604B
:10A6D0006BB962B12369E2889A4208DD94F8C82018
:10A6E00093FBF2F102FB11330BB90123237502B086
:10A6F00010BD00231A4619468020237502B0BDE81C
:10A70000104015F065BF00BF8420002030B585B033
:10A71000002302460D460193002858D1002935D167
:10A7200008220B460DEB020122F06FF8002804DA34
:10A73000802015F0BFFE05B030BD2A4C029A226081
:10A74000039A626004F13802A2609DF90820BDF806
:10A750000E302575002AC4E903550ADB802B04D985
:10A76000802015F0A7FE0020E3E713B1C4E903330E
:10A77000E1E7FFF74FFD0028DAD0E28823699A422B
:10A78000D4BFE260E360FFF791FFD4E7154CD4E952
:10A790000215002D01AB04DC22F037F80028CADADC
:10A7A000C6E72A4622F031F80028D9DB019AA368CF
:10A7B0001344A360E3689B1AE360002BBBD104F150
:10A7C0003803A360FFF726FD0028DCD1B0E780281E
:10A7D000B1D1044BDA68002AD5D11B7D002BD2D130
:10A7E000A9E700BF84200020054B064A9A62064A6A
:10A7F000DA62064A1A63064A58629A610020704774
:10A8000084200020C1A30200C5A0020065A10200AF
:10A8100005A1020010B5084B93F8B84034B900F018
:10A82000E3F830B1FFF7E0FF204610BD6FF077008E
:10A83000FBE74FF0FF30F8E7842000202DE9F341DB
:10A84000414D04466F6A41484FF0FF324FF0FF33ED
:10A850001AF0F8FD95F8B860002E6ED13C482C62D5
:10A86000E86115F0CFFF15F0BDFD041E49DB00F0D7
:10A8700081FA041E45DB7B78012B61D1FB79002B2B
:10A880005ED0684685F8C830ADF802308DF80460B7
:10A890008DF8006015F0EAFD041E32DB8027684663
:10A8A0008DF8007015F0E2FD041E2ADB29493046C0
:10A8B00015F094FF041E24DB2649384615F08EFF60
:10A8C000041E1EDB244CDFF89480444520D3002076
:10A8D00015F054FE041E14DBD5F8C430802043F07C
:10A8E0000103C5F8C43015F049FE041E09DBD5F894
:10A8F000C43043F48033C5F8C430012385F8B83040
:10A90000002412481AF018FE204602B0BDE8F0817B
:10A91000276A0026227FF3B29A4201D82434D4E772
:10A9200007EBC30257F83310107915F057FF0136C3
:10A930000028EFD04FF0FF34E3E76FF07704E0E753
:10A940006FF01504DDE700BF84200020940E002086
:10A9500041A202000DA70200DB100020DB10002046
:10A9600030B51F4B8BB005AA03F110051868596864
:10A97000144603C40833AB422246F7D11B78237038
:10A980001022002101A823F0D3FD12220021154836
:10A9900023F0CEFD102101A822F0C6F800281BDD0F
:10A9A0000828B8BF0820093801AB0E491A18002042
:10A9B00012F8013F0AAC04EB131403F00F03283321
:10A9C0006B44013014F8144C13F8143C0C70082834
:10A9D0004B7001F10201EBD102480BB030BD00BF5A
:10A9E000A8140500B84700202DE9F04F704C87B03F
:10A9F0004FF0000B00264FF0011AB0463546B14625
:10AA000023782BB96B4B02349C42F3D1684833E076
:10AA10006378052B1BD8DFE803F09003C8901D3B3B
:10AA2000402304A88DF810B0ADF812308DF814B0A2
:10AA300021F0BDFE40B1082304A8ADF8123021F08A
:10AA4000B6FE08B1ADF812B0BDF81230E37123784C
:10AA50001C44D5E7E378002BF9D1A3787BB108F14A
:10AA600001085FFA88F8F2E76B689C4209D0243548
:10AA7000514B9D42F8D3002007B0BDE8F08F4F4DF9
:10AA8000F6E7AB68002BEAD0414620469847E6E758
:10AA9000002DF0D000222B7F9A42ECD2296AA078B8
:10AAA00001EBC2010B79984201D00132F3E7012793
:10AAB000E07800F003008DF81400207994F805C0C8
:10AAC00040EA0C20ADF8120094F902000028FBB215
:10AAD00028DA07F110004FF0010C0CFA00F010EA30
:10AAE0000A0F26D143F080008DF8100004A8CDE9AC
:10AAF0000213019221F05BFEDDE90121039BC0B945
:10AB00009DF81020A27012F0800F18BF10330A7148
:10AB100018BFDBB24FF0010214BF9A40BA404AEAB4
:10AB2000020A94E70120B84010EA0A0F01D1184642
:10AB3000DAE70137102FBBD1B7E7032E1DD1FFF79E
:10AB40000FFF074668B1FBF757FC102809D13846BC
:10AB5000A31C07F1100250F8041B43F8041B904299
:10AB6000F9D123786FF00201E218091B04EB5303BB
:10AB7000D14213D50136F6B269E7002EF1D1B9F111
:10AB8000000F3FF478AFA4EB090389F80230C3F358
:10AB9000072389F8033089F80480EBE702F801BC49
:10ABA00013F8010902F8020DE2E7A1464FE700BFE2
:10ABB00070100020DB100020DB100020DB100020D4
:10ABC00010B5094B00211A461C78844205D15C68F7
:10ABD0001CB1482303FB012010BD0131042903F1FE
:10ABE0004803F1D10020F7E7502100202DE9F3417F
:10ABF00050F8303C10F8346C1033044610D103691F
:10AC000050F8282C990739D5EAB913F0040304D178
:10AC10001A46194630461DF054F9002344F8303CDA
:10AC200054F8303C10330BD054E9097554F81C8C9F
:10AC300022F089FF00284CD02C48214623F010F93F
:10AC400002B0BDE8F08150F82C1C01AB30461DF07D
:10AC500038F910B16FF01503E0E7019A54F82C3C75
:10AC6000134444F82C3C54F8283C9B1A44F8283CE4
:10AC700054F8243C134444F8243CD1E750F82C1CED
:10AC800001AB304615F020FD0028E3D1019D54F8BA
:10AC90002C3C2B4444F82C3C54F8283C5B1B44F8D7
:10ACA000283C54F8243C2B4444F8243C002DB4D0D8
:10ACB000304615F0ADFDB5FBF0F303FB1055002D4C
:10ACC000ABD154F8283C002BA7D0304615F044FDFA
:10ACD000A6E744F8200CA4F118001AF09DFC002D02
:10ACE000AED0424639463046A847A9E7001E0020AC
:10ACF00010B54FF02003EFF3118483F31288BFF3F4
:10AD00006F8FFFF75DFF50B14368103307D16FF0CD
:10AD10008B03436000F13401034823F0A1F884F36E
:10AD20001188BFF36F8F10BD001E002070B50F4C4F
:10AD300004254FF02003EFF3118683F31288BFF34D
:10AD40006F8F6368103307D16FF08B03084863601F
:10AD500004F1340123F084F886F31188BFF36F8F78
:10AD6000013D04F14804E4D170BD00BF5021002032
:10AD7000001E002070B50A4C0A4E002531462046C0
:10AD800023F041F80122A4F118001146013522F008
:10AD9000B7FF042D04F14804F0D1002070BD00BFBE
:10ADA00084210020EDAB02001FB507240294044C5F
:10ADB0000194BDF81840009420F0FBFC04B010BDD5
:10ADC000D70C002010B5084C86B024788DF81740B9
:10ADD000012402940DF117040194BDF82040009461
:10ADE00020F0E7FC06B010BDDE0C0020014B187807
:10ADF000704700BFDE0C002000B589B064288DF8D4
:10AE0000070019D80E4B18221870002102A823F051
:10AE10008FFB0C4B03930DF10703049302A901234D
:10AE20000020ADF8143005F017FB10F1800F08BFBB
:10AE3000002009B05DF804FB6FF01500F9E700BFD2
:10AE4000DE0C00206CF304002DE9F0410F4B1C6870
:10AE500005460E461746ACB14FF0FF324FF0FF33B8
:10AE60000B481AF0EFFA63683246D3F80880294697
:10AE70003B462046C047044605481AF05DFB204685
:10AE8000BDE8F0816FF00104F9E700BF70220020F7
:10AE9000800E002000230360044B5A6812B9C3E9F6
:10AEA0000000704710605860704700BF7422002097
:10AEB000014B1860704700BF7022002030B585B08C
:10AEC00000230546CDE9023301904FF0FF330C48D3
:10AED0004FF0FF321AF0B6FA0A4B1C684CB92846FC
:10AEE00000F0CEF8044606481AF026FB204605B0CE
:10AEF00030BD636820461B6801A998472468EDE7C8
:10AF0000800E0020742200201FB5CDE901010392BC
:10AF10004FF0FF330A484FF0FF321AF093FA094B13
:10AF20001C682CB906481AF007FB204604B010BD77
:10AF3000636820461B6801A998472468F1E700BFB1
:10AF4000800E002074220020024B0022C3E9002260
:10AF5000704700BF74220020024B0022C3E9002288
:10AF6000FFF7F2BF7C22002070B51B4C1B4E05463C
:10AF7000B44212D31A4E1B484FF0FF324FF0FF334A
:10AF80001AF060FA34687CB1286854F8141C143C38
:10AF9000FBF720FAC8B16469F5E721682868FBF778
:10AFA00019FAA8B11434E3E700226A61726805F166
:10AFB00014033AB9C6E9003300240A481AF0BCFA6F
:10AFC000204670BD13607360F6E76FF01004F4E77D
:10AFD0006FF01004F4E700BFF0ED0400A4EE0400ED
:10AFE0007C220020800E00202DE9F74307460C4606
:10AFF00009B100230B601F4DDFF8809000264D45FE
:10B000000FD31D4B1D6885B355F8148C01AA41461A
:10B010003846143D1CF091FF10B3D6B914BB2E4630
:10B020001EE0D5F8008001AA414638461CF085FF95
:10B0300050B116B954B92E4606E031680022404698
:10B040001CF07BFF0028F5D11435D8E7019B236065
:10B05000F1E73168002240461CF06FFF0028DDD187
:10B060006D69D0E7019B2360D9E7304603B0BDE8A6
:10B07000F08300BFF0ED04007C220020A4EE040069
:10B08000F8B5184C184F06460025BC4208D3174B9C
:10B090001C682CB3143CB6B9E368E3B96469F8E7FB
:10B0A0002EB9E3685BB9284614340546EDE72068FD
:10B0B000002231461CF041FF0028F2D1F3E7984707
:10B0C000002DF0D1F0E72068002231461CF035FF5A
:10B0D0000028E1D1E2E79847002D08BF0546DDE7EB
:10B0E0002846F8BDF0ED0400A4EE04007C22002008
:10B0F00038B50C4D0C484FF0FF334FF0FF321AF0CB
:10B10000A1F92B783BB9FFF727FF00F06DF8044653
:10B1100010B901232B70002403481AF00DFA2046C1
:10B1200038BD00BFCA470020800E00202DE9F0473F
:10B13000048FDFF8B0A0013498B080468946A4B2ED
:10B1400000F10806651EADB2B5F5004F47D04A23A1
:10B1500005AA294630461CF028FE04F57F543F34EA
:10B16000A4B20746214601230DF10B0230461CF024
:10B170001CFE002F014603DC002803DC2C46E1E71F
:10B18000002816DCB8F83830AB4209D142466B1EB5
:10B1900022F8383F4FF4004102233046FEF710FEFC
:10B1A000294630461CF09DFD214630461CF099FD95
:10B1B000E4E707F160030DEB0307002307F84C3CBD
:10B1C0005246CDF8009003AB05A80396ADF81040A9
:10B1D0001CF0E9FE0028D1D018B0BDE8F0870020AF
:10B1E000FAE700BF158004007FB5012369460220FD
:10B1F0000193FEF70FFF044660BB02AA01A90220DB
:10B20000FEF730FF044610B110F10C0F22D1039964
:10B21000B1F5803F23D2009A002394681846084471
:10B2200084421AD30133082BF9D10E4DA982EB8247
:10B230005368AB602846D368EB631CF085FF044677
:10B2400040B9094E6E602846FFF724FE28466E601E
:10B25000FFF72EFE204604B070BD9BB2E5E76FF00D
:10B260002004F7E784220020F8030020014B18682F
:10B27000704700BF0C040020F0B5082289B01DF013
:10B280003BF9CB6A03930B6B04934B6B05938B6B6E
:10B290000693CB6B079313466A460C460646002777
:10B2A00011461046CDE9017700971DF034F831467C
:10B2B000054630461DF02FF8216B0391616B049118
:10B2C000A16B0591E16B0544CDE9061710461146C7
:10B2D0001DF021F83146054430461DF01CF80544A8
:10B2E000206A0090606A0190A06A0290A06B0690AC
:10B2F000E06B07903046CDE9047703971DF00BF81B
:10B300000544606A0090A06A0190E06A0290A06B18
:10B31000D4F834C00490E06BCDF80CC0CDE9050C36
:10B32000206A079030461CF0F6FF0544E06A009062
:10B33000206B0190606B0290206A0690A06A0790D3
:10B340003046CDE9047703971DF009F9236B00938C
:10B35000636B0193A36B0293E36B0393636A06939E
:10B36000E36A07932D1A082330461DF0F8F8636B43
:10B370000093A36B0193E36B0293236A0393636AC5
:10B380000493A36ACDE90537236B07932D1A08238D
:10B3900030461DF0E4F8A36B0093E36BCDE9013771
:10B3A000636A0393A36A0493E36A0593636B079349
:10B3B0002D1A082330461DF0D2F82D1A10D40D4C4A
:10B3C00035B90822314620461DF0A2F801280FD0D9
:10B3D00008232246314630461DF0C1F82D1AEFE70A
:10B3E000044A0823314630461CF095FF2D18F8D446
:10B3F00009B0F0BDC0F304000449431E0F3013F838
:10B40000012F8A5C1A708342F9D17047CD14050070
:10B41000F0B5264E07460C460FCE8DB001AD0FC5D8
:10B420000FCE0FC596E8070085E807003846002FC5
:10B4300038D0002C38D0381F2146024610344B78C3
:10B440000D781B0443EA0563CD782B438D780431D6
:10B4500043EA05238C4242F8043FF0D1144C042106
:10B460008A07036916D1C3F30742A55C1A0EA25CD2
:10B4700042EA0562C3F30725DBB2655DE35C42EA9D
:10B48000054242EA032221F0030330336B4453F8B0
:10B490002C3C534050F8042F013153402C290361B8
:10B4A000DED101200DB0F0BD2046FBE7C4EE040064
:10B4B000CD14050030BFFFF7FDBF00BF114B124A8E
:10B4C0002DE9F041D518DFF84C80013DB5FBF3F5CF
:10B4D0005D430E4B08EB0304013CB4FBF3F403FBA8
:10B4E00004540E1B07460A49304623F013F870191E
:10B4F00042460021083E23F01BF87E6704F1080055
:10B50000BDE8F08101000000000000000400000020
:10B51000A4EE040008000000044B99689869884272
:10B5200003D003494FF080520A6070476045002005
:10B5300004ED00E0134B9A6A12F0007F9A6A14BF80
:10B540001E201D2012F0807F9A6A18BF1F2012F45F
:10B55000002F9A6A18BF212012F4802F9A6A18BF10
:10B56000222012F4003F9A6A18BF232012F4803F71
:10B570009A6A6FEA02426FEA12429A6218BF242066
:10B58000704700BF00ED00E010B5194B0246986A05
:10B590009C6A10F4805F14BF1720162014F4006F0B
:10B5A0009C6A18BF1820A40509D5986B986A0004F6
:10B5B00004D51AB19A6A22F400429A6219200C4BFF
:10B5C0009A6A12F4806F9A6A18BF1A20D2050CD4B6
:10B5D0009B6A13F4005F18BF1C20054A936A43F46A
:10B5E0007F43936200230B7010BD1B20F5E700BF63
:10B5F00000ED00E010B51C4B0246986A9C6A10F002
:10B60000100F14BF1120102014F0080F9C6A18BFEF
:10B610001220A40709D5586B986A000604D51AB100
:10B620009A6A22F080029A6213200F4B9A6A12F0F3
:10B63000010F9A6A18BF142012F0200F9A6A18BFDF
:10B640001520D40658BF9B6A074B9A6A920642BFE0
:10B650005A6A22F400525A629A6A42F0FF029A62CF
:10B6600000230B7010BD00BF00ED00E070B5444B2F
:10B670005B689CB00646C3F30803002585F3118878
:10B68000BFF36F8F02F07F40B0F17F4F11D102F016
:10B690000C0008280DD010074CBF0E4601250022D3
:10B6A000033B8DF80720032B05D8DFE803F01E5C71
:10B6B00060592E46F3E700249DF807309BB96822B5
:10B6C000314602A822F026FF099B002D53D0C3F378
:10B6D000080222B96FEA53236FEA4323099302A9B0
:10B6E00020461DF063FE1CB070BD254BDA6A910741
:10B6F000E1D4DA6A002ADEDBDA6A5200DBD55A6965
:10B70000B16942F480725A61BFF34F8FBFF36F8FFC
:10B710005A6931F8021C22F480725A61BFF34F8FCC
:10B72000BFF36F8F4DF60272914209D09A6AD2B27E
:10B7300042B10DF107010120FFF75CFF0446BBE7B2
:10B740003468B9E79A6A12F47F4F05D00DF107010A
:10B750000120FFF719FFF1E79B6AB3F5803FAAD3F9
:10B76000FFF7E8FEEAE70DF107010020E4E70DF13D
:10B7700007010020EDE723F4FF7323F00103ADE799
:10B7800000ED00E0024A536943F010035361704733
:10B7900000ED00E0EFF30880EFF3098101B5724698
:10B7A000FFF764FF01BD00BF044800232021C21839
:10B7B0000133302B82F80013F9D1704700E100E02B
:10B7C000FDF7C8FF202080F3118808484FF400617E
:10B7D000401880F30988EFF314800221084380F3B6
:10B7E0001488BFF36F8F00F0D5F80000F0690020D7
:10B7F000084B9B6883420BD1EFF3058343B1064BA3
:10B800005A6842F080525A605A6A22F400425A62E0
:10B810001AF0A2BB6045002000ED00E0094A0A4989
:10B8200093680968D967094998674B6843F0805362
:10B830004B60002383F31188BFF36F8F9368D86F39
:10B84000704700BF60450020640D050000ED00E07A
:10B8500021498A6882F8C1E04FF030001044EFF3CC
:10B86000098C80E8F01F1EF0100F03D102F1800058
:10B8700080EC108A202080F31288BFF36F8F174F5F
:10B880004FF000668A698A603E604FF074041419B4
:10B890002068134C206092F9C1E0906F00239367F9
:10B8A00080F311881EF0100F03D00023E1EE103A50
:10B8B00003E002F1800090EC108AEFF3148323F090
:10B8C000040383F31488BFF36F8F02F1300090E814
:10B8D000F01F8CF3098870476045002004ED00E0FC
:10B8E000C42200201EF0040F0CBFEFF30880EFF31A
:10B8F0000980816911F8021C0229FFD001B51DF0F1
:10B9000057FD01BD40B2002807DB044A410901236D
:10B9100000F01F00834042F82130704700E100E052
:10B9200040B200280CDB4309064900F01F00203319
:10B930000122824041F82320BFF34F8FBFF36F8F66
:10B94000704700BF00E100E0054B420900F01F0016
:10B9500053F82220012303FA00F01040704700BF83
:10B9600000E100E040B20028A8BF00F1604001F112
:10B970000101B8BF064B4FEA4111ACBF00F5614071
:10B9800000F00F00C9B2B4BF195480F8001370471B
:10B9900014ED00E0144A08B5144B22F07F029A60BF
:10B9A000BFF34F8FBFF36F8FD3F8882022F470025C
:10B9B000C3F88820D3F8882042F4A002C3F8882076
:10B9C0004FF04042C3F83422BFF34F8FBFF36F8F65
:10B9D0000023E1EE103A19F0C1FA1AF033FBFFF739
:10B9E000E3FE19F009FB00BF0060020000ED00E07B
:10B9F00042F8203C009B42F81C3C019B42F8183C5A
:10BA00000A49029B42F8143C4FF0807342F8043C10
:10BA100021F00101002342F8081C203A83674FF40B
:10BA20007D430265C0F8C030704700BFD594020066
:10BA3000114B9B6883421BD1EFF30580C0B94FF0D7
:10BA40002002EFF3118182F31288BFF36F8F1A7B0C
:10BA500022F002021A73EFF3148323F0040383F33A
:10BA60001488BFF36F8F81F31188BFF36F8F704716
:10BA70006FF01500704700BF604500200023E1EE25
:10BA8000103AEFF3148323F0040383F31488BFF315
:10BA90006F8FBFF36F8F094B9860094B406F186031
:10BAA000104681F30988002163B681F31188BFF342
:10BAB0006F8F00220023FDF70DFD00BF60450020C1
:10BAC000C4220020014910220A60704710ED00E0F6
:10BAD00072B6404080F31188BFF36F8FBFF34F8F72
