:020000022000DC
:106000005876002059B50200439104002DB50200D6
:106010002DB502002DB502002DB5020000000000D4
:106020000000000000000000000000007DB602003B
:106030002DB5020000000000E9B502002DB50200F8
:106040009DB8020059CC03009DB802009DB8020023
:106050009DB802009DB802009DB802009DB80200E4
:106060009DB802009DB802009DB802009DB80200D4
:106070009DB802009DB802009DB802009DB80200C4
:106080009DB802009DB802009DB802009DB80200B4
:106090009DB802009DB802009DB802009DB80200A4
:1060A0009DB802009DB802009DB802009DB8020094
:1060B0009DB802009DB802009DB802009DB8020084
:1060C0009DB802009DB802009DB802009DB8020074
:1060D0009DB802009DB802009DB802009DB8020064
:1060E0009DB802009DB802009DB802009DB8020054
:1060F0009DB802009DB802009DB802009DB8020044
:1061000053B94AB9002908BF00281CBF4FF0FF311E
:106110004FF0FF3000F00CB8ADF1080C6DE904CE83
:1061200000F008F8DDF804E0DDE9022304B0704770
:10613000704700BF2DE9F04786468C460846089E0A
:10614000154674461946002B40F0C2808542B2FACB
:1061500082F245D94AB1C2F1200300FA02FC2EFABC
:1061600003F3954043EA0C0C94404FEA154EA8B255
:10617000BCFBFEF8230C0EFB18CC08FB00F943EA2D
:106180000C43994528D9EB1808F1FF3704D29945FB
:1061900002D9A8F102072B44A3EB0903A4B2B3FB75
:1061A000FEFC0EFB1C330CFB00F044EA0344A0424F
:1061B00014D92C190CF1FF3304D2A04202D9ACF14E
:1061C00002032C44241A43EA07401EB1D4400023A2
:1061D00034607360BDE8F0874746DDE76346F1E76A
:1061E00092BB431B01214FEA154EAFB2B3FBFEFC3D
:1061F000200C0EFB1C330CFB07F840EA03439845C8
:1062000062D9EB180CF1FF3004D2984502D9ACF1F9
:1062100002002B44A3EB0803A4B2B3FBFEFC0EFB6D
:106220001C330CFB07F744EA0344A7424ED92C1950
:106230000CF1FF3304D2A74202D9ACF102032C4483
:10624000E41B43EA0040C0E7C2F1200320FA03F157
:10625000954090402EFA03F303434FEA154EAFB238
:10626000B1FBFEFC0EFB1C10190C0CFB07F841EAFD
:106270000041884504FA02F422D969180CF1FF3074
:1062800004D2884502D9ACF102002944A1EB0801EF
:106290009BB2B1FBFEFC0EFB1C110CFB07F743EAA3
:1062A00001439F420ED9EB180CF1FF3104D29F42FB
:1062B00002D9ACF102012B44DB1B41EA004192E719
:1062C0006046E3E76146F7E76046A3E76346B7E762
:1062D000834206D916B9002108467BE7C6E900E0EB
:1062E000F9E7B3FA83F78FB9834201D3724508D82F
:1062F000BEEB020460EB030301209C461EB90021A3
:1063000068E73846FAE7C6E9004CF8E7C7F1200C21
:10631000BB4022FA0CF41C432EFA0CF120FA0CF3C9
:10632000B84001434FEA14490EFA07F5B3FBF9F8F8
:106330001FFA84FE09FB18300B0C08FB0EFA43EA27
:1063400000439A4502FA07F240D9E31808F1FF30FA
:1063500004D29A4502D9A8F102002344A3EB0A0310
:1063600089B2B3FBF9F809FB183308FB0EFE41EACA
:1063700003418E452CD9611808F1FF3304D28E45B4
:1063800002D9A8F10203214443EA0040A0FB02988D
:10639000A1EB0E014145CE46434602D306D14D4501
:1063A00004D2B9EB020E68EB04030138002EA6D02C
:1063B000B5EB0E0261EB030101FA0CFC22FA07F3C4
:1063C0004CEA0303F940C6E9003198E74046C5E7C7
:1063D0004346D9E710F8012B11F8013B012A28BFE9
:1063E0009A42F7D0D01A7047034611F8012B03F8F0
:1063F000012B002AF9D17047034613F8012B002A1C
:10640000FBD1181A01387047F7B53E4DD5F85C310D
:10641000996811F0010121D101AA40F6034006F06C
:106420000FF9044600286AD10198C3681B789BB90C
:10643000BFF35B8FD5F8D430BFF35B8F05F1D40287
:1064400003F00903BFF35B8F52E8001F42E80034FA
:10645000002CF9D1BFF35B8F19F0F0FA01AA0021EB
:1064600041F2030006F0ECF80446002847D1019BF6
:10647000254EDA68D2F80100D2F8051003C6184696
:1064800019F0DCFA214601AA41F2010006F0D8F821
:106490000446A0BB0198C3685A7885F870205A88D2
:1064A000A5F872201A7985F87120B3F80720A5F8AD
:1064B0007420B3F80530A5F8763019F0BFFA2146FC
:1064C00001AA41F2020006F0BBF80446B8B9019FE8
:1064D000FA68531C413218685968344603C40833BB
:1064E00093422646F7D1094822F0EAFE384619F0D1
:1064F000A5FA95F87C305B060AD46FF012042046AA
:1065000003B0F0BD90000020080100201001002021
:1065100001AA002142F2030006F092F80446002886
:10652000EDD1019BB64EDA68D2F80100D2F8051021
:1065300003C6184619F082FA214601AA42F2020067
:1065400006F07EF804460028D9D1019CE368B3F830
:10655000012091B249B1D97839B1A5F80421DA788E
:10656000114606F1280027F090FA204619F066FA45
:1065700095F87C6016F0200618D1022140F66D4097
:1065800006F002F80446002800F0CC8002210C300E
:1065900025F078FF0123037046702146324640F60D
:1065A0006D4006F04DF804460028A8D195F89C30BF
:1065B0001F0712D501AA002142F21C0006F040F884
:1065C000044600289BD10198C368D3F80120D3F872
:1065D0000530C5E9382319F031FA95F8D8309E0610
:1065E00024D50DF10201684623F02DF90446002858
:1065F00085D1042142F2240005F0C6FF064600289A
:1066000000F0908004210C3025F03CFFBDF80030F4
:106610000380BDF8023043802246314642F2240016
:1066200006F00EF8044600287FF469AF95F8D830DC
:106630005C0610D501AA002142F22A0006F000F8FB
:10664000044600287FF45BAF0198C3685B7885F847
:10665000203119F0F3F9082142F2010005F094FF0E
:10666000044600285ED008210C3025F00BFF95F879
:10667000D81011F0400F024640F2022308BF032356
:1066800088074CBF43F02C0043F00C0095F8D9303C
:106690008F0648BF40F0400013F0090F95F8A23074
:1066A00018BF40F4006003F00603CE0748BF40F077
:1066B0001000062B08BF40F4C070002122F08FFFAD
:1066C0002146002242F2010005F0BAFF04460028EC
:1066D0007FF415AF95F87C30B5F80411980624D4F2
:1066E000C9B901AA41F2050005F0AAFF0446002835
:1066F0007FF405AFB5F80431019C4BB9E368B3F8FA
:106700000120A5F804219A883E48114627F0BDF9DA
:10671000204619F093F9082140F6014005F034FFB6
:10672000044638B96FF06804E9E60029F3D16FF048
:106730000404E4E608210C3025F0A4FE95F8D830D6
:10674000D907024653BF4FF000512BA1D1E90001F8
:106750002D4822F044FF2146002240F6014005F07A
:106760006FFF044600287FF4CAAE014601AA4FF627
:10677000014005F065FF044620BB019819F05EF961
:10678000214601AA4FF6024005F05AFF0446C8B957
:106790000198C368B3F80130A5F8C13019F04EF97B
:1067A00095F8C1305B070DD501AA21464FF603408D
:1067B00005F046FF30B90198C3685B7885F8C030B2
:1067C00019F03CF923F0B3FA044600287FF497AEA1
:1067D00007F0A2FE044600287FF491AEEB79002B6F
:1067E0003FF48DAE0821094822F03CFE06F0DCF9AA
:1067F00085E600BFAFF30080908800020080002093
:106800006801002098010020108800026401002027
:106810002DE9F843D0E90C35D0F82C805C193034E0
:10682000A0450F46164619D81D4DA3FB05011AA316
:10683000D3E90023FFF764FC0346A4EB0800A0FBA8
:10684000050123F07F4414A3D3E90023FFF758FC8C
:1068500020F07F403C603060BDE8F883DFF8409076
:106860000DA3D3E90023A8FB0901FFF749FC044667
:1068700005F1300008A3D3E90023A0FB0901FFF7CD
:106880003FFC24F07F4420F07F403C603060BDE856
:10689000F88300BFAFF300808D49FD1A07000000A8
:1068A00000CA9A3B000000009FED097B0E4B0F4A87
:1068B0000F4983ED007B9FED087B82ED007B9FED10
:1068C000087B0C4B002281ED007B1A600DF076BE38
:1068D000FFFFFFFFFF1F000000000000000000009E
:1068E0001F000000000000001002002050190020CE
:1068F00008020020782D0020002800F046812DE9B4
:10690000F04FC94C94F86A2012F001058DB040F0A8
:10691000788194F82500FF2300F0030084F82630E6
:1069200015F084FD94F86A00420727D494F82920D2
:1069300094F8353004EB820204EB8303D66AD3F873
:10694000388086B1B84831460FF0ECFB33785B06EF
:1069500005D506210AF0BCFE002800F05481B2489B
:1069600041460FF0DFFB337813F00E0F40F09E80AE
:10697000236A93B10C200DB0BDE8F08F2A4604F1D4
:106980006B01C0F3C00015F0C1FEFF2884F826009B
:10699000CCD0284615F064FDC8E70CF059FF8146BD
:1069A000002800F054810CF05FFF8246002800F0C0
:1069B0004B810FF0A5FE0546002800F04A81D0F873
:1069C00088004FF6FF732B8505F11C0B002800F0A3
:1069D000208105F17C0205F178010AF085FEB5F809
:1069E000763023F4EF6323F0070343F4887343F016
:1069F0000103A5F8763095F8393003F03F0363F0D2
:106A00007F0385F8393095F88E3023F0070385F839
:106A10008E3095F83C3023F00703002785F83C3092
:106A20004FF4C023C5F888312846C5E91277C5F868
:106A30008870A5F88C706F86C5F82E7085F83B704D
:106A40002F65A5F88E71A5F8847111F0CBFF85F83C
:106A50005071C5F8549110F0DFF895F8943160F357
:106A6000020385F8943110F0DDF895F8943160F365
:106A7000C50385F8943195F8803167F3410385F8B3
:106A800080310121284610F0E9FC05F1D40011F015
:106A900063FDC4E9189AC4F820B0C5E905772F70E2
:106AA000ED6116F079FE002840F0AF8094F82430B4
:106AB0000121C3F342030DF12B008DF82B300AF0B6
:106AC000B1FF0246002862D098F8011030460FF05E
:106AD000EBF831235549A360554BB4F86870A0FB1F
:106AE00001010025C01841F107014DA3D3E900239E
:106AF000C4E9055525706560E560FFF701FB20617D
:106B00000CF0A2F900F109083FB9357805F00F053E
:106B1000A5F10105B5FA85F56D0994F824002369FE
:106B200065F3000010F0010584F8240036D0414AD6
:106B300009920020106002253F4A404F04930BAE9B
:106B4000019305920321CDE902000694434600908B
:106B5000089607972A460B950CF078F831460CF00A
:106B60003DFFA0B9364905914AF2D8330093CDE9EB
:106B70000300CDE9010007970896069443460122D9
:106B800003210B950CF046F82EE00EF0DDBF236AD2
:106B9000002B3FF4EFAE0EF095FFEBE6254A2948B7
:106BA000049303F247130694029591211360A7FB07
:106BB000000301FB0731214B07931F4B05934FF651
:106BC000FF730992022703930BAE15A3D3E90023A9
:106BD0000B970896FFF794FA4346CDE900503A46E2
:106BE000284603210CF032F831460CF0F7FE00285D
:106BF000CDD194F86A300120034384F86A3015F04F
:106C0000F7FB0020B7E61220B5E60EF05BFF03208D
:106C1000B1E605F18000C5F88800DAE6AFF3008040
:106C20008D49FD1A07000000B02D002000CA9A3BD4
:106C30008C49FD1AA42D0020255D0300A12F03001F
:106C400041580300002AE78448460CF007FE07205D
:106C500091E650460CF00EFE48460CF0FFFDF6E7BC
:106C600070B590F824308AB0C3F342030D46044651
:106C700001210DF1230016468DF823300AF0D2FED3
:106C80007178024628460FF00FF81F491F4AA0FBF3
:106C90000131981841F1070119A3D3E90023FFF747
:106CA0002FFA23699842054621D21B1A002201922D
:106CB000174A0293174BA21AA3FB02320221920930
:106CC00000230A4409AE099113490591CDE9033324
:106CD0000321D2B20696009318460CF017F83146FD
:106CE0000CF07CFE38B9256100200AB070BDFBD9DC
:106CF000C21A0023DBE70C200AB070BDAFF300809E
:106D00008D49FD1A0700000000CA9A3B8C49FD1A04
:106D1000B02D002009CB3D8DA12F03000000000005
:106D20002DE9F04F05468BB08B46012002219A4693
:106D3000144618F01BFC00220221814601200AF0B3
:106D400023FD39494FF4D07228460AF0ADFCC61C29
:106D5000F6B2364B00953246012100200BF0EEFFD3
:106D600010F0FD0F0CD0324A3249334840F62F0361
:106D700020F00BFC404080F311884FF0030002DF4D
:106D80002E4BA4FB0348204625A3D3E9002341460C
:106D9000FFF7B6F9089506952B690493284B20F068
:106DA0007F47A7FB0331E01A264B07934FF00702FA
:106DB000254B059302FB07114FF6FE7368EB0101AB
:106DC00003934FF47A720023FFF79AF9CDF800B0DD
:106DD000CDE9017053463246012100200BF01AFF25
:106DE00010F0FD0F0CD0124A1249134840F644032C
:106DF00020F0CBFB404080F311884FF0030002DF0E
:106E0000B9F1000F02D10BB0BDE8F08F01220221D1
:106E100010460BB0BDE8F04F0AF0B6BCAFF30080EF
:106E20008D49FD1A0700000058190020A9660300CB
:106E3000ACFB040070FC0400E4F6040000CA9A3BBA
:106E40008D49FD1A5166030059B903000000000086
:106E50002DE9F043C469228D4FF6FF739A428DB03D
:106E600000F088800546204612F03EF895F828305C
:106E7000012B00F00F81022B00F00281002B00F0AB
:106E8000E18094F85071002F40F0FD80E68DB4F859
:106E90003080002E71D1AA8C08F101060023CDE9C3
:106EA0000A33B6B2002A70D094F93930002BC0F200
:106EB00048810023A4F88A3195F82630D90740F19B
:106EC000EF800023A4F88E310DF1270231462046D1
:106ED00011F0C4FD743000F04681B4F888312BB154
:106EE000B34240F20D819B1BA4F88831B4F8843181
:106EF0002BB1B34240F2FB809B1BA4F88431258E5A
:106F000017B9A84500F0EA800135ADB294F8D13048
:106F100013F001065AD1DDE90A130A46002B40F0AE
:106F2000ED80002900F0DC801E461846228DE469C1
:106F30000694CDE903570332A74D0290CDE9001620
:106F4000D2B20121002005950BF0E0FE10F0FD0FFC
:106F500010D00CF06DFD84420CD0A04AA049A1488D
:106F600040F2155320F011FB404080F311884FF0A0
:106F7000030002DF0DB0BDE8F083AA8C4644002375
:106F8000CDE90A33B6B2002A8ED195F82630DA0759
:106F900097D4B4F88A31002B00F08280B34240F2DB
:106FA000FA809B1BA4F88A31B4F88E31002B8BD069
:106FB0009E4280F0DE809B1B9BB20022062BA4F831
:106FC0008E31228600F2AC8001277DE794F93920CA
:106FD0006FF30003002A84F8D13077DB94F8760051
:106FE000C0F3C00100F0070016F03CFAB4F86E20C0
:106FF000B4F86C30134403F2D51303447A4A7B4847
:107000000721E3FB0021104671A3D3E90023FFF71A
:1070100077F8DDE90A1320F07F422069226190426F
:1070200035BF161A801A002000260A46002B7FF46E
:107030007DAF56EA010C7FF479AF002850D0194695
:107040001E4673E794F88E3003F01803182B7FF474
:1070500018AFA18DB4F886218B1D9A42C4BF931F2F
:107060005B1AB4F88211CCBF9BB21346994200F070
:107070008C80A4F88231A4F88431A4F8882100E738
:107080003D2784F85071394620460DB0BDE8F043E5
:107090000FF0A4BE0023A4F88831A4F88431F0E6F0
:1070A000B4F88E31002B83D1628DB4F88C3140F26C
:1070B000E24101FB02F242F2107101FB0323013BAA
:1070C000B3FBF2F39BB2A4F88E316FE794F877002C
:1070D000012100F0070016F0C7F987E73D4615E7E4
:1070E000002D4BD000261146304633461EE70023C4
:1070F000A4F88431204611F051FD00E7304615E731
:107100000CF0FEFB014600283BD00023A4F8883198
:10711000238DC3801B23037100680CF0BBFBE5E6E5
:1071200094F939309342BFF6CFAEB8F1000F7FF437
:107130004BAFD4F878315A08DB0743D4C4F8782130
:10714000C2E628460AAA0BA904F1D409FFF760FB9E
:10715000484611F043FA18B3484611F03FFA18B305
:1071600000232386A5E69DF8271020460FF036FE63
:1071700000E7082120460FF031FEFBE6002FB1D1D9
:10718000F8E60123A4F88831B0E6B4F888110029A4
:107190007FF477AE6FE73E2120460FF01FFEE9E651
:1071A000FF200FF0DBFDD7E70246D4E91E010AF00D
:1071B000B3FA0028D4D194F83C30580744BFA38DCB
:1071C000238676E642F00042C4F87821FCE600BF50
:1071D0008D49FD1A0700000011660300ACFB040096
:1071E000D4FC0400E4F604008C49FD1A00CA9A3B62
:1071F0002DE9F04F87B0CDE90423BDF84420037892
:107200000292BDF84820BDF84080BDF84C50468E33
:10721000B0F82E90B0F814B1019104460392002BFF
:1072200000F08E80013EB6B2A368D4F80C71721BD8
:1072300092B2002B009209DAE168626823F0004301
:1072400091422CBF7F18BF18A360FF1A009A638D6C
:1072500013FB02F39BB2B3FBF8F218FB02F080B20F
:1072600083421FFA82FA5AD2C01A40F2E2425E49C1
:1072700002FB00F0A0FB010159A3D3E90023FEF7B4
:107280003FFF20F07F400744D94494F839304D4403
:10729000AD1B554440F2E246DB09E58506FB08F5E7
:1072A00052D1524A5249534840F6BA0320F06DF980
:1072B000404080F311884FF0030002DF0026A9460A
:1072C000029BA385039BA4F88C3129462046A4F891
:1072D0002A8011F0FFFB484BA18D2B44881DB3FB86
:1072E000F5F39AB29042A4F8862102D2521A063AD5
:1072F00092B2019BA4F8822113B10023A4F88E312D
:107300003B464A4631462046FFF70AFD94F8803155
:1073100043F0010384F8803107B0BDE8F08F08FB2B
:107320001231314840F2E24389B203FB01F1A1FB83
:1073300000012BA3D3E90023FEF7E2FE3F1AA3E7E7
:107340004E445E44B6B26FE7226C0099A36CDFF83E
:1073500098B002FB1133A36416F06EFA814694F8DC
:107360007401C0F3420016F069FA049B814406FBE5
:1073700003F305FB09F9236509F574291F4B09F28D
:107380003F29A3FB09394FEA994303FB0AF0236421
:10739000A5EB0309A36C6A080344963A934228BFFD
:1073A0001346C4E911230023C4F87C31A0FB0B0170
:1073B0000BA3D3E90023FEF7A3FE114B059A3F1A56
:1073C000A3FB0230800A06FB00F005A3D3E90023EB
:1073D000A0FB0B01FEF794FE20F07F4670E700BF94
:1073E0008D49FD1A0700000000CA9A3BACFB04005F
:1073F00064F70400E4F604007FC3C90183DE1B4385
:107400005917B7D1000000002DE9F04F0B6891F833
:107410001180D3F80090037F176895B00446C3F33A
:107420008013D0F81E008DF83F30B8F1FF0F638C49
:1074300012900E461546ADF84C300DF1480A49D170
:107440009AE803001090ADF844102346E28D53F8FB
:107450002EBB9B78AB722A81D4F82A306B60D4F8AB
:107460003A30AB6105F1180094F83E300371052104
:107470000AF0D8FA6B7F00F03F0060F305036B77EA
:1074800094F83F30C3F30402AA77A28EEA81012860
:1074900003F01F0392B205D91B3303F01F030B2B1C
:1074A00000D81ABB0022C9F8142095F8203062F3E6
:1074B000000385F82030E5680126584621462671EC
:1074C0000CF0DEF928682E7129460CF0E3F915B0AE
:1074D000BDE8F08F10AA0DF13F01404614F034FDD5
:1074E0009DF83F3002338DF83F30AEE7336800211E
:1074F0005960E38EEA892B8240F2E24303FB02F2F9
:107500000B92628E0D92384611F0F8FA94F83F20F3
:1075100097F87411520962F3430187F8741116F059
:107520008BF90C9097F87401C0F3420016F086F9BD
:107530000C9A0B99104401FB00F0B94A00F5742035
:1075400000F23F20A2FB00204A08800C963A6862B5
:10755000AA6294F8312040F2E24302FB03F3AB63EA
:10756000238FA7F88C31384611F0B4FA0B99AD4B44
:10757000AD4AC7F890210B44B3FBF1F39AB2A7F8D8
:107580008621298A881D824204DDC1F57F41FA31B6
:107590000A4492B2A7F882216B68C7F87831234673
:1075A00013F81C2FC2F340120C92DA0700F113817A
:1075B0004FF48073A38399F8260015F0BBF904F10A
:1075C0002B03002800F0EB80626AC4F82B20228D88
:1075D0009A80B8F1FF0F00F0E680BAF804301298F4
:1075E000A4F82930C4F825009DF83F30A3771098FF
:1075F000BDF84430C4F81F00A4F82330EB8963863B
:107600002B8AA386B7F88C31E38697F87431C3F3DD
:10761000420384F8383038460FF07EF8A881E080C5
:107620002146584674680CF02BF9AB89E3801C2383
:1076300023710C9BD4F80080002B40F0BA800C9B87
:107640002377214640460CF025F995F85B00B5F804
:107650005080B5F85240012100F0070015F004FFFA
:10766000444404F2D514DFF8CC81044482466F48C8
:107670000721E4FB080131230024BB607C6066A382
:10768000D3E90023FC60FEF73BFD20F07F4038612A
:107690000B9B6D6A0D995D1BF36840F2E24202FBA1
:1076A000013303F2B241A1EB0A0A22460221012072
:1076B0000AF06AF848460EF0F1FC0246AAFB0801FF
:1076C000924655A3D3E90023FEF71AFDCDF80490A6
:1076D000B3685749009120F07F480AF102023A3B13
:1076E000D2B22046434401210BF06AFB01287FD02F
:1076F00099F82430DB0766D438460FF00DF84D4B6F
:10770000A5FB03A9044644A3D3E9002350464946F8
:10771000FEF7F6FC484BB668484A079220F07F45D2
:10772000A5FB0331BAEB0300454B059340F2D1139F
:10773000069708933B694FF0000BCDE903B34FF078
:10774000070303FB051169EB01014FF47A72002373
:10775000FEF7D6FC03343A3EE4B2CDE90150CDF851
:10776000008033462246012158460BF053FA10F0B0
:10777000FD0F0CD0334A344934484FF4E9731FF0FD
:1077800004FF404080F311884FF0030002DF012224
:107790000221104609F0F8FF15B0BDE8F08FC4F8DB
:1077A0002B00988015E70022C4F82520A4F8292092
:1077B0001AE76B7F43F040036B77281D14F0CEF976
:1077C0000123E8833CE70023012200931846114679
:1077D0000BF0B4FA90E71B4A1D491C48F8231FF030
:1077E000D4FE404080F311884FF0030002DFDFE653
:1077F0000CF01EF981453FF47BAF124A154913483E
:1078000040F279231FF0C1FE404080F311884FF011
:10781000030002DF6CE700BF8D49FD1A070000007E
:1078200083DE1B437FC3C901404B4C008C49FD1ACA
:107830001DB9030000CA9A3B8D49FD1AEDB803003B
:1078400059B903005C01050070FC0400E4F6040073
:1078500080F90400B801050010B5334C334900230A
:1078600004F1FF3C14F83320072A02EB820E05D8FE
:1078700011F83E206FF3451201F83E201CF833202A
:107880006FF300020CF833200133082BEAD1284AA9
:10789000284C002313700A7863F300020A7091F8F1
:1078A000282063F3000281F8282091F8502063F328
:1078B000000281F8502091F8782063F3000281F8EB
:1078C000782091F8A02063F3000281F8A02091F8BD
:1078D000C82063F3000281F8C82091F8F02063F318
:1078E000000281F8F02091F8182163F3000281F87A
:1078F0001821114A9FED0A7B1370104B83ED007B1A
:107900000F4B236028B1BDE810400E490E4826F009
:1079100083B9BDE810400C4826F08CB9AFF3008065
:10792000FFFFFFFFFFFFFFFF593400201833002047
:107930009F470020283200209E470020281B00205F
:10794000A0BB0D004DC60300F81A00200000000087
:107950002DE9F04F8FB00DF137010446DFF8E0A0BC
:10796000DFF8E0800DF136000CF012F89DF83630AB
:107970009DF837B00B930BF067FADAF80060A6FBBE
:10798000085629A3D3E9002300278146314628461B
:10799000FEF7B6FBCDE90777069420F07F44DAF8CE
:1079A0000400234B0593A0FB08011FA3D3E9002388
:1079B000FEF7A6FB1F4B20F07F40A4FB03310722FC
:1079C00002FB0411CDE90370E81A66EB01014FF4E4
:1079D0007A720023FEF794FB0097CDE901404B46F5
:1079E0000B985A4603210BF015F910F0FD0404D052
:1079F0006FF08B000FB0BDE8F08F0F480F4A0023E7
:107A00001DF0FCFC20B9DAF80C000FB0BDE8F08FD7
:107A10009DF837209DF836000094234603210BF093
:107A20008DF96FF07300E5E78D49FD1A070000003E
:107A3000E1CB03008D49FD1ACC340020447B0B00C0
:107A4000E434002000CA9A3B38B50F4D04460BF0D1
:107A5000FBF9A9680BF0FAF9696803460B48B3FB18
:107A6000F4F4A1FB00011C4405A3D3E90023FEF7B5
:107A700047FB20F07F40844294BF0020012038BDA6
:107A80008D49FD1A07000000E434002000CA9A3B2B
:107A9000F0B5C468636883B00546002B63D117F066
:107AA000F1F8082017F014F90021084617F002F940
:107AB00000222521082017F041F9454B019301A828
:107AC00017F024F9434940F25B6017F0C9F9237AB3
:107AD000C3F3420262F306132046237216F0CCF879
:107AE00014F0FCFF58BB637A9B071FD127682E68F0
:107AF000384615F055FC06446A6806F10901012074
:107B000017F0F6FA17F0B4FB20460EF0D3FA811CFA
:107B10003246C9B2384615F051FC054670BB2046C6
:107B200015F0E6FB88B9002003B0F0BD012014F089
:107B300053FC4178821C007817F07AFAD6E7607A15
:107B400010F0030018BF0120F1E7234A234924481D
:107B500040F22C431FF019FD404080F311884FF094
:107B6000030002DFDFE793F820309A0797D01D4823
:107B7000214617F045F817F02DF9D4E7164A1A49AF
:107B8000174840F214431FF000FD184B0721A5FBD6
:107B9000030301FB05310CA3D3E90023FEF7B0FA80
:107BA0001349024613481FF0F0FC404080F311884F
:107BB0004FF0030002DF1048214617F021F817F0BC
:107BC00009F96FF08B00AFE700CA9A3B0000000094
:107BD000D6BE898E555555008C05050050F8040019
:107BE000E4F6040045D5030064F704008D49FD1A4E
:107BF0003C0605001006050049D8030000000000FF
:107C00002DE9F041C468A2894FF6FF739A4282B011
:107C100000F0C780054616F057FB2B89628AE08A80
:107C20001A4492B21044637FA28280B2411CE18266
:107C30005E064FF00001618204F1180100F18C80B2
:107C400003F03F000B46A17F009004F11F0013F0EA
:107C50003DFF0646D4E90B231344D4E90D0200216D
:107C60000244E1626163A16AA26394F872208B42CC
:107C700028BF0B4612F00402236377D017F002F8F6
:107C8000082017F025F8201D17F040F82389A17A65
:107C900040F25B6043EA014117F0E2F8304615F02C
:107CA0009FFB2146584816F0ABFF962017F014FAB8
:107CB00094F85A2094F85B00C2F3C003002102F04C
:107CC000070200F0070017F031F9204616F05EFBBE
:107CD00027682E68384615F063FB06446A6806F18B
:107CE0000901002017F004FA804617F095FA0020E9
:107CF00017F0ACFA236B94F85B0003F13002A36B2E
:107D000000F00700012103EB420517F055F8454448
:107D1000054494F85B0000F00700022824D00428F2
:107D20000CBF4FF4BC73282301211D4417F046F803
:107D3000284417F063FAA18903313246C9B23846A4
:107D400015F03CFB054698BB204615F0D1FAD0B99A
:107D5000002002B0BDE8F0810A4603F03F03E18B4A
:107D600013F000FF064675E71823DDE7D4E9170195
:107D700009F0D2FC002881D194F8723043F004035A
:107D800084F872307AE7214A2149224840F255139B
:107D90001FF0FBFB404080F311884FF0030002DF2F
:107DA000D6E71D48214616F02BFF17F013F8CFE752
:107DB000164A1A49174840F24B131FF0E6FB184BBE
:107DC0000721A5FB030301FB05310DA3D3E9002324
:107DD000FEF796F91349024613481FF0D6FB4040C0
:107DE00080F311884FF0030002DF1048214616F09F
:107DF00007FF16F0EFFF6FF08B00AAE7AFF30080EC
:107E000000CA9A3B00000000E5E50300B406050047
:107E100050F80400E4F6040045D5030064F70400BC
:107E20008D49FD1A080705001006050021D503003D
:107E30002DE9F0472DED028B9FED498B4A4E84B022
:107E400004464FF02003EFF3118783F31288BFF34A
:107E50006F8FD4F8C8508DB9022104F1E00025F0ED
:107E600024FE002843D100238DED008B029304F102
:107E7000D00239463D481DF09FFFE2E7D4F8CC2000
:107E80002B68C4F8C830954208BFC4F8CC30D4F889
:107E9000E03043F00203C4F8E030EB6823F0040361
:107EA00043F00103EB606B6887F31188BFF36F8FBA
:107EB000284698474FF02003EFF3118983F3128887
:107EC000BFF36F8FEB68990723F0010219D4EA60C2
:107ED000D4F8E03023F00203C4F8E03089F31188CD
:107EE000BFF36F8FDB05ACD41DF046FEA9E704F1AC
:107EF000D80500220121284625F0DDFF0028F8D111
:107F0000B1E7306823F00303EB600028E0D00027DE
:107F1000D0F80080BA460028DAD04268954201467F
:107F20000BD1016897B972683160824200D17160EB
:107F300040F808AB1DF03CFA3946B8F1000F0BD001
:107F4000D8F8002040460F469046E4E73960726852
:107F5000824208BF7760EBE74246F3E7AFF3008069
:107F6000FFFFFFFFFFFFFFFF50450020054C0020F3
:107F700001481DF01FBB00BF7002002007B525F0AF
:107F8000D7FF4FF47A72A0FB020302FB0131C00B52
:107F9000074A40EA4140106000234FF40042054880
:107FA000CDE900231EF0E6F8002003B05DF804FBE5
:107FB000D01E0020380D0020014B187800F0BEBA0A
:107FC00000460020044B1A78824202D01870FFF756
:107FD000F3BF0020704700BF0046002008B525F021
:107FE000A7FF4FF47A72A0FB020302FB0131114A92
:107FF000C30B126843EA41439B1A0F4A934214DDB4
:1080000000F06AFE20B1BDE808400120FFF7DABFAA
:108010000220FFF7D7FF00F089F9002803DABDE856
:10802000084000F0BFB91FF0BDFA47F2305293424A
:10803000E9DC08BDD01E0020A0BB0D0008B525F06E
:1080400077FF4FF47A72A0FB020302FB0131C00BF1
:10805000044A40EA41401060BDE808400020FFF7B4
:10806000B1BF00BFD01E0020014B1878704700BF81
:1080700000460020F8B5044610B900252846F8BD92
:108080000378002BF9D00F4E0F4FBE420FD30D4E89
:10809000BE42F2D2306825F05BFB30B13568214634
:1080A0002868FEF797F90028E8D00436F0E7306832
:1080B00025F04EFB18B135682B68A342DED004369C
:1080C000E3E700BF742805008428050070B5194C4B
:1080D000194D8CB00022002303A920461DF024F87E
:1080E00008B10CB070BD2B68059E5868DDE903121D
:1080F0001EF011FC0028EDDBFF238DF81830B6FAD6
:1081000086F35B0907908DF8203025F011FF4FF4BE
:108110007A72A0FB020302FB0131C00B40EA41402E
:10812000C90B8DE8030006ABCDE90A010FCB00F0C7
:108130001FFACFE7780E0020382000201FB50A4C28
:108140002468A46884420DD183F00103CDE90112B3
:10815000039306480022002301A91CF08FFF044866
:108160001DF028FA04B010BD38200020780E002041
:10817000282000201FB50023CDE90233044B8DF8E1
:108180000C0001A801931EF0EDFB05B05DF804FBA7
:108190007CEE0400044B1A68044B9A4214BF6FF043
:1081A00012000020704700BF3820002068EE040055
:1081B00038B5044600282FD0194D2B68834229D0AA
:1081C00053B1986840B183685B6803B198472B68E6
:1081D0000021986801F098FD1249134B8C4214BF9E
:1081E000ED210021552200201EF0AFFB002812DBFC
:1081F000A0682C6070B1012101F086FD2B689868A1
:1082000083680A491B6898472B68986883689B684D
:1082100003B19847002038BD6FF01200FBE700BFA4
:108220003820002068EE0400D41E00203D810200AA
:1082300038B5054648B90648FFF7BAFF041E02DB09
:108240002846FFF797FF204638BD6FF01504FAE780
:1082500068EE0400F7B50C4615460D4901AA1E4606
:108260001FF030FD68B1019B6BB9012C0DD1094F96
:10827000224639463046A847002802DD3878FFF705
:10828000D7FF03B0F0BD0020FBE76FF01500F8E763
:10829000D20F0500180C00200148FFF789BF00BF6E
:1082A00068EE040008B50B480B4925F071FC0B483B
:1082B0001FF087FC18B1094801211FF055FC084A3E
:1082C000002342F8043B0133552BFAD1BDE80840A6
:1082D000FFF7E2BF28200020CD80020048E904001B
:1082E000D41E0020F8B50F4D0F4E761B07460C46E6
:1082F00005EBC105C6F3C706A64201DC00200CE071
:108300002A683B689A4209D13C716B6838461B6801
:10831000984718B1431E012BF0D9F8BD0134083538
:10832000EAE700BF90170500C817050037B501A898
:108330001CF054FC194D019C00232B60182358435A
:1083400018380444019B9C4202D2002003B030BD87
:10835000204625F0FDF9F0B120461FF0FBFBD0B917
:1083600020461FF038FCB0B920461FF020FC014623
:1083700088B9204601F0C8FC20F0200378330AD0E9
:1083800010F1860F07D00028E0DB2B68044A42F882
:10839000234001332B60183CD4E700BF3C20002071
:1083A000D40C002070B5084D084E2C68013C002C00
:1083B00002DA00232B6070BD56F82400012101F081
:1083C000A3FC013CF3E700BF3C200020D40C0020BC
:1083D00000B58BB0064B074A282168461DF0A2FF66
:1083E00005490122684602F0FBFB0BB05DF804FB77
:1083F0001A10050024100500014600202DE9F8435D
:108400004768044600254FF001087B68AB420DD851
:108410002149224825F000FCA3681B680BB12046C7
:108420009847398939BB0020BDE8F8833A6802EBE8
:10843000C50352F835001979DB88D0F810C0D0F8A0
:108440000890DCF80060DA0754BF43F4B01383F4FB
:10845000D01323F4801208FA01FEDB074CBF46EA72
:108460000E0626EA0E06CCF80060D9F800309847D0
:1084700070B90135C9E740F2E7304FF47A72002352
:1084800000EBC1300021FDF73BFE1DF0F7FBCAE712
:108490006FF00400C8E700BFD1830200B0100020D5
:1084A00008B5074B5A784AB901221A7005480022CC
:1084B00000231DF0E7F804481EF06AFA002008BD0A
:1084C00001460020B010002030E9040008B54FF448
:1084D000F012002302481DF009F900EAE07008BD1F
:1084E000B0100020F7B50C461646114901AA1F46E8
:1084F0001FF0E8FBB0B1019BA3B9012C15D10D4DC4
:10850000224629463846B047002806DB2B780A4821
:108510006C7023B11EF03CFA002003B0F0BD1EF0D9
:1085200053FAF9E76FF00100F7E76FF01500F4E791
:108530001A1005000146002030E904001FB5002391
:10854000CDE90233044B8DF80C0001A801931EF015
:1085500009FA05B05DF804FBA0EE04000268034BC5
:108560009A420CBF08300020704700BFA0EE040004
:1085700084B030B589B00CAC84E80F0000230193BF
:108580000CAD084B00930FCD02AC0FC495E803006F
:1085900084E8030068461EF0E5F909B0BDE8304004
:1085A00004B07047A4EE04000268034B9A420CBF6B
:1085B00008300020704700BFA4EE04001FB5002360
:1085C000CDE90233044B8DF80C0001A801931EF095
:1085D000C9F905B05DF804FBACEE040082B038B513
:1085E00004A981E80C00054611481CF003FB044671
:1085F000A0B16B68012B0CD0022B05D0A3B9BDE84C
:10860000384002B01EF01DBA1EF022FA00282046A3
:10861000F5DCBDE8384002B01EF00CBA6FF0040083
:10862000BDE8384002B070476FF08500F8E700BF42
:108630001A10050082B010B502A981E80C000446AA
:108640000B481CF0D7FA78B16368022B04D00020E5
:10865000BDE8104002B070471EF0FAF90028CCBF08
:10866000002001206060F2E76FF00400F0E700BF37
:108670001A1005001FB50023CDE90233044B8DF815
:108680000C0001A801931EF06DF905B05DF804FB24
:1086900004EF04000268034B9A420CBF083000202C
:1086A000704700BF04EF040008B500F0DBFEBDE832
:1086B0000840014925F099BA9002002007B5084802
:1086C00025F046F848B14FF4F0120023CDE900231D
:1086D0000448002200231DF04DFD03B05DF804FBAB
:1086E00090E90400700D002008B5FFF737FF10B9BE
:1086F0006FF0850008BDFFF7B7FC38B10138C0B294
:108700000128F5D8034825F05AFC01E0FFF7D6FF11
:108710000020EFE7700D002037B5104CA5682D2123
:10872000EB6820469847B8B92D212B696A46204648
:10873000984788B90A4C00982378834204D0C0B285
:108740002070FFF797FF38B902F01CFA237898429F
:1087500002D0184602F01CFA03B030BD90E90400C4
:108760000346002008B5054824F0F2FF18B1FFF7D2
:10877000A5FF002008BD6FF01200FBE790E90400A0
:10878000014B1878704700BF034600201FB5002337
:10879000CDE90233044B8DF80C0001A801931EF0C3
:1087A000E1F805B05DF804FB0CEF040008B5BDF876
:1087B00008101944012908DC3BB1054B1278054823
:1087C0001A701CF0F7FE012008BD6FF00600FBE7F1
:1087D00004460020E0020020014B1878FFF728BD76
:1087E000044600201FB510240294044C0194BDF8E7
:1087F0001840009422F0A2FE04B010BD19460020DB
:1088000007B5064B00930649064805234FF43E7210
:108810001CF0D6FE002003B05DF804FB10EF04004E
:10882000084C0020E010002070B50F4D0F4E8AB0AC
:1088300000220023694628461CF076FC044608B155
:108840000AB070BD2146182204A825F036FD102379
:108850000DEB030120460596CDF818D0ADF81C307D
:1088600007F0C6FCE4E700BFA80E00202CEF0400D0
:108870001FB50E490E4840F6CD4200231CF0FEFB0A
:10888000044670B110F10B0F08D100220023694695
:1088900007481CF049FCFFF7EBFF0446204604B0F4
:1088A00010BD0449044825F0A0F9F7E71946002057
:1088B000A80E0020A0020020E010002038B50378A8
:1088C00023B1032B11D06FF0850038BD4278094DDC
:1088D00002F00701D40801228A4081782B5DD2B2D0
:1088E00029B113432B55FFF7C3FF0020EDE723EA1F
:1088F0000203F7E719460020014B1970704700BFCB
:108900002C460020014B18600020704740200020BA
:10891000084A094B12781B78002062F30700074AC7
:1089200012785B0062F30F20DBB282B063F3174072
:1089300002B07047294600202D4600202A4600201C
:1089400013B50C4B1C6894B1FFF7E2FF8DF80400DF
:10895000C0F30723C0F307408DF805308DF80600FB
:1089600001990548234602B0BDE81040184702B0FF
:1089700010BD00BF402000208428050010B5002055
:1089800004F024F9044610B9024802F0B9F920466F
:1089900010BD00BFF002002010B5084805F02AFC09
:1089A000074805F0A5FD074B074800241C70074B3E
:1089B00001221A701CF0FEFD204610BD2803002085
:1089C000180300202B460020080300202946002021
:1089D0000C4B07B5187030B10B481CF0EBFD0020B4
:1089E00003B05DF804FB01900849012001AA05F0DD
:1089F000D7FA019810B1132121F0FAFB04F058FEC8
:108A0000EDE700BF2A46002048030020B96C0400AF
:108A10000B4BB1FA81F010B540090C461870FFF706
:108A2000B5FE3C2C0AD1074B1B783BB1064B0748DF
:108A300001221A70BDE810401CF0BCBD10BD00BF83
:108A40002D4600202A4600202B4600204803002007
:108A500070B503788AB004460E4607AD032B20D8C4
:108A6000DFE803F002191B1D11492846FDF7BCFC85
:108A7000059563780493A3780393E37802932379AD
:108A8000019363790093A3790A4A1E2130461DF0B1
:108A900049FC0AB070BD0849E7E70849E5E708491D
:108AA000E3E7084A0A2128461DF03CFCE0E700BF46
:108AB000521105007B1105005911050060110500D8
:108AC0006A1105007411050010B588B021F020FC72
:108AD0006946FFF7BDFF0024074B20461C70FFF7D7
:108AE00055FE064B1B7823B1054B06481C701CF045
:108AF00061FD08B010BD00BF2D4600202A460020B1
:108B00002B4600204803002070B5204E204B3068D3
:108B1000B2881C781F49B3798AB003AD0390ADF8D1
:108B2000102000202A46AB7108F028FC31460722AD
:108B3000284625F072FD184B0646D0B1ACB903208B
:108B40002246214601241C700023CDE90602CDE90E
:108B50000815ADF814308DF8163000931A461946F2
:108B600005A804F073FD0AB070BD1320A022F02107
:108B7000E8E70A4D18700FCD05AC0FC42B682360D1
:108B80000749009633460322EAE700BF7A1305003F
:108B90002B460020A58B02002C46002030EC040060
:108BA000DCEF040038B507220C460649054625F0DF
:108BB00034FD28B12B682360AB88A380AB79A37107
:108BC00038BD00BF7A1305000048704784280500AF
:108BD00073B5194C194EB442254602D36FF01200FA
:108BE00008E02B689B68043433B9154C2368AB420A
:108BF00011D1002002B070BD9847C0F307238DF853
:108C000004008DF80530C0F30743C0B28DF806307C
:108C10000028E0D0E9E723B11B685B680BB10020B6
:108C200098472B6825605B68002BE2D0012002B0DA
:108C3000BDE87040184700BF84280500882805005B
:108C40004420002007B5094B01911B68834207D1DE
:108C50009DF8063033B903B05DF804EBFFF7B8BFF9
:108C6000FFF7B6FF002003B05DF804FB44200020AE
:108C700070B5094C094D0A4EAC42234603D3BDE8FA
:108C80007040FFF7A5BF1B68DB680434002BF3D0EE
:108C900030469847F0E700BF842805008828050083
:108CA000458C0200054B1B6823B11B6813B11B6880
:108CB00003B118476FF01200704700BF4420002036
:108CC00008B5044801F086FC002818BF6FF01500B5
:108CD00008BD00BF018D0200084B1B780B2B4FF025
:108CE00001000AD8984010F4CD6F05D110F4016F3F
:108CF0000CBF01200020704702207047A40C002008
:108D00000A2808B5024613D00A4B0B491870FFF722
:108D1000E3FF02280AD10B78032A08BF43F00103BE
:108D20000B70BDE8084005481CF044BC0023F7E781
:108D300008BD00BFA40C00202E46002058030020D0
:108D40000246110E07EE101ADFED446A9FED446AE9
:108D5000B8EEC77AC2F30742C7EE267A80B23C2348
:108D6000B0FBF3F3DBB286B007EE102AB8EEC77A99
:108D7000062287EE265AB3FBF2F107EE100AB8EE90
:108D8000C77AC7EE066A07EE103AF8EEC75AB1EE98
:108D9000087A56EE875A02FB1133DBB2B7EE006A4F
:108DA000F0EE466A45EE656A013B76EE655A36EEB0
:108DB000457A05EEC56A27EE277A66EEA76A26EEA3
:108DC000276A042B04D8DFE803F0072D323942006C
:108DD000F0EE676AF0EE467A9FED226A66EE866AEA
:108DE00067EE867AFCEEE66A0023FCEEE77A27EE71
:108DF000067ACDED006A184663F307009DF800304F
:108E0000CDED017AFCEEC77A63F30F209DF80430B4
:108E1000CDED027A63F317409DF8083063F31F60CD
:108E200006B07047F0EE476AB0EE467AD4E7B0EE8F
:108E3000666AF0EE476AB0EE677ACBE7F0EE676AF3
:108E4000F0EE477AB0EE667AF0EE466AC4E7B0EE2E
:108E5000666AF0EE676AF0EE477AE5E70000C8421E
:108E60000000B44300007F43024903480A2201F096
:108E7000B7BE00BF68450020AD11050008B5054B21
:108E80001B7A33B100F0EEFABDE80840024924F045
:108E9000ACBE08BD6845002078030020084B10B523
:108EA000B4220021184625F008FA064A0346106845
:108EB0008268146819462D222346BDE810401847E1
:108EC0002F46002048200020F0B585B00C461546FE
:108ED000124903AA1E461EF0F5FEC8B1039BBBB99A
:108EE0000A2C18D10E4F224639463046A847002892
:108EF0000CDB3B7A4BB140F267620023CDE90023E3
:108F00000848002200231DF035F9002005B0F0BD0F
:108F10006FF00100FAE76FF01500F7E74110050068
:108F200068450020A80D00200F4B104A13B51A60A9
:108F30000F4B104C1A6822600F495A680F481B8962
:108F40002381626024F068FE237A4BB140F26762AD
:108F50000023CDE900230A48002200231DF00AF96E
:108F6000002002B010BD00BF4820002060E90400CE
:108F700080EC040068450020698E0200C8110020C2
:108F8000A80D00202DE9FF476C4C6379032B27D8EF
:108F9000DFE803F002306E9D694E00256427E37818
:108FA000A27821888DF80220C3EB0313ADF80010DE
:108FB0009B00B3FBF7F38DF803300098FFF7C0FE7A
:108FC00006EB850306F82500C0F3072201355A7029
:108FD0002D2DC0F30742C0F307609A70D870DED120
:108FE000584B5749186883681B682D2204B0BDE8A8
:108FF000F0471847524F00264FF00C0A4FF03C093B
:109000004FF06408E588A3788DF80630A5F59663DF
:10901000002B2288ADF80420B8BF5B42B3FBFAF303
:10902000DBB209FB03F3B3FBF8F38DF807300198CB
:10903000FFF786FE07EB860307F82600C0F307223A
:1090400001365A702D2EC0F30742C0F307609A70A4
:10905000D870D7D1237903EB830305EB4305ADB279
:10906000B5F5166F01D8E580BAE70023E380B7E7CE
:10907000334F00264FF06408E378A278E5888DF836
:109080000A20C3EB0313ADF808509B00B3FBF8F3C1
:109090008DF80B300298FFF753FE07EB860307F8B5
:1090A0002600C0F3072201365A702D2EC0F3074266
:1090B000C0F307609A70D870DED123791D44ADB239
:1090C0004FF4B473B5FBF3F203FB1255CBE7DFF8B3
:1090D000708000264FF064094FF4B477E588E37898
:1090E000A1788DF80E1005EBC602C3EB0313B2FB9B
:1090F000F7F007FB1022ADF80C209B00B3FBF9F34F
:109100008DF80F300398FFF71BFE08EB860308F875
:109110002600C0F3072201365A702D2EC0F30742F5
:10912000C0F307609A70D870D8D1237905EB430556
:10913000ADB2B5FBF7F307FB135594E76845002084
:109140002F4600204820002008B54FF4F0120023DD
:1091500002481CF0CBFA00EAE07008BDC8110020FC
:10916000054B1B6823B1054B1B7A03700020704729
:109170006FF01200704700BF4820002068450020B3
:1091800007B50E4B1B689BB10D4B01221A720022D2
:10919000DA8040F267620023CDE90023094800220B
:1091A00000231CF0E7FF03B05DF804EBFFF7CCBF32
:1091B0006FF0120003B05DF804FB00BF48200020F0
:1091C00068450020A80D002008B50A4B1B6873B144
:1091D00000F048F9084924F008FD084824F0EFFEA3
:1091E000074B00221A72BDE80840FFF7ADBF6FF0D1
:1091F000120008BD4820002068030020A80D0020B0
:109200006845002008B5FFF7A9F9C0B1FEF72CFFAB
:109210000D4B02461978B0FA80F04009814211D016
:1092200018702AB95B7833B1BDE80840FFF7A8BFD2
:10923000064A127A5A70BDE80840FFF7C5BF6FF0C2
:10924000850008BD0020FCE7A50C00206845002033
:10925000054B5B7904331844434203F0030300F0E9
:10926000030058BF5842704768450020084B1B68F0
:109270003BB1032808D8074B00225871DA80FFF76A
:1092800063BF6FF0120070476FF01500704700BFAA
:109290004820002068450020034B1B7A0BB1FFF7E4
:1092A00093BFFFF76DBF00BF6845002082B083B257
:1092B000B3F5B47F01900CD89DF80630642B08D824
:1092C0009DF80730642B04D8034B1860002002B0CF
:1092D00070476FF08500FAE7684500200C4A138854
:1092E00000EB800003F5B47303EB40034FF4B4715B
:1092F0009BB2B3FBF1F001FB10339BB2002063F390
:109300000F00538882B063F31F4002B0704700BF64
:109310006845002013B50C4A9378D1788DF8071072
:109320000A2404FB00306428A8BF6420138820EAC4
:10933000E0708DF80600002063F30F00BDF80630E2
:1093400063F31F4002B010BD6845002013B50C4AFE
:10935000D37891788DF806100A2404FB0030642835
:10936000A8BF6420138820EAE0708DF80700002071
:1093700063F30F00BDF8063063F31F4002B010BD69
:109380006845002010B5084B1B6853B1FFF7A6FFD6
:10939000064C2080C0F30F406080BDE81040FFF70E
:1093A000D3BE6FF0120010BD482000206845002099
:1093B00010B5084B1B6853B1FFF7ACFF064C20807B
:1093C000C0F30F406080BDE81040FFF7BDBE6FF0F6
:1093D000120010BD482000206845002010B5084B41
:1093E0001B6853B1FFF7B2FF064C2080C0F30F405B
:1093F0006080BDE81040FFF7A7BE6FF0120010BDFF
:1094000048200020684500200A4B1B686BB10A4ABF
:109410001379012B01D100280ADB0344DBB2052BB1
:1094200028BF05231371FFF78FBE6FF0120070473E
:1094300000207047482000206845002007B5064BF3
:109440000093064906480A234FF440721CF0B8F80E
:10945000002003B05DF804FBFCEF0400004F002087
:10946000F811002000487047F811002010B5094C91
:109470000A44914200D110BD11F8013B5840030944
:109480000001E35CC0B2434018091B01205CDBB261
:109490005840EEE7E7110500014B1B68184700BF75
:1094A0008803002030B585B004460D461022002107
:1094B000684624F002FF02238DF802302A46044B4E
:1094C0000193214668461CF0BFFF05B030BD00BFC8
:1094D0009994020080B505460E46174698461CF042
:1094E00001FC034625F0EAF8DFF81890044649F835
:1094F0000030424630463946A84754F8090002F089
:1095000043F800BF080000002DE9F047058B044632
:109510002807904611D4022905F0070540F0CD80B8
:1095200020461DF008FF78B10138218B042811D89E
:10953000DFE800F0C3106D85950001290CBF45F0F0
:10954000100545F02005258388F31188BFF36F8F40
:10955000BDE8F08701F0070AAA4500F0A6800027C1
:10956000B9463E46A368002B00F0BD8041F00801DB
:10957000218388F31188BFF36F8FA168002900F061
:10958000BB800D68002900F0B780D1F80480334615
:1095900052462046C047002D76D02B6829461D46EE
:1095A000F0E701F007035A1F012A1BD8002221F01F
:1095B0000701062B276889B2C4E9002209D13B467E
:1095C00003E0628B013262831B68002BF9D141F00A
:1095D0000201218320461DF0AEFE00287BD041F021
:1095E000200177E0042B0AD121F0070189B2218301
:1095F00020461DF0A0FE10B141F020012183218BF7
:1096000001F0070AAA4550D00027B946AAE7236906
:1096100021F0070141F00601062DD3F800902183C7
:109620002DD1B9F1000F40D041F00801218388F31A
:109630001188BFF36F8F3A492046C84729E021F0CF
:109640000701236941F0040189B2042DD3F8049085
:109650002183E6D000273E464FF0040A82E721F03E
:109660000701236941F0050189B2052DD3F808905F
:109670002183D6D000273E464FF0050A72E7002727
:109680003E464FF0060A6DE72B4687E7B9F1000F1B
:10969000D1D14FF02003EFF3118883F31288BFF389
:1096A0006F8F238B23F008032383258BEA062ED5A7
:1096B00025F01003238305F007056669218B002E32
:1096C000BFF66FAF00232768C4E9003321F007011C
:1096D00041F001012183218B01F0070AAA454FF0D7
:1096E00000097FF43FAF002F9BD041F00801218398
:1096F00088F31188BFF36F8F002FC7D03D683946BC
:109700003346524620461DF042FE2F46F4E7AB0694
:109710007FF51AAF25F02003238305F00705FFE648
:10972000BB73040008B504464FF02002EFF3118329
:1097300082F31288BFF36F8F18F040FC204602F0CE
:10974000BDF903481DF004FC02F08EF8FCE700BFF1
:10975000F711050018F05CBC08B54FF44042002337
:1097600002481BF08FFF002008BD00BF0000002052
:1097700010B505481BF03EFA28B183681B6813B189
:10978000BDE81040184710BD1A10050002484FF4FC
:10979000F01200231BF0AABF3000002037B5144C94
:1097A000204623F0D5FF18B9FFF7F0FF03B030BD16
:1097B000A5682D21EB68204698470028F4D12D217B
:1097C0002B696A46204698470028EDD19DF8004055
:1097D000FEF7D6FF8442E7D02046FEF74BFF01F0AC
:1097E000D1F98442E0D0204601F0D2F9DCE700BF95
:1097F00090E9040007B5FEF7D7FEA8B1037A9BB144
:1098000000230DF107008DF80730FFF7A9FC58B9C8
:109810009DF8073043B9FFF7D7FC28B904484FF447
:10982000247200231BF062FF002003B05DF804FBEC
:10983000600000202DE9F7430F4606460821C06A64
:10984000DFF850901DF057FF3C68241A80463C60BA
:1098500004EA0905AC4203D8002003B0BDE8F08358
:1098600008236A46214630461DF0B8FE0028F4D190
:10987000694630461DF049FF40B1BDF80230BDF8E1
:1098800004203C6005EA090513441D44A4EB0804C8
:10989000E0E700BF0000FFFF2DE9F047044688B075
:1098A00000F11407384624F032F8A06A8368DB68B8
:1098B0009847E06228B96FF01505284608B0BDE862
:1098C000F087A06A8368DB6898470368013B1F2B19
:1098D000F1D8A06A216805AA22F066FF0028EAD123
:1098E000A589002DE7D0069BB5FBF3F203FB1255CB
:1098F000002DE0D1E389012BDDD9E36A009593F8CF
:1099000004904FF0FF334FF0FF3238461BF066FCF7
:10991000E06A08211DF0EFFEA8460646E3891FFA1B
:1099200085FA534508D8E389434523D138461BF0CF
:10993000CFFC6FF02C05C0E7A1892B04891B13FA1B
:1099400081F14A460823204600911DF095FE78B12A
:10995000694620461DF050FE08F1010800990823D1
:109960004A4620461FFA88F81DF086FE0028DAD005
:109970000135D3E753450BD1009908234A46891B8B
:1099800020461DF079FE18B9694620461DF034FEC8
:1099900069462046FFF74EFF054618B138461BF0D2
:1099A00097FC8AE7009B63604FEA13484FEA084838
:1099B000C4F80880D4E9011399420FD3082301AAFF
:1099C00020461DF00BFE05460028E7D101AB13F839
:1099D000012B914533D10135082DF8D163681B0C5B
:1099E0001B046946204600931DF006FEA3890099DA
:1099F0004A4620461DF040FE051ECFDB636876D048
:109A000006EB03084FF6FF79A389CDF800801FFA13
:109A100088F29B1B9A422ED300236168002B43D00F
:109A2000090C09040091204669461DF0E5FD0099E6
:109A300020461DF046FE0546002D74D0AEE701A974
:109A400020461DF062FE626810B9921B6260B1E7A9
:109A5000BDF80850BDF80610E06AC4F80880294433
:109A60001DF049FE40449042A060EED1002DECD0A4
:109A70006FF01C0568E0082303AA414620461DF04C
:109A8000ADFD0546002889D103A920461DF03DFE05
:109A900030B1BDF80C304B4502D1BDF810300BB1E0
:109AA000B044B1E70123B8E720461DF00AFE0546A1
:109AB00000287FF473AF6368264AA18913400B44E2
:109AC000A3EB460363601340A36020461DF001FF33
:109AD000B1E75B1A4A4620461DF0CEFD051EFFF693
:109AE0005DAF08D0E26AA36812681344A360D4E9AA
:109AF00001318B42EDD86168A38901EB46029A429D
:109B00009AD1DFF85080A26801EA08039A4293D004
:109B100020461DF0D6FD054600287FF43FAF636860
:109B200003EA0803A360A389A288A3EB46039A4231
:109B300006D038461BF0CCFB012323740025BCE67D
:109B400020461DF0AFFE054638461BF0C1FB002D38
:109B5000F2D0B2E60000FFFF2DE9F04F1D46037C76
:109B600089B0044689469046002B00F0BE80C26A48
:109B7000082110461DF0BFFD2946824610461DF003
:109B8000BAFDA389A3EB8A039D42074600F2B08089
:109B90001DB1B8F1000F00F0AB806368039304AA15
:109BA00003A92046DDF80CB01DF0E7FD06460028AD
:109BB00064D1BDF810304B4505D06268039B9A42D2
:109BC000EDD1E5B95AE004A920461DF09EFD00281C
:109BD000F3D0BDF81200BDF8143075B19D420ED11E
:109BE0004FEA1B41090401442B46424620461DF022
:109BF00010FD002803DC064640E0002B3ED0002F7D
:109C000040D104F1140301934FF0FF320198DFF8C3
:109C1000E8B04FF0FF331BF0E1FAE3899E4261D0D8
:109C2000D4E90123F9188A422FD3ADF81A3006A8D7
:109C3000FF238DF81E30ADF81890ADF81C501DF0C4
:109C400012FDA1682B46424620461DF0E0FD294644
:109C50008246E06A1DF04FFDA2680244A260BAF19C
:109C6000000F07D106A920461DF00BFE002814BFE7
:109C70008246AA4601981BF02BFB5646304609B097
:109C8000BDE8F08F5744BFB2BBE7E06A08211DF082
:109C900032FD4FF6FF73ADF8183000218DF81E30FD
:109CA000A389ADF81C10111802EA0B021A44101A0D
:109CB000606006A8ADF81A101DF0D5FC06A9204674
:109CC0001DF0DFFD211D20461DF096FC636803EAB0
:109CD0000B03A36020461DF0FCFD82460028C9D17D
:109CE00001369AE76FF01B0AC4E76FF00C06C5E770
:109CF0006FF01506C2E700BF0000FFFF014B0360D5
:109D00000020704708F0040070B5446903460D4612
:109D1000002C3AD01DF05FFF002839D12148227A6B
:109D2000465CB24237D02048405C904236D1E2686F
:109D300018469047002815DA022D11D0032D10D1B6
:109D400010F1860F0CD0BFF35B8F231D53E8001F6B
:109D500041F0020143E80012002AF7D1BFF35B8F04
:109D6000267270BD022D267201D00020F9E704345E
:109D7000BFF35B8F54E8003F23F0020344E8003256
:109D8000002AF7D1BFF35B8FEFE76FF05700E8E7EA
:109D90004FF0FF30E5E76FF07700E2E76FF0850006
:109DA000DFE700BF241205002012050070B5114B3B
:109DB0001C680D46DCB1104B196800238B4202DB96
:109DC0006FF0010070BD224612F8106B864202D07F
:109DD00001331446F2E7E06810B96FF01200F1E7C2
:109DE00023F0B6FC0028F8D02C600020EAE76FF0E2
:109DF0000C00E7E78C03002008F0040070B588B081
:109E000005460C46C0B269461646FFF7CFFF00284C
:109E10001BDB0098C8B143680293836822680195F0
:109E2000CDE903360023CDE906230593C5681DF06F
:109E3000DCFE6DB12846084901AA22F0B9FC07985A
:109E400008B9059B236008B070BD6FF01500FAE7F4
:109E50006FF01200F7E700BFED7B0400F0B40C4B8D
:109E60000C4E5F6A0C4BB34203D36FF08500F0BC1D
:109E700070475D68BD4209D31C693CB195F802C0CA
:109E80000579AC4502D12346F0BC18472433EAE7F4
:109E90004C200020AB100020AB1000202DE9F04733
:109EA000134CDFF85080DFF8509005460E461746F9
:109EB000444503D36FF08500BDE8F0876268D9F8A8
:109EC00024309A4212D3A36983B1907829798842C9
:109ED00005D13A4631462846BDE8F0471847527941
:109EE000012A03D13A463146284698472434DFE711
:109EF000AB100020AB1000204C2000202DE9F041D9
:109F00000B4CDFF8308005460E461746444502D319
:109F10006FF0850009E063690BB92434F6E73A462F
:109F20003146284698470028F7D1BDE8F08100BFA8
:109F3000AB100020AB10002010B5044622F011FB3E
:109F400010F1780F00D050B9054A20461DF070FE80
:109F5000D2F8C43023EA0003C2F8C430002010BD98
:109F60004C200020024B00221A605A60704700BF4C
:109F70000721002070B50B4B0B4CA34201D30020EE
:109F800070BD196A1E7F00220439D5B2AE4201D8D5
:109F90002433F2E7013211F832508542F5D1012025
:109FA000EEE700BFAB100020AB10002008B5094859
:109FB0000378C3F341130A3350F823303BB100F167
:109FC000080200F110019847C043C00F08BD1846B1
:109FD000FCE700BF4C20002004282DE9F14FDFF8FA
:109FE000A09004460F4616D001282DD1DFF88C80B2
:109FF00098F8B93043B300F065FD1F4D4D4520D2B0
:10A00000D5F820B04FF0000A2B7F5FFA8AF6B342F2
:10A0100004D82435F2E7FFF7A5FFE7E70BEBC60608
:10A020000AF1010A307922F09CFA024630791DF0DB
:10A03000FFFDD8F8C430002A23EA0003C8F8C43072
:10A04000E2DA002388F8B9300B4D4D4508D30B4BAD
:10A050001B6A6BB13946204601B0BDE8F04F184786
:10A06000EB681BB13A462146284698472435ECE771
:10A0700001B0BDE8F08F00BFAB1000204C200020E5
:10A08000AB10002073B5C4B263060D468DF80740CF
:10A0900007D02046FFF76EFF78B10D4B93F8BA005A
:10A0A00058B10B4E204655B116F0D0F8F3691BB1EC
:10A0B0000DF1070108209847012002B070BD16F08D
:10A0C000EDF8F369002BF7D00DF107010920F2E755
:10A0D0004C20002073B586788DF8006003794279B2
:10A0E0001C4C43EA0223ADF80230C378304603F03B
:10A0F00003038DF804301DF09BFDD4F8C4301842E2
:10A1000005460BD0304600F0BFFC3046FFF714FF89
:10A1100023F0DEFB10B996201BF0CAFD684616F04E
:10A1200071F810F1780F03D010B1002002B070BDAB
:10A130009DF8000016F0EEF810F1780F01D000281D
:10A14000F3D1D4F8C43001202B4384F8B900C4F80B
:10A15000C430EBE74C2000202DE9F047A34EB36953
:10A1600004460F461546FBB9237803F01F03012B65
:10A1700000F09D80022B00F0048133BB94F90000B5
:10A180002A686178002834DA062912D008292BD0F1
:10A19000D9B901231370517096F8C3305B0043F0B6
:10A1A0000103137002232AE198470028DCD1002024
:10A1B0000DE06288100A011F0129844605D907288D
:10A1C00003D8716AD2B20C781CB96FF01500BDE8E3
:10A1D000F0874E78664503D19A4200F00B81013337
:10A1E0002144F0E70B780AE196F8BA3013700123A6
:10A1F00005E101390829E8D801A353F821F000BF8F
:10A2000099A20200CBA10200A7A20200CBA10200EA
:10A2100025A20200CBA10200CBA10200CBA102002B
:10A2200031A20200A07815F0DBFF0028BFD0CCE7F8
:10A230006388756A63BBFFF795FE638886F8BA305A
:10A24000F369002BB3D06A4903209847AFE76B78D6
:10A25000042B10D0052B11D0022B04D16F79638809
:10A26000BB4208BF01202B781D442B78002BEED178
:10A270000028AAD0DFE795F80380F4E76388BB42A3
:10A28000F1D1B8F1000FEED12846FFF723FFEAE73E
:10A29000FF270020B846E8E76388012B95D100230B
:10A2A00086F8C33083E76388012B8ED1F8E796F8F0
:10A2B000BA30D5F800C0002B87D0756AA38894F80F
:10A2C00004E02A46107800283FF47FAF5178022935
:10A2D00004D192F80480F04500F293800244F1E743
:10A2E0008CF800208CF80120396060E7154494E078
:10A2F0000B2A7FF46AAF00274FF0FF08C146BA4629
:10A3000006E06B78042B0FD0052B21D02B781D4451
:10A310002B78002BF5D1F36913B1514607209847EC
:10A32000002F7FF444AF50E795F80280A38895F89A
:10A3300003909845EAD163889945E7D1B8F1070FB2
:10A340001CD806EB0803AA4683F8BB900127DDE77B
:10A35000A3884345DAD1A3784B450AD0AF78384675
:10A3600000F092FB3846FFF7E7FDB0FA80F77F096F
:10A37000CCE72846FFF7AEFE0746C7E7AA46002708
:10A38000C4E794F900206378002A18DA002B7FF4E0
:10A390001CAF24792D6863060AD02046FFF7EAFD3A
:10A3A00000283FF412AF96F8BA30002B3FF40DAFFF
:10A3B0002946204615F092FF00236B70F2E6012B30
:10A3C00008D0032B7FF401AF6388002B7FF4FDAE30
:10A3D000012103E0618800297FF4F7AEA088FFF730
:10A3E00051FE00287FF4E3AEEFE600BF4C200020D2
:10A3F00006210020022829607FF4F4AE4B883B60E0
:10A40000D5E694F9000062780028BFF671AF002A03
:10A410003FF466AF0A2A7FF4D8AE2A78002A3FF4C8
:10A42000D4AE697804297FF461AFA9788B427FF4B8
:10A430005DAF072B96BF9B19002393F8BB308CF8B8
:10A440000030D4E613B5164C237DF3B9E268A16859
:10A45000019201AB80201DF0F9FB019AA36813441F
:10A46000A360E3689B1AE3606BB962B12369E28879
:10A470009A4208DD94F8C82093FBF2F102FB1133F5
:10A480000BB90123237502B010BD00231A461946EB
:10A490008020237502B0BDE8104015F065BF00BFF5
:10A4A0004C20002030B585B0002302460D460193B4
:10A4B000002858D1002935D108220B460DEB0201A6
:10A4C00022F068F8002804DA802015F0BFFE05B0FD
:10A4D00030BD2A4C029A2260039A626004F138026D
:10A4E000A2609DF90820BDF80E302575002AC4E948
:10A4F00003550ADB802B04D9802015F0A7FE00202D
:10A50000E3E713B1C4E90333E1E7FFF74FFD0028A8
:10A51000DAD0E28823699A42D4BFE260E360FFF7B1
:10A5200091FFD4E7154CD4E90215002D01AB04DCF2
:10A5300022F030F80028CADAC6E72A4622F02AF8C4
:10A540000028D9DB019AA3681344A360E3689B1A2F
:10A55000E360002BBBD104F13803A360FFF726FDB5
:10A560000028DCD1B0E78028B1D1044BDA68002A9A
:10A57000D5D11B7D002BD2D1A9E700BF4C200020F4
:10A58000054B064A9A62064ADA62064A1A63064A86
:10A5900058629A61002070474C20002059A10200A7
:10A5A0005D9E0200FD9E02009D9E020010B5084BBC
:10A5B00093F8B84034B900F0E3F830B1FFF7E0FFAA
:10A5C000204610BD6FF07700FBE74FF0FF30F8E753
:10A5D0004C2000202DE9F341414D04466F6A41486B
:10A5E0004FF0FF324FF0FF331AF0F8FD95F8B860E6
:10A5F000002E6ED13C482C62E86115F0CFFF15F0BB
:10A60000BDFD041E49DB00F081FA041E45DB7B78AA
:10A61000012B61D1FB79002B5ED0684685F8C830EC
:10A62000ADF802308DF804608DF8006015F0EAFD99
:10A63000041E32DB802768468DF8007015F0E2FDBD
:10A64000041E2ADB2949304615F094FF041E24DB42
:10A650002649384615F08EFF041E1EDB244CDFF819
:10A660009480444520D3002015F054FE041E14DBD2
:10A67000D5F8C430802043F00103C5F8C43015F08C
:10A6800049FE041E09DBD5F8C43043F48033C5F815
:10A69000C430012385F8B830002412481AF018FE9F
:10A6A000204602B0BDE8F081276A0026227FF3B27F
:10A6B0009A4201D82434D4E707EBC30257F8331089
:10A6C000107915F057FF01360028EFD04FF0FF3416
:10A6D000E3E76FF07704E0E76FF01504DDE700BF14
:10A6E0004C200020640E0020D99F0200A5A4020087
:10A6F000AB100020AB10002030B51F4B8BB005AA6B
:10A7000003F1100518685968144603C40833AB42B6
:10A710002246F7D11B7823701022002101A823F0D4
:10A72000CCFD12220021154823F0C7FD102101A8FD
:10A7300022F0BFF800281BDD0828B8BF0820093820
:10A7400001AB0E491A18002012F8013F0AAC04EBC5
:10A75000131403F00F0328336B44013014F8144C26
:10A7600013F8143C0C7008284B7001F10201EBD176
:10A7700002480BB030BD00BF28120500E3460020A0
:10A780002DE9F04F704C87B04FF0000B00264FF0D2
:10A79000011AB0463546B14623782BB96B4B0234CB
:10A7A0009C42F3D1684833E06378052B1BD8DFE87F
:10A7B00003F09003C8901D3B402304A88DF810B00F
:10A7C000ADF812308DF814B021F0B6FE40B1082378
:10A7D00004A8ADF8123021F0AFFE08B1ADF812B008
:10A7E000BDF81230E37123781C44D5E7E378002BE1
:10A7F000F9D1A3787BB108F101085FFA88F8F2E794
:10A800006B689C4209D02435514B9D42F8D30020FF
:10A8100007B0BDE8F08F4F4DF6E7AB68002BEAD0EC
:10A82000414620469847E6E7002DF0D000222B7FD6
:10A830009A42ECD2296AA07801EBC2010B799842C6
:10A8400001D00132F3E70127E07800F003008DF832
:10A850001400207994F805C040EA0C20ADF81200ED
:10A8600094F902000028FBB228DA07F110004FF03B
:10A87000010C0CFA00F010EA0A0F26D143F0800018
:10A880008DF8100004A8CDE90213019221F054FEC6
:10A89000DDE90121039BC0B99DF81020A27012F0E0
:10A8A000800F18BF10330A7118BFDBB24FF00102DE
:10A8B00014BF9A40BA404AEA020A94E70120B8401D
:10A8C00010EA0A0F01D11846DAE70137102FBBD181
:10A8D000B7E7032E1DD1FFF70FFF074668B1FBF75F
:10A8E0008BFD102809D13846A31C07F1100250F83F
:10A8F000041B43F8041B9042F9D123786FF0020146
:10A90000E218091B04EB5303D14213D50136F6B20A
:10A9100069E7002EF1D1B9F1000F3FF478AFA4EB55
:10A92000090389F80230C3F3072389F8033089F853
:10A930000480EBE702F801BC13F8010902F8020DEC
:10A94000E2E7A1464FE700BF40100020AB10002017
:10A95000AB100020AB10002010B5094B00211A46A7
:10A960001C78844205D15C681CB1482303FB01209C
:10A9700010BD0131042903F14803F1D10020F7E7AC
:10A98000182100202DE9F34150F8303C10F8346CC8
:10A990001033044610D1036950F8282C990739D593
:10A9A000EAB913F0040304D11A46194630461DF0E3
:10A9B0004DF9002344F8303C54F8303C10330BD0B0
:10A9C00054E9097554F81C8C22F082FF00284CD001
:10A9D0002C48214623F009F902B0BDE8F08150F877
:10A9E0002C1C01AB30461DF031F910B16FF015038E
:10A9F000E0E7019A54F82C3C134444F82C3C54F8FA
:10AA0000283C9B1A44F8283C54F8243C134444F84E
:10AA1000243CD1E750F82C1C01AB304615F020FD4A
:10AA20000028E3D1019D54F82C3C2B4444F82C3CE5
:10AA300054F8283C5B1B44F8283C54F8243C2B4435
:10AA400044F8243C002DB4D0304615F0ADFDB5FBE4
:10AA5000F0F303FB1055002DABD154F8283C002B2C
:10AA6000A7D0304615F044FDA6E744F8200CA4F129
:10AA700018001AF09DFC002DAED0424639463046F3
:10AA8000A847A9E7C81D002010B54FF02003EFF339
:10AA9000118483F31288BFF36F8FFFF75DFF50B10E
:10AAA0004368103307D16FF08B03436000F134012A
:10AAB000034823F09AF884F31188BFF36F8F10BD19
:10AAC000C81D002070B50F4C04254FF02003EFF394
:10AAD000118683F31288BFF36F8F6368103307D139
:10AAE0006FF08B030848636004F1340123F07DF8B4
:10AAF00086F31188BFF36F8F013D04F14804E4D160
:10AB000070BD00BF18210020C81D002070B50A4C80
:10AB10000A4E00253146204623F03AF80122A4F1DE
:10AB200018001146013522F0B0FF042D04F148044D
:10AB3000F0D1002070BD00BF4C21002085A902008B
:10AB40001FB507240294044C0194BDF818400094EA
:10AB500020F0F4FC04B010BDA70C002010B5084C88
:10AB600086B024788DF81740012402940DF1170463
:10AB70000194BDF82040009420F0E0FC06B010BD28
:10AB8000AE0C0020014B1878704700BFAE0C0020BF
:10AB900000B589B064288DF8070019D80E4B18222B
:10ABA0001870002102A823F088FB0C4B03930DF1D1
:10ABB0000703049302A901230020ADF8143005F027
:10ABC00017FB10F1800F08BF002009B05DF804FBEF
:10ABD0006FF01500F9E700BFAE0C0020ECF00400A8
:10ABE0002DE9F0410F4B1C6805460E461746ACB1E7
:10ABF0004FF0FF324FF0FF330B481AF0EFFA636863
:10AC00003246D3F8088029463B462046C0470446D2
:10AC100005481AF05DFB2046BDE8F0816FF00104A5
:10AC2000F9E700BF38220020500E00200023036007
:10AC3000044B5A6812B9C3E90000704710605860AD
:10AC4000704700BF3C220020014B1860704700BFD6
:10AC50003822002030B585B000230546CDE9023307
:10AC600001904FF0FF330C484FF0FF321AF0B6FA64
:10AC70000A4B1C684CB9284600F0CEF8044606483A
:10AC80001AF026FB204605B030BD636820461B68DD
:10AC900001A998472468EDE7500E00203C220020CF
:10ACA0001FB5CDE9010103924FF0FF330A484FF081
:10ACB000FF321AF093FA094B1C682CB906481AF0B7
:10ACC00007FB204604B010BD636820461B6801A93D
:10ACD00098472468F1E700BF500E00203C22002076
:10ACE000024B0022C3E90022704700BF3C22002033
:10ACF000024B0022C3E90022FFF7F2BF44220020EA
:10AD000070B51B4C1B4E0546B44212D31A4E1B485D
:10AD10004FF0FF324FF0FF331AF060FA34687CB125
:10AD2000286854F8141C143CFBF754FBC8B1646940
:10AD3000F5E721682868FBF74DFBA8B11434E3E779
:10AD400000226A61726805F114033AB9C6E900335A
:10AD500000240A481AF0BCFA204670BD13607360E4
:10AD6000F6E76FF01004F4E76FF01004F4E700BFAB
:10AD700074EB040028EC040044220020500E002054
:10AD80002DE9F74307460C4609B100230B601F4D20
:10AD9000DFF8809000264D450FD31D4B1D6885B30D
:10ADA00055F8148C01AA41463846143D1CF08AFF20
:10ADB00010B3D6B914BB2E461EE0D5F8008001AA08
:10ADC000414638461CF07EFF50B116B954B92E46A4
:10ADD00006E03168002240461CF074FF0028F5D1DF
:10ADE0001435D8E7019B2360F1E731680022404623
:10ADF0001CF068FF0028DDD16D69D0E7019B23605E
:10AE0000D9E7304603B0BDE8F08300BF74EB04001F
:10AE10004422002028EC0400F8B5184C184F0646D0
:10AE20000025BC4208D3174B1C682CB3143CB6B9A0
:10AE3000E368E3B96469F8E72EB9E3685BB92846CB
:10AE400014340546EDE72068002231461CF03AFF35
:10AE50000028F2D1F3E79847002DF0D1F0E7206801
:10AE6000002231461CF02EFF0028E1D1E2E798478E
:10AE7000002D08BF0546DDE72846F8BD74EB040049
:10AE800028EC04004422002038B50C4D0C484FF04B
:10AE9000FF334FF0FF321AF0A1F92B783BB9FFF7DF
:10AEA00027FF00F06DF8044610B901232B70002431
:10AEB00003481AF00DFA204638BD00BFF5460020C1
:10AEC000500E00202DE9F047048FDFF8B0A00134C8
:10AED00098B080468946A4B200F10806651EADB25E
:10AEE000B5F5004F47D04A2305AA294630461CF045
:10AEF00021FE04F57F543F34A4B2074621460123C6
:10AF00000DF10B0230461CF015FE002F014603DC4C
:10AF1000002803DC2C46E1E7002816DCB8F83830BE
:10AF2000AB4209D142466B1E22F8383F4FF4004134
:10AF300002233046FEF710FE294630461CF096FDEF
:10AF4000214630461CF092FDE4E707F160030DEB6B
:10AF50000307002307F84C3C5246CDF8009003ABA2
:10AF600005A80396ADF810401CF0E2FE0028D1D0F1
:10AF700018B0BDE8F0870020FAE700BF9F7D04000D
:10AF80007FB50123694602200193FEF70FFF0446B7
:10AF900060BB02AA01A90220FEF730FF044610B1EF
:10AFA00010F10C0F22D10399B1F5803F23D2009A02
:10AFB000002394681846084484421AD30133082BAE
:10AFC000F9D10E4DA982EB825368AB602846D36855
:10AFD000EB631CF07EFF044640B9094E6E602846C4
:10AFE000FFF724FE28466E60FFF72EFE204604B0D1
:10AFF00070BD9BB2E5E76FF02004F7E74C2200201C
:10B00000C8030020014B1868704700BFDC03002014
:10B01000F0B5082289B01DF034F9CB6A03930B6BAD
:10B0200004934B6B05938B6B0693CB6B0793134683
:10B030006A460C460646002711461046CDE90177C0
:10B0400000971DF02DF83146054630461DF028F8D2
:10B05000216B0391616B0491A16B0591E16B054438
:10B06000CDE90617104611461DF01AF83146054481
:10B0700030461DF015F80544206A0090606A019082
:10B08000A06A0290A06B0690E06B07903046CDE975
:10B09000047703971DF004F80544606A0090A06AE5
:10B0A0000190E06A0290A06BD4F834C00490E06B89
:10B0B000CDF80CC0CDE9050C206A079030461CF095
:10B0C000EFFF0544E06A0090206B0190606B0290F6
:10B0D000206A0690A06A07903046CDE9047703976E
:10B0E0001DF002F9236B0093636B0193A36B029332
:10B0F000E36B0393636A0693E36A07932D1A0823AD
:10B1000030461DF0F1F8636B0093A36B0193E36B82
:10B110000293236A0393636A0493A36ACDE9053714
:10B12000236B07932D1A082330461DF0DDF8A36B1F
:10B130000093E36BCDE90137636A0393A36A049339
:10B14000E36A0593636B07932D1A082330461DF0BD
:10B15000CBF82D1A10D40D4C35B9082231462046B3
:10B160001DF09BF801280FD00823224631463046B7
:10B170001DF0BAF82D1AEFE7044A0823314630468D
:10B180001CF08EFF2D18F8D409B0F0BD40F104007A
:10B190000449431E0F3013F8012F8A5C1A70834252
:10B1A000F9D170474D120500F0B5264E07460C4602
:10B1B0000FCE8DB001AD0FC50FCE0FC596E80700BD
:10B1C00085E807003846002F38D0002C38D0381FCB
:10B1D0002146024610344B780D781B0443EA056380
:10B1E000CD782B438D78043143EA05238C4242F815
:10B1F000043FF0D1144C04218A07036916D1C3F32C
:10B200000742A55C1A0EA25C42EA0562C3F3072559
:10B21000DBB2655DE35C42EA054242EA032221F0CB
:10B22000030330336B4453F82C3C534050F8042F45
:10B23000013153402C290361DED101200DB0F0BD56
:10B240002046FBE744EC04004D12050030BFFFF739
:10B25000FDBF00BF114B124A2DE9F041D518DFF8B0
:10B260004C80013DB5FBF3F55D430E4B08EB030449
:10B27000013CB4FBF3F403FB04540E1B07460A49DC
:10B28000304623F00CF8701942460021083E23F0A6
:10B2900014F87E6704F10800BDE8F08101000000A9
:10B2A000000000000400000028EC0400080000007A
:10B2B000044B99689869884203D003494FF0805243
:10B2C0000A6070472845002004ED00E0134B9A6A9D
:10B2D00012F0007F9A6A14BF1E201D2012F0807F9A
:10B2E0009A6A18BF1F2012F4002F9A6A18BF2120F3
:10B2F00012F4802F9A6A18BF222012F4003F9A6A33
:10B3000018BF232012F4803F9A6A6FEA02426FEA64
:10B3100012429A6218BF2420704700BF00ED00E07F
:10B3200010B5194B0246986A9C6A10F4805F14BFEE
:10B330001720162014F4006F9C6A18BF1820A4056B
:10B3400009D5986B986A000404D51AB19A6A22F458
:10B3500000429A6219200C4B9A6A12F4806F9A6A22
:10B3600018BF1A20D2050CD49B6A13F4005F18BFD3
:10B370001C20054A936A43F47F43936200230B70B9
:10B3800010BD1B20F5E700BF00ED00E010B51C4B21
:10B390000246986A9C6A10F0100F14BF112010200A
:10B3A00014F0080F9C6A18BF1220A40709D5586B27
:10B3B000986A000604D51AB19A6A22F080029A624D
:10B3C00013200F4B9A6A12F0010F9A6A18BF1420CB
:10B3D00012F0200F9A6A18BF1520D40658BF9B6A36
:10B3E000074B9A6A920642BF5A6A22F400525A6286
:10B3F0009A6A42F0FF029A6200230B7010BD00BFF0
:10B4000000ED00E070B5444B5B689CB00646C3F3AA
:10B410000803002585F31188BFF36F8F02F07F408A
:10B42000B0F17F4F11D102F00C0008280DD01007A9
:10B430004CBF0E4601250022033B8DF80720032B4D
:10B4400005D8DFE803F01E5C60592E46F3E70024C0
:10B450009DF807309BB96822314602A822F01FFFF1
:10B46000099B002D53D0C3F3080222B96FEA53237E
:10B470006FEA4323099302A920461DF05CFE1CB02D
:10B4800070BD254BDA6A9107E1D4DA6A002ADEDB67
:10B49000DA6A5200DBD55A69B16942F480725A61A6
:10B4A000BFF34F8FBFF36F8F5A6931F8021C22F43C
:10B4B00080725A61BFF34F8FBFF36F8F4DF60272E8
:10B4C000914209D09A6AD2B242B10DF1070101202E
:10B4D000FFF75CFF0446BBE73468B9E79A6A12F4E9
:10B4E0007F4F05D00DF107010120FFF719FFF1E7AC
:10B4F0009B6AB3F5803FAAD3FFF7E8FEEAE70DF1B8
:10B5000007010020E4E70DF107010020EDE723F437
:10B51000FF7323F00103ADE700ED00E0024A536939
:10B5200043F010035361704700ED00E0EFF3088033
:10B53000EFF3098101B57246FFF764FF01BD00BF5B
:10B54000044800232021C2180133302B82F8001355
:10B55000F9D1704700E100E0FEF7FCF8202080F30D
:10B56000118808484FF40061401880F30988EFF310
:10B5700014800221084380F31488BFF36F8F00F01A
:10B58000D5F8000018690020084B9B6883420BD156
:10B59000EFF3058343B1064B5A6842F080525A607C
:10B5A0005A6A22F400425A621AF0A2BB28450020CF
:10B5B00000ED00E0094A0A4993680968D96709491A
:10B5C00098674B6843F080534B60002383F31188E6
:10B5D000BFF36F8F9368D86F704700BF2845002076
:10B5E000E40A050000ED00E021498A6882F8C1E024
:10B5F0004FF030001044EFF3098C80E8F01F1EF08C
:10B60000100F03D102F1800080EC108A202080F31B
:10B610001288BFF36F8F174F4FF000668A698A60F8
:10B620003E604FF0740414192068134C206092F9A6
:10B63000C1E0906F0023936780F311881EF0100F14
:10B6400003D00023E1EE103A03E002F1800090EC19
:10B65000108AEFF3148323F0040383F31488BFF3F9
:10B660006F8F02F1300090E8F01F8CF3098870476B
:10B670002845002004ED00E08C2200201EF0040F7D
:10B680000CBFEFF30880EFF30980816911F8021C09
:10B690000229FFD001B51DF050FD01BD40B20028C8
:10B6A00007DB044A4109012300F01F00834042F8F0
:10B6B0002130704700E100E040B200280CDB430974
:10B6C000064900F01F0020330122824041F8232068
:10B6D000BFF34F8FBFF36F8F704700BF00E100E0F3
:10B6E000054B420900F01F0053F82220012303FA02
:10B6F00000F01040704700BF00E100E040B20028B9
:10B70000A8BF00F1604001F10101B8BF064B4FEA4C
:10B710004111ACBF00F5614000F00F00C9B2B4BFE9
:10B72000195480F80013704714ED00E0144A08B56E
:10B73000144B22F07F029A60BFF34F8FBFF36F8FDD
:10B74000D3F8882022F47002C3F88820D3F8882028
:10B7500042F4A002C3F888204FF04042C3F83422DC
:10B76000BFF34F8FBFF36F8F0023E1EE103A19F054
:10B77000C1FA1AF033FBFFF7E3FE19F009FB00BF33
:10B780000060020000ED00E042F8203C009B42F81F
:10B790001C3C019B42F8183C0A49029B42F8143CAD
:10B7A0004FF0807342F8043C21F00101002342F87D
:10B7B000081C203A83674FF47D430265C0F8C0300F
:10B7C000704700BFD5940200114B9B6883421BD188
:10B7D000EFF30580C0B94FF02002EFF3118182F33F
:10B7E0001288BFF36F8F1A7B22F002021A73EFF3F5
:10B7F000148323F0040383F31488BFF36F8F81F362
:10B800001188BFF36F8F70476FF01500704700BF4E
:10B81000284500200023E1EE103AEFF3148323F0D3
:10B82000040383F31488BFF36F8FBFF36F8F094B4B
:10B830009860094B406F1860104681F30988002119
:10B8400063B681F31188BFF36F8F00220023FDF7E9
:10B8500041FE00BF284500208C2200200149102213
:10B860000A60704710ED00E072B6404080F3118826
:10B87000BFF36F8FBFF34F8F30BF62B6BFF36F8FD1
:10B88000704700BF72B6494081F31188BFF34F8FF4
:10B8900020BF80F3118862B6704700BF01B5EFF397
:10B8A0000580A0F110004FEAC0000449014409C915
:10B8B0009847BDE80140024908470000A8E9040094
:10B8C000B1B20200024B034A0348012100F030B834
:10B8D0000000042000000020ECF10400084AC2F837
:10B8E00098000B6823F01F03034343F01003C2F8D2
:10B8F0009C308B6843F00103C2F8A030704700BF52
:10B9000000ED00E0044B0522C3F89420BFF34F8FF5
:10B91000BFF36F8F704700BF00ED00E0BFF35F8F94
:10B92000024B0022C3F89420704700BF00ED00E0F6
:10B9300010B5034C012322781DF01EFC207010BDB1
:10B94000F6460020F0B5454D2C68082C85B000F275
:10B950008280FFF7E3FF00200C2684420DD1404D8A
:10B96000404F2C706846FEF7C9F900240646A642EF
:10B970000AD1FFF7C7FF00201CE0696806FB001131
:10B98000FFF7ACFF0130E8E7009800EB04114FEA45
:10B99000041CCB683B40B3F5000F4AD00CD8B3F57C
:10B9A000001F30D0B3F5800F38D0B3F5801F12D010
:10B9B0006FF0150005B0F0BDB3F1807F42D0B3F158
:10B9C000007FF5D150F80C3088684A681DF0C4FB40
:10B9D00040F4802009E050F80C3088684A681DF077
:10B9E000BBFB40F0885040F43020039028780728B3
:10B9F000CDE90123DCD801A9FFF770FF2B780133D3
:10BA00002B700134B3E750F80C3088684A681DF099
:10BA1000A3FB40F0885040F40020E6E750F80C30DB
:10BA200088684A681DF098FB40F0007040F40030D0
:10BA3000DBE750F80C3088684A681DF08DFB40F059
:10BA40008270D2E750F80C3088684A681DF084FB99
:10BA500040F08870C9E74FF0FF30ABE7F8F1040021
:10BA6000F64600200000F0FF08B504481BF070FA0D
:10BA7000404080F311884FF0020002DF4D130500B3
:10BA800008B50649064821F00701C1F1005202F548
:10BA900080221BF0F8FB002008BD00BF03870020B8
:10BAA00090220020044A0123C2F840354FF0804222
:10BAB0000020C2F87835704700E001404FF0804325
:10BAC000C0B2C3F81C05BFF34F8F0549054BCA68C8
:10BAD00002F4E0621343CB60BFF34F8F00BFFDE77A
