:020000022000DC
:10600000D075002061B00200AF88040035B00200F6
:1060100035B0020035B0020035B0020000000000CB
:1060200000000000000000000000000085B1020038
:1060300035B0020000000000F1B0020035B00200EF
:10604000A5B3020031C70300A5B30200A5B3020047
:10605000A5B30200A5B30200A5B30200A5B30200D8
:10606000A5B30200A5B30200A5B30200A5B30200C8
:10607000A5B30200A5B30200A5B30200A5B30200B8
:10608000A5B30200A5B30200A5B30200A5B30200A8
:10609000A5B30200A5B30200A5B30200A5B3020098
:1060A000A5B30200A5B30200A5B30200A5B3020088
:1060B000A5B30200A5B30200A5B30200A5B3020078
:1060C000A5B30200A5B30200A5B30200A5B3020068
:1060D000A5B30200A5B30200A5B30200A5B3020058
:1060E000A5B30200A5B30200A5B30200A5B3020048
:1060F000A5B30200A5B30200A5B30200A5B3020038
:1061000053B94AB9002908BF00281CBF4FF0FF311E
:106110004FF0FF3000F00CB8ADF1080C6DE904CE83
:1061200000F008F8DDF804E0DDE9022304B0704770
:10613000704700BF2DE9F04786468C460846089E0A
:10614000154674461946002B40F0C2808542B2FACB
:1061500082F245D94AB1C2F1200300FA02FC2EFABC
:1061600003F3954043EA0C0C94404FEA154EA8B255
:10617000BCFBFEF8230C0EFB18CC08FB00F943EA2D
:106180000C43994528D9EB1808F1FF3704D29945FB
:1061900002D9A8F102072B44A3EB0903A4B2B3FB75
:1061A000FEFC0EFB1C330CFB00F044EA0344A0424F
:1061B00014D92C190CF1FF3304D2A04202D9ACF14E
:1061C00002032C44241A43EA07401EB1D4400023A2
:1061D00034607360BDE8F0874746DDE76346F1E76A
:1061E00092BB431B01214FEA154EAFB2B3FBFEFC3D
:1061F000200C0EFB1C330CFB07F840EA03439845C8
:1062000062D9EB180CF1FF3004D2984502D9ACF1F9
:1062100002002B44A3EB0803A4B2B3FBFEFC0EFB6D
:106220001C330CFB07F744EA0344A7424ED92C1950
:106230000CF1FF3304D2A74202D9ACF102032C4483
:10624000E41B43EA0040C0E7C2F1200320FA03F157
:10625000954090402EFA03F303434FEA154EAFB238
:10626000B1FBFEFC0EFB1C10190C0CFB07F841EAFD
:106270000041884504FA02F422D969180CF1FF3074
:1062800004D2884502D9ACF102002944A1EB0801EF
:106290009BB2B1FBFEFC0EFB1C110CFB07F743EAA3
:1062A00001439F420ED9EB180CF1FF3104D29F42FB
:1062B00002D9ACF102012B44DB1B41EA004192E719
:1062C0006046E3E76146F7E76046A3E76346B7E762
:1062D000834206D916B9002108467BE7C6E900E0EB
:1062E000F9E7B3FA83F78FB9834201D3724508D82F
:1062F000BEEB020460EB030301209C461EB90021A3
:1063000068E73846FAE7C6E9004CF8E7C7F1200C21
:10631000BB4022FA0CF41C432EFA0CF120FA0CF3C9
:10632000B84001434FEA14490EFA07F5B3FBF9F8F8
:106330001FFA84FE09FB18300B0C08FB0EFA43EA27
:1063400000439A4502FA07F240D9E31808F1FF30FA
:1063500004D29A4502D9A8F102002344A3EB0A0310
:1063600089B2B3FBF9F809FB183308FB0EFE41EACA
:1063700003418E452CD9611808F1FF3304D28E45B4
:1063800002D9A8F10203214443EA0040A0FB02988D
:10639000A1EB0E014145CE46434602D306D14D4501
:1063A00004D2B9EB020E68EB04030138002EA6D02C
:1063B000B5EB0E0261EB030101FA0CFC22FA07F3C4
:1063C0004CEA0303F940C6E9003198E74046C5E7C7
:1063D0004346D9E710F8012B11F8013B012A28BFE9
:1063E0009A42F7D0D01A7047034611F8012B03F8F0
:1063F000012B002AF9D17047034613F8012B002A1C
:10640000FBD1181A01387047F7B53E4DD5F85C310D
:10641000996811F0010121D101AA40F6034005F06D
:106420007DFE044600286AD10198C3681B789BB999
:10643000BFF35B8FD5F8D430BFF35B8F05F1D40287
:1064400003F00903BFF35B8F52E8001F42E80034FA
:10645000002CF9D1BFF35B8F19F05CF801AA002181
:1064600041F2030005F05AFE0446002847D1019B83
:10647000254EDA68D2F80100D2F8051003C6184696
:1064800019F048F8214601AA41F2010005F046FE44
:106490000446A0BB0198C3685A7885F870205A88D2
:1064A000A5F872201A7985F87120B3F80720A5F8AD
:1064B0007420B3F80530A5F8763019F02BF8214692
:1064C00001AA41F2020005F029FE0446B8B9019F75
:1064D000FA68531C413218685968344603C40833BB
:1064E00093422646F7D1094822F0A0FA384619F01F
:1064F00011F895F87C305B060AD46FF01204204640
:1065000003B0F0BD60000020D8000020E0000020B3
:1065100001AA002142F2030005F000FE0446002813
:10652000EDD1019BB64EDA68D2F80100D2F8051021
:1065300003C6184618F0EEFF214601AA42F20200F7
:1065400005F0ECFD04460028D9D1019CE368B3F8BE
:10655000012091B249B1D97839B1A5F80421DA788E
:10656000114606F1280026F00DFE204618F0D2FF55
:1065700095F87C6016F0200618D1022140F66D4097
:1065800005F070FD0446002800F0CC8002210C309C
:1065900025F02EFB0123037046702146324640F65B
:1065A0006D4005F0BBFD04460028A8D195F89C304D
:1065B0001F0712D501AA002142F21C0005F0AEFD12
:1065C000044600289BD10198C368D3F80120D3F872
:1065D0000530C5E9382318F09DFF95F8D8309E06A0
:1065E00024D50DF10201684622F0E3FC04460028A0
:1065F00085D1042142F2240005F034FD064600282E
:1066000000F0908004210C3025F0F2FABDF8003043
:106610000380BDF8023043802246314642F2240016
:1066200005F07CFD044600287FF469AF95F8D8306A
:106630005C0610D501AA002142F22A0005F06EFD89
:10664000044600287FF45BAF0198C3685B7885F847
:10665000203118F05FFF082142F2010005F002FD31
:10666000044600285ED008210C3025F0C1FA95F8C8
:10667000D81011F0400F024640F2022308BF032356
:1066800088074CBF43F02C0043F00C0095F8D9303C
:106690008F0648BF40F0400013F0090F95F8A23074
:1066A00018BF40F4006003F00603CE0748BF40F077
:1066B0001000062B08BF40F4C070002122F045FBFB
:1066C0002146002242F2010005F028FD0446002880
:1066D0007FF415AF95F87C30B5F80411980624D4F2
:1066E000C9B901AA41F2050005F018FD04460028C9
:1066F0007FF405AFB5F80431019C4BB9E368B3F8FA
:106700000120A5F804219A883E48114626F03AFD5A
:10671000204618F0FFFE082140F6014005F0A2FCDB
:10672000044638B96FF06804E9E60029F3D16FF048
:106730000404E4E608210C3025F05AFA95F8D83024
:10674000D907024653BF4FF000512BA1D1E90001F8
:106750002D4822F0FAFA2146002240F6014005F0C9
:10676000DDFC044600287FF4CAAE014601AA4FF6BC
:10677000014005F0D3FC044620BB019818F0CAFE86
:10678000214601AA4FF6024005F0C8FC0446C8B9EC
:106790000198C368B3F80130A5F8C13018F0BAFE0B
:1067A00095F8C1305B070DD501AA21464FF603408D
:1067B00005F0B4FC30B90198C3685B7885F8C03047
:1067C00018F0A8FE22F069FE044600287FF497AE78
:1067D00007F010FC044600287FF491AEEB79002B03
:1067E0003FF48DAE0821094822F0F2F905F04AFF86
:1067F00085E600BFAFF30080908800020080002093
:1068000038010020680100201088000234010020B7
:106810002DE9F843D0E90C35D0F82C805C193034E0
:10682000A0450F46164619D81D4DA3FB05011AA316
:10683000D3E90023FFF764FC0346A4EB0800A0FBA8
:10684000050123F07F4414A3D3E90023FFF758FC8C
:1068500020F07F403C603060BDE8F883DFF8409076
:106860000DA3D3E90023A8FB0901FFF749FC044667
:1068700005F1300008A3D3E90023A0FB0901FFF7CD
:106880003FFC24F07F4420F07F403C603060BDE856
:10689000F88300BFAFF300808D49FD1A07000000A8
:1068A00000CA9A3B000000009FED097B0E4B0F4A87
:1068B0000F4983ED007B9FED087B82ED007B9FED10
:1068C000087B0C4B002281ED007B1A600DF0E2BBCF
:1068D000FFFFFFFFFF1F000000000000000000009E
:1068E0001F00000000000000E001002078180020D8
:1068F000D80100209C2C0020002800F046812DE9C2
:10690000F04FC94C94F86A2012F001058DB040F0A8
:10691000788194F82500FF2300F0030084F82630E6
:1069200015F0F0FA94F86A00420727D494F8292069
:1069300094F8353004EB820204EB8303D66AD3F873
:10694000388086B1B84831460FF058F933785B0685
:1069500005D506210AF02AFC002800F05481B2482F
:1069600041460FF04BF9337813F00E0F40F09E8044
:10697000236A93B10C200DB0BDE8F08F2A4604F1D4
:106980006B01C0F3C00015F02DFCFF2884F8260031
:10699000CCD0284615F0D0FAC8E70CF0C5FC8146EB
:1069A000002800F054810CF0CBFC8246002800F057
:1069B0004B810FF011FC0546002800F04A81D0F809
:1069C00088004FF6FF732B8505F11C0B002800F0A3
:1069D000208105F17C0205F178010AF0F3FBB5F89E
:1069E000763023F4EF6323F0070343F4887343F016
:1069F0000103A5F8763095F8393003F03F0363F0D2
:106A00007F0385F8393095F88E3023F0070385F839
:106A10008E3095F83C3023F00703002785F83C3092
:106A20004FF4C023C5F888312846C5E91277C5F868
:106A30008870A5F88C706F86C5F82E7085F83B704D
:106A40002F65A5F88E71A5F8847111F037FD85F8D2
:106A50005071C5F854910FF04BFE95F8943160F3E6
:106A6000020385F894310FF049FE95F8943160F3F4
:106A7000C50385F8943195F8803167F3410385F8B3
:106A800080310121284610F055FA05F1D40011F0AB
:106A9000CFFAC4E9189AC4F820B0C5E905772F7079
:106AA000ED6116F0E5FB002840F0AF8094F824304B
:106AB0000121C3F342030DF12B008DF82B300AF0B6
:106AC0001FFD0246002862D098F8011030460EF0F3
:106AD00057FE31235549A360554BB4F86870A0FBAD
:106AE00001010025C01841F107014DA3D3E900239E
:106AF000C4E9055525706560E560FFF701FB20617D
:106B00000BF010FF00F109083FB9357805F00F05CB
:106B1000A5F10105B5FA85F56D0994F824002369FE
:106B200065F3000010F0010584F8240036D0414AD6
:106B300009920020106002253F4A404F04930BAE9B
:106B4000019305920321CDE902000694434600908B
:106B5000089607972A460B950BF0E6FD31460CF098
:106B6000A9FCA0B9364905914AF2D8330093CDE982
:106B70000300CDE9010007970896069443460122D9
:106B800003210B950BF0B4FD2EE00EF049BD236AF6
:106B9000002B3FF4EFAE0EF001FDEBE6254A29484D
:106BA000049303F247130694029591211360A7FB07
:106BB000000301FB0731214B07931F4B05934FF651
:106BC000FF730992022703930BAE15A3D3E90023A9
:106BD0000B970896FFF794FA4346CDE900503A46E2
:106BE000284603210BF0A0FD31460CF063FC002881
:106BF000CDD194F86A300120034384F86A3015F04F
:106C000063F90020B7E61220B5E60EF0C7FC0320BA
:106C1000B1E605F18000C5F88800DAE6AFF3008040
:106C20008D49FD1A07000000D42C002000CA9A3BB1
:106C30008C49FD1AC82C0020FD570300792A030057
:106C400019530300002AE78448460CF073FB072021
:106C500091E650460CF07AFB48460CF06BFBF6E7E9
:106C600070B590F824308AB0C3F342030D46044651
:106C700001210DF1230016468DF823300AF040FC67
:106C80007178024628460EF07BFD1F491F4AA0FB83
:106C90000131981841F1070119A3D3E90023FFF747
:106CA0002FFA23699842054621D21B1A002201922D
:106CB000174A0293174BA21AA3FB02320221920930
:106CC00000230A4409AE099113490591CDE9033324
:106CD0000321D2B20696009318460BF085FD31468B
:106CE0000CF0E8FB38B9256100200AB070BDFBD973
:106CF000C21A0023DBE70C200AB070BDAFF300809E
:106D00008D49FD1A0700000000CA9A3B8C49FD1A04
:106D1000D42C002009CB3D8D792A0300000000000F
:106D20002DE9F04F05468BB08B46012002219A4693
:106D3000144618F087F900220221814601200AF04A
:106D400091FA39494FF4D07228460AF01BFAC61C52
:106D5000F6B2364B00953246012100200BF05CFD67
:106D600010F0FD0F0CD0324A3249334840F62F0361
:106D700020F02BF8404080F311884FF0030002DF31
:106D80002E4BA4FB0348204625A3D3E9002341460C
:106D9000FFF7B6F9089506952B690493284B20F068
:106DA0007F47A7FB0331E01A264B07934FF00702FA
:106DB000254B059302FB07114FF6FE7368EB0101AB
:106DC00003934FF47A720023FFF79AF9CDF800B0DD
:106DD000CDE9017053463246012100200BF088FCBA
:106DE00010F0FD0F0CD0124A1249134840F644032C
:106DF0001FF0EBFF404080F311884FF0030002DFEB
:106E0000B9F1000F02D10BB0BDE8F08F01220221D1
:106E100010460BB0BDE8F04F0AF024BAAFF3008083
:106E20008D49FD1A070000008018002081610300D1
:106E300098F104005CF20400D0EC040000CA9A3B14
:106E40008D49FD1A2961030031B4030000000000E0
:106E50002DE9F043C469228D4FF6FF739A428DB03D
:106E600000F088800546204611F0AAFD95F82830EC
:106E7000012B00F00F81022B00F00281002B00F0AB
:106E8000E18094F85071002F40F0FD80E68DB4F859
:106E90003080002E71D1AA8C08F101060023CDE9C3
:106EA0000A33B6B2002A70D094F93930002BC0F200
:106EB00048810023A4F88A3195F82630D90740F19B
:106EC000EF800023A4F88E310DF1270231462046D1
:106ED00011F030FB743000F04681B4F888312BB1EA
:106EE000B34240F20D819B1BA4F88831B4F8843181
:106EF0002BB1B34240F2FB809B1BA4F88431258E5A
:106F000017B9A84500F0EA800135ADB294F8D13048
:106F100013F001065AD1DDE90A130A46002B40F0AE
:106F2000ED80002900F0DC801E461846228DE469C1
:106F30000694CDE903570332A74D0290CDE9001620
:106F4000D2B20121002005950BF04EFC10F0FD0F90
:106F500010D00CF0D9FA84420CD0A04AA049A14824
:106F600040F215531FF031FF404080F311884FF07D
:106F7000030002DF0DB0BDE8F083AA8C4644002375
:106F8000CDE90A33B6B2002A8ED195F82630DA0759
:106F900097D4B4F88A31002B00F08280B34240F2DB
:106FA000FA809B1BA4F88A31B4F88E31002B8BD069
:106FB0009E4280F0DE809B1B9BB20022062BA4F831
:106FC0008E31228600F2AC8001277DE794F93920CA
:106FD0006FF30003002A84F8D13077DB94F8760051
:106FE000C0F3C00100F0070015F0A8FFB4F86E2050
:106FF000B4F86C30134403F2D51303447A4A7B4847
:107000000721E3FB0021104671A3D3E90023FFF71A
:1070100077F8DDE90A1320F07F422069226190426F
:1070200035BF161A801A002000260A46002B7FF46E
:107030007DAF56EA010C7FF479AF002850D0194695
:107040001E4673E794F88E3003F01803182B7FF474
:1070500018AFA18DB4F886218B1D9A42C4BF931F2F
:107060005B1AB4F88211CCBF9BB21346994200F070
:107070008C80A4F88231A4F88431A4F8882100E738
:107080003D2784F85071394620460DB0BDE8F043E5
:107090000FF010BC0023A4F88831A4F88431F0E686
:1070A000B4F88E31002B83D1628DB4F88C3140F26C
:1070B000E24101FB02F242F2107101FB0323013BAA
:1070C000B3FBF2F39BB2A4F88E316FE794F877002C
:1070D000012100F0070015F033FF87E73D4615E773
:1070E000002D4BD000261146304633461EE70023C4
:1070F000A4F88431204611F0BDFA00E7304615E7C8
:107100000CF06AF9014600283BD00023A4F888312E
:10711000238DC3801B23037100680CF027F9E5E67B
:1071200094F939309342BFF6CFAEB8F1000F7FF437
:107130004BAFD4F878315A08DB0743D4C4F8782130
:10714000C2E628460AAA0BA904F1D409FFF760FB9E
:10715000484610F0AFFF18B3484610F0ABFF18B325
:1071600000232386A5E69DF8271020460FF0A2FBFA
:1071700000E7082120460FF09DFBFBE6002FB1D170
:10718000F8E60123A4F88831B0E6B4F888110029A4
:107190007FF477AE6FE73E2120460FF08BFBE9E6E8
:1071A000FF200FF047FBD7E70246D4E91E010AF0A3
:1071B00021F80028D4D194F83C30580744BFA38D5F
:1071C000238676E642F00042C4F87821FCE600BF50
:1071D0008D49FD1A07000000E960030098F10400E2
:1071E000C0F20400D0EC04008C49FD1A00CA9A3B9E
:1071F0002DE9F04F87B0CDE90423BDF84420037892
:107200000292BDF84820BDF84080BDF84C50468E33
:10721000B0F82E90B0F814B1019104460392002BFF
:1072200000F08E80013EB6B2A368D4F80C71721BD8
:1072300092B2002B009209DAE168626823F0004301
:1072400091422CBF7F18BF18A360FF1A009A638D6C
:1072500013FB02F39BB2B3FBF8F218FB02F080B20F
:1072600083421FFA82FA5AD2C01A40F2E2425E49C1
:1072700002FB00F0A0FB010159A3D3E90023FEF7B4
:107280003FFF20F07F400744D94494F839304D4403
:10729000AD1B554440F2E246DB09E58506FB08F5E7
:1072A00052D1524A5249534840F6BA031FF08DFD5D
:1072B000404080F311884FF0030002DF0026A9460A
:1072C000029BA385039BA4F88C3129462046A4F891
:1072D0002A8011F06BF9484BA18D2B44881DB3FB1C
:1072E000F5F39AB29042A4F8862102D2521A063AD5
:1072F00092B2019BA4F8822113B10023A4F88E312D
:107300003B464A4631462046FFF70AFD94F8803155
:1073100043F0010384F8803107B0BDE8F08F08FB2B
:107320001231314840F2E24389B203FB01F1A1FB83
:1073300000012BA3D3E90023FEF7E2FE3F1AA3E7E7
:107340004E445E44B6B26FE7226C0099A36CDFF83E
:1073500098B002FB1133A36415F0DAFF814694F86C
:107360007401C0F3420015F0D5FF049B814406FB75
:1073700003F305FB09F9236509F574291F4B09F28D
:107380003F29A3FB09394FEA994303FB0AF0236421
:10739000A5EB0309A36C6A080344963A934228BFFD
:1073A0001346C4E911230023C4F87C31A0FB0B0170
:1073B0000BA3D3E90023FEF7A3FE114B059A3F1A56
:1073C000A3FB0230800A06FB00F005A3D3E90023EB
:1073D000A0FB0B01FEF794FE20F07F4670E700BF94
:1073E0008D49FD1A0700000000CA9A3B98F104007D
:1073F00050ED0400D0EC04007FC3C90183DE1B43C1
:107400005917B7D1000000002DE9F04F0B6891F833
:107410001180D3F80090037F176895B00446C3F33A
:107420008013D0F81E008DF83F30B8F1FF0F638C49
:1074300012900E461546ADF84C300DF1480A49D170
:107440009AE803001090ADF844102346E28D53F8FB
:107450002EBB9B78AB722A81D4F82A306B60D4F8AB
:107460003A30AB6105F1180094F83E300371052104
:107470000AF046F86B7F00F03F0060F305036B777E
:1074800094F83F30C3F30402AA77A28EEA81012860
:1074900003F01F0392B205D91B3303F01F030B2B1C
:1074A00000D81ABB0022C9F8142095F8203062F3E6
:1074B000000385F82030E5680126584621462671EC
:1074C0000BF04AFF28682E7129460BF04FFF15B0CC
:1074D000BDE8F08F10AA0DF13F01404614F0A0FA6C
:1074E0009DF83F3002338DF83F30AEE7336800211E
:1074F0005960E38EEA892B8240F2E24303FB02F2F9
:107500000B92628E0D92384611F064F894F83F2089
:1075100097F87411520962F3430187F8741115F05A
:10752000F7FE0C9097F87401C0F3420015F0F2FEDC
:107530000C9A0B99104401FB00F0B94A00F5742035
:1075400000F23F20A2FB00204A08800C963A6862B5
:10755000AA6294F8312040F2E24302FB03F3AB63EA
:10756000238FA7F88C31384611F020F80B99AD4BDA
:10757000AD4AC7F890210B44B3FBF1F39AB2A7F8D8
:107580008621298A881D824204DDC1F57F41FA31B6
:107590000A4492B2A7F882216B68C7F87831234673
:1075A00013F81C2FC2F340120C92DA0700F113817A
:1075B0004FF48073A38399F8260014F027FF04F199
:1075C0002B03002800F0EB80626AC4F82B20228D88
:1075D0009A80B8F1FF0F00F0E680BAF804301298F4
:1075E000A4F82930C4F825009DF83F30A3771098FF
:1075F000BDF84430C4F81F00A4F82330EB8963863B
:107600002B8AA386B7F88C31E38697F87431C3F3DD
:10761000420384F8383038460EF0EAFDA881E08055
:107620002146584674680BF097FEAB89E3801C2313
:1076300023710C9BD4F80080002B40F0BA800C9B87
:107640002377214640460BF091FE95F85B00B5F894
:107650005080B5F85240012100F0070015F070FC91
:10766000444404F2D514DFF8CC81044482466F48C8
:107670000721E4FB080131230024BB607C6066A382
:10768000D3E90023FC60FEF73BFD20F07F4038612A
:107690000B9B6D6A0D995D1BF36840F2E24202FBA1
:1076A000013303F2B241A1EB0A0A22460221012072
:1076B00009F0D8FD48460EF05DFA0246AAFB080123
:1076C000924655A3D3E90023FEF71AFDCDF80490A6
:1076D000B3685749009120F07F480AF102023A3B13
:1076E000D2B22046434401210BF0D8F801287FD0C4
:1076F00099F82430DB0766D438460EF079FD4D4BFF
:10770000A5FB03A9044644A3D3E9002350464946F8
:10771000FEF7F6FC484BB668484A079220F07F45D2
:10772000A5FB0331BAEB0300454B059340F2D1139F
:10773000069708933B694FF0000BCDE903B34FF078
:10774000070303FB051169EB01014FF47A72002373
:10775000FEF7D6FC03343A3EE4B2CDE90150CDF851
:10776000008033462246012158460AF0C1FF10F03E
:10777000FD0F0CD0334A344934484FF4E9731FF0FD
:1077800024FB404080F311884FF0030002DF012208
:107790000221104609F066FD15B0BDE8F08FC4F86F
:1077A0002B00988015E70022C4F82520A4F8292092
:1077B0001AE76B7F43F040036B77281D13F03AFF05
:1077C0000123E8833CE70023012200931846114679
:1077D0000BF022F890E71B4A1D491C48F8231FF0C4
:1077E000F4FA404080F311884FF0030002DFDFE637
:1077F0000BF08AFE81453FF47BAF124A15491348CE
:1078000040F279231FF0E1FA404080F311884FF0F5
:10781000030002DF6CE700BF8D49FD1A070000007E
:1078200083DE1B437FC3C901404B4C008C49FD1ACA
:10783000F5B3030000CA9A3B8D49FD1AC5B3030096
:1078400031B4030048F704005CF20400D0EC0400FB
:107850006CEF0400A4F7040010B5334C3349002347
:1078600004F1FF3C14F83320072A02EB820E05D8FE
:1078700011F83E206FF3451201F83E201CF833202A
:107880006FF300020CF833200133082BEAD1284AA9
:10789000284C002313700A7863F300020A7091F8F1
:1078A000282063F3000281F8282091F8502063F328
:1078B000000281F8502091F8782063F3000281F8EB
:1078C000782091F8A02063F3000281F8A02091F8BD
:1078D000C82063F3000281F8C82091F8F02063F318
:1078E000000281F8F02091F8182163F3000281F87A
:1078F0001821114A9FED0A7B1370104B83ED007B1A
:107900000F4B236028B1BDE810400E490E4825F00A
:1079100000BDBDE810400C4825F009BDAFF3008064
:10792000FFFFFFFFFFFFFFFF7D3300203C32002001
:10793000CF4600204C310020CE460020501A0020B7
:10794000A0BB0D0025C10300201A0020000000008C
:107950002DE9F04F8FB00DF137010446DFF8E0A0BC
:10796000DFF8E0800DF136000BF07EFD9DF836303B
:107970009DF837B00B930AF0D5FFDAF80060A6FB4C
:10798000085629A3D3E9002300278146314628461B
:10799000FEF7B6FBCDE90777069420F07F44DAF8CE
:1079A0000400234B0593A0FB08011FA3D3E9002388
:1079B000FEF7A6FB1F4B20F07F40A4FB03310722FC
:1079C00002FB0411CDE90370E81A66EB01014FF4E4
:1079D0007A720023FEF794FB0097CDE901404B46F5
:1079E0000B985A4603210AF083FE10F0FD0404D0E0
:1079F0006FF08B000FB0BDE8F08F0F480F4A0023E7
:107A00001DF004FA20B9DAF80C000FB0BDE8F08FD1
:107A10009DF837209DF836000094234603210AF094
:107A2000FBFE6FF07300E5E78D49FD1A07000000CB
:107A3000B9C603008D49FD1AF0330020447B0B00CA
:107A40000834002000CA9A3B38B50F4D04460AF0AE
:107A500069FFA9680AF068FF696803460B48B3FB31
:107A6000F4F4A1FB00011C4405A3D3E90023FEF7B5
:107A700047FB20F07F40844294BF0020012038BDA6
:107A80008D49FD1A070000000834002000CA9A3B07
:107A9000F0B5C468636883B00546002B63D116F067
:107AA0005DFE002016F080FE0021084616F06EFEF6
:107AB00000222521082016F0ADFE454B019301A8B8
:107AC00016F090FE434940F25B6016F035FF237AD2
:107AD000C3F3420262F306132046237215F038FE08
:107AE00014F068FD58BB637A9B071FD127682E6886
:107AF000384615F0C1F906446A6806F1090101200B
:107B000017F062F817F020F920460EF03FF8811CBC
:107B10003246C9B2384615F0BDF9054670BB20465D
:107B200015F052F988B9002003B0F0BD012014F01F
:107B3000BFF94178821C007816F0E6FFD6E7607A3C
:107B400010F0030018BF0120F1E7234A234924481D
:107B500040F22C431FF039F9404080F311884FF078
:107B6000030002DFDFE793F820309A0797D01D4823
:107B7000214616F0B1FD16F099FED4E7164A1A49CF
:107B8000174840F214431FF020F9184B0721A5FBBA
:107B9000030301FB05310CA3D3E90023FEF7B0FA80
:107BA0001349024613481FF010F9404080F3118832
:107BB0004FF0030002DF1048214616F08DFD16F04D
:107BC00075FE6FF08B00AFE700CA9A3B0000000023
:107BD000D6BE898E5555550078FB04003CEE040056
:107BE000D0EC04001DD0030050ED04008D49FD1AB7
:107BF00028FC0400FCFB040021D30300000000006B
:107C00002DE9F041C468A2894FF6FF739A4282B011
:107C100000F0C780054616F0C3F82B89628AE08A17
:107C20001A4492B21044637FA28280B2411CE18266
:107C30005E064FF00001618204F1180100F18C80B2
:107C400003F03F000B46A17F009004F11F0013F0EA
:107C5000A9FC0646D4E90B231344D4E90D02002104
:107C60000244E1626163A16AA26394F872208B42CC
:107C700028BF0B4612F00402236377D016F06EFD86
:107C8000002016F091FD201D16F0ACFD2389A17A8D
:107C900040F25B6043EA014116F04EFE304615F0BB
:107CA0000BF92146584816F017FD962016F080FF74
:107CB00094F85A2094F85B00C2F3C003002102F04C
:107CC000070200F0070016F09DFE204616F0CAF8E5
:107CD00027682E68384615F0CFF806446A6806F122
:107CE0000901002016F070FF804617F001F800200F
:107CF00017F018F8236B94F85B0003F13002A36BC4
:107D000000F00700012103EB420516F0C1FD4544D8
:107D1000054494F85B0000F00700022824D00428F2
:107D20000CBF4FF4BC73282301211D4416F0B2FD93
:107D3000284416F0CFFFA18903313246C9B2384634
:107D400015F0A8F8054698BB204615F03DF8D0B9C7
:107D5000002002B0BDE8F0810A4603F03F03E18B4A
:107D600013F06CFC064675E71823DDE7D4E917012C
:107D700009F040FA002881D194F8723043F00403EE
:107D800084F872307AE7214A2149224840F255139B
:107D90001FF01BF8404080F311884FF0030002DF12
:107DA000D6E71D48214616F097FC16F07FFDCFE779
:107DB000164A1A49174840F24B131FF006F8184BA1
:107DC0000721A5FB030301FB05310DA3D3E9002324
:107DD000FEF796F91349024613481EF0F6FF40409D
:107DE00080F311884FF0030002DF1048214616F09F
:107DF00073FC16F05BFD6FF08B00AAE7AFF3008019
:107E000000CA9A3B00000000BDE00300A0FC040093
:107E10003CEE0400D0EC04001DD0030050ED040043
:107E20008D49FD1AF4FC0400FCFB0400F9CF0300AB
:107E30002DE9F0472DED028B9FED498B4A4E84B022
:107E400004464FF02003EFF3118783F31288BFF34A
:107E50006F8FD4F8C8508DB9022104F1E00025F0ED
:107E6000A1F9002843D100238DED008B029304F18A
:107E7000D00239463D481DF0A7FCE2E7D4F8CC20FB
:107E80002B68C4F8C830954208BFC4F8CC30D4F889
:107E9000E03043F00203C4F8E030EB6823F0040361
:107EA00043F00103EB606B6887F31188BFF36F8FBA
:107EB000284698474FF02003EFF3118983F3128887
:107EC000BFF36F8FEB68990723F0010219D4EA60C2
:107ED000D4F8E03023F00203C4F8E03089F31188CD
:107EE000BFF36F8FDB05ACD41DF04EFBA9E704F1A7
:107EF000D80500220121284625F05AFB0028F8D198
:107F0000B1E7306823F00303EB600028E0D00027DE
:107F1000D0F80080BA460028DAD04268954201467F
:107F20000BD1016897B972683160824200D17160EB
:107F300040F808AB1CF044FF3946B8F1000F0BD0F5
:107F4000D8F8002040460F469046E4E73960726852
:107F5000824208BF7760EBE74246F3E7AFF3008069
:107F6000FFFFFFFFFFFFFFFF744400207D4B002059
:107F700001481DF027B800BF4002002007B525F0DA
:107F800054FB4FF47A72A0FB020302FB0131C00BD9
:107F9000074A40EA4140106000234FF40042054880
:107FA000CDE900231DF0EEFD002003B05DF804FBD9
:107FB000F81D0020600C0020014B187800F042BA38
:107FC00024450020044B1A78824202D01870FFF733
:107FD000F3BF0020704700BF2445002008B525F0FE
:107FE00024FB4FF47A72A0FB020302FB0131084A22
:107FF000C30B126843EA41439B1A47F23052934243
:1080000004DDBDE808400120FFF7DCBF08BD00BF6C
:10801000F81D002008B525F008FB4FF47A72A0FB8C
:10802000020302FB0131C00B044A40EA41401060E8
:10803000BDE808400020FFF7C5BF00BFF81D0020C5
:10804000014B1878704700BF24450020F8B504465E
:1080500010B900252846F8BD0378002BF9D00F4E43
:108060000F4FBE420FD30D4EBE42F2D2306824F005
:10807000ECFE30B1356821462868FEF7ABF90028E0
:10808000E8D00436F0E7306824F0DFFE18B1356838
:108090002B68A342DED00436E3E700BF131D0500C2
:1080A000131D050070B5194C194D8CB0002200232A
:1080B00003A920461CF040FD08B10CB070BD2B6830
:1080C000059E5868DDE903121EF02DF90028EDDB4E
:1080D000FF238DF81830B6FA86F35B0907908DF808
:1080E000203025F0A2FA4FF47A72A0FB020302FBC3
:1080F0000131C00B40EA4140C90B8DE8030006ABDB
:10810000CDE90A010FCB00F0B7F9CFE7A00D0020B1
:10811000601F00201FB50A4C2468A46884420DD15A
:1081200083F00103CDE901120393064800220023E6
:1081300001A91CF0ABFC04481CF044FF04B010BDC6
:10814000601F0020A00D0020501F00201FB500233D
:10815000CDE90233044B8DF80C0001A801931EF009
:1081600009F905B05DF804FBBCE40400044B1A688F
:10817000044B9A4214BF6FF012000020704700BFFA
:10818000601F0020A8E4040038B5044628B3144D4D
:108190002B6883421FD02BB1986818B183685B6845
:1081A00003B198470F49104B8C4214BFED210021B9
:1081B000552200201EF0D1F800280DDBA0682C60AD
:1081C00048B1836809491B6898472B689868836899
:1081D0009B6803B19847002038BD6FF01200FBE7A1
:1081E000601F0020A8E40400FC1D0020158102008F
:1081F00038B5054648B90648FFF7C6FF041E02DB3E
:108200002846FFF7A3FF204638BD6FF01504FAE7B4
:10821000A8E40400F7B50C4615460D4901AA1E4610
:108220001FF006F968B1019B6BB9012C0DD1094F04
:10823000224639463046A847002802DD3878FFF745
:10824000D7FF03B0F0BD0020FBE76FF01500F8E7A3
:10825000A2050500A80B00200148FFF795BF00BF4D
:10826000A8E4040008B50749074825F00EF8074AB6
:10827000002342F8043B0133552BFAD1BDE80840F6
:10828000FFF7EABFA5800200501F0020FC1D002060
:10829000F8B50F4D0F4E761B07460C4605EBC10592
:1082A000C6F3C706A64201DC00200CE02A683B6842
:1082B0009A4209D13C716B6838461B68984718B1DF
:1082C000431E012BF0D9F8BD01340835EAE700BFA1
:1082D000100D0500400D050000B58BB0064B074A98
:1082E000282168461DF026FD05490122684602F056
:1082F000FBF90BB05DF804FBEA050500F405050089
:10830000254500202DE9F8434768044600254FF035
:1083100001087B68AB420DD82149224824F0F9FFBF
:10832000A3681B680BB120469847398939BB0020E8
:10833000BDE8F8833A6802EBC50352F835001979B5
:10834000DB88D0F810C0D0F80890DCF80060DA07BD
:1083500054BF43F4B01383F4D01323F4801208FA0B
:1083600001FEDB074CBF46EA0E0626EA0E06CCF8F5
:108370000060D9F80030984770B90135C9E740F27C
:10838000E7304FF47A72002300EBC1300021FDF793
:10839000B7FE1DF07BF9CAE76FF00400C8E700BF25
:1083A000D9820200D80F002008B5074B5A784AB985
:1083B00001221A700548002200231CF06BFE0448BD
:1083C0001DF0EEFF002008BD25450020D80F00203D
:1083D00088DF040008B54FF4F012002302481CF0B7
:1083E0008DFE00EAE07008BDD80F0020F7B50C46FE
:1083F0001646114901AA1F461FF01AF8B0B1019B99
:10840000A3B9012C15D10D4D224629463846B04757
:10841000002806DB2B780A486C7023B11DF0C0FFE2
:10842000002003B0F0BD1DF0D7FFF9E76FF00100A9
:10843000F7E76FF01500F4E7EA0505002545002091
:1084400088DF04001FB50023CDE90233044B8DF80B
:108450000C0001A801931DF08DFF05B05DF804FB31
:10846000E0E404000268034B9A420CBF083000208D
:10847000704700BFE0E4040084B030B589B00CACB4
:1084800084E80F00002301930CAD084B00930FCD3F
:1084900002AC0FC495E8030084E8030068461DF0B1
:1084A00069FF09B0BDE8304004B07047E4E404005F
:1084B0000268034B9A420CBF08300020704700BF8F
:1084C000E4E404001FB50023CDE90233044B8DF82A
:1084D0000C0001A801931DF04DFF05B05DF804FBF1
:1084E000ECE404001FB50023CDE90233044B8DF802
:1084F0000C0001A801931DF03DFF05B05DF804FBE1
:10850000F4E404000268034B9A420CBF08300020D8
:10851000704700BFF4E4040008B500F0B1FDBDE809
:108520000840014924F0DEBE5002002007B508488B
:1085300024F08BFC48B14FF4F0120023CDE9002366
:108540000448002200231DF01DFB03B05DF804FB6E
:10855000D8DF0400980C002008B5FFF783FF10B99E
:108560006FF0850008BDFFF76BFD38B10138C0B270
:108570000128F5D8034825F09FF801E0FFF7D6FF62
:108580000020EFE7980C002037B5104CA5682D218E
:10859000EB6820469847B8B92D212B696A462046DA
:1085A000984788B90A4C00982378834204D0C0B217
:1085B0002070FFF797FF38B902F068F823789842E7
:1085C00002D0184602F068F803B030BDD8DF0400CE
:1085D0002745002008B5054824F037FC18B1FFF7FF
:1085E000A5FF002008BD6FF01200FBE7D8DF0400F4
:1085F000014B1878704700BF274500201FB50023A6
:10860000CDE90233044B8DF80C0001A801931DF055
:10861000B1FE05B05DF804FBFCE4040008B5BDF84C
:1086200008101944012908DC3BB1054B12780548B4
:108630001A701CF0C7FC012008BD6FF00600FBE7B4
:1086400028450020A0020020014B1878FFF7D0BD7C
:10865000284500201FB510240294044C0194BDF855
:108660001840009422F020FB04B010BD3D450020CE
:1086700007B5064B00930649064805234FF43E72A2
:108680001CF0A6FC002003B05DF804FB00E504002C
:10869000804B00200810002070B50F4D0F4E8AB09F
:1086A00000220023694628461CF046FA044608B119
:1086B0000AB070BD2146182204A825F07BF91023CA
:1086C0000DEB030120460596CDF818D0ADF81C300F
:1086D00007F0FCFAE4E700BFD00D00201CE5040021
:1086E0001FB50E490E4840F6CD4200231CF0CEF9CE
:1086F000044670B110F10B0F08D100220023694627
:1087000007481CF019FAFFF7EBFF0446204604B0B7
:1087100010BD0449044824F0E5FDF7E73D4500207D
:10872000D00D0020600200200810002038B503782A
:1087300023B1032B11D06FF0850038BD4278094D6D
:1087400002F00701D40801228A4081782B5DD2B261
:1087500029B113432B55FFF7C3FF0020EDE723EAB0
:108760000203F7E73D450020014B1970704700BF39
:1087700050450020014B186000207047641F002006
:10878000084A094B12781B78002062F30700074A59
:1087900012785B0062F30F20DBB282B063F3174004
:1087A00002B070474D450020514500204E45002045
:1087B00013B50C4B1C6894B1FFF7E2FF8DF8040071
:1087C000C0F30723C0F307408DF805308DF806008D
:1087D00001990548234602B0BDE81040184702B091
:1087E00010BD00BF641F0020141D050010B500203F
:1087F00003F05AFF044610B9024802F005F820467B
:1088000010BD00BFB002002010B5084805F060FAA6
:10881000074805F0DBFB074B074800241C70074B9B
:1088200001221A701CF0CEFB204610BDE802002089
:10883000D80200204F450020C80200204D450020EE
:108840000C4B07B5187030B10B481CF0BBFB002077
:1088500003B05DF804FB01900849012001AA05F06E
:108860000DF9019810B1132121F078F804F08EFC75
:10887000EDE700BF4E450020080300200765040017
:108880000B4BB1FA81F010B540090C461870FFF798
:10889000B5FE3C2C0AD1074B1B783BB1064B074871
:1088A00001221A70BDE810401CF08CBB10BD00BF47
:1088B000514500204E4500204F4500200803002070
:1088C00070B503788AB004460E4607AD032B20D856
:1088D000DFE803F002191B1D11492846FDF784FD4E
:1088E000059563780493A3780393E378029323793F
:1088F000019363790093A3790A4A1E2130461DF043
:1089000019FA0AB070BD0849E7E70849E5E70849E0
:10891000E3E7084A0A2128461DF00CFAE0E700BF09
:108920000007050029070500070705000E070500D9
:10893000180705002207050010B588B021F09EF841
:108940006946FFF7BDFF0024074B20461C70FFF768
:1089500055FE064B1B7823B1054B06481C701CF0D6
:1089600031FB08B010BD00BF514500204E4500202E
:108970004F4500200803002070B5204E204B306882
:10898000B2881C781F49B3798AB003AD0390ADF863
:10899000102000202A46AB7108F05EFA314607220B
:1089A000284625F0B7F9184B0646D0B1ACB90320DC
:1089B0002246214601241C700023CDE90602CDE9A0
:1089C0000815ADF814308DF8163000931A46194684
:1089D00005A804F0A9FB0AB070BD1320A022F02165
:1089E000E8E70A4D18700FCD05AC0FC42B68236063
:1089F0000749009633460322EAE700BFF70805005F
:108A00004F450020158A02005045002070E2040006
:108A1000CCE5040038B507220C460649054625F08A
:108A200079F928B12B682360AB88A380AB79A37157
:108A300038BD00BFF708050000487047141D050049
:108A400073B5194C194EB442254602D36FF012008B
:108A500008E02B689B68043433B9154C2368AB429B
:108A600011D1002002B070BD9847C0F307238DF8E4
:108A700004008DF80530C0F30743C0B28DF806300E
:108A80000028E0D0E9E723B11B685B680BB1002048
:108A900098472B6825605B68002BE2D0012002B06C
:108AA000BDE87040184700BF141D0500181D0500E3
:108AB000681F002007B5094B01911B68834207D14D
:108AC0009DF8063033B903B05DF804EBFFF7B8BF8B
:108AD000FFF7B6FF002003B05DF804FB681F00201D
:108AE00070B5094C094D0A4EAC42234603D3BDE88C
:108AF0007040FFF7A5BF1B68DB680434002BF3D080
:108B000030469847F0E700BF141D0500181D05000A
:108B1000B58A0200054B1B6823B11B6813B11B68A3
:108B200003B118476FF01200704700BF681F0020A4
:108B300008B5044801F0D2FA002818BF6FF01500FC
:108B400008BD00BF718B0200084B1B780B2B4FF048
:108B500001000AD8984010F4CD6F05D110F4016FD0
:108B60000CBF01200020704702207047340C002009
:108B70000A2808B5024613D00A4B0B491870FFF7B4
:108B8000E3FF02280AD10B78032A08BF43F0010350
:108B90000B70BDE8084005481CF014BA0023F7E745
:108BA00008BD00BF340C00205245002018030020EF
:108BB0000246110E07EE101ADFED446A9FED446A7B
:108BC000B8EEC77AC2F30742C7EE267A80B23C23DA
:108BD000B0FBF3F3DBB286B007EE102AB8EEC77A2B
:108BE000062287EE265AB3FBF2F107EE100AB8EE22
:108BF000C77AC7EE066A07EE103AF8EEC75AB1EE2A
:108C0000087A56EE875A02FB1133DBB2B7EE006AE0
:108C1000F0EE466A45EE656A013B76EE655A36EE41
:108C2000457A05EEC56A27EE277A66EEA76A26EE34
:108C3000276A042B04D8DFE803F0072D32394200FD
:108C4000F0EE676AF0EE467A9FED226A66EE866A7B
:108C500067EE867AFCEEE66A0023FCEEE77A27EE02
:108C6000067ACDED006A184663F307009DF80030E0
:108C7000CDED017AFCEEC77A63F30F209DF8043046
:108C8000CDED027A63F317409DF8083063F31F605F
:108C900006B07047F0EE476AB0EE467AD4E7B0EE21
:108CA000666AF0EE476AB0EE677ACBE7F0EE676A85
:108CB000F0EE477AB0EE667AF0EE466AC4E7B0EEC0
:108CC000666AF0EE676AF0EE477AE5E70000C842B0
:108CD0000000B44300007F43024903480A2201F028
:108CE00003BD00BF8C4400205B07050008B5054BA1
:108CF0001B7A33B100F0C4F9BDE80840024924F002
:108D0000F1BA08BD8C440020380300202DE9FF4152
:108D10005A4C6379032B1ED8DFE803F002275C81ED
:108D2000574E002563882288ADF80020ADF8023048
:108D30000098FFF73DFF06EB850306F82500C0F31A
:108D4000072201355A70302DC0F30742C0F3076087
:108D50009A70D870E6D14B4B4949186883681B68F4
:108D6000302204B0BDE8F0411847454F00264FF0CF
:108D70000C08E588A3788DF80630A5F59663002BDE
:108D80002288ADF80420B8BF5B42B3FBF8F38DF83E
:108D900007300198FFF70CFF07EB860307F8260062
:108DA000C0F3072201365A70302EC0F30742C0F3D9
:108DB00007609A70D870DCD1237903EB830305EB4D
:108DC0004305ADB2B5F5166F01D8E580C3E70023C2
:108DD000E380C0E72A4F00266388E588ADF80A30B3
:108DE000ADF808500298FFF7E3FE07EB860307F89B
:108DF0002600C0F3072201365A70302EC0F3074216
:108E0000C0F307609A70D870E6D123791D44ADB2E3
:108E10004FF4B473B5FBF3F203FB1255D5E7DFF85B
:108E2000608000264FF4B477E5886288ADF80E20A4
:108E3000C6EBC6032B44B3FBF7F107FB1133ADF8C8
:108E40000C300398FFF7B4FE08EB860308F8260001
:108E5000C0F3072201365A70302EC0F30742C0F328
:108E600007609A70D870DFD1237905EB4305ADB266
:108E7000B5FBF7F307FB1355A7E700BF8C440020B1
:108E8000534500206C1F0020084B10B5C022002164
:108E9000184624F08FFD064A03461068826814685D
:108EA000194630222346BDE810401847534500209C
:108EB0006C1F0020F0B585B00C461546124903AA78
:108EC0001E461EF0B5FAC8B1039BBBB90A2C18D1D7
:108ED0000E4F224639463046A84700280CDB3B7A25
:108EE0004BB140F267620023CDE90023084800221D
:108EF00000231CF047FE002005B0F0BD6FF001001C
:108F0000FAE76FF01500F7E7110605008C44002022
:108F1000D00C00200F4B104A13B51A600F4B104CA9
:108F20001A6822600F495A680F481B8923816260C2
:108F300024F0EFF9237A4BB140F267620023CDE9C8
:108F400000230A48002200231CF01CFE002002B06F
:108F500010BD00BF6C1F0020B0DF0400C0E20400A1
:108F60008C440020D98C0200F0100020D00C00208E
:108F700008B54FF4F012002302481CF0BFF800EAD5
:108F8000E07008BDF010002007B50E4B1B689BB1C8
:108F90000D4B01221A720022DA8040F26762002330
:108FA000CDE900230948002200231CF0EBFD03B0AB
:108FB0005DF804EBFFF7DCBF6FF0120003B05DF863
:108FC00004FB00BF6C1F00208C440020D00C00204C
:108FD00008B50A4B1B6873B100F052F8084924F039
:108FE00081F9084824F068FB074B00221A72BDE89B
:108FF0000840FFF7BDBF6FF0120008BD6C1F0020D6
:1090000028030020D00C00208C44002008B5FFF776
:1090100029FAC0B1FFF714F80D4B02461978B0FADF
:1090200080F04009814211D018702AB95B7833B1C1
:10903000BDE80840FFF7A8BF064A127A5A70BDE89B
:109040000840FFF7C5BF6FF0850008BD0020FCE7B2
:10905000350C00208C44002007B5064B00930649D0
:1090600006480A234FF440721BF0B2FF002003B001
:109070005DF804FBECE50400784E00202011002090
:10908000004870472011002010B5094C0A44914255
:1090900000D110BD11F8013B584003090001E35C09
:1090A000C0B2434018091B01205CDBB25840EEE718
:1090B00095070500014B1B68184700BF48030020B7
:1090C00030B585B004460D4610220021684624F0D4
:1090D00071FC02238DF802302A46044B019321468D
:1090E00068461CF0B9FE05B030BD00BFB590020067
:1090F00080B505460E46174698461CF0FBFA034617
:1091000024F058FEDFF81890044649F80030424633
:1091100030463946A84754F8090001F0B9FF00BFAE
:10912000080000002DE9F047058B0446280790460B
:1091300011D4022905F0070540F0CD8020461DF02E
:109140001AFD78B10138218B042811D8DFE800F02E
:10915000C3106D85950001290CBF45F0100545F041
:109160002005258388F31188BFF36F8FBDE8F08752
:1091700001F0070AAA4500F0A6800027B9463E463E
:10918000A368002B00F0BD8041F00801218388F323
:109190001188BFF36F8FA168002900F0BB800D68B4
:1091A000002900F0B780D1F80480334652462046AB
:1091B000C047002D76D02B6829461D46F0E701F008
:1091C00007035A1F012A1BD8002221F00701062B92
:1091D000276889B2C4E9002209D13B4603E0628BCB
:1091E000013262831B68002BF9D141F00201218317
:1091F00020461DF0C0FC00287BD041F0200177E024
:10920000042B0AD121F0070189B2218320461DF0E9
:10921000B2FC10B141F020012183218B01F0070A3B
:10922000AA4550D00027B946AAE7236921F00701D3
:1092300041F00601062DD3F8009021832DD1B9F11C
:10924000000F40D041F00801218388F31188BFF35B
:109250006F8F3A492046C84729E021F0070123696A
:1092600041F0040189B2042DD3F804902183E6D0A3
:1092700000273E464FF0040A82E721F007012369E8
:1092800041F0050189B2052DD3F808902183D6D08D
:1092900000273E464FF0050A72E700273E464FF092
:1092A000060A6DE72B4687E7B9F1000FD1D14FF0E1
:1092B0002003EFF3118883F31288BFF36F8F238BA2
:1092C00023F008032383258BEA062ED525F010030F
:1092D000238305F007056669218B002EBFF66FAF6B
:1092E00000232768C4E9003321F0070141F00101A0
:1092F0002183218B01F0070AAA454FF000097FF472
:109300003FAF002F9BD041F00801218388F31188E3
:10931000BFF36F8F002FC7D03D68394633465246A2
:1093200020461DF054FC2F46F4E7AB067FF51AAF3C
:1093300025F02003238305F00705FFE6FB6B0400FF
:1093400018F07ABB08B54FF44042002302481BF0E6
:10935000A1FE002008BD00BF0000002010B5054898
:109360001BF050F928B183681B6813B1BDE81040A9
:10937000184710BDEA05050002484FF4F01200231B
:109380001BF0BCBE3000002037B5144C204623F043
:109390005CFD18B9FFF7F0FF03B030BDA5682D21C3
:1093A000EB68204698470028F4D12D212B696A46A6
:1093B000204698470028EDD19DF80040FFF718F9A6
:1093C0008442E7D02046FFF78DF801F05FF9844230
:1093D000E0D0204601F060F9DCE700BFD8DF0400F0
:1093E0002DE9F7430F4606460821C06ADFF8509082
:1093F0001DF08BFD3C68241A80463C6004EA090598
:10940000AC4203D8002003B0BDE8F08308236A46CD
:10941000214630461DF0ECFC0028F4D16946304668
:109420001DF07DFD40B1BDF80230BDF804203C6068
:1094300005EA090513441D44A4EB0804E0E700BF56
:109440000000FFFF2DE9F047044688B000F1140743
:10945000384623F0D9FDA06A8368DB689847E0624C
:1094600028B96FF01505284608B0BDE8F087A06A56
:109470008368DB6898470368013B1F2BF1D8A06A1B
:10948000216805AA22F046FD0028EAD1A589002D11
:10949000E7D0069BB5FBF3F203FB1255002DE0D19C
:1094A000E389012BDDD9E36A009593F804904FF02E
:1094B000FF334FF0FF3238461BF098FBE06A08217B
:1094C0001DF023FDA8460646E3891FFA85FA534599
:1094D00008D8E389434523D138461BF001FC6FF0DF
:1094E0002C05C0E7A1892B04891B13FA81F14A4698
:1094F0000823204600911DF0C9FC78B1694620463A
:109500001DF084FC08F10108009908234A46204612
:109510001FFA88F81DF0BAFC0028DAD00135D3E72D
:1095200053450BD1009908234A46891B20461DF05C
:10953000ADFC18B9694620461DF068FC6946204616
:10954000FFF74EFF054618B138461BF0C9FB8AE706
:10955000009B63604FEA13484FEA0848C4F808804C
:10956000D4E9011399420FD3082301AA20461DF024
:109570003FFC05460028E7D101AB13F8012B9145CC
:1095800033D10135082DF8D163681B0C1B046946E3
:10959000204600931DF03AFCA38900994A462046D4
:1095A0001DF074FC051ECFDB636876D006EB030864
:1095B0004FF6FF79A389CDF800801FFA88F29B1B34
:1095C0009A422ED300236168002B43D0090C090472
:1095D0000091204669461DF019FC009920461DF0B7
:1095E0007AFC0546002D74D0AEE701A920461DF097
:1095F00096FC626810B9921B6260B1E7BDF8085032
:10960000BDF80610E06AC4F8088029441DF07DFC0E
:1096100040449042A060EED1002DECD06FF01C05CC
:1096200068E0082303AA414620461DF0E1FB0546F9
:10963000002889D103A920461DF071FC30B1BDF886
:109640000C304B4502D1BDF810300BB1B044B1E73E
:109650000123B8E720461DF03EFC054600287FF4B4
:1096600073AF6368264AA18913400B44A3EB4603FA
:1096700063601340A36020461DF035FDB1E75B1A1F
:109680004A4620461DF002FC051EFFF65DAF08D0DD
:10969000E26AA36812681344A360D4E901318B42E3
:1096A000EDD86168A38901EB46029A429AD1DFF8AE
:1096B0005080A26801EA08039A4293D020461DF028
:1096C0000AFC054600287FF43FAF636803EA0803FD
:1096D000A360A389A288A3EB46039A4206D038462A
:1096E0001BF0FEFA012323740025BCE620461DF082
:1096F000E3FC054638461BF0F3FA002DF2D0B2E643
:109700000000FFFF2DE9F04F1D46037C89B00446A1
:1097100089469046002B00F0BE80C26A08211046A0
:109720001DF0F3FB2946824610461DF0EEFBA3898F
:10973000A3EB8A039D42074600F2B0801DB1B8F149
:10974000000F00F0AB806368039304AA03A92046CE
:10975000DDF80CB01DF01BFC0646002864D1BDF8F6
:1097600010304B4505D06268039B9A42EDD1E5B9B4
:109770005AE004A920461DF0D2FB0028F3D0BDF822
:109780001200BDF8143075B19D420ED14FEA1B4155
:10979000090401442B46424620461DF044FB0028A4
:1097A00003DC064640E0002B3ED0002F40D104F100
:1097B000140301934FF0FF320198DFF8E8B04FF047
:1097C000FF331BF013FAE3899E4261D0D4E90123F1
:1097D000F9188A422FD3ADF81A3006A8FF238DF866
:1097E0001E30ADF81890ADF81C501DF046FBA16876
:1097F0002B46424620461DF014FC29468246E06A6C
:109800001DF083FBA2680244A260BAF1000F07D1E9
:1098100006A920461DF03FFC002814BF8246AA4638
:1098200001981BF05DFA5646304609B0BDE8F08F4E
:109830005744BFB2BBE7E06A08211DF066FB4FF654
:10984000FF73ADF8183000218DF81E30A389ADF8F4
:109850001C10111802EA0B021A44101A606006A8C4
:10986000ADF81A101DF009FB06A920461DF013FCE7
:10987000211D20461DF0CAFA636803EA0B03A360AA
:1098800020461DF030FC82460028C9D101369AE7F7
:109890006FF01B0AC4E76FF00C06C5E76FF0150602
:1098A000C2E700BF0000FFFF014B036000207047CC
:1098B000F4E5040070B5114B1C680D46DCB1104B8B
:1098C000196800238B4202DB6FF0010070BD224655
:1098D00012F8106B864202D001331446F2E7E068BA
:1098E00010B96FF01200F1E723F0AFFA0028F8D0BA
:1098F0002C600020EAE76FF00C00E7E74C03002043
:10990000F4E5040070B588B005460C46C0B269465F
:109910001646FFF7CFFF00281BDB0098C8B143684D
:109920000293836822680195CDE903360023CDE9CF
:1099300006230593C5681DF00EFD6DB12846084944
:1099400001AA22F0EBFA079808B9059B236008B03A
:1099500070BD6FF01500FAE76FF01200F7E700BF77
:1099600059730400F0B40C4B0C4E5F6A0C4BB342BD
:1099700003D36FF08500F0BC70475D68BD4209D32A
:109980001C693CB195F802C00579AC4502D123466B
:10999000F0BC18472433EAE7701F0020D30F0020E3
:1099A000D30F00202DE9F047134CDFF85080DFF88B
:1099B000509005460E461746444503D36FF0850088
:1099C000BDE8F0876268D9F824309A4212D3A369BF
:1099D00083B190782979884205D13A4631462846A4
:1099E000BDE8F04718475279012A03D13A4631467B
:1099F000284698472434DFE7D30F0020D30F0020F8
:109A0000701F00202DE9F0410B4CDFF83080054637
:109A10000E461746444502D36FF0850009E063699E
:109A20000BB92434F6E73A463146284698470028D1
:109A3000F7D1BDE8F08100BFD30F0020D30F002085
:109A400010B5044622F043F910F1780F00D050B958
:109A5000054A20461DF0A2FCD2F8C43023EA0003D8
:109A6000C2F8C430002010BD701F0020024B00223D
:109A70001A605A60704700BF2B20002070B50B4B56
:109A80000B4CA34201D3002070BD196A1E7F002237
:109A90000439D5B2AE4201D82433F2E7013211F8CD
:109AA00032508542F5D10120EEE700BFD30F0020F0
:109AB000D30F002008B509480378C3F341130A33D4
:109AC00050F823303BB100F1080200F11001984733
:109AD000C043C00F08BD1846FCE700BF701F002040
:109AE00004282DE9F14FDFF8A09004460F4616D068
:109AF00001282DD1DFF88C8098F8B93043B300F0FD
:109B000065FD1F4D4D4520D2D5F820B04FF0000A1D
:109B10002B7F5FFA8AF6B34204D82435F2E7FFF7C9
:109B2000A5FFE7E70BEBC6060AF1010A307922F040
:109B3000CEF8024630791DF031FCD8F8C430002A46
:109B400023EA0003C8F8C430E2DA002388F8B93009
:109B50000B4D4D4508D30B4B1B6A6BB13946204664
:109B600001B0BDE8F04F1847EB681BB13A462146FB
:109B7000284698472435ECE701B0BDE8F08F00BFD8
:109B8000D30F0020701F0020D30F002073B5C4B284
:109B900063060D468DF8074007D02046FFF76EFF9D
:109BA00078B10D4B93F8BA0058B10B4E204655B121
:109BB00016F0B8F8F3691BB10DF1070108209847BA
:109BC000012002B070BD16F0D5F8F369002BF7D074
:109BD0000DF107010920F2E7701F002073B58678A8
:109BE0008DF80060037942791C4C43EA0223ADF8FA
:109BF0000230C378304603F003038DF804301DF0C3
:109C0000CDFBD4F8C430184205460BD0304600F0E6
:109C1000BFFC3046FFF714FF23F0D7F910B99620A8
:109C20001BF04EFD684616F059F810F1780F03D07E
:109C300010B1002002B070BD9DF8000016F0D6F8FB
:109C400010F1780F01D00028F3D1D4F8C4300120EE
:109C50002B4384F8B900C4F8C430EBE7701F002030
:109C60002DE9F047A34EB36904460F461546FBB9EC
:109C7000237803F01F03012B00F09D80022B00F0DE
:109C8000048133BB94F900002A686178002834DA33
:109C9000062912D008292BD0D9B90123137051708D
:109CA00096F8C3305B0043F00103137002232AE1EE
:109CB00098470028DCD100200DE06288100A011FBF
:109CC0000129844605D9072803D8716AD2B20C78D5
:109CD0001CB96FF01500BDE8F0874E78664503D1DA
:109CE0009A4200F00B8101332144F0E70B780AE13E
:109CF00096F8BA301370012305E101390829E8D834
:109D000001A353F821F000BFA19D0200D39C0200E3
:109D1000AF9D0200D39C02002D9D0200D39C020047
:109D2000D39C0200D39C0200399D0200A07815F05C
:109D3000C3FF0028BFD0CCE76388756A63BBFFF719
:109D400095FE638886F8BA30F369002BB3D06A4970
:109D500003209847AFE76B78042B10D0052B11D068
:109D6000022B04D16F796388BB4208BF01202B7896
:109D70001D442B78002BEED10028AAD0DFE795F800
:109D80000380F4E76388BB42F1D1B8F1000FEED154
:109D90002846FFF723FFEAE7FF270020B846E8E759
:109DA0006388012B95D1002386F8C33083E763884D
:109DB000012B8ED1F8E796F8BA30D5F800C0002B09
:109DC00087D0756AA38894F804E02A4610780028A2
:109DD0003FF47FAF5178022904D192F80480F04516
:109DE00000F293800244F1E78CF800208CF8012007
:109DF000396060E7154494E00B2A7FF46AAF0027CE
:109E00004FF0FF08C146BA4606E06B78042B0FD02E
:109E1000052B21D02B781D442B78002BF5D1F3692D
:109E200013B1514607209847002F7FF444AF50E705
:109E300095F80280A38895F803909845EAD1638845
:109E40009945E7D1B8F1070F1CD806EB0803AA46DD
:109E500083F8BB900127DDE7A3884345DAD1A378D7
:109E60004B450AD0AF78384600F092FB3846FFF7F2
:109E7000E7FDB0FA80F77F09CCE72846FFF7AEFE92
:109E80000746C7E7AA460027C4E794F9002063788D
:109E9000002A18DA002B7FF41CAF24792D686306A2
:109EA0000AD02046FFF7EAFD00283FF412AF96F8EB
:109EB000BA30002B3FF40DAF2946204615F07AFF4B
:109EC00000236B70F2E6012B08D0032B7FF401AF67
:109ED0006388002B7FF4FDAE012103E06188002937
:109EE0007FF4F7AEA088FFF751FE00287FF4E3AEC1
:109EF000EFE600BF701F00202A2000200228296002
:109F00007FF4F4AE4B883B60D5E694F900006278AC
:109F10000028BFF671AF002A3FF466AF0A2A7FF42B
:109F2000D8AE2A78002A3FF4D4AE697804297FF4A9
:109F300061AFA9788B427FF45DAF072B96BF9B1969
:109F4000002393F8BB308CF80030D4E613B5164CE0
:109F5000237DF3B9E268A168019201AB80201DF076
:109F60002BFA019AA3681344A360E3689B1AE36089
:109F70006BB962B12369E2889A4208DD94F8C8207F
:109F800093FBF2F102FB11330BB90123237502B0ED
:109F900010BD00231A4619468020237502B0BDE883
:109FA000104015F04DBF00BF701F002030B585B0C8
:109FB000002302460D460193002858D1002935D1CF
:109FC00008220B460DEB020121F09AFE002804DA6C
:109FD000802015F0A7FE05B030BD2A4C029A226001
:109FE000039A626004F13802A2609DF90820BDF86E
:109FF0000E302575002AC4E903550ADB802B04D9ED
:10A00000802015F08FFE0020E3E713B1C4E903338D
:10A01000E1E7FFF74FFD0028DAD0E28823699A4292
:10A02000D4BFE260E360FFF791FFD4E7154CD4E9B9
:10A030000215002D01AB04DC21F062FE0028CADA13
:10A04000C6E72A4621F05CFE0028D9DB019AA36806
:10A050001344A360E3689B1AE360002BBBD104F1B7
:10A060003803A360FFF726FD0028DCD1B0E7802885
:10A07000B1D1044BDA68002AD5D11B7D002BD2D197
:10A08000A9E700BF701F0020054B064A9A62064AE6
:10A09000DA62064A1A63064A58629A6100207047DB
:10A0A000701F0020619C020065990200059A020061
:10A0B000A599020010B5084B93F8B84034B900F0E8
:10A0C000E3F830B1FFF7E0FF204610BD6FF07700F6
:10A0D000FBE74FF0FF30F8E7701F00202DE9F34158
:10A0E000414D04466F6A41484FF0FF324FF0FF3355
:10A0F0001AF07CFD95F8B860002E6ED13C482C62B9
:10A10000E86115F0B7FF15F0A5FD041E49DB00F06E
:10A1100081FA041E45DB7B78012B61D1FB79002B92
:10A120005ED0684685F8C830ADF802308DF804601E
:10A130008DF8006015F0D2FD041E32DB80276846E2
:10A140008DF8007015F0CAFD041E2ADB294930463F
:10A1500015F07CFF041E24DB2649384615F076FFF7
:10A16000041E1EDB244CDFF89480444520D30020DD
:10A1700015F03CFE041E14DBD5F8C430802043F0FB
:10A180000103C5F8C43015F031FE041E09DBD5F813
:10A19000C43043F48033C5F8C430012385F8B830A7
:10A1A000002412481AF09CFD204602B0BDE8F08160
:10A1B000276A0026227FF3B29A4201D82434D4E7DA
:10A1C00007EBC30257F83310107915F03FFF013643
:10A1D0000028EFD04FF0FF34E3E76FF07704E0E7BB
:10A1E0006FF01504DDE700BF701F00208C0D00200C
:10A1F000E19A0200AD9F0200D30F0020D30F002090
:10A2000030B51F4B8BB005AA03F1100518685968CB
:10A21000144603C40833AB422246F7D11B7823709F
:10A220001022002101A823F0C5FB122200211548AD
:10A2300023F0C0FB102101A821F0F1FE00281BDD56
:10A240000828B8BF0820093801AB0E491A180020A9
:10A2500012F8013F0AAC04EB131403F00F03283388
:10A260006B44013014F8144C13F8143C0C7008289B
:10A270004B7001F10201EBD102480BB030BD00BFC1
:10A28000A5070500134600202DE9F04F704C87B05C
:10A290004FF0000B00264FF0011AB0463546B1468C
:10A2A00023782BB96B4B02349C42F3D1684833E0DE
:10A2B0006378052B1BD8DFE803F09003C8901D3BA3
:10A2C000402304A88DF810B0ADF812308DF814B00A
:10A2D00021F0E8FC40B1082304A8ADF8123021F0C9
:10A2E000E1FC08B1ADF812B0BDF81230E37123788B
:10A2F0001C44D5E7E378002BF9D1A3787BB108F1B2
:10A3000001085FFA88F8F2E76B689C4209D02435AF
:10A31000514B9D42F8D3002007B0BDE8F08F4F4D60
:10A32000F6E7AB68002BEAD0414620469847E6E7BF
:10A33000002DF0D000222B7F9A42ECD2296AA0781F
:10A3400001EBC2010B79984201D00132F3E70127FA
:10A35000E07800F003008DF81400207994F805C02F
:10A3600040EA0C20ADF8120094F902000028FBB27C
:10A3700028DA07F110004FF0010C0CFA00F010EA97
:10A380000A0F26D143F080008DF8100004A8CDE913
:10A390000213019221F086FCDDE90121039BC0B983
:10A3A0009DF81020A27012F0800F18BF10330A71B0
:10A3B00018BFDBB24FF0010214BF9A40BA404AEA1C
:10A3C000020A94E70120B84010EA0A0F01D11846AA
:10A3D000DAE70137102FBBD1B7E7032E1DD1FFF706
:10A3E0000FFF074668B1FCF707F8102809D1384677
:10A3F000A31C07F1100250F8041B43F8041B904201
:10A40000F9D123786FF00201E218091B04EB530322
:10A41000D14213D50136F6B269E7002EF1D1B9F178
:10A42000000F3FF478AFA4EB090389F80230C3F3BF
:10A43000072389F8033089F80480EBE702F801BCB0
:10A4400013F8010902F8020DE2E7A1464FE700BF49
:10A45000680F0020D30F0020D30F0020D30F00205F
:10A4600010B5094B00211A461C78844205D15C685E
:10A470001CB1482303FB012010BD0131042903F165
:10A480004803F1D10020F7E73C2000202DE9F341FB
:10A4900050F8303C10F8346C1033044610D1036986
:10A4A00050F8282C990739D5EAB913F0040304D1E0
:10A4B0001A46194630461CF07FFF002344F8303C12
:10A4C00054F8303C10330BD054E9097554F81C8C07
:10A4D00022F07BFD00284CD02C48214622F002FFC0
:10A4E00002B0BDE8F08150F82C1C01AB30461CF0E6
:10A4F00063FF10B16FF01503E0E7019A54F82C3CAC
:10A50000134444F82C3C54F8283C9B1A44F8283C4B
:10A5100054F8243C134444F8243CD1E750F82C1C54
:10A5200001AB304615F008FD0028E3D1019D54F839
:10A530002C3C2B4444F82C3C54F8283C5B1B44F83E
:10A54000283C54F8243C2B4444F8243C002DB4D03F
:10A55000304615F095FDB5FBF0F303FB1055002DCB
:10A56000ABD154F8283C002BA7D0304615F02CFD79
:10A57000A6E744F8200CA4F118001AF021FC002DE5
:10A58000AED0424639463046A847A9E7F01C002025
:10A5900010B54FF02003EFF3118483F31288BFF35B
:10A5A0006F8FFFF75DFF50B14368103307D16FF035
:10A5B0008B03436000F13401034822F093FE84F3DF
:10A5C0001188BFF36F8F10BDF01C002070B50F4CC9
:10A5D00004254FF02003EFF3118683F31288BFF3B5
:10A5E0006F8F6368103307D16FF08B030848636087
:10A5F00004F1340122F076FE86F31188BFF36F8FE9
:10A60000013D04F14804E4D170BD00BF3C200020AE
:10A61000F01C002070B50A4C0A4E00253146204639
:10A6200022F033FE0122A4F118001146013522F078
:10A63000A9FD042D04F14804F0D1002070BD00BF35
:10A64000702000208DA402001FB507240294044C42
:10A650000194BDF81840009420F026FB04B010BD12
:10A66000370C002010B5084C86B024788DF81740C0
:10A67000012402940DF117040194BDF820400094C8
:10A6800020F012FB06B010BD3E0C0020014B1878E4
:10A69000704700BF3E0C002000B589B064288DF8DB
:10A6A000070019D80E4B18221870002102A823F0B9
:10A6B00081F90C4B03930DF10703049302A90123C5
:10A6C0000020ADF8143005F001FB10F1800F08BF39
:10A6D000002009B05DF804FB6FF01500F9E700BF3A
:10A6E0003E0C0020D8E604002DE9F0410F4B1C6819
:10A6F00005460E461746ACB14FF0FF324FF0FF3320
:10A700000B481AF073FA63683246D3F8088029467A
:10A710003B462046C047044605481AF0E1FA204669
:10A72000BDE8F0816FF00104F9E700BF5C21002073
:10A73000780D002000230360044B5A6812B9C3E966
:10A740000000704710605860704700BF6021002013
:10A75000014B1860704700BF5C21002030B585B008
:10A7600000230546CDE9023301904FF0FF330C483A
:10A770004FF0FF321AF03AFA0A4B1C684CB92846DF
:10A7800000F0CEF8044606481AF0AAFA204605B0B2
:10A7900030BD636820461B6801A998472468EDE72F
:10A7A000780D0020602100201FB5CDE90101039242
:10A7B0004FF0FF330A484FF0FF321AF017FA094BF7
:10A7C0001C682CB906481AF08BFA204604B010BD5C
:10A7D000636820461B6801A998472468F1E700BF19
:10A7E000780D002060210020024B0022C3E90022E6
:10A7F000704700BF60210020024B0022C3E9002205
:10A80000FFF7F2BF6821002070B51B4C1B4E0546B8
:10A81000B44212D31A4E1B484FF0FF324FF0FF33B1
:10A820001AF0E4F934687CB1286854F8141C143C1C
:10A83000FBF7D0FDC8B16469F5E721682868FBF72C
:10A84000C9FDA8B11434E3E700226A61726805F11A
:10A8500014033AB9C6E9003300240A481AF040FA52
:10A86000204670BD13607360F6E76FF01004F4E7E4
:10A870006FF01004F4E700BFB8E104006CE20400DC
:10A8800068210020780D00202DE9F74307460C468B
:10A8900009B100230B601F4DDFF8809000264D4565
:10A8A0000FD31D4B1D6885B355F8148C01AA414682
:10A8B0003846143D1CF0BCFD10B3D6B914BB2E466F
:10A8C0001EE0D5F8008001AA414638461CF0B0FDD4
:10A8D00050B116B954B92E4606E031680022404600
:10A8E0001CF0A6FD0028F5D11435D8E7019B2360A4
:10A8F000F1E73168002240461CF09AFD0028DDD1C6
:10A900006D69D0E7019B2360D9E7304603B0BDE80D
:10A91000F08300BFB8E10400682100206CE204006D
:10A92000F8B5184C184F06460025BC4208D3174B03
:10A930001C682CB3143CB6B9E368E3B96469F8E762
:10A940002EB9E3685BB9284614340546EDE7206864
:10A95000002231461CF06CFD0028F2D1F3E7984745
:10A96000002DF0D1F0E72068002231461CF060FD98
:10A970000028E1D1E2E79847002D08BF0546DDE752
:10A980002846F8BDB8E104006CE20400682100200C
:10A9900038B50C4D0C484FF0FF334FF0FF321AF032
:10A9A00025F92B783BB9FFF727FF00F06DF8044637
:10A9B00010B901232B70002403481AF091F92046A6
:10A9C00038BD00BF25460020780D00202DE9F04756
:10A9D000048FDFF8B0A0013498B080468946A4B255
:10A9E00000F10806651EADB2B5F5004F47D04A2309
:10A9F00005AA294630461CF0A7FC04F57F543F34D5
:10AA0000A4B20746214601230DF10B0230461CF08B
:10AA10009BFC002F014603DC002803DC2C46E1E709
:10AA2000002816DCB8F83830AB4209D142466B1E1C
:10AA300022F8383F4FF4004102233046FEF762FE11
:10AA4000294630461CF01CFC214630461CF018FC00
:10AA5000E4E707F160030DEB0307002307F84C3C24
:10AA60005246CDF8009003AB05A80396ADF8104010
:10AA70001CF014FD0028D1D018B0BDE8F0870020EC
:10AA8000FAE700BF0B7504007FB501236946022079
:10AA90000193FEF70FFF044660BB02AA01A9022042
:10AAA000FEF730FF044610B110F10C0F22D10399CC
:10AAB000B1F5803F23D2009A0023946818460844D9
:10AAC00084421AD30133082BF9D10E4DA982EB82AF
:10AAD0005368AB602846D368EB631CF0B0FD0446B6
:10AAE00040B9094E6E602846FFF724FE28466E6086
:10AAF000FFF72EFE204604B070BD9BB2E5E76FF075
:10AB00002004F7E77021002088030020014B18681B
:10AB1000704700BF9C030020F0B5082289B01CF0EC
:10AB200066FFCB6A03930B6B04934B6B05938B6BA4
:10AB30000693CB6B079313466A460C4606460027DE
:10AB400011461046CDE9017700971CF05FFE3146B3
:10AB5000054630461CF05AFE216B0391616B04914F
:10AB6000A16B0591E16B0544CDE90617104611462E
:10AB70001CF04CFE3146054430461CF047FE0544AF
:10AB8000206A0090606A0190A06A0290A06B069013
:10AB9000E06B07903046CDE9047703971CF036FE52
:10ABA0000544606A0090A06A0190E06A0290A06B80
:10ABB000D4F834C00490E06BCDF80CC0CDE9050C9E
:10ABC000206A079030461CF021FE0544E06A0090A0
:10ABD000206B0190606B0290206A0690A06A07903B
:10ABE0003046CDE9047703971CF034FF236B0093C4
:10ABF000636B0193A36B0293E36B0393636A069306
:10AC0000E36A07932D1A082330461CF023FF636B79
:10AC10000093A36B0193E36B0293236A0393636A2C
:10AC20000493A36ACDE90537236B07932D1A0823F4
:10AC300030461CF00FFFA36B0093E36BCDE90137A7
:10AC4000636A0393A36A0493E36A0593636B0793B0
:10AC50002D1A082330461CF0FDFE2D1A10D40D4C81
:10AC600035B90822314620461CF0CDFE01280FD010
:10AC700008232246314630461CF0ECFE2D1AEFE741
:10AC8000044A0823314630461CF0C0FD2D18F8D484
:10AC900009B0F0BD2CE704000449431E0F3013F83F
:10ACA000012F8A5C1A708342F9D17047CA070500E8
:10ACB000F0B5264E07460C460FCE8DB001AD0FC540
:10ACC0000FCE0FC596E8070085E807003846002F2D
:10ACD00038D0002C38D0381F2146024610344B782B
:10ACE0000D781B0443EA0563CD782B438D7804313E
:10ACF00043EA05238C4242F8043FF0D1144C04216E
:10AD00008A07036916D1C3F30742A55C1A0EA25C39
:10AD100042EA0562C3F30725DBB2655DE35C42EA04
:10AD2000054242EA032221F0030330336B4453F817
:10AD30002C3C534050F8042F013153402C2903611F
:10AD4000DED101200DB0F0BD2046FBE784E2040017
:10AD5000CA07050030BFFFF7FDBF00BF114B124A05
:10AD60002DE9F041D518DFF84C80013DB5FBF3F536
:10AD70005D430E4B08EB0304013CB4FBF3F403FB0F
:10AD800004540E1B07460A49304622F005FE70198E
:10AD900042460021083E22F00DFE7E6704F10800C5
:10ADA000BDE8F08101000000000000000400000088
:10ADB0006CE2040008000000044B9968986988421E
:10ADC00003D003494FF080520A6070474C44002082
:10ADD00004ED00E0134B9A6A12F0007F9A6A14BFE8
:10ADE0001E201D2012F0807F9A6A18BF1F2012F4C7
:10ADF000002F9A6A18BF212012F4802F9A6A18BF78
:10AE0000222012F4003F9A6A18BF232012F4803FD8
:10AE10009A6A6FEA02426FEA12429A6218BF2420CD
:10AE2000704700BF00ED00E010B5194B0246986A6C
:10AE30009C6A10F4805F14BF1720162014F4006F72
:10AE40009C6A18BF1820A40509D5986B986A00045D
:10AE500004D51AB19A6A22F400429A6219200C4B66
:10AE60009A6A12F4806F9A6A18BF1A20D2050CD41D
:10AE70009B6A13F4005F18BF1C20054A936A43F4D1
:10AE80007F43936200230B7010BD1B20F5E700BFCA
:10AE900000ED00E010B51C4B0246986A9C6A10F069
:10AEA000100F14BF1120102014F0080F9C6A18BF57
:10AEB0001220A40709D5586B986A000604D51AB168
:10AEC0009A6A22F080029A6213200F4B9A6A12F05B
:10AED000010F9A6A18BF142012F0200F9A6A18BF47
:10AEE0001520D40658BF9B6A074B9A6A920642BF48
:10AEF0005A6A22F400525A629A6A42F0FF029A6237
:10AF000000230B7010BD00BF00ED00E070B5444B96
:10AF10005B689CB00646C3F30803002585F31188DF
:10AF2000BFF36F8F02F07F40B0F17F4F11D102F07D
:10AF30000C0008280DD010074CBF0E46012500223A
:10AF4000033B8DF80720032B05D8DFE803F01E5CD8
:10AF500060592E46F3E700249DF807309BB968221C
:10AF6000314602A822F018FD099B002D53D0C3F3EF
:10AF7000080222B96FEA53236FEA4323099302A917
:10AF800020461DF08EFC1CB070BD254BDA6A91077F
:10AF9000E1D4DA6A002ADEDBDA6A5200DBD55A69CC
:10AFA000B16942F480725A61BFF34F8FBFF36F8F64
:10AFB0005A6931F8021C22F480725A61BFF34F8F34
:10AFC000BFF36F8F4DF60272914209D09A6AD2B2E6
:10AFD00042B10DF107010120FFF75CFF0446BBE71A
:10AFE0003468B9E79A6A12F47F4F05D00DF1070172
:10AFF0000120FFF719FFF1E79B6AB3F5803FAAD361
:10B00000FFF7E8FEEAE70DF107010020E4E70DF1A4
:10B0100007010020EDE723F4FF7323F00103ADE700
:10B0200000ED00E0024A536943F01003536170479A
:10B0300000ED00E0EFF30880EFF3098101B57246FF
:10B04000FFF764FF01BD00BF044800232021C218A0
:10B050000133302B82F80013F9D1704700E100E092
:10B06000FEF76EF9202080F3118808484FF4006144
:10B07000401880F30988EFF314800221084380F31D
:10B080001488BFF36F8F00F0D5F80000906800209F
:10B09000084B9B6883420BD1EFF3058343B1064B0A
:10B0A0005A6842F080525A605A6A22F400425A6248
:10B0B0001AF026BB4C44002000ED00E0094A0A4982
:10B0C00093680968D967094998674B6843F08053CA
:10B0D0004B60002383F31188BFF36F8F9368D86FA1
:10B0E000704700BF4C440020B400050000ED00E0B4
:10B0F00021498A6882F8C1E04FF030001044EFF334
:10B10000098C80E8F01F1EF0100F03D102F18000BF
:10B1100080EC108A202080F31288BFF36F8F174FC6
:10B120004FF000668A698A603E604FF0740414191B
:10B130002068134C206092F9C1E0906F0023936760
:10B1400080F311881EF0100F03D00023E1EE103AB7
:10B1500003E002F1800090EC108AEFF3148323F0F7
:10B16000040383F31488BFF36F8F02F1300090E87B
:10B17000F01F8CF3098870474C44002004ED00E078
:10B18000B02100201EF0040F0CBFEFF30880EFF396
:10B190000980816911F8021C0229FFD001B51DF058
:10B1A00082FB01BD40B2002807DB044A41090123AC
:10B1B00000F01F00834042F82130704700E100E0BA
:10B1C00040B200280CDB4309064900F01F00203381
:10B1D0000122824041F82320BFF34F8FBFF36F8FCE
:10B1E000704700BF00E100E0054B420900F01F007E
:10B1F00053F82220012303FA00F01040704700BFEB
:10B2000000E100E040B20028A8BF00F1604001F179
:10B210000101B8BF064B4FEA4111ACBF00F56140D8
:10B2200000F00F00C9B2B4BF195480F80013704782
:10B2300014ED00E0144A08B5144B22F07F029A6026
:10B24000BFF34F8FBFF36F8FD3F8882022F47002C3
:10B25000C3F88820D3F8882042F4A002C3F88820DD
:10B260004FF04042C3F83422BFF34F8FBFF36F8FCC
:10B270000023E1EE103A19F045FA1AF0B7FAFFF799
:10B28000E3FE19F08DFA00BF0060020000ED00E05F
:10B2900042F8203C009B42F81C3C019B42F8183CC1
:10B2A0000A49029B42F8143C4FF0807342F8043C78
:10B2B00021F00101002342F8081C203A83674FF473
:10B2C0007D430265C0F8C030704700BFF1900200B6
:10B2D000114B9B6883421BD1EFF30580C0B94FF03F
:10B2E0002002EFF3118182F31288BFF36F8F1A7B74
:10B2F00022F002021A73EFF3148323F0040383F3A2
:10B300001488BFF36F8F81F31188BFF36F8F70477D
:10B310006FF01500704700BF4C4400200023E1EEA1
:10B32000103AEFF3148323F0040383F31488BFF37C
:10B330006F8FBFF36F8F094B9860094B406F186098
:10B34000104681F30988002163B681F31188BFF3A9
:10B350006F8F00220023FDF7CBFE00BF4C4400207E
:10B36000B0210020014910220A60704710ED00E072
:10B3700072B6404080F31188BFF36F8FBFF34F8FD9
:10B3800030BF62B6BFF36F8F704700BF72B64940DF
:10B3900081F31188BFF34F8F20BF80F3118862B60D
:10B3A000704700BF01B5EFF30580A0F110004FEA30
:10B3B000C0000449014409C99847BDE80140024959
:10B3C00008470000ECDF0400B9AD0200024B034A5D
:10B3D0000348012100F030B80000042000000020E4
:10B3E000D8E70400084AC2F898000B6823F01F034E
:10B3F000034343F01003C2F89C308B6843F0010311
:10B40000C2F8A030704700BF00ED00E0044B0522F9
:10B41000C3F89420BFF34F8FBFF36F8F704700BF07
:10B4200000ED00E0BFF35F8F024B0022C3F89420D1
:10B43000704700BF00ED00E010B5034C01232278F7
:10B440001DF050FA207010BD26460020F0B5454D85
:10B450002C68082C85B000F28280FFF7E3FF002003
:10B460000C2684420DD1404D404F2C706846FEF7AB
:10B470001BFA00240646A6420AD1FFF7C7FF0020A8
:10B480001CE0696806FB0011FFF7ACFF0130E8E73C
:10B49000009800EB04114FEA041CCB683B40B3F565
:10B4A000000F4AD00CD8B3F5001F30D0B3F5800F91
:10B4B00038D0B3F5801F12D06FF0150005B0F0BD85
:10B4C000B3F1807F42D0B3F1007FF5D150F80C305A
:10B4D00088684A681DF0F6F940F4802009E050F8C9
:10B4E0000C3088684A681DF0EDF940F0885040F44F
:10B4F0003020039028780728CDE90123DCD801A962
:10B50000FFF770FF2B7801332B700134B3E750F84D
:10B510000C3088684A681DF0D5F940F0885040F436
:10B520000020E6E750F80C3088684A681DF0CAF938
:10B5300040F0007040F40030DBE750F80C308868D1
:10B540004A681DF0BFF940F08270D2E750F80C3025
:10B5500088684A681DF0B6F940F08870C9E74FF076
:10B56000FF30ABE7E4E70400264600200000F0FFD0
:10B5700008B504481BF00CF9404080F311884FF0E7
:10B58000020002DFCA08050008B50649064821F096
:10B590000701C1F1005202F580221BF094FA00204D
:10B5A00008BD00BF7B860020B4210020044A01238F
:10B5B000C2F840354FF080420020C2F8783570471D
:10B5C00000E0014020B1034B800143F00103184724
:10B5D000704700BF10E3040008B5044821F035FCB3
:10B5E00000280CBF6FF01200002008BD24DF04000B
:10B5F000F8B5594EBFF35B8F3468BFF35B8F14F01F
:10B60000010450D0554F564C564D57483A462146A6
:10B610001CF055F8E0B320222946204622F07AFBA0
:10B620000028F2D000274FF0FF324FF0FF33012007
:10B6300000F04AFB00F10C0502210446284620F0E8
:10B64000D7FA3E230370422343700121284620F09D
:10B65000CFFA082303704121284620F0C9FA054695
:10B6600000F8017BB7B14022002122F0A3F9BFF31B
:10B670005B8F56E8003F23F0010346E80032002AC2
:10B68000F7D1BFF35B8F2046BDE8F84000F064BF00
:10B690001F27C8E734491DF0BFF9203105F121000B
:10B6A0001DF0BAF9E3E7BFF35B8F3368BFF35B8F3D
:10B6B0009B0750D529492C481CF0BEFE002811DB01
:10B6C000BFF35B8F264933682648BFF35B8F13F0C7
:10B6D000040F01F12002214B18BF014610461CF057
:10B6E0003BF804464FF0FF324FF0FF33012000F0EB
:10B6F000EBFA00F10C0702210546384620F078FAF3
:10B700003E230370222343700121384620F070FA53
:10B71000092303702121384620F06AFA03460130DC
:10B720009CB91F221A70FF21202222F043F9BFF397
:10B730005B8F56E8003F23F0020346E80032002A00
:10B74000F7D1BFF35B8F28469EE7002206491A70A7
:10B750001DF062F9EBE7F8BDC021002004E8040009
:10B7600027460020110905004746002070B5214CEE
:10B77000BFF35B8F2368BFF35B8FDA0706460D4686
:10B7800001D50C2070BD012931D8BFF35B8F54E87F
:10B79000003F43F0020244E800210029F7D1BFF343
:10B7A0005B8F9B07EDD4144831461DF035F91348E3
:10B7B00006F120011DF030F9BFF35B8F75B154E83D
:10B7C000003F43F0040344E80032002AF7D1BFF3FE
:10B7D0005B8F0B4800F036FA0020D3E754E8003FB7
:10B7E00023F0040344E80032002AF0D0F6E71220E8
:10B7F000C8E700BFC0210020474600206746002060
:10B80000A003002070B5067E044676B9C3681D8883
:10B8100042F22602954245D00FD842F201029542EB
:10B820004FD042F225039D4213D02A4BD3F85C310E
:10B8300020465B69BDE87040184742F25E039D42B6
:10B84000F3D103210C3020F0F2F9E06890F84010B9
:10B850002EE003210C3020F0EAF9204613F05AFEC6
:10B86000BFF35B8F1C4B1A68BFF35B8F920707D542
:10B870000C26314642F225001DF0AAF8002070BDCA
:10B88000BFF35B8F53E8002F42F0010143E8001043
:10B890000028F7D1BFF35B8FD307E9D40F4800F03E
:10B8A000D1F9E6E703210C3020F0C1F9E068314618
:10B8B000FFF75CFF0646204613F02CFE3146284673
:10B8C000DAE7DA7802F07F02DA701A7922F0010200
:10B8D0001A71AAE760000020C0210020A003002008
:10B8E0002DE9F341254CBFF35B8F1F462368BFF35F
:10B8F0005B8F1646DA0705462BD520B96FF001009D
:10B9000002B0BDE8F08101A91BF0B6FD1C498046DC
:10B910000246284622F00EFAE8B9BFF35B8F23688F
:10B92000BFF35B8FC3F3C0081B0712D4A4F1D40587
:10B93000072229463846B047062895BF44F8D48CDC
:10B940000723C5F80380B0FBF3F094BF85F80780A8
:10B95000E8710020D4E728460A49424622F0EAF975
:10B9600005460028CAD1102204F18C013846B047A0
:10B970000028EEDB044484F88C50EAE73401002010
:10B9800015070500310905002DE9F04188B09C79C3
:10B99000DDF838805D791E79DF7893F802C093F87E
:10B9A00001E01B78B8F1000F0ED0CDE90638CDE9E3
:10B9B00004CE1346CDE90267CDE90045084A1AF0E6
:10B9C000B9F908B0BDE8F081CDE905E3CDE9037C24
:10B9D0001346CDE90156034A00941AF0ABF9F0E79B
:10B9E000360905005A09050070B504468CB01E469C
:10B9F0001546A2B129B10A4602A804211AF04DFE4B
:10BA000002A900912B462246242103A8FFF7BCFF80
:10BA1000109A314603A8FEF767FE0CB070BD0346CE
:10BA2000044A242103A81AF085F90028F0DA6FF0FF
:10BA30001500F2E77B09050007B5064B0648DA79E1
:10BA4000C2EBC202009200221146FFF7CDFF03B005
:10BA50005DF804FB600000201507050030B50446C2
:10BA60008DB0154692B129B10A4602A804211AF0F8
:10BA700014FE02A900912B462246242103A8FFF7B9
:10BA800083FF03A81BF0D0FC0DB030BD0346054A70
:10BA9000242103A81AF04EF90028F2DA6FF01500FD
:10BAA000F2E700BF7B09050007B5009313460A467D
:10BAB00001460348FFF798FF03B05DF804FB00BFA1
:10BAC0004D0B05000A4601460148FFF7C7BF00BFFE
:10BAD0004D0B050007B5009313460A46014603487F
