:020000022000DC
:10600000483C0320E91703005DEF0500BD170300BE
:10601000BD170300BD170300BD17030000000000FB
:106020000000000000000000000000000D19030047
:10603000BD1703000000000079180300BD1703001E
:106040002D1B0300FD7404002D1B03002D1B0300FA
:106050002D1B03002D1B03002D1B03002D1B030014
:106060002D1B03002D1B03002D1B03002D1B030004
:106070002D1B03002D1B03002D1B03002D1B0300F4
:106080002D1B03002D1B03002D1B03002D1B0300E4
:106090002D1B03002D1B03002D1B03002D1B0300D4
:1060A0002D1B03002D1B03002D1B03002D1B0300C4
:1060B0002D1B03002D1B03002D1B03002D1B0300B4
:1060C0002D1B03002D1B03002D1B03002D1B0300A4
:1060D0002D1B03002D1B03002D1B03002D1B030094
:1060E0002D1B03002D1B03002D1B03002D1B030084
:1060F0002D1B03002D1B03002D1B03002D1B030074
:1061000081F0004102E000BF83F0004330B54FEA68
:1061100041044FEA430594EA050F08BF90EA020FD5
:106120001FBF54EA000C55EA020C7FEA645C7FEA68
:10613000655C00F0E2804FEA5454D4EB5555B8BF8B
:106140006D420CDD2C4480EA020281EA030382EAFC
:10615000000083EA010180EA020281EA0303362D8E
:1061600088BF30BD11F0004F4FEA01314FF4801C61
:106170004CEA113102D0404261EB410113F0004F73
:106180004FEA03334CEA133302D0524263EB43032A
:1061900094EA050F00F0A780A4F10104D5F1200EC8
:1061A0000DDB02FA0EFC22FA05F2801841F1000123
:1061B00003FA0EF2801843FA05F359410EE0A5F1F7
:1061C00020050EF1200E012A03FA0EFC28BF4CF028
:1061D000020C43FA05F3C01851EBE37101F00045DE
:1061E00007D54FF0000EDCF1000C7EEB00006EEBEB
:1061F0000101B1F5801F1BD3B1F5001F0CD3490875
:106200005FEA30004FEA3C0C04F101044FEA4452CB
:1062100012F5800F80F09A80BCF1004F08BF5FEA52
:10622000500C50F1000041EB045141EA050130BD32
:106230005FEA4C0C404141EB0101013C28BFB1F544
:10624000801FE9D291F0000F04BF01460020B1FA8F
:1062500081F308BF2033A3F10B03B3F120020CDA62
:106260000C3208DD02F1140CC2F10C0201FA0CF040
:1062700021FA02F10CE002F11402D8BFC2F1200CA5
:1062800001FA02F120FA0CFCDCBF41EA0C0190405B
:10629000E41AA2BF01EB0451294330BD6FEA0404A4
:1062A0001F3C1CDA0C340EDC04F11404C4F120028F
:1062B00020FA04F001FA02F340EA030021FA04F3A1
:1062C00045EA030130BDC4F10C04C4F1200220FAF8
:1062D00002F001FA04F340EA0300294630BD21FA36
:1062E00004F0294630BD94F0000F83F4801306BFFC
:1062F00081F480110134013D4EE77FEA645C18BFF0
:106300007FEA655C29D094EA050F08BF90EA020F86
:1063100005D054EA000C04BF1946104630BD91EA7E
:10632000030F1EBF0021002030BD5FEA545C05D181
:106330004000494128BF41F0004130BD14F58004C0
:106340003CBF01F5801130BD01F0004545F0FE4134
:1063500041F470014FF0000030BD7FEA645C1ABF69
:10636000194610467FEA655C1CBF0B46024650EAA0
:10637000013406BF52EA033591EA030F41F40021CC
:1063800030BD00BF90F0000F04BF0021704730B552
:106390004FF4806404F132044FF000054FF0000127
:1063A00050E700BF90F0000F04BF0021704730B5E8
:1063B0004FF4806404F1320410F0004548BF4042BD
:1063C0004FF000013EE700BF42004FEAE2014FEA12
:1063D00031014FEA02701FBF12F07F4393F07F4FED
:1063E00081F06051704732F07F4208BF704793F0F0
:1063F0007F4F04BF41F40021704730B54FF4607403
:1064000001F0004521F000411CE700BF50EA010205
:1064100008BF704730B54FF000050AE050EA0102AE
:1064200008BF704730B511F0004502D5404261EB1E
:1064300041014FF4806404F132045FEA915C3FF45F
:10644000D8AE4FF003025FEADC0C18BF03325FEAFC
:10645000DC0C18BF033202EBDC02C2F1200300FAAD
:1064600003FC20FA02F001FA03FE40EA0E0021FAD2
:1064700002F11444BDE600BF70B54FF0FF0C4CF4C0
:10648000E06C1CEA11541DBF1CEA135594EA0C0F72
:1064900095EA0C0F00F0DEF82C4481EA030621EAAD
:1064A0004C5123EA4C5350EA013518BF52EA0335E8
:1064B00041F4801143F4801338D0A0FB02CE4FF09A
:1064C0000005E1FB02E506F00042E0FB03E54FF0CA
:1064D0000006E1FB03569CF0000F18BF4EF0010EC2
:1064E000A4F1FF04B6F5007F64F5407404D25FEABE
:1064F0004E0E6D4146EB060642EAC62141EA555171
:106500004FEAC52040EA5E504FEACE2EB4F1FD0CB2
:1065100088BFBCF5E06F1ED8BEF1004F08BF5FEA30
:10652000500E50F1000041EB045170BD06F00046E2
:1065300046EA010140EA020081EA0301B4EB5C048F
:10654000C2BFD4EB0C0541EA045170BD41F4801187
:106550004FF0000E013C00F3AB8014F1360FDEBFAC
:10656000002001F0004170BDC4F10004203C35DA88
:106570000C341BDC04F11404C4F1200500FA05F30B
:1065800020FA04F001FA05F240EA020001F00042AC
:1065900021F0004110EBD37021FA04F642EB060122
:1065A0005EEA430E08BF20EAD37070BDC4F10C044C
:1065B000C4F1200500FA04F320FA05F001FA04F210
:1065C00040EA020001F0004110EBD37041F10001FC
:1065D0005EEA430E08BF20EAD37070BDC4F1200507
:1065E00000FA05F24EEA020E20FA04F301FA05F26F
:1065F00043EA020321FA04F001F0004121FA04F217
:1066000020EA020000EBD3705EEA430E08BF20EAE6
:10661000D37070BD94F0000F0FD101F00046400020
:1066200041EB010111F4801F08BF013CF7D041EAA2
:10663000060195F0000F18BF704703F000465200A6
:1066400043EB030313F4801F08BF013DF7D043EA77
:106650000603704794EA0C0F0CEA135518BF95EA2D
:106660000C0F0CD050EA410618BF52EA4306D1D1B4
:1066700081EA030101F000414FF0000070BD50EAD3
:10668000410606BF1046194652EA430619D094EA5D
:106690000C0F02D150EA013613D195EA0C0F05D147
:1066A00052EA03361CBF104619460AD181EA03019B
:1066B00001F0004141F0FE4141F470014FF0000053
:1066C00070BD41F0FE4141F4780170BD70B54FF0EE
:1066D000FF0C4CF4E06C1CEA11541DBF1CEA13556E
:1066E00094EA0C0F95EA0C0F00F0A7F8A4EB050450
:1066F00081EA030E52EA03354FEA013100F0888047
:106700004FEA03334FF0805545EA131343EA12630F
:106710004FEA022245EA111545EA10654FEA0026C4
:106720000EF000419D4208BF964244F1FD0404F57D
:10673000407402D25B084FEA3202B61A65EB0305D9
:106740005B084FEA32024FF480104FF4002CB6EB96
:10675000020E75EB030E22BFB61A754640EA0C0016
:106760005B084FEA3202B6EB020E75EB030E22BF56
:10677000B61A754640EA5C005B084FEA3202B6EB97
:10678000020E75EB030E22BFB61A754640EA9C0056
:106790005B084FEA3202B6EB020E75EB030E22BF26
:1067A000B61A754640EADC0055EA060E18D04FEAE4
:1067B000051545EA16754FEA06164FEAC30343EA84
:1067C00052734FEAC2025FEA1C1CC0D111F4801F51
:1067D0000BD141EA00014FF000004FF0004CB6E74A
:1067E00011F4801F04BF01430020B4F1FD0C88BFE9
:1067F000BCF5E06F3FF6AFAEB5EB030C04BFB6EBF4
:10680000020C5FEA500C50F1000041EB045170BDE6
:106810000EF0004E4EEA113114EB5C04C2BFD4EB13
:106820000C0541EA045170BD41F480114FF0000E97
:10683000013C90E645EA060E8DE60CEA135594EA13
:106840000C0F08BF95EA0C0F3FF43BAF94EA0C0F16
:106850000AD150EA01347FF434AF95EA0C0F7FF48B
:1068600025AF104619462CE795EA0C0F06D152EADF
:1068700003353FF4FDAE1046194622E750EA4106C3
:1068800018BF52EA43067FF4C5AE50EA41047FF4D4
:106890000DAF52EA43057FF4EBAE12E74A0011D286
:1068A00012F5001211D20DD56FF47873B3EB62526A
:1068B0000ED44FEAC12343F0004343EA505323FA76
:1068C00002F070474FF00000704750EA013002D1EB
:1068D0004FF0FF3070474FF00000704753B94AB98E
:1068E000002908BF00281CBF4FF0FF314FF0FF30D8
:1068F00000F00CB8ADF1080C6DE904CE00F008F81A
:10690000DDF804E0DDE9022304B07047704700BF02
:106910002DE9F04786468C460846089E1546744683
:106920001946002B40F0C2808542B2FA82F245D966
:106930004AB1C2F1200300FA02FC2EFA03F395409B
:1069400043EA0C0C94404FEA154EA8B2BCFBFEF88B
:10695000230C0EFB18CC08FB00F943EA0C439945C5
:1069600028D9EB1808F1FF3704D2994502D9A8F1CC
:1069700002072B44A3EB0903A4B2B3FBFEFC0EFBFE
:106980001C330CFB00F044EA0344A04214D92C1938
:106990000CF1FF3304D2A04202D9ACF102032C4423
:1069A000241A43EA07401EB1D440002334607360C8
:1069B000BDE8F0874746DDE76346F1E792BB431B3E
:1069C00001214FEA154EAFB2B3FBFEFC200C0EFBCB
:1069D0001C330CFB07F840EA0343984562D9EB18D7
:1069E0000CF1FF3004D2984502D9ACF102002B44DF
:1069F000A3EB0803A4B2B3FBFEFC0EFB1C330CFBA1
:106A000007F744EA0344A7424ED92C190CF1FF338F
:106A100004D2A74202D9ACF102032C44E41B43EA9E
:106A20000040C0E7C2F1200320FA03F195409040F6
:106A30002EFA03F303434FEA154EAFB2B1FBFEFC4F
:106A40000EFB1C10190C0CFB07F841EA00418845AD
:106A500004FA02F422D969180CF1FF3004D28845F7
:106A600002D9ACF102002944A1EB08019BB2B1FBB1
:106A7000FEFC0EFB1C110CFB07F743EA01439F428F
:106A80000ED9EB180CF1FF3104D29F4202D9ACF1C0
:106A900002012B44DB1B41EA004192E76046E3E739
:106AA0006146F7E76046A3E76346B7E7834206D946
:106AB00016B9002108467BE7C6E900E0F9E7B3FA1A
:106AC00083F78FB9834201D3724508D8BEEB020425
:106AD00060EB030301209C461EB9002168E738469D
:106AE000FAE7C6E9004CF8E7C7F1200CBB4022FAF0
:106AF0000CF41C432EFA0CF120FA0CF3B8400143BD
:106B00004FEA14490EFA07F5B3FBF9F81FFA84FEB1
:106B100009FB18300B0C08FB0EFA43EA00439A45B8
:106B200002FA07F240D9E31808F1FF3004D29A457F
:106B300002D9A8F102002344A3EB0A0389B2B3FBF4
:106B4000F9F809FB183308FB0EFE41EA03418E45B4
:106B50002CD9611808F1FF3304D28E4502D9A8F16F
:106B60000203214443EA0040A0FB0298A1EB0E017E
:106B70004145CE46434602D306D14D4504D2B9EB3A
:106B8000020E68EB04030138002EA6D0B5EB0E020E
:106B900061EB030101FA0CFC22FA07F34CEA030350
:106BA000F940C6E9003198E74046C5E74346D9E7D2
:106BB00010F8012B11F8013B012A28BF9A42F7D0A7
:106BC000D01A7047034611F8012B03F8012B002A55
:106BD000F9D17047034613F8012B002AFBD1181A8C
:106BE0000138704700000000F7B5B44DD5F85C31AE
:106BF000996811F0010124D101AA40F603400CF07C
:106C000057FE044600286DD1019CE3681B78ABB9A0
:106C10000EF006F9BFF35B8FD5F8D430BFF35B8F6E
:106C200005F1D40203F00903BFF35B8F52E8001FA4
:106C300042E800300028F9D1BFF35B8F204623F0F3
:106C400017FF01AA002141F203000CF031FE0446B7
:106C5000002847D1019B9A4EDA68D2F80100D2F899
:106C6000051003C6184623F003FF214601AA41F28E
:106C700001000CF01DFE0446A0BB0198C3685A78C1
:106C800085F870205A88A5F872201A7985F8712045
:106C9000B3F80720A5F87420B3F80530A5F87630CE
:106CA00023F0E6FE214601AA41F202000CF000FEAC
:106CB0000446B8B9019FFA68531C413218685968F4
:106CC000344603C4083393422646F7D17D4838F052
:106CD00051FA384623F0CCFE95F87C305F0604D498
:106CE0006FF01204204603B0F0BD01AA002142F269
:106CF00003000CF0DDFD04460028F3D1019B724E29
:106D0000DA68D2F80100D2F8051003C6184623F05D
:106D1000AFFE214601AA42F202000CF0C9FD044672
:106D20000028DFD1019CE368B3F8012091B249B19A
:106D3000D97839B1A5F80421DA78114606F128008E
:106D400048F03EFF204623F093FE95F87C6016F055
:106D5000200618D1022140F66D400CF04DFD04468E
:106D6000002800F0A28002210C303CF044FC0123FA
:106D7000037046702146324640F66D400CF098FD97
:106D800004460028AED195F89C301E0712D501AA02
:106D9000002142F21C000CF08BFD04460028A1D11A
:106DA0000198C368D3F80120D3F80530C5E938232A
:106DB00023F05EFE95F8D8305C060FD501AA0021BD
:106DC00042F22A000CF074FD044600288AD1019892
:106DD000C3685B7885F8203123F04AFE082142F22F
:106DE00001000CF009FD044600285ED008210C309B
:106DF0003CF001FC95F8D81011F0400F024640F22B
:106E0000022308BF032388074CBF43F02C0043F044
:106E10000C0095F8D9308F0648BF40F0400013F0C1
:106E2000090F95F8A23018BF40F4006003F0060384
:106E3000CE0748BF40F01000062B08BF40F4C070DA
:106E4000002138F039FB2146002242F201000CF00B
:106E50002FFD044600287FF445AF95F87C30B5F847
:106E60000411980624D4C9B901AA41F205000CF016
:106E70001FFD044600287FF435AFB5F80431019CAE
:106E80004BB9E368B3F80120A5F804219A880F48AC
:106E9000114648F095FE204623F0EAFD082140F611
:106EA00001400CF0A9FC044690B96FF0680419E7A2
:106EB0000029F3D16FF0040414E700BF2001002083
:106EC00098010020A0010020F801002028020020E5
:106ED00008210C303CF08FFB95F8D830D9070246DA
:106EE00053BF4FF000512CA1D1E90001284838F0E0
:106EF000E3FA2146002240F601400CF0D9FC04469A
:106F000000287FF4EFAE014601AA4FF601400CF0D5
:106F1000CFFC044620BB019823F0AAFD214601AA1C
:106F20004FF602400CF0C4FC0446C8B90198C3688F
:106F3000B3F80130A5F8C13023F09AFD95F8C130BF
:106F40005B070DD501AA21464FF603400CF0B0FCBB
:106F500030B90198C3685B7885F8C03023F088FDAC
:106F600038F07CFE044600287FF4BCAE0FF0A8F990
:106F7000044600287FF4B6AEEB79002B3FF4B2AEA6
:106F80000821044838F0EEF90DF020F8AAE600BF19
:106F900010880002F4010020908800020080002088
:106FA0002DE9F843D0E90C35D0F82C805C19303449
:106FB000A0450F46164619D81D4DA3FB05011AA37F
:106FC000D3E90023FFF78AFC0346A4EB0800A0FBEB
:106FD000050123F07F4414A3D3E90023FFF77EFCCF
:106FE00020F07F403C603060BDE8F883DFF84090DF
:106FF0000DA3D3E90023A8FB0901FFF76FFC0446AA
:1070000005F1300008A3D3E90023A0FB0901FFF735
:1070100065FC24F07F4420F07F403C603060BDE898
:10702000F88300BFAFF300808D49FD1A0700000010
:1070300000CA9A3B000000009FED0D7B124B134AE3
:107040001348144910B483ED007B9FED0B7B82ED58
:10705000007B9FED0B7B104B4FF0FF34002281ED46
:10706000007B04601A605DF8044B16F0FFB900BFA6
:10707000FFFFFFFFFF1F00000000000000000000F6
:107080001F00000000000000A0020020783F002048
:1070900070AD00209802002068AD002000000000C4
:1070A000002800F05F812DE9F04FB54C94F86A207C
:1070B00012F001058DB040F0A78194F82500FF2360
:1070C00000F0030084F826301FF0F8FC94F86A0002
:1070D000420727D494F8292094F8353004EB820233
:1070E00004EB8303D66AD3F8388086B1A4483146CE
:1070F00018F040F933785B0605D5062113F0E6F861
:10710000002800F083819E48414618F033F9337817
:1071100013F00E0F40F0B780236A93B10C200DB02E
:10712000BDE8F08F2A4604F16B01C0F3C0001FF0E8
:1071300061FEFF2884F82600CCD028461FF004FD0D
:10714000C8E715F0BDFA8146002800F0718115F0FE
:10715000C3FA8246002800F0688118F039FD054620
:10716000002800F06781D0F888004FF6FF732B8568
:1071700005F11C0B002800F04F8105F1780105F1A5
:107180007C0213F0AFF8B5F876307E4A23F4EF6353
:1071900023F0070343F4887343F00103A5F8763026
:1071A0001346D2F80120C5F89B21C5F8A12113F898
:1071B000012B9B88A5F89F31A5F8A53195F89A3148
:1071C00002F0010262F3000362F3410385F89A3191
:1071D00095F8393003F03F0363F07F0385F83930C9
:1071E00095F88E3023F0070385F88E3095F83C3003
:1071F00023F00703002785F83C304FF4C023C5F87F
:1072000088312846C5E91277C5F88870A5F88C70D2
:107210006F86C5F82E7085F83B702F65A5F88E71C6
:10722000A5F884711BF0A2FA85F85071C5F8549145
:1072300018F08CFF95F8943160F3020385F89431CF
:1072400018F08AFF95F8943160F3C50385F89431FE
:1072500095F8803167F3410385F880310121284694
:1072600019F0DAFB05F1D4001BF008F8C4E9189A0C
:10727000C4F820B0C5E905772F70ED6120F0ECFE71
:10728000002840F0C58094F824300121C3F3420364
:107290000DF12B008DF82B3013F0C2F902460028B7
:1072A00062D098F80110304617F026FE3123364997
:1072B000A360364BB4F86870A0FB01010025C0182C
:1072C00041F107012CA3D3E90023C4E9055525703A
:1072D0006560E560FFF702FB206114F0D5FC00F16A
:1072E00009083FB9357805F00F05A5F10105B5FA94
:1072F00085F56D0994F82400236965F3000010F00A
:10730000010584F824004BD0214A09920020106026
:107310000225204A204F04930BAE019305920321CE
:10732000CDE90200069443460090089607972A4646
:107330000B9514F047FB314615F088FAA0B91749B0
:1073400005914AF2D8330093CDE90300CDE901005D
:107350000797089606944346012203210B9514F0E3
:10736000FDFA43E017F014BD236A002B3FF4D6AEBC
:1073700017F0CCFCD2E600BF8D49FD1A07000000D3
:1073800028AE0020E391070000CA9A3B8C49FD1A01
:107390001CAE002075EF030015BE030089EA030050
:1073A0002B4A2C48049303F247130694029591212B
:1073B0001360A7FB000301FB0731274B0793274B03
:1073C00005934FF6FF730992022703930BAE1EA39A
:1073D000D3E900230B970896FFF780FA4346CDE9DF
:1073E00000503A462846032114F0ECFA314615F0D5
:1073F0002DFA0028B8D194F86A3043F0010384F8DC
:107400006A3018F0D9F960B1002088E6122086E6CB
:1074100017F07CFC032082E605F18000C5F88800A7
:10742000ABE601201FF02CFBEEE7484615F04EF9C5
:10743000072074E6504615F055F9484615F046F910
:10744000F6E700BFAFF300808D49FD1A070000008A
:107450001CAE0020002AE78415BE030075EF030070
:1074600070B590F824308AB0C3F342030D46044649
:1074700001210DF1230016468DF8233013F0D0F8CA
:1074800071780246284617F037FD1F491F4AA0FBB6
:107490000131981841F1070119A3D3E90023FFF73F
:1074A0001DFA23699842054621D21B1A0022019237
:1074B000174A0293174BA21AA3FB02320221920928
:1074C00000230A4409AE099113490591CDE903331C
:1074D0000321D2B206960093184614F0D3FA31462F
:1074E00015F0B4F938B9256100200AB070BDFBD998
:1074F000C21A0023DBE70C200AB070BDAFF3008096
:107500008D49FD1A0700000000CA9A3B8C49FD1AFC
:1075100028AE00208988888815BE0300000000007E
:1075200038B5194C9DF810E094F848C01CF00105DE
:1075300023D163F3420C400194F83230A1874FEA23
:10754000CE0E0EF0180E00F0200040EA0E0023F0E0
:10755000380303430D4884F832309121A2FB000325
:1075600084F848C001FB023105A3D3E90023FFF7EB
:10757000B5F9C4E91000284638BD0C25284638BDA9
:107580008D49FD1A07000000803F0020002AE78493
:1075900010B504469DF8080022844FEA411CC00043
:1075A000A17D00F018000CF0200C4CEA000C0C48F7
:1075B00021F038014CEA010CA3FB0002912184F870
:1075C00016C001FB032104A3D3E90023FFF786F9CA
:1075D000606210BDAFF300808D49FD1A0700000006
:1075E000002AE784000000002DE9F047044600F17E
:1075F000350190F8480094F832305B4DDFF8808117
:10760000C0F3400060F386138CB084F8323014F07D
:107610008DFB94F83220A38F5448E46102F0790284
:10762000002784F832209121A3FB0002C4E90577EA
:10763000277001FB03214AA3D3E90023FFF74EF98A
:10764000651B626C4A4B6760AD08A3FB053502F110
:107650000903984298BF3A46C5F3470522644FF0A4
:1076600031028CBF19460146A26005EB4502E76076
:10767000216148F82210064614F006FB236A00F147
:1076800009074FEA450A002B4AD00DF12C09AA44FC
:1076900008EB8A030993CDF820900694A38F334812
:1076A0004FF00008A3FB0002CDF80C80912101FBF4
:1076B0000321236904932F4B07932F4B05934FF01E
:1076C000020A27A3D3E90023CDF82CA0FFF706F97F
:1076D000104619464FF47A720023FFF7FFF804357D
:1076E000EDB2CDE9016003213B462A46CDF800808A
:1076F000404614F067F9494615F0A8F860B994F8C7
:10770000483043F0010384F8483017F009FE08B30D
:1077100000200CB0BDE8F0870C200CB0BDE8F0876D
:107720000DF12C09CDE90A3321694B460AAA032041
:1077300001F096F90028AAD10B99104808A3D3E9C3
:107740000023A1FB0001FFF7C9F80A9B20F07F4747
:107750001F449CE750461FF093F9D9E7AFF3008030
:107760008D49FD1A07000000803F0020002AE784B1
:10777000BD86F21A15BE0300A9F5030000CA9A3BA4
:10778000B8AE0020000000002DE9F04F05468BB098
:107790008B46012002219A46144622F001FF002266
:1077A00002218146012012F0EDFD3B494FF4D472D5
:1077B000284612F077FD461DF6B2384B009532464A
:1077C0000121002014F076F910F0FD0F0CD0344A9E
:1077D0003449354840F62F0335F0C5FC404080F36E
:1077E00011884FF0030002DF304BA4FB0348204612
:1077F00027A3D3E900234146FFF770F82C4B20F074
:107800007F47A7FB03310722E01A02FB071168EB51
:1078100001014FF47A720023FFF760F8CDE901709F
:10782000CDF800B008950695296995F939402148A9
:107830000491214931EA240128BF014605911F4CDA
:1078400007944FF6FE710391534632460121002002
:1078500014F084F810F0FD0F0CD0114A11491248B1
:1078600040F6440335F07FFC404080F311884FF030
:10787000030002DFB9F1000F02D10BB0BDE8F08FB9
:107880000122022110460BB0BDE8F04F12F07ABD84
:107890008D49FD1A07000000D03F002079FB03004E
:1078A0007C490700404A07001844070000CA9A3B79
:1078B0008D49FD1AF15B0400995D040021FB030072
:1078C0002DE9F043C469228D4FF6FF739A428DB0C3
:1078D00000F08880054620461BF040FA95F82830D5
:1078E000012B00F00F81022B00F00281002B00F031
:1078F000E18094F85071002F40F0FD80E68DB4F8DF
:107900003080002E71D1AA8C08F101060023CDE948
:107910000A33B6B2002A70D094F93930002BC0F285
:1079200048810023A4F88A3195F82630D90740F120
:10793000EF800023A4F88E310DF127023146204656
:107940001AF050FF743000F04681B4F888312BB142
:10795000B34240F20D819B1BA4F88831B4F8843106
:107960002BB1B34240F2FB809B1BA4F88431258EDF
:1079700017B9A84500F0EA800135ADB294F8D130CE
:1079800013F001065AD1DDE90A130A46002B40F034
:10799000ED80002900F0DC801E461846228DE46947
:1079A0000694CDE903570532A74D0290CDE90016A4
:1079B000D2B201210020059514F064F810F0FD0FFB
:1079C00010D014F06DFF84420CD0A04AA049A14809
:1079D00040F2155335F0C7FB404080F311884FF05B
:1079E000030002DF0DB0BDE8F083AA8C46440023FB
:1079F000CDE90A33B6B2002A8ED195F82630DA07DF
:107A000097D4B4F88A31002B00F08280B34240F260
:107A1000FA809B1BA4F88A31B4F88E31002B8BD0EE
:107A20009E4280F0DE809B1B9BB20022062BA4F8B6
:107A30008E31228600F2AC8001277DE794F939204F
:107A40006FF30003002A84F8D13077DB94F87600D6
:107A5000C0F3C00100F0070020F064F9B4F86E2014
:107A6000B4F86C30134403F2D51303447A4A7B48CC
:107A70000721E3FB0021104671A3D3E90023FEF7A1
:107A80002DFFDDE90A1320F07F4220692261904238
:107A900035BF161A801A002000260A46002B7FF4F4
:107AA0007DAF56EA010C7FF479AF002850D019461B
:107AB0001E4673E794F88E3003F01803182B7FF4FA
:107AC00018AFA18DB4F886218B1D9A42C4BF931FB5
:107AD0005B1AB4F88211CCBF9BB21346994200F0F6
:107AE0008C80A4F88231A4F88431A4F8882100E7BE
:107AF0003D2784F85071394620460DB0BDE8F0436B
:107B000018F048BC0023A4F88831A4F88431F0E6CA
:107B1000B4F88E31002B83D1628DB4F88C3140F2F1
:107B2000E24101FB02F242F2107101FB0323013B2F
:107B3000B3FBF2F39BB2A4F88E316FE794F87700B1
:107B4000012100F0070020F0EFF887E73D4615E738
:107B5000002D4BD000261146304633461EE7002349
:107B6000A4F8843120461AF0DDFE00E7304615E720
:107B700014F0FEFD014600283BD00023A4F8883114
:107B8000238DC3801B230371006814F0BBFDE5E661
:107B900094F939309342BFF6CFAEB8F1000F7FF4BD
:107BA0004BAFD4F878315A08DB0743D4C4F87821B6
:107BB000C2E628460AAA0BA904F1D409FFF7F0F996
:107BC00048461AF09DFB18B348461AF099FB18B3C3
:107BD00000232386A5E69DF82710204618F0DAFB3F
:107BE00000E70821204618F0D5FBFBE6002FB1D1B5
:107BF000F8E60123A4F88831B0E6B4F8881100292A
:107C00007FF477AE6FE73E21204618F0C3FBE9E62C
:107C1000FF2018F077FBD7E70246D4E91E0112F0E7
:107C200079FB0028D4D194F83C30580744BFA38D89
:107C3000238676E642F00042C4F87821FCE600BFD5
:107C40008D49FD1A07000000E1FA03007C49070096
:107C50008C4A0700184407008C49FD1A00CA9A3B59
:107C60002DE9F04F87B0CDE90432BDF84420037808
:107C70000292BDF84820BDF84080BDF84C50468EB9
:107C8000B0F82E90B0F814B1019104460392002B85
:107C900000F0CB80013EB6B2A368D4F80C71721B21
:107CA00092B2002B009209DAE168626823F0004387
:107CB00091422CBF7F18BF18A360FF1A009A638DF2
:107CC00013FB02F39BB2B3FBF8F218FB02F080B295
:107CD00083421FFA82FA80F09780C01A40F2E24293
:107CE0005D4902FB00F0A0FB010159A3D3E9002389
:107CF000FEF7F4FD20F07F400744D94494F8393072
:107D00004D44AD1B554440F2E246DB09E58506FBD8
:107D100008F500F08E80226C0099A36CDFF838B172
:107D200002FB1133A36420F0E9F9814694F8740151
:107D3000C0F3420020F0E4F9059B814406FB03F305
:107D400005FB09F9236509F57429444B09F23F291C
:107D5000A3FB09394FEA994303FB0AF02364A5EB1F
:107D60000309A36C6A080344963A934228BF13465A
:107D7000C4E911230023C4F87C31A0FB0B0134A318
:107D8000D3E90023FEF7AAFD049B3F1A3448A0FB69
:107D90000330800A06FB00F02DA3D3E90023A0FBEB
:107DA0000B01FEF79BFD20F07F46029BA385039B02
:107DB000A4F88C3129462046A4F82A801AF04EFDFA
:107DC000284BA18D2B44881DB3FBF5F39AB290424A
:107DD000A4F8862102D2521A063A92B2019BA4F864
:107DE000822113B10023A4F88E313B464A46314626
:107DF0002046FFF7C9FC94F8803143F0010384F872
:107E0000803107B0BDE8F08F08FB1231124840F214
:107E1000E24389B203FB01F1A1FB00010CA3D3E90A
:107E20000023FEF75BFD3F1A67E74E445E44B6B29F
:107E300032E7049B0848A3FB000105A3D3E9002314
:107E4000FEF74CFD20F07F46A9460136ADE700BFA6
:107E50008D49FD1A0700000000CA9A3B83DE1B43D0
:107E60005917B7D17FC3C9012DE9F04F04460B68FC
:107E7000077F1668D3F800A0638CD0F81E0095B079
:107E800015464A7CADF84C30FF2AC7F3801389466B
:107E90000D9212908DF83F3072D198461A4612AB6F
:107EA00093E803000DF1400B1090ADF84410F80971
:107EB0000AF1710127680A915B460C900B9718F044
:107EC00051F90A99002843D196F89A310C9A0A90F0
:107ED00068F3410362F3000386F89A311098BBF807
:107EE0000430C6F8A101A6F8A531DAF87130C6F859
:107EF0009B318B88A6F89F31E38D94F83010A972DE
:107F00002B81D4F82A306B60D4F83A30AB6105F19C
:107F1000180094F83E300371052112F081FB6B7F4D
:107F200000F03F0060F305036B7794F83F30C3F334
:107F30000401A977A18EE981012803F01F0389B20A
:107F400006D91B3303F01F030B2B01D80A9A59BB28
:107F50000022CAF8142095F820300B9862F3000331
:107F600085F82030E56801262146267114F0C0FB13
:107F700028682E71294614F0C5FB15B0BDE8F08FB6
:107F80000DF1400B10460DF13F015A461EF0EEFA7E
:107F90009DF83F80277F08F102085FFA88F88DF886
:107FA0003F8008F0010282E7D9F800305A60E38E82
:107FB0002B82EB8940F2E24808FB03F71146638EFF
:107FC0000A9330461AF05EFC94F83F3096F874211C
:107FD0005B0963F3430286F8742120F08FF80C905C
:107FE00096F87401C0F3420020F08AF80C9B184404
:107FF00007FB00F0BA4B00F5742000F23F20A3FB12
:1080000000307B08800C963B6862AB6294F831309C
:1080100008FB03F3AB63238FA6F88C313946304657
:108020001AF01CFCAF4BB04AC6F890213B44B3FB9E
:10803000F7F39AB2A6F88621298A881D824204DDC8
:10804000C1F57F41FA310A4492B2A6F882216B68E9
:10805000C6F87831234613F81C2FC2F34018DA070C
:1080600000F104814FF48073A3839AF826001EF078
:10807000D7FF04F12B03002800F0EE80626AC4F8F9
:108080002B20228D9A800D9BFF2B00F0E980BDF8FC
:108090004C301298A4F82930C4F82500BBF80430FD
:1080A000A4F8233010989DF83F30C4F81F00A37740
:1080B000EB8963862B8AA386B6F88C31E38696F823
:1080C0007431C3F3420384F83830304617F08CFD26
:1080D000A881E08021460B98D9F8044014F008FBF1
:1080E000AB89E3801C23D4F800B02371B8F1000FF2
:1080F00040F0D18084F81C802146584614F002FBE1
:1081000095F85B00B5F85080B5F85240012100F0B9
:1081100007001FF009FE444404F2D514DFF8D481AF
:108120000444834671480721E4FB080131230024FD
:10813000B360746068A3D3E90023F460FEF7CEFB5C
:1081400020F07F4030616D6A0A9A7D1BD9F80C706F
:1081500040F2E24303FB027702212246012012F0A3
:1081600011F9504617F0C2F807F2B2470246A7EBE2
:108170000B07A7FB0801174657A3D3E90023FEF717
:10818000ADFBCDF804A0D9F808305949009120F092
:108190007F48BA1C3A3BD2B220464344012113F037
:1081A000CBFC012800F082809AF82430DB076AD4E7
:1081B000304617F019FD4F4BA5FB035A044646A362
:1081C000D3E9002328465146FEF788FBD9F808304A
:1081D000494A0792A3F13A09484B069620F07F4797
:1081E000A7FB0331E81A464B059340F2D1130893DD
:1081F00033694FF0000BCDE903B34FF0070303FBE6
:1082000007116AEB01014FF47A720023FEF766FB57
:108210000534E4B2CDE90170CDF800804B4622462A
:108220000121584613F09AFB10F0FD0F0CD0354A8F
:10823000354936484FF4E97334F095FF404080F3F8
:1082400011884FF0030002DF01220221104612F0D4
:1082500099F815B0BDE8F08FC4F82B00988012E7AC
:108260000022C4F82520A4F8292017E7254A284928
:108270002648F82334F077FF404080F311884FF010
:10828000030002DFEEE600230122009318461146A8
:1082900013F010FC8CE76B7F43F040036B77281DD5
:1082A0001DF05CFF4FF00108E88323E714F0F8FAB3
:1082B00082453FF479AF134A1649144840F27923B6
:1082C00034F051FF404080F311884FF0030002DF8B
:1082D0006AE700BFAFF300808D49FD1A0700000078
:1082E00083DE1B437FC3C901404B4C008C49FD1A00
:1082F000B55B040000CA9A3B855B04008D49FD1AFA
:10830000F15B04002C4F0700404A070018440700A7
:10831000DC460700884F07002DE9F04F8DB01F465F
:10832000BDF860300793CDE90501BDF868309DF8D0
:108330005C90BDF864B004930020164617F04AFA2A
:10834000002800F0658109F001080446404613F05A
:10835000DDFC0390B8F1000F6DD1169B03993A46EE
:10836000404617F0FFFE002840F06381236A04F1C5
:108370001C020892002B65D0D4F820A0DAF8005037
:1083800007F0010B9AF85A00C0F3C00100F0070093
:108390001FF0C8FCBAF85210BAF8502000F2D513FA
:1083A0000A441344CC48CD4A0721E3FB0021104680
:1083B000C7A3D3E90023FEF791FA20F07F4028619C
:1083C00030461EF09DFB94F833306FF3410384F880
:1083D0003330FF2384F83430002E00F01D81A9F1E2
:1083E0000203012B40F2298194F84810089869F3A0
:1083F000420184F8481094F833106BF30001DDE972
:10840000052384F8331016990968616216998988E2
:1084100021850499218600960021FFF7B9F8606450
:108420001FF01AFE002840F013812046FFF7DCF809
:108430000DB0BDE8F08F062111F048FF00288CD167
:108440001220F5E714F03CF90990002800F0738140
:1084500017F0BEFB0546002800F06A81203012F0BC
:10846000F3F805F11C0A002840F01D81032105F1F5
:1084700024001FF00BFB079BD5F888006B854FF697
:10848000FF73A5F82CB02B85002800F0198105F1A9
:108490007C0205F1780111F025FFB5F8763023F460
:1084A000EF6323F0070343F4887343F00103A5F857
:1084B000763095F88E304FF0000B23F0070385F8E7
:1084C0008E300121C5F888B0A5F88CB0284618F088
:1084D000A3FAC5F82EB0A5F832B005F134001DF0AE
:1084E000E7FD95F8393060F30503012185F839304F
:1084F0000DF12F001FF0CAFA049B9DF82F20A5F85C
:108500008C31774B85F83BB0A3FB0213DB0803EB00
:108510004303A2EB830295F83930A98DA5F88EB1FB
:1085200003F03F0385F8393095F83C30A5F884B165
:10853000053223F0030385F83A20079A85F83C308A
:1085400040F2E24B674B0BFB02FB4FF4C0225B4453
:10855000C5F88821881DB3FBFBF39AB28242A5F8C7
:10856000862102DD063A521A92B2A5F882212846E7
:108570001AF0FCF8594628461AF070F9099BC5F81C
:108580005431002385F8503117F0E0FD95F894211F
:1085900060F3020285F8942117F0DEFD95F894212E
:1085A00060F3C50285F8942195F88021002363F3D8
:1085B000410285F8802105F1D40019F05FFE95F89D
:1085C0009A21169907F0010B6BF3410285F89A2165
:1085D0003122AA600023169A6B60EB601268C5F81E
:1085E000A12195F89A218988A5F8A51169F30002BF
:1085F000039985F89A210A68C5F89B218A88A5F80D
:108600009F21C4F820A0C5E905332B70ED61B9E6C0
:108610000C200DB0BDE8F08F1EF0B2FE00283FF434
:10862000DEAE1699384632461EF0E4FB84F834007C
:10863000D5E60B200DB0BDE8F08F00201EF084FAC7
:1086400094F8333043F00203C14684F83330CBE66C
:10865000256AEB6E63B1244A2449254840F21D4344
:1086600034F081FD404080F311884FF0030002DFB9
:1086700005F1600105F15C0011F038FE06460028A6
:108680003AD02F68EE66D7F85451002D42D02846D4
:1086900014F01CF8384617F0A1FA002303202362D7
:1086A0000DB0BDE8F08F104A12491148C12334F0D3
:1086B0005AFD404080F311884FF0030002DFD5E6F9
:1086C00005F18000C5F88800E1E600BFAFF3008047
:1086D0008D49FD1A0700000000CA9A3B8C49FD1A1B
:1086E000ABAAAAAA7FC3C901B84F07007048070008
:1086F0001844070074440700104A1149114840F219
:108700001F4334F030FD404080F311884FF00300E8
:1087100002DFB6E7094A0A490A4840F2264334F024
:1087200022FD404080F311884FF0030002DFAEE7E6
:10873000099813F0CBFF07207AE600BFB84F070077
:10874000CC490700184407002DE9F04F04468DB0CE
:1087500090F81C80238D406AADF82C30E307C8F3F5
:10876000C0170E461546C8F340180A9000F10D8157
:108770000023A383B37C707C13F001031CBFD4F8E7
:108780001E30C4F82B3004F12B0214BF638CC4F8E4
:108790002B30FF28938004F1250904F11F0240F0DB
:1087A000E5800023BDF82C100A98C4F82530A9F8FC
:1087B0000430A777C4F81F0091803368D3F8009085
:1087C000EB8963862B8AA386B9F83030E3861FF0E5
:1087D00093FC84F838002F68384617F005FA00211A
:1087E000A881E08038461AF04DF8D6F804A0206839
:1087F000214613F07DFFAB89AAF806301C23DAF876
:1088000000408AF80430B8F1000F40F0CC808AF8BC
:108810001C805146204613F075FFBB687A6895F8B6
:108820005A00B5F80E80F568674C934238BF13467E
:10883000C0F3C00103F1090A00F0070040F2E2436F
:1088400003FB08F81FF06EFA002202212D1A012006
:1088500011F098FD484616F093FFA5FB044558A378
:10886000D3E90023834629462046FEF737F8CDF8A2
:108870000490B3685549009120F07F490BF1040240
:10888000A3EB0A03D2B24B440121002013F054F9A8
:1088900010F0FD0F0CD04E4A4E494F4840F23D3388
:1088A00034F061FC404080F311884FF0030002DF98
:1088B0004FF0000B5B4603220121CDF800B0584673
:1088C00013F0F8F8384617F08FF9B36806463E48BB
:1088D000A3EB0A0AA8FB000139A3D3E90023FDF7A3
:1088E000FDFF19463D4B08933D4B069340F26D3317
:1088F000079709933B698046CDE904B310460023EE
:108900004FF47A72FDF7EAFF364B0722A9FB0331D9
:10891000CDE9028002FB0911E01A65EB01014FF479
:108920007A720023FDF7DAFF0536F6B2CDE9009042
:10893000534632460121584613F02CF810F0FD0F33
:108940000CD0234A2349244840F26E3334F00BFC08
:10895000404080F311884FF0030002DF0122022122
:1089600010460DB0BDE8F04F11F00CBD04F11E0132
:108970001DF0FCFDA37FBDF82C200A98C4F825004B
:108980000233A377A9F8042017E7114A16491248C1
:1089900040F2BD2334F0E7FB404080F311884FF0F4
:1089A000030002DFE4E66B7F43F040036B77281D92
:1089B0001DF0D4FB4FF00108E88328E7AFF30080F7
:1089C0008D49FD1A0700000000CA9A3B655D04004E
:1089D000B84F0700404A070018440700695D0400CB
:1089E000995D04008D49FD1ADC4607000000000077
:1089F0000538C3B2042B0CD870B580B20D4617F001
:108A0000FBF8044618B190F93930002B03DA002046
:108A100070BD0020704790F876000F4EC0F3C00183
:108A200000F007001FF07EF90C4A00F2B550072154
:108A3000E0FB0621104606A3D3E90023FDF74EFF15
:108A400020F07F402860204670BD00BFAFF300805B
:108A50008D49FD1A0700000000CA9A3B8C49FD1A97
:108A60002DE9F04F93B0FF240B930B1D0A930023C5
:108A7000CDE90E33054616468DF837409B464FF03C
:108A8000040A1F469946984610AB0693564B059329
:108A9000564B03930FAB01930EAB002000930223C0
:108AA00010930490029033460DF13702294613F0DB
:108AB00087F8022815D0109BCBB9FF2C26D033683D
:108AC000BB4223D0BAF1000F40D00AF1FF3AFF2495
:108AD0005FFA8AFA8DF83740D6E72946002013F06E
:108AE000BBF8109B022BF8D0109B002BE5D0404A1E
:108AF000404941484FF4F77334F035FB404080F370
:108B000011884FF0030002DFFF2CD8D19DF8370009
:108B1000FF2829D011A9FFF76BFF0028B4D0FF2C44
:108B20000E9F119B0AD041463846099313F0AEF8C8
:108B30000A9B03EB09029042099B17D8B8469DF89F
:108B400037403768DDF83CB099469DE72B49284A05
:108B500029484FF4FB7334F006FB404080F3118842
:108B60004FF0030002DFB0E7FF2C34D02448072188
:108B7000A9FB000301FB093119A3D3E90023FDF789
:108B8000ADFE044600B140341E4AABF57423A3F594
:108B90001073934216D81A480721A8FB000301FB63
:108BA00008310FA3D3E90023FDF798FE164BA3FB72
:108BB0000B2304EB93440B9B044400201C6013B074
:108BC000BDE8F08F0BF1E87B0BF5D43B08F1FF38E3
:108BD0000BF5A57BDFE76FF0090013B0BDE8F08F60
:108BE00000CA9A3B00000000756004007960040030
:108BF0000450070048500700184407005050070071
:108C00008D49FD1ABFBDF07F83DE1B4300000000CD
:108C10002DE9F043C668476873683D491A68D0F883
:108C20000090A7F57423A3F510738B4283B08046A0
:108C300007D907F1E87707F5D43709F1FF3907F5C8
:108C4000A57773681169DD89CDF8049006F11003EA
:108C500001AA0220FFF704FF00284ED10199A1EBE1
:108C600009031B0237D40846494613F00FF80346A0
:108C700028480721A3FB000201FB032122A3D3E91B
:108C80000023FDF72BFE34690444002C346109DB1A
:108C900040F2E24305FB03F3A3422FD2E41AA342BE
:108CA000FCD33461D8F800301A48A3EB0903A3FBC6
:108CB0000002072101FB032113A3D3E90023FDF7E1
:108CC0000DFE154BA3FB0737A0EB97402044306106
:108CD00003B0BDE8F083484612F0D8FF03460D48C4
:108CE0000721A3FB000201FB032107A3D3E9002313
:108CF000FDF7F4FD3469241AC7E73469002CD1D19B
:108D000003B0BDE8F08300BF00CA9A3B000000003A
:108D1000BFBDF07F8D49FD1A83DE1B4300000000BC
:108D200010B5334C3349002304F1FF3C14F83320D1
:108D3000072A02EB820E05D811F83E206FF3451288
:108D400001F83E201CF833206FF300020CF83320AA
:108D50000133082BEAD1284A284C002313700A78E3
:108D600063F300020A7091F8282063F3000281F88F
:108D7000282091F8502063F3000281F8502091F8E8
:108D8000782063F3000281F8782091F8A02063F343
:108D9000000281F8A02091F8C82063F3000281F856
:108DA000C82091F8F02063F3000281F8F02091F8D8
:108DB000182163F3000281F81821114A9FED0A7B04
:108DC0001370104B83ED007B0F4B236028B1BDE87F
:108DD00010400E490E4846F0BABFBDE810400C489E
:108DE00046F0C3BFAFF30080FFFFFFFFFFFFFFFFB1
:108DF00049BA002008B9002022EA022018B8002051
:108E000021EA022048480020A0BB0D00356D040077
:108E100018480020000000002DE9F04F8FB00DF140
:108E200037010446DFF8E0A0DFF8E0800DF13600FE
:108E300013F0E6FC9DF836309DF837B00B9312F036
:108E400023FFDAF80060A6FB085629A3D3E9002324
:108E50000027814631462846FDF740FDCDE90777DA
:108E6000069420F07F44DAF80400234B0593A0FB1E
:108E700008011FA3D3E90023FDF730FD1F4B20F0AD
:108E80007F40A4FB0331072202FB0411CDE90370EC
:108E9000E81A66EB01014FF47A720023FDF71EFD1C
:108EA0000097CDE901404B460B985A46032112F03A
:108EB00055FD10F0FD0404D06FF08B000FB0BDE83D
:108EC000F08F0F480F4A002330F092FD20B9DAF8F6
:108ED0000C000FB0BDE8F08F9DF837209DF83600EC
:108EE00000942346032112F0E5FD6FF07300E5E7DF
:108EF0008D49FD1A07000000857404008D49FD1A94
:108F0000BCBA0020447B0B00D4BA002000CA9A3BB4
:108F100038B50F4D044612F0B7FEA96812F0B6FE40
:108F2000696803460B48B3FBF4F4A1FB00011C4441
:108F300005A3D3E90023FDF7D1FC20F07F40844254
:108F400094BF0020012038BD8D49FD1A07000000A4
:108F5000D4BA002000CA9A3BF0B5C468636883B0F5
:108F60000546002B63D120F061FE002020F084FE36
:108F70000021084620F072FE00222521082020F062
:108F8000B1FE454B019301A820F094FE434940F205
:108F90005B6020F03FFF237AC3F3420262F30613C3
:108FA000204623721FF0CAFA1EF0EAF958BB637A12
:108FB0009B071FD127682E6838461EF051FE0644D5
:108FC0006A6806F10901012021F07EF821F06AF9B2
:108FD000204616F097F9811C3246C9B238461EF079
:108FE0004DFE054670BB20461EF0D4FD88B900201A
:108FF00003B0F0BD01201DF037FD4178821C0078E0
:1090000021F002F8D6E7607A10F0030018BF0120C3
:10901000F1E7234A2349244840F22C4334F0A3F8D3
:10902000404080F311884FF0030002DFDFE793F840
:1090300020309A0797D01D48214620F0B5FD20F03A
:10904000A3FED4E7164A1A49174840F2144334F0F5
:109050008AF8184B0721A5FB030301FB05310CA37C
:10906000D3E90023FDF73AFC13490246134834F0D4
:109070007AF8404080F311884FF0030002DF104877
:10908000214620F091FD20F07FFE6FF08B00AFE7CE
:1090900000CA9A3B00000000D6BE898E5555550087
:1090A000FC5307008445070018440700057E0400B0
:1090B000984407008D49FD1AAC54070080540700FE
:1090C0000D810400000000002DE9F041C46894F90E
:1090D0001630002B8CB0C0F2FF80636805460E4648
:1090E000002B40F0EE80A37D6FF30003A37520F00A
:1090F0009DFD002020F0C0FD0021084620F0AEFDBF
:1091000000222521082020F0EDFD012013F07AFC3B
:109110000746002800F0C78007F11C0020F00CFE75
:10912000874B0B930BA820F0C5FD864940F25B608E
:1091300020F070FEA07DC0F3410025301EF0B0FD90
:109140008148214620F030FDA37D9B0603D463684F
:10915000002B00F0A580962020F0AAFF00231A46DD
:109160001946184620F0BCFE1EF00AF9002838D136
:10917000A37D13F0180F59D1D4F800802F68404612
:109180001EF06EFD07446A6807F10901002020F017
:109190009BFF21F087F820F013FF204616F0FEFA1F
:1091A000011DC9B240463A461EF068FD80460028BF
:1091B00040F0998016B9636A002B4ED1636843B1C1
:1091C000624B0122022100209D6011F011F900285C
:1091D00035D120461EF0DEFCD0B900200CB0BDE831
:1091E000F081A07DC0F3C0001DF03EFC07460DF1EC
:1091F0002B001DF03DFF79788046BA1C387820F0AE
:1092000003FF9DF82B000022414621F01BF9B3E734
:109210004F4A5049504840F20B2333F0A4FF4040DE
:1092200080F311884FF0030002DFD6E701201DF024
:109230001BFC4178821C007820F0E6FE9CE7444A43
:109240004649454840F2062333F08DFF404080F305
:1092500011884FF0030002DFBBE7414A0792414A01
:10926000059240F2F31200930892CDE90366CDE92E
:10927000016606943B463146032212F06FFB10F064
:10928000FD0F9BD0324A384933484FF4FA7333F01C
:109290006AFF404080F311884FF0030002DF8DE742
:1092A00020F07EFE60E72A4A30492B484FF4C57310
:1092B00033F059FF404080F311884FF0030002DF84
:1092C0002AE7636893F82030D90705D4636893F8D8
:1092D00020309A077FF507AF2548214620F064FC2F
:1092E00020F052FD79E71A4A22491B4840F2E51363
:1092F00033F039FF204B0721A8FB030301FB0831A2
:109300000DA3D3E90023FDF7E9FA1C4902461C48E6
:1093100033F029FF404080F311884FF0030002DF53
:109320001848214620F040FC20F02EFD6FF08B0005
:1093300054E700BFAFF3008000CA9A3B0000000072
:10934000D6BE898E5555550029940200200F002065
:10935000B854070084450700184407008C450700EF
:10936000858C0400258D0400BC4707004854070085
:10937000057E0400984407008D49FD1A0455070036
:1093800080540700618B040038B504461FF098FB39
:10939000A37DA27DC3F34103013303F00303032B39
:1093A00008BF002363F3420214BF03F12500252008
:1093B000A2751EF075FC63680BB123694BB912F0FE
:1093C00063FCC11C002020F0F3FEBDE8384020F013
:1093D00069BF20F01BFF054612F056FCC11C00209F
:1093E00020F0E6FE20F05EFF20F010FF294612F08C
:1093F0004DFC0B4A03460721A0FB020201FB03219F
:1094000005A3D3E90023FDF769FA23691B1A236139
:1094100038BD00BFAFF3008000CA9A3B00000000D7
:109420008D49FD1A000000002DE9F0478AB004467E
:1094300020F0DCFCC0B250B91EF08AFCC4482146C2
:1094400020F0B2FB0AB0BDE8F04720F09DBC20F050
:10945000EDFC054620F00CFE074620F013FE814689
:1094600021F04AF8064621F029F8824620F0C2FD94
:10947000EDB2804620F0A2FD1EF06AFC002DDDD08A
:10948000012013F0BFFA0546002800F04D8117F0C7
:10949000FF07F6B240F0E380002E40F0DA804FF094
:1094A000FF093A464B46314620461FF02FFD002863
:1094B000C4D02A7F616800238DF823305FFA88F7D3
:1094C00002F00F03002900F0EC80616891F8201091
:1094D000880700F1E680072BB0D0A17D090740F195
:1094E0004381002B40F0C4806B7F063B1F2BA5D827
:1094F000042013F087FA0028A0D020F0DBFE636A76
:10950000074643B9238C40F2712202FB03F3B0FB00
:10951000F3F203FB120723681A698E4B0721A2FBA3
:10952000030301FB023188A3D3E90023FDF7D6F939
:109530006FF44A7C00EB0C03BB42FFF47FAF20F0DA
:109540002FFD484663681DF079FDE37D990780464D
:1095500040F1E581002800F0E2818246012720F0F9
:1095600073FCCDE9027A09AB049305F11E03019364
:109570002B7FC3F38013014607460093002201238B
:1095800020461FF0DDFC384620F0DCFB20F024FCF8
:10959000002840F0CA817048214620F005FB62682F
:1095A00092F8203043F0010382F82030A37D43F08D
:1095B0008003A37513F048FA172202714FF6FF7269
:1095C000C28095F81CC082463B46CCF3401C00F19B
:1095D0001C0207F1200E1D6858689968DF68D76083
:1095E0001033734515605060916002F11002F2D1A2
:1095F0001B6813609AF81C30CAF808406CF34513D6
:109600008AF81C3020F002FE002ECAF81000099BD8
:10961000CAF8143008BF4FF0FF098AF81990E37DAB
:1096200013F0020303D0B8F1000318BF01239AF826
:109630001A2063F300028AF81A2013F005FACAF818
:109640000C00DAF8000051460AB0BDE8F04713F00C
:1096500029BA5FFA8AF01DF07FFD814621E7A07DDF
:109660005FFA89F1C0F3C0001DF00CFD814618E7D8
:10967000012B40F089806A7F0C2A7FF4DFAE2A7FBD
:10968000CDF80090194600230193D20905F1240377
:1096900020461FF08FFB00287FF42AAF2B7F03F0BA
:1096A0000F03002B70D16B7F052B7FF6C7AE252BE8
:1096B0003FF6C4AEA27D02F02102202A09D16268E1
:1096C000002A00F0C180052B7FF6B8AE252B3FF6AF
:1096D000B5AE63682BB12B7F03F00F03072B7FF42C
:1096E000ADAE03209DF8238013F08CF905460028C9
:1096F0003FF4A4AE13F0A8F94FF6FF73EB800523F7
:109700002B71002F3CD17F20AB7E2876002E08BF26
:109710004FF0FF0968F34103286885F81990AB768C
:10972000294613F0BFF989E60C4A0D490D4840F26D
:10973000C72333F018FD404080F311884FF0030039
:1097400002DFA4E6AFF3008000CA9A3B00000000ED
:10975000798B04008D49FD1A698D0400B854070007
:109760004854070018440700B9F1FF0F8DF8249002
:10977000C2F380184BD0227E91453FF4B2AE90E701
:1097800020F028FCC0B2BFE7062B8CD04521D94081
:1097900011F0010139D1012B10D16B7F0C2B7FF41B
:1097A0004DAE2A7FCDF800900DF123030193D2092D
:1097B00005F1240320461FF0FDFA08BB2B7F03F0C0
:1097C0000F03042B7FF43AAE6B7F063B1F2B3FF653
:1097D00035AEA37DDB077FF531AE20F035FB2B7F67
:1097E0000278C3F38013B3EBD21F7FF427AE0830A7
:1097F000062205F11E0147F00AF800287FF41EAE8C
:109800006B7F002B7FF465AF18E66B7F5BE705F19C
:109810001E0A09AA514640461DF054FD00283FF497
:109820003DAFE37D03F0010343457FF437AF51467D
:10983000062204F1080046F0EAFF00287FF42EAF6C
:109840002B7F03F00F034CE69620079220F030FCAC
:10985000079A104620F0FCFA032013F0D3F8804654
:1098600000283FF4EBAD13F0EFF84FF6FF73A8F8C4
:109870000630052388F80430002F64D17F23002EA2
:1098800088F8183014BF4B46FF2388F8193098F831
:109890001A30D8F800006FF3410388F81A304146B7
:1098A00013F000F920F0D0FA06460322337862F371
:1098B000030333702B7F3278C3F3801363F3C71233
:1098C0000C233270484673701DF0B8FBE27D92079E
:1098D0003DD500283BD03178324641F0400102F8B6
:1098E000021B0168C6F8021083889380D5F81E30E9
:1098F000B3606B8CB381304620F024FA20F06CFA10
:10990000002835D120F0CEFCA37D204843F0010390
:109910002146A3750AB0BDE8F04720F045B9A77D00
:1099200004F1190AC7F3801719E6194A19491A48A8
:1099300040F2A44333F017FC404080F311884FF00D
:10994000030002DF27E620F045FBC3B297E7A37DC3
:109950003278C3F3801363F38612334603F8022B85
:10996000D4F81920C6F80220B4F81D209A80BDE76B
:10997000074A084908484FF4A56333F0F4FB404018
:1099800080F311884FF0030002DFBBE78D8B0400EA
:10999000B8540700505407001844070000000000A6
:1099A0002DE9F041C468A2894FF6FF739A4282B054
:1099B00000F0C78005461FF0C7FB2B89628AE08A4A
:1099C0001A4492B21044637FA28280B2411CE182A9
:1099D0005E064FF00001618204F1180100F18C80F5
:1099E00003F03F000B46A17F009004F11F001CF024
:1099F0006DFB0646D4E90B231344D4E90D02002184
:109A00000244E1626163A16AA26394F872208B420E
:109A100028BF0B4612F00402236377D020F006F92A
:109A2000002020F029F9201D20F044F92389A17A93
:109A300040F25B6043EA014120F0ECF930461EF051
:109A40002FF92146584820F0AFF8962020F030FB3F
:109A500094F85A2094F85B00C2F3C003002102F08E
:109A6000070200F0070020F03BFA20461FF0CEFB73
:109A700027682E6838461EF0F3F806446A6806F137
:109A80000901002020F020FB804620F0DFFB0020B1
:109A900020F0F6FB236B94F85B0003F13002A36B1C
:109AA00000F00700012103EB420520F059F945447D
:109AB000054494F85B0000F00700022824D0042835
:109AC0000CBF4FF4BC73282301211D4420F04AF938
:109AD000284420F0ADFBA18905313246C9B2384691
:109AE0001EF0CCF8054698BB20461EF053F8D0B9BE
:109AF000002002B0BDE8F0810A4603F03F03E18B8D
:109B00001CF030FB064675E71823DDE7D4E91701A2
:109B100010F000FC002881D194F8723043F0040367
:109B200084F872307AE7214A2149224840F25513DD
:109B300033F019FB404080F311884FF0030002DF3F
:109B4000D6E71D48214620F02FF820F01DF9CFE779
:109B5000164A1A49174840F24B1333F004FB184BCE
:109B60000721A5FB030301FB05310DA3D3E9002366
:109B7000FCF7B4FE13490246134833F0F4FA4040B0
:109B800080F311884FF0030002DF1048214620F0D7
:109B90000BF820F0F9F86FF08B00AAE7AFF3008024
:109BA00000CA9A3B00000000659404008455070039
:109BB0008445070018440700057E04009844070008
:109BC0008D49FD1AD855070080540700E17D040037
:109BD000F0B5C468A2894FF6FF739A4285B000F0D1
:109BE0008B8005461FF0B0FA2B89628AE08A1A44FE
:109BF00092B21044637FA28280B2411CE1825E0671
:109C00004FF00001618204F118015FD403F03F00BE
:109C10000B46A17F009004F11F001CF057FA064686
:109C2000204603A91FF0C0FB039B94F872101A781A
:109C300061F3C3021A70039A94F872301178C3F377
:109C4000400363F3820111701FF0F0FF002020F049
:109C500013F8201D20F02EF82389A17A40F25B60D2
:109C600043EA014120F0D6F830461EF019F8039976
:109C700020461FF06DFB214637481FF095FF9620C8
:109C800020F016FA94F85B0000F0070020F0E0F8EE
:109C900027682E6838461DF0E3FF06446A6806F11F
:109CA0000901012020F010FA20F0FCFAA189053109
:109CB0003246C9B238461DF0E1FF054618BB2046C2
:109CC0001DF068FF50B9002005B0F0BD0A4603F052
:109CD0003F03E18B1CF046FA0646A1E71F4A2049E4
:109CE000204840F2031333F03EFA404080F31188DD
:109CF0004FF0030002DFE6E71B4821461FF054FF48
:109D000020F042F8DFE7154A18491648F92333F0E6
:109D10002AFA174B0721A5FB030301FB05310CA30E
:109D2000D3E90023FCF7DAFD12490246124833F06A
:109D30001AFA404080F311884FF0030002DF0F4809
:109D400021461FF031FF20F01FF86FF08B00BBE7BA
:109D500000CA9A3B0000000099920400E4550700F5
:109D60008445070018440700057E04009844070056
:109D70008D49FD1A3456070080540700E17D040028
:109D80002DE9F04F87B00546039117461E468368BC
:109D900004AA5B689847002831DBDDE9044AA7FB89
:109DA00004B307FB0A37584619A3D3E90023394601
:109DB000FCF794FDDFF8608002904FF0FF39D94541
:109DC00078EB07031ED3A6FB04B406FB0A4410A3DA
:109DD000D3E9002321465846FCF780FDD94578EBAE
:109DE000040403460ED30299AA6899420DD3BDF824
:109DF0004010009114682846DDE90221A04707B011
:109E0000BDE8F08F6FF08500F9E76FF01500F6E719
:109E100000CA9A3B00000000FFC99A3B0000000006
:109E20002DE9F0472DED028B9FED498B4A4E84B012
:109E300004464FF02003EFF3118783F31288BFF33A
:109E40006F8FD4F8C8508DB9022104F1E00045F0BD
:109E5000C7FE002843D100238DED008B029304F14F
:109E6000D00239463D4830F0A1FAE2E7D4F8CC20E0
:109E70002B68C4F8C830954208BFC4F8CC30D4F879
:109E8000E03043F00203C4F8E030EB6823F0040351
:109E900043F00103EB606B6887F31188BFF36F8FAA
:109EA000284698474FF02003EFF3118983F3128877
:109EB000BFF36F8FEB68990723F0010219D4EA60B2
:109EC000D4F8E03023F00203C4F8E03089F31188BD
:109ED000BFF36F8FDB05ACD430F048F9A9E704F18C
:109EE000D80500220121284646F09BF80028F8D129
:109EF000B1E7306823F00303EB600028E0D00027CF
:109F0000D0F80080BA460028DAD04268954201466F
:109F10000BD1016897B972683160824200D17160DB
:109F200040F808AB2FF03EFD3946B8F1000F0BD0DA
:109F3000D8F8002040460F469046E4E73960726842
:109F4000824208BF7760EBE74246F3E7AFF3008059
:109F5000FFFFFFFFFFFFFFFFBCDB02204EEB0220F5
:109F600001482FF021BE00BFA803002007B546F02E
:109F700095F84FF47A72A0FB020302FB0131C00B8B
:109F8000074A40EA4140106000234FF40042054870
:109F9000CDE9002330F0E8FB002003B05DF804FBBE
:109FA0000073002038140020014B187800F094BC96
:109FB0007CE80220044B1A78824202D01870FFF726
:109FC000F3BF0020704700BF7CE8022008B546F0D0
:109FD00065F84FF47A72A0FB020302FB0131084AD4
:109FE000C30B126843EA41439B1A47F23052934233
:109FF00004DDBDE808400120FFF7DCBF08BD00BF5D
:10A000000073002008B546F049F84FF47A72A0FBBF
:10A01000020302FB0131C00B044A40EA41401060D8
:10A02000BDE808400020FFF7C5BF00BF0073002057
:10A03000014B1878704700BF7CE802202DE9F04101
:10A04000194C1A4E1A4D1B4F92B0B44203D3002044
:10A0500012B0BDE8F081B4F80480B8F1000F21D14E
:10A060002068F8B10368EBB145F0EDFBD0B12B8867
:10A0700001339BB22B80A3802022009341463B46B4
:10A0800002A846F0A6FB23680B4A1B6820210AA8F9
:10A0900030F042FC0AA8FCF79DFD0AA9024602A87E
:10A0A00006F0E6FE0834D0E7101A0020D01A00208F
:10A0B000D4DB0220C66D0700606E07002DE9F04F6B
:10A0C00083B000AF0D46164620493A469A4633F013
:10A0D00006FD80B1386870B10A22391D30F0BEFC2F
:10A0E0007B6893F800B0E8460446BBF1000F06D049
:10A0F0006FF01500C5460C37BD46BDE8F08F3F2D0B
:10A10000F6D805F1080323F00703ADEB030D2A464B
:10A1100069465046B0470028E946EBDD0DF805B02A
:10A120000B4E0C4DB542E3D22B6848461968FCF73C
:10A130003FFD40B9084BA2B21C88AA80944238BFA8
:10A1400014461C80D6E70835ECE700BFDB6D07003E
:10A15000D01A0020101A0020D4DB0220F8B50446E3
:10A1600010B900252846F8BD0378002BF9D00F4E12
:10A170000F4FBE420FD30D4EBE42F2D2306845F0B3
:10A1800062FB30B1356821462868FCF711FD0028D4
:10A19000E8D00836F0E7306845F055FB18B135686F
:10A1A0002B68A342DED00836E3E700BFDC0F0900CE
:10A1B0009C10090070B5054698B94FF6FF7070BD48
:10A1C0000834B442F9D2206845F03DFB0028F7D0AE
:10A1D000236829461868FCF7EBFC0028F0D1A0881A
:10A1E000EDE7014C014EECE7101A0020D01A0020D8
:10A1F00070B5094C094E0546B44201D3002008E071
:10A20000206845F020FB28B1A388AB4202D1236827
:10A21000186870BD0834EFE7101A0020D01A00202B
:10A2200070B5194C194D8CB00022002303A92046AB
:10A230002FF074FA08B10CB070BD2B68059E5868F9
:10A24000DDE9031231F086F80028EDDBFF238DF8FD
:10A250001830B6FA86F35B0907908DF8203045F088
:10A260001DFF4FF47A72A0FB020302FB0131C00B09
:10A2700040EA4140C90B8DE8030006ABCDE90A0175
:10A280000FCB00F043FBCFE774160020687400206A
:10A290001FB50A4C2468A46884420DD183F00103E1
:10A2A000CDE90112039306480022002301A92FF0F3
:10A2B000DFF904482FF078FC04B010BD687400206A
:10A2C00074160020587400201FB50023CDE9023316
:10A2D000044B8DF80C0001A8019331F064F805B02F
:10A2E0005DF804FBE01507000268034B9A420CBFBF
:10A2F00008300020704700BFE0150700014B0360E5
:10A3000001207047C8150700014B036055207047B6
:10A3100004730020044B1A68044B9A4214BF6FF078
:10A3200012000020704700BF68740020CC150700A1
:10A3300008B5074B93F90010002906DBFFF7EAFF89
:10A34000C0B2401A18BF012008BD0020FCE700BFC2
:10A350009C12002007B5FFF7DDFF0DF107018DF816
:10A3600007000122024806F083FD03B05DF804FBFC
:10A37000ED6D070038B5044600282FD0194D2B6825
:10A38000834229D053B1986840B183685B6803B1B8
:10A3900098472B680021986805F05EFB1249134B23
:10A3A0008C4214BFED2100215522002030F0ECFF3B
:10A3B000002812DBA0682C6070B1012105F04CFB75
:10A3C0002B68986883680A491B6898472B689868C7
:10A3D00083689B6803B19847002038BD6FF0120076
:10A3E000FBE700BF68740020CC1507000473002051
:10A3F00091A2020038B5054648B90648FFF7BAFFF2
:10A40000041E02DB2846FFF75FFF204638BD6FF0D1
:10A410001504FAE7CC150700F7B50C4615460D49AB
:10A4200001AA1E4633F05BFB68B1019B6BB9012C9E
:10A430000DD1094F224639463046A847002802DD93
:10A440003878FFF7D7FF03B0F0BD0020FBE76FF0CF
:10A450001500F8E7FE6D07009C1200200148FFF789
:10A4600089BF00BFCC15070008B50B480B4945F064
:10A470002AFC0B4833F065F918B10948012133F083
:10A4800033F9084A002342F8043B0133552BFAD133
:10A49000BDE80840FFF7E2BF5874002021A2020087
:10A4A0006C0F07000473002030B51C4C04EB001443
:10A4B0008FB0606883683A21DB68984758BB606852
:10A4C0006189836804AD1B692A46984718BB95E8E3
:10A4D00003000123069307AB83E803006389ADF80B
:10A4E000243045F0DBFD4FF47A75A0FB053205FB07
:10A4F0000121DB0B43EA4143C90BCDE90A31237B40
:10A500008DF830300EAB13E90F008DE80F0006AB6D
:10A510000FCB00F021FA0FB030BD00BFC803002000
:10A52000094BBFF35B8F53E8002F22F0010143E892
:10A5300000100028F7D1BFF35B8FD30702D50020AE
:10A54000FFF7B2BF704700BF6C74002008B5054923
:10A55000486828B183689B6813B1034A083198475B
:10A56000002008BDC80300206DA5020008B50E4BF1
:10A57000994218D145F027FA88B1BFF35B8F0B4B96
:10A5800053E8001F41F0010143E80012002AF7D10F
:10A59000BFF35B8F0648BDE808402FF005BBBDE860
:10A5A0000840FFF781BF08BDD00300206C74002075
:10A5B000B803002001289ABF024B03EB40000020A3
:10A5C000704700BF7C11002001482FF0EDBA00BF9A
:10A5D000D803002008B501F0E3FF28B1837A1BB946
:10A5E000024A136801331360002008BD7074002014
:10A5F0002DE9F041194DDFF878802C78D8F800006B
:10A600000134E4B22C70FBF7BDFE154B0022FCF7C1
:10A610005DF8064620460F46FBF7C4FE114B124C70
:10A620000022FCF753F80B46024639463046FCF749
:10A630004DF8FCF733F923780C4EC0B283423070EA
:10A6400003D000F0AFF9337823702B78042B82BF4E
:10A6500000232B70C8F80030BDE8F0817DE80220AF
:10A660000000144000004E407EE802209D120020B1
:10A6700070740020084B13B500241C70074B4FF476
:10A6800000421C7000230648CDE9002330F06CF82E
:10A69000204602B010BD00BF9D1200207DE80220C0
:10A6A000E0140020F8B50F4D0F4E761B07460C4600
:10A6B00005EBC105C6F3C706A64201DC00200CE08D
:10A6C0002A683B689A4209D13C716B6838461B681E
:10A6D000984718B1431E012BF0D9F8BD0134083555
:10A6E000EAE700BF08F40800E8F4080070B40D4B76
:10A6F0000D4CE41A0022C4F3C704944203DC6FF04B
:10A70000150070BC70471E680568AE4202F1010278
:10A7100006D15D688D4203D170BCD1B2FFF7C2BFD4
:10A720000833EAE708F40800E8F408000D4B0E4A85
:10A73000D21A70B4C2F3C7020024A24203DC6FF045
:10A74000150070BC70471E680568AE4206D15D6892
:10A750008D4203D1E1B270BCFFF7A4BF01340833CE
:10A76000EBE700BF08F40800E8F4080000B58BB080
:10A77000064B074A2821684630F0CEF805490122E9
:10A78000684606F075FB0BB05DF804FB466E0700EB
:10A79000506E07007FE802202DE9F8434768044621
:10A7A00000254FF001087B68AB420DD821492248B3
:10A7B00045F0CDFAA3681B680BB12046984739894C
:10A7C00039BB0020BDE8F8833A6802EBC50352F8B4
:10A7D00035001979DB88D0F810C0D0F80890DCF883
:10A7E0000060DA0754BF43F4B01383F4D01323F4AA
:10A7F000801208FA01FEDB074CBF46EA0E0626EA85
:10A800000E06CCF80060D9F80030984770B90135D1
:10A81000C9E740F2E7304FF47A72002300EBC13011
:10A820000021FCF75BF82FF023FDCAE76FF004006E
:10A83000C8E700BF6DA70200F81A002008B5074B53
:10A840005A784AB901221A700548002200232FF0D5
:10A8500013FA044830F0BDFD002008BD7FE8022057
:10A86000F81A0020940E070008B54FF4F0120023E8
:10A8700002482FF035FA00EAE07008BDF81A00200F
:10A88000F7B50C461646114901AA1F4633F027F9C1
:10A89000B0B1019BA3B9012C15D10D4D224629461B
:10A8A0003846B047002806DB2B780A486C7023B185
:10A8B00030F08FFD002003B0F0BD30F0A6FDF9E7C9
:10A8C0006FF00100F7E76FF01500F4E7466E070040
:10A8D0007FE80220940E07001FB50023CDE9023364
:10A8E000044B8DF80C0001A8019330F05CFD05B01D
:10A8F0005DF804FB081607000268034B9A420CBF80
:10A9000008300020704700BF0816070084B030B53B
:10A9100089B00CAC84E80F00002301930CAD084B08
:10A9200000930FCD02AC0FC495E8030084E8030048
:10A93000684630F038FD09B0BDE8304004B07047DB
:10A940000C1607000268034B9A420CBF0830002027
:10A95000704700BF0C16070084B030B58BB00EAC4A
:10A9600084E80F00002301930EAD084B00930FCD38
:10A9700002AC0FC495E80F0084E80F00684630F081
:10A9800012FD0BB0BDE8304004B070471016070050
:10A990000268034B9A420CBF08300020704700BF8A
:10A9A000101607001FB5002302930390034B019379
:10A9B00001A830F0F8FC05B05DF804FB14160700A0
:10A9C0000268034B9A420CBF08300020704700BF5A
:10A9D000141607001FB50023CDE90233044B8DF890
:10A9E0000C0001A8019330F0DEFC05B05DF804FB1B
:10A9F0001816070082B038B504A981E80C00054696
:10AA000011482EF0F1FB0446A0B1AB68012B0CD02D
:10AA1000022B05D0A3B9BDE8384002B030F03FBDED
:10AA200030F044FD00282046F5DCBDE8384002B097
:10AA300030F02EBD6FF00400BDE8384002B0704722
:10AA40006FF08500F8E700BF466E070082B010B5D2
:10AA500002A981E80C0004460B482EF0C5FB78B132
:10AA6000A368022B04D00020BDE8104002B070475C
:10AA700030F01CFD0028CCBF00200120A060F2E7D0
:10AA80006FF00400F0E700BF466E0700014B187836
:10AA9000704700BF83E802200D4A52F8203001338E
:10AAA00042F820300B4A0123117883400B430A49B6
:10AAB0000978DBB2137023EA01030849084A0978D0
:10AAC00050780B43181A537018BF0120704700BF0D
:10AAD0007474002083E8022081E8022082E80220CA
:10AAE000A512002010B5114A52F82030002B19DDB4
:10AAF000013B42F820300E4A2BB9137801218140E6
:10AB000023EA010313700B480B4B047810780B4AAF
:10AB10005978127820EA040010435870401A18BF80
:10AB2000012010BD6FF01500FBE700BF747400201A
:10AB300083E8022081E80220A512002082E802209A
:10AB4000044A012312788340D8B213401B1A58429A
:10AB50005841704783E8022010B5084B084A187026
:10AB6000084B51781C78084B1B7823EA04031843E0
:10AB70005070401A18BF012010BD00BF82E80220AB
:10AB8000A512002081E8022083E80220074B002262
:10AB90001A70074B074A1978074B50781B7823EA3D
:10ABA0000103181A537018BF0120704782E8022071
:10ABB00081E80220A512002083E80220074B084A02
:10ABC0001870084B51781B7823EA00030648007878
:10ABD00018435070401A18BF0120704781E80220C6
:10ABE000A512002083E8022082E80220074B0849D2
:10ABF00000221A70074B084A1B78097850780B43DB
:10AC0000181A537018BF0120704700BF81E8022056
:10AC100082E8022083E80220A5120020A0F1E003D0
:10AC2000072B03D82030C0B2FFF736BF064B0622F1
:10AC300013F8011F19B1013AFAD1002070471870BA
:10AC40000028F8D0F9E700BFA7120020A0F1E00328
:10AC5000072B10B405D820305DF8044BC0B2FFF7C5
:10AC600041BF0023064A194612F8014F0133A042A2
:10AC700008BF1170062BF7D100205DF8044B704718
:10AC8000A7120020A0F1E003072B03D82030C0B2A8
:10AC9000FFF756BF064A002312F8011F884204D06E
:10ACA0000133062BF8D1002070470120704700BF08
:10ACB000A7120020024B00221A605A60704700BFA2
:10ACC000A6120020FF280DD8084B002213F8011F00
:10ACD00021B10132062AF9D10020704718700028EE
:10ACE000F7D0F9E76FF08500704700BF9E12002093
:10ACF00010B50023054A194612F8014F013384426A
:10AD000008BF1170062BF7D1002010BD9E12002045
:10AD1000024B00221A609A80704700BF9F120020E9
:10AD2000054A062312F8011F814203D0013BF9D1E5
:10AD300018467047012070479E1200200048704757
:10AD4000A5120020004870479E1200202DE9F04116
:10AD50000B4E337883B10B4CDFF82C80002542F288
:10AD60000F7720464146013544F0F1FF0A2D44F8A3
:10AD7000207C04F15804F4D100203070BDE8F0814B
:10AD8000AE12002088210020F7B705002DE9F04120
:10AD9000C269037ED17D90B0044609B1032B3DD03A
:10ADA000023B012B517D07D8002937D1204610B036
:10ADB000BDE8F04130F0F5BC21B1937D13B92046D8
:10ADC00030F08DFC0AAD18220021284645F051FBD9
:10ADD000D4E90467D4F8008023798DF83830102244
:10ADE000002106A8CDE90C67CDF82C8045F041FB89
:10ADF000E3699B680793E36808930A4BC3E902671A
:10AE0000C3F800800123049310AB13E90F008DE811
:10AE10000F0006A895E80C0030F08BF910B0BDE8E3
:10AE2000F08100BF000000200B4A30B5002304462B
:10AE3000282000FB03F18D18515C41B90FCC0FC5E0
:10AE40000FCC0FC594E8030085E8030030BD013343
:10AE5000282BEED1FAE700BF281B00202DE9F8438C
:10AE6000027E0346002A6ED13B4D2A6882426AD197
:10AE7000D269547D24B119B9BDE8F84330F091BCD2
:10AE8000107D032828D8DFE800F0020E1F6001398A
:10AE9000042921D8DFE801F01E0320051E0002214D
:10AEA00019E0032117E00139042915D801A050F851
:10AEB00021F000BFD5AE0200D9AE02009FAE020065
:10AEC000A3AE0200D5AE02000429EAD001F0FB01D6
:10AED000012901D101211976197EA1B3D069002879
:10AEE0000DDD5C6D611C0AD01C32002152F8046F2C
:10AEF000A64204D001318842F8D101221A760022FC
:10AF000018462A60FFF742FF2C68E4B9134EDFF8B9
:10AF10005080A14616F8087CAFB12B6806F8089C53
:10AF200023B14FF4A47000212FF0A2F9012F01D01A
:10AF3000022F03D141463046FFF7F8FB0134282C9D
:10AF400006F12806E6D1BDE8F8830229A7D0BFD9CB
:10AF500004390129BED9BFE7C4740020301B00208A
:10AF60007417070082B02DE9F0412F4E06A981E841
:10AF70000C000024582202FB04F0851931588B4242
:10AF80004AD12030304444F0F0FEEB691968D5E92D
:10AF900004238A1843EBE17308998A42099A934182
:10AFA000804603DA04212846FFF758FF582707FB9D
:10AFB000046701212846FFF751FFFB69DB7D53B190
:10AFC0003B7E032B07D1284630F0B3FB01232846F4
:10AFD0003B76FFF7DBFE284630F0ABFB582303FB44
:10AFE0000463DB695A7D22B19B7D13B1284630F0A2
:10AFF00076FB18F1770F4FF058031DBF5C4342F208
:10B000000F72331903FB046317BF32510122002270
:10B010001A7683F8502002E001340A2CABD1BDE847
:10B02000F041002002B070476821002082B02DE975
:10B03000F047044608A9406881E80C0030F023F886
:10B040003B4B1D687DB9D4E902C23A4F4FF0580E10
:10B0500042F20F780EFB05F6F419B959414507D0B5
:10B0600001350A2DF6D1BDE8F047002002B0704747
:10B07000D0F804809DF83010DDF82490DFF8B8E0B7
:10B080002171C4E902C2DDE90AC0C4E904C000219B
:10B090004FF0FF3247F8069021766265C4F81C80B5
:10B0A000DEE902211C60D8F8103013EB020A41EBF4
:10B0B000E373D44570EB03030CDBDEF800309945F5
:10B0C0000CD1D8F80C309A1841EBE371944570EB31
:10B0D000010103DA05212046FFF7C0FE20460021CA
:10B0E000FFF7BCFE582303FB0575D8F8004029691B
:10B0F0000C4444F0D3FF4FF47A72A0FB020302FB2E
:10B100000131C30B43EA4143E11A21EAE17140F204
:10B11000E7304FF47A72002300EBC1304914FBF79B
:10B12000DDFB203602460B46B8192EF0A5FD9AE746
:10B13000C474002068210020000000202DE9F041A7
:10B140008AB00446FFF7FEFB00286CD02046FFF7CC
:10B15000F9FB524D47680446002642F20F782B68EF
:10B160009F420CD043450AD0EB69DB7D3BB12B7E7F
:10B17000032B04D102232B762846FFF707FE013666
:10B180000A2E05F15805EAD1454D286808B9002076
:10B190002CE0C369227A197E914204D0426D0132BB
:10B1A00004BF62684265016862689142EFD0196825
:10B1B000D0E904238A1843EBE173D4E90461B24275
:10B1C0008B4116DB237ADBB10123214602A88DF8DF
:10B1D000003030F044F96846FFF726FE217A2868EF
:10B1E000C1F10301C9B2FFF739FE02200AB0BDE880
:10B1F000F0810421FFF732FE2B68002BC7D0E1E776
:10B200006068284A11780029C1D0012905D1516907
:10B21000884202D1117E0029D6D10133282B02F1B8
:10B220002802EFD1B3E7204601F0BAF90028DDD0BB
:10B23000204601F0B5F9837A01469BB14368E03BB3
:10B24000072B02D80378072B0CD0174BD1E9040247
:10B25000D3E9025485429441BEBFC3E902024FF0D4
:10B2600000441C600E4B18680028BFD04B68E03BC0
:10B27000072B8CD80B78072B89D1C3695B7D13B161
:10B28000007E0028B2D002A802248DF8004030F0E1
:10B290007DFF6846FFF7C8FDA7E700BF68210020D3
:10B2A000C4740020281B0020000000202DE9F0417C
:10B2B0000B4E337883B10B4CDFF82C8000254FF018
:10B2C000FF3720464146013544F041FD0A2D44F840
:10B2D000207C04F15804F4D100203070BDE8F081E6
:10B2E000AF120020F82400203FB905002DE9F04FEF
:10B2F000A3B001F055F9044600287FD0037A4768CF
:10B300000293837A0393036901930DF1380BA7F13C
:10B31000E003B0F80080D0F814A0DFF83491049373
:10B3200018AD5E46D9F800200023013246F8043BF0
:10B3300045F8043B37D0D9F80C204449D068059231
:10B34000FBF736FC059A60B9D9F8081088B2B84204
:10B3500007D1C1F30740404503D1029BB3EB116F06
:10B3600021D0039B002B5ED0927932B1049B072B36
:10B3700003D85FFA88F2072A15D099F8502092B9BD
:10B38000D9F854207AB9484630F0E8FAD9E90612DB
:10B3900051EA020035D0019B994272EB0A0230DA81
:10B3A000484630F0C1FA18AB9E4209F15809B9D1AC
:10B3B00000255BF8040B18B1019A534630F0D8FA17
:10B3C00001350A2DF5D10025DFF88880284618AF11
:10B3D00057F8256076B138B9214606A830F0D6FE78
:10B3E000414606A8FFF782F9019A5346304630F0ED
:10B3F0003CFA012001350A2DEAD1400023B0BDE816
:10B40000F08FD9F80C20517909B146F8049C99F8CD
:10B41000101019B112790AB145F8049C89F85080CE
:10B42000C9F85470BFE799F81020002ABBD099F8EA
:10B4300050204245B7D1D9F85420BA42B3D148463A
:10B4400030F08CFA45F8049CADE700BF727107003C
:10B45000D8240020A817070082B02DE9F041044647
:10B4600006A9406881E80C00DDE908872FF00BFE93
:10B4700043682D48079AD3F80CC0A66800210446FB
:10B4800003689A423BD1C368DD68AC4537D1856813
:10B49000AE4234D1457C95BB58254D43601990F898
:10B4A0005020B2BB582202FB014101220A741E68DF
:10B4B00016EB080647F10007C1E9066744F0EEFD08
:10B4C0004FF47A72A0FB020302FB0131C30B43EA83
:10B4D0004143F61A002E17DD4FF4004740F2E730E3
:10B4E00000214FF47A720023E6FB0701FBF7F6F91F
:10B4F000203502460B4660192EF0BEFB04E00131F8
:10B500000A2900F15800BBD1BDE8F041002002B08B
:10B510007047426D002AC5D042463B46BDE8F04127
:10B5200002B030F0A2B900BFD824002082B02DE9CB
:10B53000F84F82460AA940682E4E81E80C00DDE9EA
:10B540000C452FF0A0FD4768DDF82C90DAF80800D4
:10B55000D7F80CC033460022B0461968894526D179
:10B56000D968C9688C4522D1996888421FD1597C15
:10B57000E9B94FF0580B0BFB028B584630F0EEF94F
:10B5800022462B46584630F070F9DAF808100023AE
:10B590003268013201D1727C7AB101330A2B06F193
:10B5A0005806F5D1BDE8F84F002002B070470132CF
:10B5B0000A2A03F15803D0D1E7E75820434308EBA8
:10B5C000030048F803904FF000084FF00009C0E96D
:10B5D0000217C0E906899DF838300371028280F8AD
:10B5E000502042657B79002BDCD122462B4630F07F
:10B5F000BFF9D7E7D82400202DE9F04700F0D0FFAD
:10B6000008B1837AF3B90020BDE8F087037A43F0EC
:10B6100002030372F7E7232BF5D9A5F1E003072B0B
:10B6200023D8F3B2072B20D1EDE7A3689D4225D1A3
:10B6300094F80C80FFF72AFA49EA000038EA00087B
:10B640001CD1E0E7104F3B78002BDCD00688456822
:10B65000072EA5F10403DBB2DDD1192BD6D9232B9C
:10B66000D1D9A5F1E003072BCDD9084C90F808906B
:10B6700004F1240AEDB2A388B342D6D00C34544569
:10B68000F9D100233B70BEE784E80220CC17070005
:10B6900070B500F085FF034608B1827ADAB9002060
:10B6A00070BD01318842FADD32F8025F1C88A54284
:10B6B000F7D10B4A03F11806154618685968144665
:10B6C00003C40833B3422246F7D1FFF7DFF92B7AE0
:10B6D00018432872E3E7034A00215078E2E700BFED
:10B6E000482800207E11002070B54D6804460E46A3
:10B6F00028462349FBF75CFA10B92072012070BD7F
:10B7000020492846FBF754FA10B901232372F5E7C4
:10B710001D492846FBF74CFA08B90223F6E71B49F6
:10B720002846FBF745FA10B9B3686360E6E71849A5
:10B730002846FBF73DFA10B9B3682360DEE71549E8
:10B740002846FBF735FA10B90123A373D6E712494F
:10B750002846FBF72DFA10B90123E373CEE70F4912
:10B760002846FBF725FA08B90223EEE70C492846DC
:10B77000FBF71EFA08B90223EFE70020BFE700BF7E
:10B78000007007000A700700167007002470070099
:10B79000337007004370070054700700657007009E
:10B7A000767007002DE9F047D0F804900469D9F8C5
:10B7B0000830DFF84CA0236200256381A58109F1E0
:10B7C0000C07D9F80830AB4212D939462046FFF7AA
:10B7D0008BFF6E1C804680B978685146FBF7E8F90C
:10B7E00048B9B6B26681D9F8083025629B1BA3819F
:10B7F0000020BDE8F087A4F80E8035461037E0E75A
:10B800008770070082B02DE9F0410E9D406806A9BF
:10B8100081E80C0016462FF036FC079B2968046966
:10B820006D68553B9B00E9B19F1904EBC70C54F8B8
:10B830003720DCF80400DFF8408011440C9A2844DB
:10B8400090FBF8FE7144158808FB1E004FF4B4729B
:10B85000B2FBF5F291FBF2F502FB151144F837103B
:10B86000CCF8040033440833002044F82350BDE8EA
:10B87000F04102B0704700BF40420F0030B595B0B4
:10B880001C2200210DA844F0F4FD254D06AC002239
:10B890000DA9002328462DF041FF014600283DD187
:10B8A0001822204644F0E5FD0D9B079344F0F6FB7B
:10B8B0004FF47A72A0FB020302FB01319DF838308D
:10B8C0008DF82830C00B9DF84C3040EA4140C90B40
:10B8D00013F00102CDE9080118BF0122049208AB60
:10B8E0000FCB8DE80F000FA894E80C002FF021FC7F
:10B8F000139B012BCBD9C3F35E044FF4004540F2F8
:10B90000E73000214FF47A720023E5FB0401FAF7D7
:10B91000E5FF02460B4603482EF0AEF915B030BDE8
:10B92000A41600201000002084B030B589B00DAC02
:10B9300084E80E0043680193037C8DF8083094E896
:10B940000F0003AD85E80F009DF84430129A43EADA
:10B95000420307930A480022002301A92DF088FE24
:10B96000002804DB074844F0FEF928B1002009B0A4
:10B97000BDE8304004B070470248FFF77FFFF5E7AD
:10B98000A41600201000002070B5002506460560B2
:10B9900000F0E2FF044678B102F086FA30B901F017
:10B9A000ADF8012370603370304670BD064B1B78D4
:10B9B000012BF4D02846F5E702F076FA0028EED005
:10B9C00023462046EEE700BF85E8022008B5094B74
:10B9D0001B7823B1012B06D06FF0850008BDBDE8B0
:10B9E000084030F0B5BDFFF7A9F9BDE808400130C7
:10B9F00001F0CCB94475002008B5094B1B7823B180
:10BA0000012B06D06FF0850008BDBDE8084030F07E
:10BA1000A7BDFFF797F9BDE80840013001F0DCB998
:10BA20004475002037B508490848094D6C4644F074
:10BA30008EF92046FFF7A8FF94E8030085E803008D
:10BA4000002003B030BD00BF55BA020078280020A6
:10BA50004475002002490348012205F009BA00BFDD
:10BA600085E802208A71070082B00DF1080C0CE90C
:10BA7000030019469DF8003010461BB1012B05D07C
:10BA8000054A00E0054A02B02EF046BF019B044A79
:10BA900002B02EF041BF00BFA97107009E710700E0
:10BAA000A2710700034A034692E8030083E80300FB
:10BAB000184670474475002030B589B001AD0F4C71
:10BAC0002846FFF761FF94E80C0095E8030030F08A
:10BAD00053FA80B930F084FA95E803000A2305AAE6
