:020000022000DC
:1060000078F40020C51A0300F15A0500991A03001C
:10601000991A0300991A0300991A0300000000005E
:10602000000000000000000000000000E91B030069
:10603000991A030000000000551B0300991A030081
:10604000091E0300896A0400091E0300091E0300DB
:10605000091E0300091E0300091E0300091E030098
:10606000091E0300091E0300091E0300091E030088
:10607000091E0300091E0300091E0300091E030078
:10608000091E0300091E0300091E0300091E030068
:10609000091E0300091E0300091E0300091E030058
:1060A000091E0300091E0300091E0300091E030048
:1060B000091E0300091E0300091E0300091E030038
:1060C000091E0300091E0300091E0300091E030028
:1060D000091E0300091E0300091E0300091E030018
:1060E000091E0300091E0300091E0300091E030008
:1060F000091E0300091E0300091E0300091E0300F8
:1061000053B94AB9002908BF00281CBF4FF0FF311E
:106110004FF0FF3000F00CB8ADF1080C6DE904CE83
:1061200000F008F8DDF804E0DDE9022304B0704770
:10613000704700BF2DE9F04786468C460846089E0A
:10614000154674461946002B40F0C2808542B2FACB
:1061500082F245D94AB1C2F1200300FA02FC2EFABC
:1061600003F3954043EA0C0C94404FEA154EA8B255
:10617000BCFBFEF8230C0EFB18CC08FB00F943EA2D
:106180000C43994528D9EB1808F1FF3704D29945FB
:1061900002D9A8F102072B44A3EB0903A4B2B3FB75
:1061A000FEFC0EFB1C330CFB00F044EA0344A0424F
:1061B00014D92C190CF1FF3304D2A04202D9ACF14E
:1061C00002032C44241A43EA07401EB1D4400023A2
:1061D00034607360BDE8F0874746DDE76346F1E76A
:1061E00092BB431B01214FEA154EAFB2B3FBFEFC3D
:1061F000200C0EFB1C330CFB07F840EA03439845C8
:1062000062D9EB180CF1FF3004D2984502D9ACF1F9
:1062100002002B44A3EB0803A4B2B3FBFEFC0EFB6D
:106220001C330CFB07F744EA0344A7424ED92C1950
:106230000CF1FF3304D2A74202D9ACF102032C4483
:10624000E41B43EA0040C0E7C2F1200320FA03F157
:10625000954090402EFA03F303434FEA154EAFB238
:10626000B1FBFEFC0EFB1C10190C0CFB07F841EAFD
:106270000041884504FA02F422D969180CF1FF3074
:1062800004D2884502D9ACF102002944A1EB0801EF
:106290009BB2B1FBFEFC0EFB1C110CFB07F743EAA3
:1062A00001439F420ED9EB180CF1FF3104D29F42FB
:1062B00002D9ACF102012B44DB1B41EA004192E719
:1062C0006046E3E76146F7E76046A3E76346B7E762
:1062D000834206D916B9002108467BE7C6E900E0EB
:1062E000F9E7B3FA83F78FB9834201D3724508D82F
:1062F000BEEB020460EB030301209C461EB90021A3
:1063000068E73846FAE7C6E9004CF8E7C7F1200C21
:10631000BB4022FA0CF41C432EFA0CF120FA0CF3C9
:10632000B84001434FEA14490EFA07F5B3FBF9F8F8
:106330001FFA84FE09FB18300B0C08FB0EFA43EA27
:1063400000439A4502FA07F240D9E31808F1FF30FA
:1063500004D29A4502D9A8F102002344A3EB0A0310
:1063600089B2B3FBF9F809FB183308FB0EFE41EACA
:1063700003418E452CD9611808F1FF3304D28E45B4
:1063800002D9A8F10203214443EA0040A0FB02988D
:10639000A1EB0E014145CE46434602D306D14D4501
:1063A00004D2B9EB020E68EB04030138002EA6D02C
:1063B000B5EB0E0261EB030101FA0CFC22FA07F3C4
:1063C0004CEA0303F940C6E9003198E74046C5E7C7
:1063D0004346D9E710F8012B11F8013B012A28BFE9
:1063E0009A42F7D0D01A7047034611F8012B03F8F0
:1063F000012B002AF9D17047034613F8012B002A1C
:10640000FBD1181A01387047F7B5B44DD5F85C3197
:10641000996811F0010124D101AA40F603400CF063
:106420000BFD044600286DD1019CE3681B78ABB9D5
:106430000DF0BAFFBFF35B8FD5F8D430BFF35B8F9D
:1064400005F1D40203F00903BFF35B8F52E8001F8C
:1064500042E800300028F9D1BFF35B8F204623F0DB
:10646000CDFD01AA002141F203000CF0E5FC044639
:10647000002847D1019B9A4EDA68D2F80100D2F881
:10648000051003C6184623F0B9FD214601AA41F2C2
:1064900001000CF0D1FC0446A0BB0198C3685A78F7
:1064A00085F870205A88A5F872201A7985F871202D
:1064B000B3F80720A5F87420B3F80530A5F87630B6
:1064C00023F09CFD214601AA41F202000CF0B4FC2D
:1064D0000446B8B9019FFA68531C413218685968DC
:1064E000344603C4083393422646F7D17D482FF043
:1064F000DCFB384623F082FD95F87C305F0604D43F
:106500006FF01204204603B0F0BD01AA002142F250
:1065100003000CF091FC04460028F3D1019B724E5D
:10652000DA68D2F80100D2F8051003C6184623F045
:1065300065FD214601AA42F202000CF07DFC0446F2
:106540000028DFD1019CE368B3F8012091B249B182
:10655000D97839B1A5F80421DA78114606F1280076
:1065600036F000FA204623F049FD95F87C6016F0DD
:10657000200618D1022140F66D400CF001FC0446C3
:10658000002800F0A28002210C3033F0CFFD01235F
:10659000037046702146324640F66D400CF04CFCCC
:1065A00004460028AED195F89C301E0712D501AAEA
:1065B000002142F21C000CF03FFC04460028A1D14F
:1065C0000198C368D3F80120D3F80530C5E9382312
:1065D00023F014FD95F8D8305C060FD501AA0021F0
:1065E00042F22A000CF028FC044600288AD10198C7
:1065F000C3685B7885F8203123F000FD082142F262
:1066000001000CF0BDFB044600285ED008210C30D0
:1066100033F08CFD95F8D81011F0400F024640F28F
:10662000022308BF032388074CBF43F02C0043F02C
:106630000C0095F8D9308F0648BF40F0400013F0A9
:10664000090F95F8A23018BF40F4006003F006036C
:10665000CE0748BF40F01000062B08BF40F4C070C2
:1066600000212FF0C4FC2146002242F201000CF070
:10667000E3FB044600287FF445AF95F87C30B5F87D
:106680000411980624D4C9B901AA41F205000CF0FE
:10669000D3FB044600287FF435AFB5F80431019CE4
:1066A0004BB9E368B3F80120A5F804219A880F4894
:1066B000114636F057F9204623F0A0FC082140F699
:1066C00001400CF05DFB044690B96FF0680419E7D7
:1066D0000029F3D16FF0040414E700BF800100200B
:1066E000F80100200002002058020020880200204B
:1066F00008210C3033F01AFD95F8D830D90702463E
:1067000053BF4FF000512CA1D1E9000128482FF0D0
:106710006EFC2146002240F601400CF08DFB044641
:1067200000287FF4EFAE014601AA4FF601400CF0BD
:1067300083FB044620BB019823F060FC214601AA9C
:106740004FF602400CF078FB0446C8B90198C368C4
:10675000B3F80130A5F8C13023F050FC95F8C130F2
:106760005B070DD501AA21464FF603400CF064FBF0
:1067700030B90198C3685B7885F8C03023F03EFCDF
:1067800030F007F8044600287FF4BCAE0FF05CF848
:10679000044600287FF4B6AEEB79002B3FF4B2AE8E
:1067A000082104482FF079FB0CF0D4FEAAE600BFC4
:1067B000108800025402002090880002008000200F
:1067C0002DE9F843D0E90C35D0F82C805C19303431
:1067D000A0450F46164619D81D4DA3FB05011AA367
:1067E000D3E90023FFF78CFC0346A4EB0800A0FBD1
:1067F000050123F07F4414A3D3E90023FFF780FCB5
:1068000020F07F403C603060BDE8F883DFF84090C6
:106810000DA3D3E90023A8FB0901FFF771FC04468F
:1068200005F1300008A3D3E90023A0FB0901FFF71D
:1068300067FC24F07F4420F07F403C603060BDE87E
:10684000F88300BFAFF300808D49FD1A07000000F8
:1068500000CA9A3B000000009FED0D7B124B134ACB
:106860001348144910B483ED007B9FED0B7B82ED40
:10687000007B9FED0B7B104B4FF0FF34002281ED2E
:10688000007B04601A605DF8044B16F0B5B800BFD9
:10689000FFFFFFFFFF1F00000000000000000000DE
:1068A0001F0000000000000000030020203C00202A
:1068B000FC860020F8020020F48600200000000082
:1068C000002800F05F812DE9F04FB54C94F86A2064
:1068D00012F001058DB040F0A78194F82500FF2348
:1068E00000F0030084F826301FF0AEFB94F86A0035
:1068F000420727D494F8292094F8353004EB82021B
:1069000004EB8303D66AD3F8388086B1A4483146B5
:1069100017F0F6FF33785B0605D5062112F09AFFD3
:10692000002800F083819E48414617F0E9FF337844
:1069300013F00E0F40F0B780236A93B10C200DB016
:10694000BDE8F08F2A4604F16B01C0F3C0001FF0D0
:1069500017FDFF2884F82600CCD028461FF0BAFB8C
:10696000C8E715F073F98146002800F0718115F031
:1069700079F98246002800F0688118F0EFFB05469F
:10698000002800F06781D0F888004FF6FF732B8550
:1069900005F11C0B002800F04F8105F1780105F18D
:1069A0007C0212F063FFB5F876307E4A23F4EF6381
:1069B00023F0070343F4887343F00103A5F876300E
:1069C0001346D2F80120C5F89B21C5F8A12113F880
:1069D000012B9B88A5F89F31A5F8A53195F89A3130
:1069E00002F0010262F3000362F3410385F89A3179
:1069F00095F8393003F03F0363F07F0385F83930B1
:106A000095F88E3023F0070385F88E3095F83C30EA
:106A100023F00703002785F83C304FF4C023C5F866
:106A200088312846C5E91277C5F88870A5F88C70BA
:106A30006F86C5F82E7085F83B702F65A5F88E71AE
:106A4000A5F884711BF058F985F85071C5F8549178
:106A500018F042FE95F8943160F3020385F8943102
:106A600018F040FE95F8943160F3C50385F8943131
:106A700095F8803167F3410385F88031012128467C
:106A800019F090FA05F1D4001AF0BEFEC4E9189A84
:106A9000C4F820B0C5E905772F70ED6120F0A2FDA4
:106AA000002840F0C58094F824300121C3F342034C
:106AB0000DF12B008DF82B3013F076F802460028EC
:106AC00062D098F80110304617F0DCFC31233649CB
:106AD000A360364BB4F86870A0FB01010025C01814
:106AE00041F107012CA3D3E90023C4E90555257022
:106AF0006560E560FFF704FB206114F089FB00F19D
:106B000009083FB9357805F00F05A5F10105B5FA7B
:106B100085F56D0994F82400236965F3000010F0F1
:106B2000010584F824004BD0214A0992002010600E
:106B30000225204A204F04930BAE019305920321B6
:106B4000CDE90200069443460090089607972A462E
:106B50000B9514F0FBF9314615F03EF9A0B9174931
:106B600005914AF2D8330093CDE90300CDE9010045
:106B70000797089606944346012203210B9514F0CB
:106B8000B1F943E017F0CABB236A002B3FF4D6AE3D
:106B900017F082FBD2E600BF8D49FD1A0700000006
:106BA000B4870020F443060000CA9A3B8C49FD1AC2
:106BB000A887002001E50300A1B3030015E003004E
:106BC0002B4A2C48049303F2471306940295912113
:106BD0001360A7FB000301FB0731274B0793274BEB
:106BE00005934FF6FF730992022703930BAE1EA382
:106BF000D3E900230B970896FFF782FA4346CDE9C5
:106C000000503A462846032114F0A0F9314615F009
:106C1000E3F80028B8D194F86A3043F0010384F80F
:106C20006A3018F08FF860B1002088E6122086E6FE
:106C300017F032FB032082E605F18000C5F88800DA
:106C4000ABE601201FF0E2F9EEE7484615F004F844
:106C5000072074E6504615F00BF8484614F0FCFF88
:106C6000F6E700BFAFF300808D49FD1A0700000072
:106C7000A8870020002AE784A1B3030001E50300F0
:106C800070B590F824308AB0C3F342030D46044631
:106C900001210DF1230016468DF8233012F084FFF8
:106CA00071780246284617F0EDFB1F491F4AA0FBEA
:106CB0000131981841F1070119A3D3E90023FFF727
:106CC0001FFA23699842054621D21B1A002201921D
:106CD000174A0293174BA21AA3FB02320221920910
:106CE00000230A4409AE099113490591CDE9033304
:106CF0000321D2B206960093184614F087F9314664
:106D000015F06AF838B9256100200AB070BDFBD9CA
:106D1000C21A0023DBE70C200AB070BDAFF300807D
:106D20008D49FD1A0700000000CA9A3B8C49FD1AE4
:106D3000B487002089888888A1B303000000000080
:106D400038B5194C9DF810E094F848C01CF00105C6
:106D500023D163F3420C400194F83230A1874FEA0B
:106D6000CE0E0EF0180E00F0200040EA0E0023F0C8
:106D7000380303430D4884F832309121A2FB00030D
:106D800084F848C001FB023105A3D3E90023FFF7D3
:106D9000B7F9C4E91000284638BD0C25284638BD8F
:106DA0008D49FD1A07000000283C0020002AE784D6
:106DB00010B504469DF8080022844FEA411CC0002B
:106DC000A17D00F018000CF0200C4CEA000C0C48DF
:106DD00021F038014CEA010CA3FB0002912184F858
:106DE00016C001FB032104A3D3E90023FFF788F9B0
:106DF000606210BDAFF300808D49FD1A07000000EE
:106E0000002AE784000000002DE9F047044600F165
:106E1000350190F8480094F832305B4DDFF88081FE
:106E2000C0F3400060F386138CB084F8323014F065
:106E300043FA94F83220A38F5448E46102F07902B7
:106E4000002784F832209121A3FB0002C4E90577D2
:106E5000277001FB03214AA3D3E90023FFF750F970
:106E6000651B626C4A4B6760AD08A3FB053502F1F8
:106E70000903984298BF3A46C5F3470522644FF08C
:106E800031028CBF19460146A26005EB4502E7605E
:106E9000216148F82210064614F0BAF9236A00F17D
:106EA00009074FEA450A002B4AD00DF12C09AA44E4
:106EB00008EB8A030993CDF820900694A38F3348FA
:106EC0004FF00008A3FB0002CDF80C80912101FBDC
:106ED0000321236904932F4B07932F4B05934FF006
:106EE000020A27A3D3E90023CDF82CA0FFF708F965
:106EF000104619464FF47A720023FFF701F9043562
:106F0000EDB2CDE9016003213B462A46CDF8008071
:106F1000404614F01BF8494614F05EFF60B994F83F
:106F2000483043F0010384F8483017F0BFFC08B341
:106F300000200CB0BDE8F0870C200CB0BDE8F08755
:106F40000DF12C09CDE90A3321694B460AAA032029
:106F500001F096F90028AAD10B99104808A3D3E9AB
:106F60000023A1FB0001FFF7CBF80A9B20F07F472D
:106F70001F449CE750461FF049F8D9E7AFF3008063
:106F80008D49FD1A07000000283C0020002AE784F4
:106F9000BD86F21AA1B3030035EB030000CA9A3B89
:106FA00044880020000000002DE9F04F05468BB01A
:106FB0008B46012002219A46144622F0B7FD00229A
:106FC00002218146012012F0A1FC3B494FF4D4720A
:106FD000284612F02BFC461DF6B2384B009532467F
:106FE0000121002014F02AF810F0FD0F0CD0344AD3
:106FF0003449354840F62F032CF056FE404080F3CC
:1070000011884FF0030002DF304BA4FB03482046F9
:1070100027A3D3E900234146FFF772F82C4B20F059
:107020007F47A7FB03310722E01A02FB071168EB39
:1070300001014FF47A720023FFF762F8CDE9017085
:10704000CDF800B008950695296995F93940214891
:107050000491214931EA240128BF014605911F4CC2
:1070600007944FF6FE7103915346324601210020EA
:1070700013F038FF10F0FD0F0CD0114A11491248DF
:1070800040F644032CF010FE404080F311884FF08E
:10709000030002DFB9F1000F02D10BB0BDE8F08FA1
:1070A0000122022110460BB0BDE8F04F12F02EBCB9
:1070B0008D49FD1A07000000783C002005F103000F
:1070C0005C1B0600201C0600F815060000CA9A3B4F
:1070D0008D49FD1A7D51040025530400ADF00300D5
:1070E0002DE9F043C469228D4FF6FF739A428DB0AB
:1070F00000F08880054620461BF0F6F895F8283009
:10710000012B00F00F81022B00F00281002B00F018
:10711000E18094F85071002F40F0FD80E68DB4F8C6
:107120003080002E71D1AA8C08F101060023CDE930
:107130000A33B6B2002A70D094F93930002BC0F26D
:1071400048810023A4F88A3195F82630D90740F108
:10715000EF800023A4F88E310DF12702314620463E
:107160001AF006FE743000F04681B4F888312BB175
:10717000B34240F20D819B1BA4F88831B4F88431EE
:107180002BB1B34240F2FB809B1BA4F88431258EC7
:1071900017B9A84500F0EA800135ADB294F8D130B6
:1071A00013F001065AD1DDE90A130A46002B40F01C
:1071B000ED80002900F0DC801E461846228DE4692F
:1071C0000694CDE903570532A74D0290CDE900168C
:1071D000D2B201210020059513F018FF10F0FD0F29
:1071E00010D014F023FE84420CD0A04AA049A1483C
:1071F00040F215532CF058FD404080F311884FF0B9
:10720000030002DF0DB0BDE8F083AA8C46440023E2
:10721000CDE90A33B6B2002A8ED195F82630DA07C6
:1072200097D4B4F88A31002B00F08280B34240F248
:10723000FA809B1BA4F88A31B4F88E31002B8BD0D6
:107240009E4280F0DE809B1B9BB20022062BA4F89E
:107250008E31228600F2AC8001277DE794F9392037
:107260006FF30003002A84F8D13077DB94F87600BE
:10727000C0F3C00100F0070020F01AF8B4F86E2047
:10728000B4F86C30134403F2D51303447A4A7B48B4
:107290000721E3FB0021104671A3D3E90023FEF789
:1072A0002FFFDDE90A1320F07F422069226190421E
:1072B00035BF161A801A002000260A46002B7FF4DC
:1072C0007DAF56EA010C7FF479AF002850D0194603
:1072D0001E4673E794F88E3003F01803182B7FF4E2
:1072E00018AFA18DB4F886218B1D9A42C4BF931F9D
:1072F0005B1AB4F88211CCBF9BB21346994200F0DE
:107300008C80A4F88231A4F88431A4F8882100E7A5
:107310003D2784F85071394620460DB0BDE8F04352
:1073200018F0FEBA0023A4F88831A4F88431F0E6FE
:10733000B4F88E31002B83D1628DB4F88C3140F2D9
:10734000E24101FB02F242F2107101FB0323013B17
:10735000B3FBF2F39BB2A4F88E316FE794F8770099
:10736000012100F007001FF0A5FF87E73D4615E764
:10737000002D4BD000261146304633461EE7002331
:10738000A4F8843120461AF093FD00E7304615E753
:1073900014F0B4FC014600283BD00023A4F8883147
:1073A000238DC3801B230371006814F071FCE5E694
:1073B00094F939309342BFF6CFAEB8F1000F7FF4A5
:1073C0004BAFD4F878315A08DB0743D4C4F878219E
:1073D000C2E628460AAA0BA904F1D409FFF7F0F97E
:1073E00048461AF053FA18B348461AF04FFA18B341
:1073F00000232386A5E69DF82710204618F090FA72
:1074000000E70821204618F08BFAFBE6002FB1D1E7
:10741000F8E60123A4F88831B0E6B4F88811002911
:107420007FF477AE6FE73E21204618F079FAE9E65F
:10743000FF2018F02DFAD7E70246D4E91E0112F01A
:107440002DFA0028D4D194F83C30580744BFA38DBE
:10745000238676E642F00042C4F87821FCE600BFBD
:107460008D49FD1A070000006DF003005C1B06004B
:107470006C1C0600F81506008C49FD1A00CA9A3BE0
:107480002DE9F04F87B0CDE90432BDF844200378F0
:107490000292BDF84820BDF84080BDF84C50468EA1
:1074A000B0F82E90B0F814B1019104460392002B6D
:1074B00000F0CB80013EB6B2A368D4F80C71721B09
:1074C00092B2002B009209DAE168626823F000436F
:1074D00091422CBF7F18BF18A360FF1A009A638DDA
:1074E00013FB02F39BB2B3FBF8F218FB02F080B27D
:1074F00083421FFA82FA80F09780C01A40F2E2427B
:107500005D4902FB00F0A0FB010159A3D3E9002370
:10751000FEF7F6FD20F07F400744D94494F8393057
:107520004D44AD1B554440F2E246DB09E58506FBC0
:1075300008F500F08E80226C0099A36CDFF838B15A
:1075400002FB1133A36420F09FF8814694F8740184
:10755000C0F3420020F09AF8059B814406FB03F338
:1075600005FB09F9236509F57429444B09F23F2904
:10757000A3FB09394FEA994303FB0AF02364A5EB07
:107580000309A36C6A080344963A934228BF134642
:10759000C4E911230023C4F87C31A0FB0B0134A300
:1075A000D3E90023FEF7ACFD049B3F1A3448A0FB4F
:1075B0000330800A06FB00F02DA3D3E90023A0FBD3
:1075C0000B01FEF79DFD20F07F46029BA385039BE8
:1075D000A4F88C3129462046A4F82A801AF004FC2D
:1075E000284BA18D2B44881DB3FBF5F39AB2904232
:1075F000A4F8862102D2521A063A92B2019BA4F84C
:10760000822113B10023A4F88E313B464A4631460D
:107610002046FFF7C9FC94F8803143F0010384F859
:10762000803107B0BDE8F08F08FB1231124840F2FC
:10763000E24389B203FB01F1A1FB00010CA3D3E9F2
:107640000023FEF75DFD3F1A67E74E445E44B6B285
:1076500032E7049B0848A3FB000105A3D3E90023FC
:10766000FEF74EFD20F07F46A9460136ADE700BF8C
:107670008D49FD1A0700000000CA9A3B83DE1B43B8
:107680005917B7D17FC3C9012DE9F04F04460B68E4
:10769000077F1668D3F800A0638CD0F81E0095B061
:1076A00015464A7CADF84C30FF2AC7F38013894653
:1076B0000D9212908DF83F3072D198461A4612AB57
:1076C00093E803000DF1400B1090ADF84410F80959
:1076D0000AF1710127680A915B460C900B9718F02C
:1076E00007F80A99002843D196F89A310C9A0A9023
:1076F00068F3410362F3000386F89A311098BBF8EF
:107700000430C6F8A101A6F8A531DAF87130C6F840
:107710009B318B88A6F89F31E38D94F83010A972C5
:107720002B81D4F82A306B60D4F83A30AB6105F184
:10773000180094F83E300371052112F035FA6B7F82
:1077400000F03F0060F305036B7794F83F30C3F31C
:107750000401A977A18EE981012803F01F0389B2F2
:1077600006D91B3303F01F030B2B01D80A9A59BB10
:107770000022CAF8142095F820300B9862F3000319
:1077800085F82030E56801262146267114F076FA46
:1077900028682E71294614F07BFA15B0BDE8F08FE9
:1077A0000DF1400B10460DF13F015A461EF0A4F9B1
:1077B0009DF83F80277F08F102085FFA88F88DF86E
:1077C0003F8008F0010282E7D9F800305A60E38E6A
:1077D0002B82EB8940F2E24808FB03F71146638EE7
:1077E0000A9330461AF014FB94F83F3096F874214F
:1077F0005B0963F3430286F874211FF045FF0C9088
:1078000096F87401C0F342001FF040FF0C9B18442F
:1078100007FB00F0BA4B00F5742000F23F20A3FBF9
:1078200000307B08800C963B6862AB6294F8313084
:1078300008FB03F3AB63238FA6F88C31394630463F
:107840001AF0D2FAAF4BB04AC6F890213B44B3FBD2
:10785000F7F39AB2A6F88621298A881D824204DDB0
:10786000C1F57F41FA310A4492B2A6F882216B68D1
:10787000C6F87831234613F81C2FC2F34018DA07F4
:1078800000F104814FF48073A3839AF826001EF060
:107890008DFE04F12B03002800F0EE80626AC4F82C
:1078A0002B20228D9A800D9BFF2B00F0E980BDF8E4
:1078B0004C301298A4F82930C4F82500BBF80430E5
:1078C000A4F8233010989DF83F30C4F81F00A37728
:1078D000EB8963862B8AA386B6F88C31E38696F80B
:1078E0007431C3F3420384F83830304617F042FC59
:1078F000A881E08021460B98D9F8044014F0BEF925
:10790000AB89E3801C23D4F800B02371B8F1000FD9
:1079100040F0D18084F81C802146584614F0B8F914
:1079200095F85B00B5F85080B5F85240012100F0A1
:1079300007001FF0BFFC444404F2D514DFF8D481E3
:107940000444834671480721E4FB080131230024E5
:10795000B360746068A3D3E90023F460FEF7D0FB42
:1079600020F07F4030616D6A0A9A7D1BD9F80C7057
:1079700040F2E24303FB027702212246012011F08C
:10798000C5FF504616F078FF07F2B2470246A7EB54
:107990000B07A7FB0801174657A3D3E90023FEF7FF
:1079A000AFFBCDF804A0D9F808305949009120F078
:1079B0007F48BA1C3A3BD2B220464344012113F01F
:1079C0007FFB012800F082809AF82430DB076AD41C
:1079D000304617F0CFFB4F4BA5FB035A044646A396
:1079E000D3E9002328465146FEF78AFBD9F8083030
:1079F000494A0792A3F13A09484B069620F07F477F
:107A0000A7FB0331E81A464B059340F2D1130893C4
:107A100033694FF0000BCDE903B34FF0070303FBCD
:107A200007116AEB01014FF47A720023FEF768FB3D
:107A30000534E4B2CDE90170CDF800804B46224612
:107A40000121584613F04EFA10F0FD0F0CD0354AC4
:107A5000354936484FF4E9732CF026F9404080F35D
:107A600011884FF0030002DF01220221104611F0BD
:107A70004DFF15B0BDE8F08FC4F82B00988012E7D9
:107A80000022C4F82520A4F8292017E7254A284910
:107A90002648F8232CF008F9404080F311884FF075
:107AA000030002DFEEE60023012200931846114690
:107AB00013F0C4FA8CE76B7F43F040036B77281D0B
:107AC0001DF012FE4FF00108E88323E714F0AEF931
:107AD00082453FF479AF134A1649144840F279239E
:107AE0002CF0E2F8404080F311884FF0030002DFF1
:107AF0006AE700BFAFF300808D49FD1A0700000060
:107B000083DE1B437FC3C901404B4C008C49FD1AE7
:107B10004151040000CA9A3B115104008D49FD1ADD
:107B20007D5104000C210600201C0600F8150600FB
:107B3000BC180600682106002DE9F04F8DB01F46E5
:107B4000BDF860300793CDE90501BDF868309DF8B8
:107B50005C90BDF864B004930020164617F000F95D
:107B6000002800F0658109F001080446404613F042
:107B700093FB0390B8F1000F6DD1169B03993A4621
:107B8000404617F0B5FD002840F06381236A04F1F8
:107B90001C020892002B65D0D4F820A0DAF800501F
:107BA00007F0010B9AF85A00C0F3C00100F007007B
:107BB0001FF07EFBBAF85210BAF8502000F2D5132D
:107BC0000A441344CC48CD4A0721E3FB0021104668
:107BD000C7A3D3E90023FEF793FA20F07F40286182
:107BE00030461EF053FA94F833306FF3410384F8B3
:107BF0003330FF2384F83430002E00F01D81A9F1CA
:107C00000203012B40F2298194F84810089869F387
:107C1000420184F8481094F833106BF30001DDE959
:107C2000052384F8331016990968616216998988CA
:107C300021850499218600960021FFF7B9F8606438
:107C40001FF0D0FC002840F013812046FFF7DCF83D
:107C50000DB0BDE8F08F062111F0FCFD00288CD19D
:107C60001220F5E713F0F2FF0990002800F073816D
:107C700017F074FA0546002800F06A81203011F0F0
:107C8000A7FF05F11C0A002840F01D81032105F122
:107C900024001FF0C1F9079BD5F888006B854FF6CB
:107CA000FF73A5F82CB02B85002800F0198105F191
:107CB0007C0205F1780111F0D9FDB5F8763023F496
:107CC000EF6323F0070343F4887343F00103A5F83F
:107CD000763095F88E304FF0000B23F0070385F8CF
:107CE0008E300121C5F888B0A5F88CB0284618F070
:107CF00059F9C5F82EB0A5F832B005F134001DF0E1
:107D00009DFC95F8393060F30503012185F8393081
:107D10000DF12F001FF080F9049B9DF82F20A5F88E
:107D20008C31774B85F83BB0A3FB0213DB0803EBE8
:107D30004303A2EB830295F83930A98DA5F88EB1E3
:107D400003F03F0385F8393095F83C30A5F884B14D
:107D5000053223F0030385F83A20079A85F83C3072
:107D600040F2E24B674B0BFB02FB4FF4C0225B443B
:107D7000C5F88821881DB3FBFBF39AB28242A5F8AF
:107D8000862102DD063A521A92B2A5F882212846CF
:107D900019F0B2FF594628461AF026F8099BC5F893
:107DA0005431002385F8503117F096FC95F8942152
:107DB00060F3020285F8942117F094FC95F8942161
:107DC00060F3C50285F8942195F88021002363F3C0
:107DD000410285F8802105F1D40019F015FD95F8D0
:107DE0009A21169907F0010B6BF3410285F89A214D
:107DF0003122AA600023169A6B60EB601268C5F806
:107E0000A12195F89A218988A5F8A51169F30002A6
:107E1000039985F89A210A68C5F89B218A88A5F8F4
:107E20009F21C4F820A0C5E905332B70ED61B9E6A8
:107E30000C200DB0BDE8F08F1EF068FD00283FF467
:107E4000DEAE1699384632461EF09AFA84F83400AF
:107E5000D5E60B200DB0BDE8F08F00201EF03AF9FA
:107E600094F8333043F00203C14684F83330CBE654
:107E7000256AEB6E63B1244A2449254840F21D432C
:107E80002BF012FF404080F311884FF0030002DF17
:107E900005F1600105F15C0011F0ECFC06460028DC
:107EA0003AD02F68EE66D7F85451002D42D02846BC
:107EB00013F0D2FE384617F057F90023032023624F
:107EC0000DB0BDE8F08F104A12491148C1232BF0C4
:107ED000EBFE404080F311884FF0030002DFD5E64F
:107EE00005F18000C5F88800E1E600BFAFF300802F
:107EF0008D49FD1A0700000000CA9A3B8C49FD1A03
:107F0000ABAAAAAA7FC3C90198210600501A06008D
:107F1000F815060054160600104A1149114840F29F
:107F20001F432BF0C1FE404080F311884FF0030047
:107F300002DFB6E7094A0A490A4840F226432BF015
:107F4000B3FE404080F311884FF0030002DFAEE73C
:107F5000099813F081FE07207AE600BF98210600F9
:107F6000AC1B0600F81506002DE9F04F04468DB055
:107F700090F81C80238D406AADF82C30E307C8F3DD
:107F8000C0170E461546C8F340180A9000F10D813F
:107F90000023A383B37C707C13F001031CBFD4F8CF
:107FA0001E30C4F82B3004F12B0214BF638CC4F8CC
:107FB0002B30FF28938004F1250904F11F0240F0C3
:107FC000E5800023BDF82C100A98C4F82530A9F8E4
:107FD0000430A777C4F81F0091803368D3F800906D
:107FE000EB8963862B8AA386B9F83030E3861FF0CD
:107FF00049FB84F838002F68384617F0BBF8002199
:10800000A881E080384619F003FFD6F804A0206864
:10801000214613F033FEAB89AAF806301C23DAF8A8
:1080200000408AF80430B8F1000F40F0CC808AF8A4
:108030001C805146204613F02BFEBB687A6895F8E9
:108040005A00B5F80E80F568674C934238BF134666
:10805000C0F3C00103F1090A00F0070040F2E24357
:1080600003FB08F81FF024F9002202212D1A012039
:1080700011F04CFC484616F049FEA5FB044558A3F8
:10808000D3E90023834629462046FEF739F8CDF888
:108090000490B3685549009120F07F490BF1040228
:1080A000A3EB0A03D2B24B440121002013F008F8DD
:1080B00010F0FD0F0CD04E4A4E494F4840F23D3370
:1080C0002BF0F2FD404080F311884FF0030002DFF7
:1080D0004FF0000B5B4603220121CDF800B058465B
:1080E00012F0ACFF384617F045F8B36806463E4834
:1080F000A3EB0A0AA8FB000139A3D3E90023FDF78B
:10810000FFFF19463D4B08933D4B069340F26D33FC
:10811000079709933B698046CDE904B310460023D5
:108120004FF47A72FDF7ECFF364B0722A9FB0331BF
:10813000CDE9028002FB0911E01A65EB01014FF461
:108140007A720023FDF7DCFF0536F6B2CDE9009028
:10815000534632460121584612F0E0FE10F0FD0F62
:108160000CD0234A2349244840F26E332BF09CFD67
:10817000404080F311884FF0030002DF012202210A
:1081800010460DB0BDE8F04F11F0C0BB04F11E0168
:108190001DF0B2FCA37FBDF82C200A98C4F825007E
:1081A0000233A377A9F8042017E7114A16491248A9
:1081B00040F2BD232BF078FD404080F311884FF052
:1081C000030002DFE4E66B7F43F040036B77281D7A
:1081D0001DF08AFA4FF00108E88328E7AFF300802A
:1081E0008D49FD1A0700000000CA9A3BF1520400B5
:1081F00098210600201C0600F8150600F552040020
:10820000255304008D49FD1ABC180600000000002B
:108210000538C3B2042B0CD870B580B20D4616F0E9
:10822000B1FF044618B190F93930002B03DA002071
:1082300070BD0020704790F876000F4EC0F3C0016B
:1082400000F007001FF034F80C4A00F2B550072187
:10825000E0FB0621104606A3D3E90023FDF750FFFB
:1082600020F07F402860204670BD00BFAFF3008043
:108270008D49FD1A0700000000CA9A3B8C49FD1A7F
:108280002DE9F04F93B0FF240B930B1D0A930023AD
:10829000CDE90E33054616468DF837409B464FF024
:1082A000040A1F469946984610AB0693564B059311
:1082B000564B03930FAB01930EAB002000930223A8
:1082C00010930490029033460DF13702294612F0C4
:1082D0003BFF022815D0109BCBB9FF2C26D033686A
:1082E000BB4223D0BAF1000F40D00AF1FF3AFF247D
:1082F0005FFA8AFA8DF83740D6E72946002012F057
:108300006FFF109B022BF8D0109B002BE5D0404A4A
:10831000404941484FF4F7732BF0C6FC404080F3CE
:1083200011884FF0030002DFFF2CD8D19DF83700F1
:10833000FF2829D011A9FFF76BFF0028B4D0FF2C2C
:108340000E9F119B0AD041463846099312F062FFF6
:108350000A9B03EB09029042099B17D8B8469DF887
:1083600037403768DDF83CB099469DE72B49284AED
:1083700029484FF4FB732BF097FC404080F31188A1
:108380004FF0030002DFB0E7FF2C34D02448072170
:10839000A9FB000301FB093119A3D3E90023FDF771
:1083A000AFFE044600B140341E4AABF57423A3F57A
:1083B0001073934216D81A480721A8FB000301FB4B
:1083C00008310FA3D3E90023FDF79AFE164BA3FB58
:1083D0000B2304EB93440B9B044400201C6013B05C
:1083E000BDE8F08F0BF1E87B0BF5D43B08F1FF38CB
:1083F0000BF5A57BDFE76FF0090013B0BDE8F08F48
:1084000000CA9A3B00000000015604000556040013
:10841000E421060028220600F81506003022060096
:108420008D49FD1ABFBDF07F83DE1B4300000000B5
:108430002DE9F043C668476873683D491A68D0F86B
:108440000090A7F57423A3F510738B4283B0804688
:1084500007D907F1E87707F5D43709F1FF3907F5B0
:10846000A57773681169DD89CDF8049006F11003D2
:1084700001AA0220FFF704FF00284ED10199A1EBC9
:1084800009031B0237D40846494612F0C3FE0346CF
:1084900028480721A3FB000201FB032122A3D3E903
:1084A0000023FDF72DFE34690444002C346109DB00
:1084B00040F2E24305FB03F3A3422FD2E41AA342A6
:1084C000FCD33461D8F800301A48A3EB0903A3FBAE
:1084D0000002072101FB032113A3D3E90023FDF7C9
:1084E0000FFE154BA3FB0737A0EB974020443061EC
:1084F00003B0BDE8F083484612F08CFE03460D48F9
:108500000721A3FB000201FB032107A3D3E90023FA
:10851000FDF7F6FD3469241AC7E73469002CD1D180
:1085200003B0BDE8F08300BF00CA9A3B0000000022
:10853000BFBDF07F8D49FD1A83DE1B4300000000A4
:1085400010B5334C3349002304F1FF3C14F83320B9
:10855000072A02EB820E05D811F83E206FF3451270
:1085600001F83E201CF833206FF300020CF8332092
:108570000133082BEAD1284A284C002313700A78CB
:1085800063F300020A7091F8282063F3000281F877
:10859000282091F8502063F3000281F8502091F8D0
:1085A000782063F3000281F8782091F8A02063F32B
:1085B000000281F8A02091F8C82063F3000281F83E
:1085C000C82091F8F02063F3000281F8F02091F8C0
:1085D000182163F3000281F81821114A9FED0A7BEC
:1085E0001370104B83ED007B0F4B236028B1BDE867
:1085F00010400E490E4834F07CBABDE810400C48DB
:1086000034F085BAAFF30080FFFFFFFFFFFFFFFFED
:10861000D593002094920020C9AB0020A4910020A3
:10862000C8AB0020F0440020A0BB0D00C1620400D4
:10863000C0440020000000002DE9F04F8FB00DF184
:1086400037010446DFF8E0A0DFF8E0800DF13600E6
:1086500013F09CFB9DF836309DF837B00B9312F069
:10866000D7FDDAF80060A6FB085629A3D3E900235A
:108670000027814631462846FDF742FDCDE90777C0
:10868000069420F07F44DAF80400234B0593A0FB06
:1086900008011FA3D3E90023FDF732FD1F4B20F093
:1086A0007F40A4FB0331072202FB0411CDE90370D4
:1086B000E81A66EB01014FF47A720023FDF720FD02
:1086C0000097CDE901404B460B985A46032112F022
:1086D00009FC10F0FD0404D06FF08B000FB0BDE872
:1086E000F08F0F480F4A002327F0FEFE20B9DAF87A
:1086F0000C000FB0BDE8F08F9DF837209DF83600D4
:1087000000942346032112F099FC6FF07300E5E713
:108710008D49FD1A07000000116A04008D49FD1AF9
:1087200048940020447B0B006094002000CA9A3BD0
:1087300038B50F4D044612F06BFDA96812F06AFDC2
:10874000696803460B48B3FBF4F4A1FB00011C4429
:1087500005A3D3E90023FDF7D3FC20F07F4084423A
:1087600094BF0020012038BD8D49FD1A070000008C
:108770006094002000CA9A3BF0B5C468636883B077
:108780000546002B63D120F017FD082020F03AFDAC
:108790000021084620F028FD00222521082020F095
:1087A00067FD454B019301A820F04AFD434940F283
:1087B0005B6020F0F5FD237AC3F3420262F30613F7
:1087C000204623721FF080F91EF0A0F858BB637A90
:1087D0009B071FD127682E6838461EF007FD064408
:1087E0006A6806F10901012020F034FF21F020F829
:1087F000204616F04DF8811C3246C9B238461EF0AC
:1088000003FD054670BB20461EF08AFC88B9002097
:1088100003B0F0BD01201DF0EDFB4178821C007813
:1088200020F0B8FED6E7607A10F0030018BF0120F0
:10883000F1E7234A2349244840F22C432BF034FA31
:10884000404080F311884FF0030002DFDFE793F828
:1088500020309A0797D01D48214620F06BFC20F06D
:1088600059FDD4E7164A1A49174840F214432BF031
:108870001BFA184B0721A5FB030301FB05310CA3D1
:10888000D3E90023FDF73CFC1349024613482BF0C3
:108890000BFA404080F311884FF0030002DF1048CC
:1088A000214620F047FC20F035FD6FF08B00AFE74C
:1088B00000CA9A3B00000000D6BE898E555555006F
:1088C000DC25060064170600F81506009173040005
:1088D000781606008D49FD1A8C26060060260600D3
:1088E00099760400000000002DE9F041C46894F975
:1088F0001630002B8CB0C0F2FF80636805460E4630
:10890000002B40F0EE80A37D6FF30003A37520F0F1
:1089100053FC082020F076FC0021084620F064FC7F
:1089200000222521082020F0A3FC012013F030FBB9
:108930000746002800F0C78007F11C0020F0C2FCA9
:10894000874B0B930BA820F07BFC864940F25B60C1
:1089500020F026FDA07DC0F3410025301EF066FC0E
:108960008148214620F0E6FBA37D9B0603D4636883
:10897000002B00F0A580962020F060FE00231A4610
:108980001946184620F072FD1DF0C0FF002838D1AE
:10899000A37D13F0180F59D1D4F800802F684046FA
:1089A0001EF024FC07446A6807F10901002020F04A
:1089B00051FE20F03DFF20F0C9FD204616F0B4F92D
:1089C000011DC9B240463A461EF01EFC80460028F2
:1089D00040F0998016B9636A002B4ED1636843B1A9
:1089E000624B0122022100209D6010F0C5FF00288B
:1089F00035D120461EF094FBD0B900200CB0BDE864
:108A0000F081A07DC0F3C0001DF0F4FA07460DF11F
:108A10002B001DF0F3FD79788046BA1C387820F0E1
:108A2000B9FD9DF82B000022414620F0D1FFB3E7AD
:108A30004F4A5049504840F20B232BF035F9404043
:108A400080F311884FF0030002DFD6E701201DF00C
:108A5000D1FA4178821C007820F09CFD9CE7444AC2
:108A60004649454840F206232BF01EF9404080F36A
:108A700011884FF0030002DFBBE7414A0792414AE9
:108A8000059240F2F31200930892CDE90366CDE916
:108A9000016606943B463146032212F023FA10F099
:108AA000FD0F9BD0324A384933484FF4FA732BF00C
:108AB000FBF8404080F311884FF0030002DF8DE7A0
:108AC00020F034FD60E72A4A30492B484FF4C57343
:108AD0002BF0EAF8404080F311884FF0030002DFEA
:108AE0002AE7636893F82030D90705D4636893F8C0
:108AF00020309A077FF507AF2548214620F01AFB62
:108B000020F008FC79E71A4A22491B4840F2E51395
:108B10002BF0CAF8204B0721A8FB030301FB083107
:108B20000DA3D3E90023FDF7EBFA1C4902461C48CC
:108B30002BF0BAF8404080F311884FF0030002DFB9
:108B40001848214620F0F6FA20F0E4FB6FF08B0085
:108B500054E700BFAFF3008000CA9A3B000000005A
:108B6000D6BE898E55555500498C0200400F002015
:108B70009826060064170600F81506006C17060014
:108B800011820400B18204009C1906002826060008
:108B900091730400781606008D49FD1AE42606003C
:108BA00060260600ED80040038B504461FF04EFA3A
:108BB000A37DA27DC3F34103013303F00303032B21
:108BC00008BF002363F3420214BF03F125002520F0
:108BD000A2751EF02BFB63680BB123694BB912F031
:108BE00017FBC11C002020F0A9FDBDE8384020F093
:108BF0001FBE20F0D1FD054612F00AFBC11C00206B
:108C000020F09CFD20F014FE20F0C6FD294612F055
:108C100001FB0B4A03460721A0FB020201FB0321D3
:108C200005A3D3E90023FDF76BFA23691B1A23611F
:108C300038BD00BFAFF3008000CA9A3B00000000BF
:108C40008D49FD1A000000002DE9F0478AB0044666
:108C500020F092FBC0B250B91EF040FBC448214640
:108C600020F068FA0AB0BDE8F04720F053BB20F0CE
:108C7000A3FB054620F0C2FC074620F0C9FC814654
:108C800020F000FF064620F0DFFE824620F078FC50
:108C9000EDB2804620F058FC1EF020FB002DDDD008
:108CA000012013F075F90546002800F04D8117F0FA
:108CB000FF07F6B240F0E380002E40F0DA804FF07C
:108CC000FF093A464B46314620461FF0E5FB002897
:108CD000C4D02A7F616800238DF823305FFA88F7BB
:108CE00002F00F03002900F0EC80616891F8201079
:108CF000880700F1E680072BB0D0A17D090740F17D
:108D00004381002B40F0C4806B7F063B1F2BA5D80E
:108D1000042013F03DF90028A0D020F091FD636AF3
:108D2000074643B9238C40F2712202FB03F3B0FBE8
:108D3000F3F203FB120723681A698E4B0721A2FB8B
:108D4000030301FB023188A3D3E90023FDF7D8F91F
:108D50006FF44A7C00EB0C03BB42FFF47FAF20F0C2
:108D6000E5FB484663681DF02FFCE37D99078046CC
:108D700040F1E581002800F0E2818246012720F0E1
:108D800029FBCDE9027A09AB049305F11E03019397
:108D90002B7FC3F380130146074600930022012373
:108DA00020461FF093FB384620F092FA20F0DAFAC2
:108DB000002840F0CA817048214620F0BBF9626863
:108DC00092F8203043F0010382F82030A37D43F075
:108DD0008003A37513F0FEF8172202714FF6FF729D
:108DE000C28095F81CC082463B46CCF3401C00F183
:108DF0001C0207F1200E1D6858689968DF68D7606B
:108E00001033734515605060916002F11002F2D189
:108E10001B6813609AF81C30CAF808406CF34513BD
:108E20008AF81C3020F0B8FC002ECAF81000099B0C
:108E3000CAF8143008BF4FF0FF098AF81990E37D93
:108E400013F0020303D0B8F1000318BF01239AF80E
:108E50001A2063F300028AF81A2013F0BBF8CAF84C
:108E60000C00DAF8000051460AB0BDE8F04713F0F4
:108E7000DFB85FFA8AF01DF035FC814621E7A07D5E
:108E80005FFA89F1C0F3C0001DF0C2FB814618E70C
:108E9000012B40F089806A7F0C2A7FF4DFAE2A7FA5
:108EA000CDF80090194600230193D20905F124035F
:108EB00020461FF045FA00287FF42AAF2B7F03F0ED
:108EC0000F03002B70D16B7F052B7FF6C7AE252BD0
:108ED0003FF6C4AEA27D02F02102202A09D16268C9
:108EE000002A00F0C180052B7FF6B8AE252B3FF697
:108EF000B5AE63682BB12B7F03F00F03072B7FF414
:108F0000ADAE03209DF8238013F042F805460028FB
:108F10003FF4A4AE13F05EF84FF6FF73EB80052329
:108F20002B71002F3CD17F20AB7E2876002E08BF0E
:108F30004FF0FF0968F34103286885F81990AB7674
:108F4000294613F075F889E60C4A0D490D4840F2A0
:108F5000C7232AF0A9FE404080F311884FF0030098
:108F600002DFA4E6AFF3008000CA9A3B00000000D5
:108F7000058104008D49FD1AF5820400982606003B
:108F800028260600F8150600B9F1FF0F8DF8249089
:108F9000C2F380184BD0227E91453FF4B2AE90E7E9
:108FA00020F0DEFAC0B2BFE7062B8CD04521D940B5
:108FB00011F0010139D1012B10D16B7F0C2B7FF403
:108FC0004DAE2A7FCDF800900DF123030193D20915
:108FD00005F1240320461FF0B3F908BB2B7F03F0F3
:108FE0000F03042B7FF43AAE6B7F063B1F2B3FF63B
:108FF00035AEA37DDB077FF531AE20F0EBF92B7F9B
:109000000278C3F38013B3EBD21F7FF427AE08308E
:10901000062205F11E0134F0A5FA00287FF41EAEE9
:109020006B7F002B7FF465AF18E66B7F5BE705F184
:109030001E0A09AA514640461DF00AFC00283FF4CA
:109040003DAFE37D03F0010343457FF437AF514665
:10905000062204F1080034F085FA00287FF42EAFD0
:109060002B7F03F00F034CE69620079220F0E6FAE0
:10907000079A104620F0B2F9032012F089FF8046CB
:1090800000283FF4EBAD12F0A5FF4FF6FF73A8F8F0
:109090000630052388F80430002F64D17F23002E8A
:1090A00088F8183014BF4B46FF2388F8193098F819
:1090B0001A30D8F800006FF3410388F81A3041469F
:1090C00012F0B6FF20F086F906460322337862F3E9
:1090D000030333702B7F3278C3F3801363F3C7121B
:1090E0000C233270484673701DF06EFAE27D9207D1
:1090F0003DD500283BD03178324641F0400102F89E
:10910000021B0168C6F8021083889380D5F81E30D0
:10911000B3606B8CB381304620F0DAF820F022F98E
:10912000002835D120F084FBA37D204843F00103C3
:109130002146A3750AB0BDE8F0471FF0FBBFA77D2D
:1091400004F1190AC7F3801719E6194A19491A4890
:1091500040F2A4432AF0A8FD404080F311884FF06C
:10916000030002DF27E620F0FBF9C3B297E7A37DF7
:109170003278C3F3801363F38612334603F8022B6D
:10918000D4F81920C6F80220B4F81D209A80BDE753
:10919000074A084908484FF4A5632AF085FD404076
:1091A00080F311884FF0030002DFBBE71981040050
:1091B0009826060030260600F8150600000000007C
:1091C0002DE9F041C468A2894FF6FF739A4282B03C
:1091D00000F0C78005461FF07DFA2B89628AE08A7D
:1091E0001A4492B21044637FA28280B2411CE18291
:1091F0005E064FF00001618204F1180100F18C80DD
:1092000003F03F000B46A17F009004F11F001CF00B
:1092100023FA0646D4E90B231344D4E90D020021B6
:109220000244E1626163A16AA26394F872208B42F6
:1092300028BF0B4612F00402236377D01FF0BCFF57
:1092400008201FF0DFFF201D1FF0FAFF2389A17AFD
:1092500040F25B6043EA014120F0A2F830461DF085
:10926000E5FF214658481FF065FF962020F0E6F9FB
:1092700094F85A2094F85B00C2F3C003002102F076
:10928000070200F0070020F0F1F820461FF084FAF2
:1092900027682E6838461DF0A9FF06446A6806F163
:1092A0000901002020F0D6F9804620F095FA002030
:1092B00020F0ACFA236B94F85B0003F13002A36B4F
:1092C00000F00700012103EB420520F00FF84544B0
:1092D000054494F85B0000F00700022824D004281D
:1092E0000CBF4FF4BC73282301211D4420F000F86B
:1092F000284420F063FAA18905313246C9B23846C4
:109300001DF082FF054698BB20461DF009FFD0B92D
:10931000002002B0BDE8F0810A4603F03F03E18B74
:109320001CF0E6F9064675E71823DDE7D4E91701D6
:1093300010F0B4FA002881D194F8723043F004039D
:1093400084F872307AE7214A2149224840F25513C5
:109350002AF0AAFC404080F311884FF0030002DF9E
:10936000D6E71D4821461FF0E5FE1FF0D3FFCFE7EB
:10937000164A1A49174840F24B132AF095FC184B2D
:109380000721A5FB030301FB05310DA3D3E900234E
:10939000FCF7B6FE1349024613482AF085FC40400C
:1093A00080F311884FF0030002DF104821461FF0C0
:1093B000C1FE1FF0AFFF6FF08B00AAE7AFF3008094
:1093C00000CA9A3B00000000F189040064270600EF
:1093D00064170600F815060091730400781606005D
:1093E0008D49FD1AB8270600602606006D7304003B
:1093F000F0B5C468A2894FF6FF739A4285B000F0B9
:109400008B8005461FF066F92B89628AE08A1A4430
:1094100092B21044637FA28280B2411CE1825E0658
:109420004FF00001618204F118015FD403F03F00A6
:109430000B46A17F009004F11F001CF00DF90646B9
:10944000204603A91FF076FA039B94F872101A784D
:1094500061F3C3021A70039A94F872301178C3F35F
:10946000400363F3820111701FF0A6FE08201FF075
:10947000C9FE201D1FF0E4FE2389A17A40F25B6043
:1094800043EA01411FF08CFF30461DF0CFFE0399E7
:1094900020461FF023FA214637481FF04BFE962046
:1094A00020F0CCF894F85B0000F007001FF096FF66
:1094B00027682E6838461DF099FE06446A6806F152
:1094C0000901012020F0C6F820F0B2F9A189053188
:1094D0003246C9B238461DF097FE054618BB2046F5
:1094E0001DF01EFE50B9002005B0F0BD0A4603F085
:1094F0003F03E18B1CF0FCF80646A1E71F4A204918
:10950000204840F203132AF0CFFB404080F311883B
:109510004FF0030002DFE6E71B4821461FF00AFE7A
:109520001FF0F8FEDFE7154A18491648F9232AF01C
:10953000BBFB174B0721A5FB030301FB05310CA364
:10954000D3E90023FCF7DCFD1249024612482AF059
:10955000ABFB404080F311884FF0030002DF0F485F
:1095600021461FF0E7FD1FF0D5FE6FF08B00BBE733
:1095700000CA9A3B0000000025880400C4270600AA
:1095800064170600F81506009173040078160600AB
:109590008D49FD1A14280600602606006D7304002C
:1095A0002DE9F0472DED028B9FED498B4A4E84B09B
:1095B00004464FF02003EFF3118783F31288BFF3C3
:1095C0006F8FD4F8C8508DB9022104F1E00033F058
:1095D000D9F9002843D100238DED008B029304F1CB
:1095E000D00239463D4827F05DFCE2E7D4F8CC20B4
:1095F0002B68C4F8C830954208BFC4F8CC30D4F802
:10960000E03043F00203C4F8E030EB6823F00403D9
:1096100043F00103EB606B6887F31188BFF36F8F32
:10962000284698474FF02003EFF3118983F31288FF
:10963000BFF36F8FEB68990723F0010219D4EA603A
:10964000D4F8E03023F00203C4F8E03089F3118845
:10965000BFF36F8FDB05ACD427F004FBA9E704F15F
:10966000D80500220121284633F092FB0028F8D1CA
:10967000B1E7306823F00303EB600028E0D0002757
:10968000D0F80080BA460028DAD0426895420146F8
:109690000BD1016897B972683160824200D1716064
:1096A00040F808AB26F0FAFE3946B8F1000F0BD0AF
:1096B000D8F8002040460F469046E4E739607268CB
:1096C000824208BF7760EBE74246F3E7AFF30080E2
:1096D000FFFFFFFFFFFFFFFFD0A4002079B00020B5
:1096E000014826F0DDBF00BF0804002007B533F0B5
:1096F0008CFB4FF47A72A0FB020302FB0131C00B1A
:10970000074A40EA4140106000234FF400420548F8
:10971000CDE9002327F0A4FD002003B05DF804FB91
:109720009848002018140020014B187800F08CBCD9
:10973000A0A50020044B1A78824202D01870FFF7CF
:10974000F3BF0020704700BFA0A5002008B533F08C
:109750005CFB4FF47A72A0FB020302FB0131114A59
:10976000C30B126843EA41439B1A0F4A934214DD2C
:1097700003F094FF20B1BDE808400120FFF7DABFF5
:109780000220FFF7D7FF00F057FB002803DABDE8FF
:10979000084000F08DBB2AF094FA47F23052934211
:1097A000E9DC08BD98480020A0BB0D0008B533F0E7
:1097B0002CFB4FF47A72A0FB020302FB0131C00BB9
:1097C000044A40EA41401060BDE808400020FFF72D
:1097D000B1BF00BF98480020014B1878704700BF08
:1097E000A0A500202DE9F041194C1A4E1A4D1B4F2F
:1097F00092B0B44203D3002012B0BDE8F081B4F8B7
:109800000480B8F1000F21D12068F8B10368EBB1F2
:1098100032F00BFFD0B12B8801339BB22B80A38099
:109820002022009341463B4602A833F07DFE236888
:109830000B4A1B6820210AA827F0EAFD0AA8FCF7BA
:10984000DBFD0AA9024602A807F080FC0834D0E735
:1098500038190020001A0020E8A400206631060014
:10986000003206002DE9F04F83B000AF0D461646DA
:1098700020493A469A462AF0FCFE80B1386870B119
:109880000A22391D27F066FE7B6893F800B0E8468F
:109890000446BBF1000F06D06FF01500C5460C372B
:1098A000BD46BDE8F08F3F2DF6D805F1080323F043
:1098B0000703ADEB030D2A4669465046B047002822
:1098C000E946EBDD0DF805B00B4E0C4DB542E3D289
:1098D0002B6848461968FCF77DFD40B9084BA2B2D9
:1098E0001C88AA80944238BF14461C80D6E70835ED
:1098F000ECE700BF7B310600001A00203819002079
:10990000E8A40020F8B5044610B900252846F8BDA3
:109910000378002BF9D00F4E0F4FBE420FD30D4EE0
:10992000BE42F2D2306832F080FE30B13568214656
:109930002868FCF74FFD0028E8D00836F0E73068CB
:1099400032F073FE18B135682B68A342DED00836BA
:10995000E3E700BF8C6306005464060070B505465B
:1099600098B94FF6FF7070BD0834B442F9D2206840
:1099700032F05BFE0028F7D0236829461868FCF710
:1099800029FD0028F0D1A088EDE7014C014EECE75D
:1099900038190020001A002070B5094C094E054600
:1099A000B44201D3002008E0206832F03EFE28B126
:1099B000A388AB4202D12368186870BD0834EFE772
:1099C00038190020001A002070B5194C194D8CB0C0
:1099D0000022002303A9204626F01CFC08B10CB08D
:1099E00070BD2B68059E5868DDE9031228F02FFA38
:1099F0000028EDDBFF238DF81830B6FA86F35B09FB
:109A000007908DF8203033F000FA4FF47A72A0FB03
:109A1000020302FB0131C00B40EA4140C90B8DE853
:109A2000030006ABCDE90A010FCB00F027FBCFE71F
:109A30009C150020004A00201FB50A4C2468A46829
:109A400084420DD183F00103CDE90112039306484E
:109A50000022002301A926F087FB044826F020FEFF
:109A600004B010BD004A00209C150020F0490020E1
:109A70001FB50023CDE90233044B8DF80C0001A87B
:109A8000019328F00DFA05B05DF804FB90E20500A3
:109A90000268034B9A420CBF08300020704700BF99
:109AA00090E20500014B03600120704778E2050059
:109AB000014B0360552070479C480020044B1A68F6
:109AC000044B9A4214BF6FF012000020704700BF91
:109AD000004A00207CE2050008B5074B93F900100E
:109AE000002906DBFFF7EAFFC0B2401A18BF0120C9
:109AF00008BD0020FCE700BF7E12002007B5FFF77D
:109B0000DDFF0DF107018DF807000122024807F083
:109B10001DFB03B05DF804FB8D31060038B504462B
:109B200000282FD0194D2B68834229D053B1986853
:109B300040B183685B6803B198472B68002198683F
:109B400006F0F8F81249134B8C4214BFED210021A6
:109B50005522002028F095F9002812DBA0682C601F
:109B600070B1012106F0E6F82B68986883680A490D
:109B70001B6898472B68986883689B6803B198476F
:109B8000002038BD6FF01200FBE700BF004A002044
:109B90007CE205009C480020399A020038B5054651
:109BA00048B90648FFF7BAFF041E02DB2846FFF754
:109BB0005FFF204638BD6FF01504FAE77CE2050030
:109BC000F7B50C4615460D4901AA1E462AF051FD6F
:109BD00068B1019B6BB9012C0DD1094F2246394662
:109BE0003046A847002802DD3878FFF7D7FF03B0DA
:109BF000F0BD0020FBE76FF01500F8E79E3106008E
:109C00007E1200200148FFF789BF00BF7CE20500FB
:109C100008B50B480B4932F028FF0B482AF05BFBD4
:109C200018B1094801212AF029FB084A002342F80B
:109C3000043B0133552BFAD1BDE80840FFF7E2BFE2
:109C4000F0490020C999020070DC05009C48002002
:109C500030B51C4C04EB00148FB0606883683A2167
:109C6000DB68984758BB60686189836804AD1B69ED
:109C70002A46984718BB95E803000123069307ABD3
:109C800083E803006389ADF8243033F0BEF84FF465
:109C90007A75A0FB053205FB0121DB0B43EA41434A
:109CA000C90BCDE90A31237B8DF830300EAB13E9B7
:109CB0000F008DE80F0006AB0FCB00F005FA0FB0D8
:109CC00030BD00BF28040020094BBFF35B8F53E871
:109CD000002F22F0010143E800100028F7D1BFF364
:109CE0005B8FD30702D50020FFF7B2BF704700BFDC
:109CF000044A002008B50549486828B183689B6874
:109D000013B1034A08319847002008BD28040020F9
:109D1000159D020008B50E4B994218D132F045FD51
:109D200088B1BFF35B8F0B4B53E8001F41F001017B
:109D300043E80012002AF7D1BFF35B8F0648BDE865
:109D4000084026F0ADBCBDE80840FFF781BF08BD64
:109D500030040020044A00201804002001289ABF83
:109D6000024B03EB40000020704700BF641100204D
:109D7000F8B50F4D0F4E761B07460C4605EBC10597
:109D8000C6F3C706A64201DC00200CE02A683B6847
:109D90009A4209D13C716B6838461B68984718B1E4
:109DA000431E012BF0D9F8BD01340835EAE700BFA6
:109DB000C04806006849060070B40D4B0D4CE41A0B
:109DC0000022C4F3C704944203DC6FF0150070BC9A
:109DD00070471E680568AE4202F1010206D15D6857
:109DE0008D4203D170BCD1B2FFF7C2BF0833EAE79E
:109DF000C0480600684906000D4B0E4AD21A70B4DE
:109E0000C2F3C7020024A24203DC6FF0150070BC4D
:109E100070471E680568AE4206D15D688D4203D169
:109E2000E1B270BCFFF7A4BF01340833EBE700BF19
:109E3000C04806006849060037B501A825F044FF70
:109E4000194D019C00232B601823584318380444F3
:109E5000019B9C4202D2002003B030BD204632F06C
:109E6000E4FBF0B120462AF0FFF9D0B920462AF0F1
:109E70003CFAB0B920462AF024FA014688B92046B7
:109E800005F058FF20F0200378330AD010F1860F38
:109E900007D00028E0DB2B68044A42F82340013356
:109EA0002B60183CD4E700BF084A0020A013002014
:109EB00070B5084D084E2C68013C002C02DA0023D6
:109EC0002B6070BD56F82400012105F033FF013CE2
:109ED000F3E700BF084A0020A013002000B58BB0B4
:109EE000064B074A2821684627F092FA05490122C5
:109EF000684607F02BF90BB05DF804FBE63106006D
:109F0000F0310600A1A500202DE9F843476804467A
:109F100000254FF001087B68AB420DD8214922484B
:109F200032F0E7FDA3681B680BB1204698473989DA
:109F300039BB0020BDE8F8833A6802EBC50352F84C
:109F400035001979DB88D0F810C0D0F80890DCF81B
:109F50000060DA0754BF43F4B01383F4D01323F442
:109F6000801208FA01FEDB074CBF46EA0E0626EA1D
:109F70000E06CCF80060D9F80030984770B901356A
:109F8000C9E740F2E7304FF47A72002300EBC130AA
:109F90000021FCF7B5F826F0E7FECAE76FF00400F1
:109FA000C8E700BFDD9E0200281A002008B5074B55
:109FB0005A784AB901221A7005480022002326F077
:109FC000D7FB044827F082FF002008BDA1A5002090
:109FD000281A0020C8DB050008B54FF4F012002352
:109FE000024826F0F9FB00EAE07008BD281A0020BC
:109FF000F7B50C461646114901AA1F462AF039FB4F
:10A00000B0B1019BA3B9012C15D10D4D22462946B3
:10A010003846B047002806DB2B780A486C7023B11D
:10A0200027F054FF002003B0F0BD27F06BFFF9E7E5
:10A030006FF00100F7E76FF01500F4E7E631060076
:10A04000A1A50020C8DB05001FB50023CDE9023320
:10A05000044B8DF80C0001A8019327F021FF05B0F7
:10A060005DF804FBB4E205000268034B9A420CBFA2
:10A0700008300020704700BFB4E2050084B030B55E
:10A0800089B00CAC84E80F00002301930CAD084BA1
:10A0900000930FCD02AC0FC495E8030084E80300E1
:10A0A000684627F0FDFE09B0BDE8304004B07047B7
:10A0B000B8E205000268034B9A420CBF083000204A
:10A0C000704700BFB8E2050084B030B58BB00EAC6D
:10A0D00084E80F00002301930EAD084B00930FCDD1
:10A0E00002AC0FC495E80F0084E80F00684627F023
:10A0F000D7FE0BB0BDE8304004B07047BCE20500AD
:10A100000268034B9A420CBF08300020704700BF22
:10A11000BCE205001FB50023CDE90233044B8DF8E6
:10A120000C0001A8019327F0BBFE05B05DF804FB0D
:10A13000C0E2050082B038B504A981E80C000546EC
:10A14000114825F0CDFD0446A0B1AB68012B0CD021
:10A15000022B05D0A3B9BDE8384002B027F01CBFE0
:10A1600027F021FF00282046F5DCBDE8384002B08A
:10A1700027F00BBF6FF00400BDE8384002B0704715
:10A180006FF08500F8E700BFE631060082B010B539
:10A1900002A981E80C0004460B4825F0A1FD78B126
:10A1A000A368022B04D00020BDE8104002B0704725
:10A1B00027F0F9FE0028CCBF00200120A060F2E7C4
:10A1C0006FF00400F0E700BFE6310600014B18789D
:10A1D000704700BFA5A500200D4A52F8203001337A
:10A1E00042F820300B4A0123117883400B430A497F
:10A1F0000978DBB2137023EA01030849084A097899
:10A2000050780B43181A537018BF0120704700BFD5
:10A210000C4A0020A5A50020A3A50020A4A500208D
:10A220008612002010B5114A52F82030002B19DD9B
:10A23000013B42F820300E4A2BB9137801218140AE
:10A2400023EA010313700B480B4B047810780B4A78
:10A250005978127820EA040010435870401A18BF49
:10A26000012010BD6FF01500FBE700BF0C4A002075
:10A27000A5A50020A3A5002086120020A4A50020EB
:10A28000044A012312788340D8B213401B1A584263
:10A2900058417047A5A5002010B5084B084A187012
:10A2A000084B51781C78084B1B7823EA04031843A9
:10A2B0005070401A18BF012010BD00BFA4A5002097
:10A2C00086120020A3A50020A5A50020074B002290
:10A2D0001A70074B074A1978074B50781B7823EA06
:10A2E0000103181A537018BF01207047A4A500205D
:10A2F000A3A5002086120020A5A50020074B084A30
:10A300001870084B51781B7823EA00030648007840
:10A3100018435070401A18BF01207047A3A50020B1
:10A3200086120020A5A50020A4A50020074B0849FF
:10A3300000221A70074B084A1B78097850780B43A3
:10A34000181A537018BF0120704700BFA3A5002042
:10A35000A4A50020A5A5002086120020A0F1E003FE
:10A36000072B03D82030C0B2FFF736BF064B0622BA
:10A3700013F8011F19B1013AFAD100207047187083
:10A380000028F8D0F9E700BF88120020A0F1E00310
:10A39000072B10B405D820305DF8044BC0B2FFF78E
:10A3A00041BF0023064A194612F8014F0133A0426B
:10A3B00008BF1170062BF7D100205DF8044B7047E1
:10A3C00088120020A0F1E003072B03D82030C0B290
:10A3D000FFF756BF064A002312F8011F884204D037
:10A3E0000133062BF8D1002070470120704700BFD1
:10A3F00088120020024B00221A605A60704700BF8A
:10A4000087120020FF280DD8084B002213F8011FE7
:10A4100021B10132062AF9D10020704718700028B6
:10A42000F7D0F9E76FF08500704700BF7F1200207A
:10A4300010B50023054A194612F8014F0133844232
:10A4400008BF1170062BF7D1002010BD7F1200202D
:10A45000024B00221A609A80704700BF80120020D1
:10A46000054A062312F8011F814203D0013BF9D1AE
:10A4700018467047012070477F120020004870473F
:10A4800086120020004870477F1200202DE9F0411D
:10A490000B4E337883B10B4CDFF82C80002542F251
:10A4A0000F7720464146013532F023FB0A2D44F850
:10A4B000207C04F15804F4D100203070BDE8F08114
:10A4C0008F120020B8200020F12205002DE9F04174
:10A4D000C269037ED17D90B0044609B1032B3DD003
:10A4E000023B012B517D07D8002937D1204610B0FF
:10A4F000BDE8F04127F0D2BE21B1937D13B92046CB
:10A5000027F06AFE0AAD18220021284632F05CFED0
:10A51000D4E90467D4F8008023798DF8383010220C
:10A52000002106A8CDE90C67CDF82C8032F04CFE56
:10A53000E3699B680793E36808930A4BC3E90267E2
:10A54000C3F800800123049310AB13E90F008DE8DA
:10A550000F0006A895E80C0027F067FB10B0BDE8D7
:10A56000F08100BF000000200B4A30B500230446F4
:10A57000282000FB03F18D18515C41B90FCC0FC5A9
:10A580000FCC0FC594E8030085E8030030BD01330C
:10A59000282BEED1FAE700BF581A00202DE9F84326
:10A5A000027E0346002A6ED13B4D2A6882426AD160
:10A5B000D269547D24B119B9BDE8F84327F06EBEC5
:10A5C000107D032828D8DFE800F0020E1F60013953
:10A5D000042921D8DFE801F01E0320051E00022116
:10A5E00019E0032117E00139042915D801A050F81A
:10A5F00021F000BF15A6020019A60200DFA5020087
:10A60000E3A5020015A602000429EAD001F0FB012F
:10A61000012901D101211976197EA1B3D069002841
:10A620000DDD5C6D611C0AD01C32002152F8046FF4
:10A63000A64204D001318842F8D101221A760022C4
:10A6400018462A60FFF742FF2C68E4B9134EDFF882
:10A650005080A14616F8087CAFB12B6806F8089C1C
:10A6600023B14FF4A470002126F07EFB012F01D00E
:10A67000022F03D141463046FFF7BEFB0134282CA0
:10A6800006F12806E6D1BDE8F8830229A7D0BFD994
:10A6900004390129BED9BFE75C4A0020601A0020B6
:10A6A0001CE4050082B02DE9F0412F4E06A981E897
:10A6B0000C000024582202FB04F0851931588B420B
:10A6C0004AD12030304432F022FAEB691968D5E9DA
:10A6D00004238A1843EBE17308998A42099A93414B
:10A6E000804603DA04212846FFF758FF582707FB66
:10A6F000046701212846FFF751FFFB69DB7D53B159
:10A700003B7E032B07D1284627F090FD01232846E6
:10A710003B76FFF7DBFE284627F088FD582303FB36
:10A720000463DB695A7D22B19B7D13B1284627F073
:10A7300053FD18F1770F4FF058031DBF5C4342F2F1
:10A740000F72331903FB046317BF32510122002239
:10A750001A7683F8502002E001340A2CABD1BDE810
:10A76000F041002002B070479820002082B02DE90F
:10A77000F047044608A9406881E80C0027F0FFF97B
:10A780003B4B1D687DB9D4E902C23A4F4FF0580ED9
:10A7900042F20F780EFB05F6F419B959414507D07E
:10A7A00001350A2DF6D1BDE8F047002002B0704710
:10A7B000D0F804809DF83010DDF82490DFF8B8E080
:10A7C0002171C4E902C2DDE90AC0C4E904C0002164
:10A7D0004FF0FF3247F8069021766265C4F81C807E
:10A7E000DEE902211C60D8F8103013EB020A41EBBD
:10A7F000E373D44570EB03030CDBDEF800309945BE
:10A800000CD1D8F80C309A1841EBE371944570EBF9
:10A81000010103DA05212046FFF7C0FE2046002192
:10A82000FFF7BCFE582303FB0575D8F800402969E3
:10A830000C4432F0EAFA4FF47A72A0FB020302FBF6
:10A840000131C30B43EA4143E11A21EAE17140F2CD
:10A85000E7304FF47A72002300EBC1304914FBF764
:10A860004FFC203602460B46B81925F081FF9AE7C7
:10A870005C4A002098200020000000202DE9F041D3
:10A880008AB00446FFF716FC00286CD02046FFF77C
:10A8900011FC524D47680446002642F20F782B689F
:10A8A0009F420CD043450AD0EB69DB7D3BB12B7E48
:10A8B000032B04D102232B762846FFF707FE01362F
:10A8C0000A2E05F15805EAD1454D286808B900203F
:10A8D0002CE0C369227A197E914204D0426D013284
:10A8E00004BF62684265016862689142EFD01968EE
:10A8F000D0E904238A1843EBE173D4E90461B2423E
:10A900008B4116DB237ADBB10123214602A88DF8A7
:10A91000003027F021FB6846FFF726FE217A2868E1
:10A92000C1F10301C9B2FFF739FE02200AB0BDE848
:10A93000F0810421FFF732FE2B68002BC7D0E1E73E
:10A940006068284A11780029C1D0012905D15169D0
:10A95000884202D1117E0029D6D10133282B02F181
:10A960002802EFD1B3E7204601F0BAF90028DDD084
:10A97000204601F0B5F9837A01469BB14368E03B7C
:10A98000072B02D80378072B0CD0174BD1E9040210
:10A99000D3E9025485429441BEBFC3E902024FF09D
:10A9A00000441C600E4B18680028BFD04B68E03B89
:10A9B000072B8CD80B78072B89D1C3695B7D13B12A
:10A9C000007E0028B2D002A802248DF8004028F0B2
:10A9D0005EF96846FFF7C8FDA7E700BF9820002092
:10A9E0005C4A0020581A0020000000202DE9F041A8
:10A9F0000B4E337883B10B4CDFF82C8000254FF0E1
:10AA0000FF3720464146013532F073F80A2D44F8ED
:10AA1000207C04F15804F4D100203070BDE8F081AE
:10AA20009012002028240020392405002DE9F04F41
:10AA3000A3B001F055F9044600287FD0037A476897
:10AA40000293837A0393036901930DF1380BA7F105
:10AA5000E003B0F80080D0F814A0DFF8349104933C
:10AA600018AD5E46D9F800200023013246F8043BB9
:10AA700045F8043B37D0D9F80C204449D0680592FA
:10AA8000FBF7A8FC059A60B9D9F8081088B2B8425B
:10AA900007D1C1F30740404503D1029BB3EB116FCF
:10AAA00021D0039B002B5ED0927932B1049B072BFF
:10AAB00003D85FFA88F2072A15D099F8502092B986
:10AAC000D9F854207AB9484627F0C5FCD9E90612CE
:10AAD00051EA020035D0019B994272EB0A0230DA4A
:10AAE000484627F09EFC18AB9E4209F15809B9D19F
:10AAF00000255BF8040B18B1019A534627F0B5FC0A
:10AB000001350A2DF5D10025DFF88880284618AFD9
:10AB100057F8256076B138B9214606A828F0B7F86D
:10AB2000414606A8FFF748F9019A5346304627F0F8
:10AB300019FC012001350A2DEAD1400023B0BDE8FF
:10AB4000F08FD9F80C20517909B146F8049C99F896
:10AB5000101019B112790AB145F8049C89F8508097
:10AB6000C9F85470BFE799F81020002ABBD099F8B3
:10AB700050204245B7D1D9F85420BA42B3D1484603
:10AB800027F069FC45F8049CADE700BFFC340600E3
:10AB90000824002050E4050082B02DE9F04104466D
:10ABA00006A9406881E80C00DDE9088726F0E7FF88
:10ABB00043682D48079AD3F80CC0A66800210446C4
:10ABC00003689A423BD1C368DD68AC4537D18568DC
:10ABD000AE4234D1457C95BB58254D43601990F861
:10ABE0005020B2BB582202FB014101220A741E68A8
:10ABF00016EB080647F10007C1E9066732F005F9D0
:10AC00004FF47A72A0FB020302FB0131C30B43EA4B
:10AC10004143F61A002E17DD4FF4004740F2E730AB
:10AC200000214FF47A720023E6FB0701FBF768FA74
:10AC3000203502460B46601925F09AFD04E00131EB
:10AC40000A2900F15800BBD1BDE8F041002002B054
:10AC50007047426D002AC5D042463B46BDE8F041F0
:10AC600002B027F07FBB00BF0824002082B02DE98E
:10AC7000F84F82460AA940682E4E81E80C00DDE9B3
:10AC80000C4526F07CFF4768DDF82C90DAF80800C8
:10AC9000D7F80CC033460022B0461968894526D142
:10ACA000D968C9688C4522D1996888421FD1597CDE
:10ACB000E9B94FF0580B0BFB028B584627F0CBFB42
:10ACC00022462B46584627F04DFBDAF808100023A1
:10ACD0003268013201D1727C7AB101330A2B06F15C
:10ACE0005806F5D1BDE8F84F002002B07047013298
:10ACF0000A2A03F15803D0D1E7E75820434308EB71
:10AD0000030048F803904FF000084FF00009C0E935
:10AD10000217C0E906899DF838300371028280F875
:10AD2000502042657B79002BDCD122462B4627F050
:10AD30009CFBD7E7082400202DE9F04700F0D0FF66
:10AD400008B1837AF3B90020BDE8F087037A43F0B5
:10AD500002030372F7E7232BF5D9A5F1E003072BD4
:10AD600023D8F3B2072B20D1EDE7A3689D4225D16C
:10AD700094F80C80FFF72AFA49EA000038EA000844
:10AD80001CD1E0E7104F3B78002BDCD006884568EB
:10AD9000072EA5F10403DBB2DDD1192BD6D9232B65
:10ADA000D1D9A5F1E003072BCDD9084C90F8089034
:10ADB00004F1240AEDB2A388B342D6D00C34544532
:10ADC000F9D100233B70BEE7A6A5002074E405007E
:10ADD00070B500F085FF034608B1827ADAB9002029
:10ADE00070BD01318842FADD32F8025F1C88A5424D
:10ADF000F7D10B4A03F1180615461868596814462E
:10AE000003C40833B3422246F7D1FFF7DFF92B7AA8
:10AE100018432872E3E7034A00215078E2E700BFB5
:10AE2000782700206611002070B54D6804460E4654
:10AE300028462349FBF7CEFA10B92072012070BDD5
:10AE400020492846FBF7C6FA10B901232372F5E71B
:10AE50001D492846FBF7BEFA08B90223F6E71B494D
:10AE60002846FBF7B7FA10B9B3686360E6E71849FC
:10AE70002846FBF7AFFA10B9B3682360DEE715493F
:10AE80002846FBF7A7FA10B90123A373D6E71249A6
:10AE90002846FBF79FFA10B90123E373CEE70F4969
:10AEA0002846FBF797FA08B90223EEE70C49284633
:10AEB000FBF790FA08B90223EFE70020BFE700BFD5
:10AEC0008A33060094330600A0330600AE33060032
:10AED000BD330600CD330600DE330600EF33060037
:10AEE000003406002DE9F047D0F804900469D9F841
:10AEF0000830DFF84CA0236200256381A58109F1A9
:10AF00000C07D9F80830AB4212D939462046FFF772
:10AF10008BFF6E1C804680B978685146FBF75AFA61
:10AF200048B9B6B26681D9F8083025629B1BA38167
:10AF30000020BDE8F087A4F80E8035461037E0E722
:10AF40001134060082B02DE9F84308A94068109C2E
:10AF500081E80C00174626F012FE0569099823685F
:10AF6000666855388200F3B114183C4405EBC40EF2
:10AF7000DFF84890DEF80410314455F8346091FB56
:10AF8000F9F833440E9E434436884FF4B47C09FBF1
:10AF90001811BCFBF6FC93FBFCF60CFB163345F8D2
:10AFA0003430CEF8041002443A440A32002045F806
:10AFB0002260BDE8F84302B0704700BF40420F0076
:10AFC00030B595B01C2200210DA832F0FDF8254DBA
:10AFD00006AC00220DA90023284625F01BF90146E6
:10AFE00000283DD11822204632F0EEF80D9B079341
:10AFF00031F00BFF4FF47A72A0FB020302FB013128
:10B000009DF838308DF82830C00B9DF84C3040EA60
:10B010004140C90B13F00102CDE9080118BF01221C
:10B02000049208AB0FCB8DE80F000FA894E80C003A
:10B0300026F0FBFD139B012BCBD9C3F35E044FF429
:10B04000004540F2E73000214FF47A720023E5FB1F
:10B050000401FBF755F802460B46034825F088FB30
:10B0600015B030BDCC1500201000002084B030B5E4
:10B0700089B00DAC84E80E0043680193037C8DF821
:10B08000083094E80F0003AD85E80F009DF84430C8
:10B09000129A43EA420307930A480022002301A9B7
:10B0A00025F062F8002804DB074831F02EFD28B1B6
:10B0B000002009B0BDE8304004B070470248FFF7F7
:10B0C0007FFFF5E7CC1500201000002070B50025AB
:10B0D0000646056000F0E0FF044678B102F012FB7E
:10B0E00030B901F0ABF8012370603370304670BDA9
:10B0F000064B1B78012BF4D02846F5E702F002FB43
:10B100000028EED023462046EEE700BFA7A500208A
:10B1100008B5094B1B7823B1012B06D06FF08500D1
:10B1200008BDBDE8084028F045B8FFF7A7F9BDE81D
:10B130000840013001F0E8B9E84A002008B5094BA1
:10B140001B7823B1012B06D06FF0850008BDBDE848
:10B15000084028F037B8FFF795F9BDE808400130FE
:10B1600001F0F8B9E84A002037B508490848094D08
:10B170006C4631F0BEFC2046FFF7A8FF94E80300C0
:10B1800085E80300002003B030BD00BF99B1020084
:10B19000A8270020E84A002002490348012205F0C0
:10B1A000D5BF00BFA7A500201435060082B00DF161
:10B1B000080C0CE9030019469DF8003010461BB13D
:10B1C000012B05D0054A00E0054A02B026F020B95F
:10B1D000019B044A02B026F01BB900BF33350600BC
:10B1E000283506002C350600034A034692E8030082
:10B1F00083E8030018467047E84A002030B589B05C
:10B2000001AD0F4C2846FFF761FF94E80C0095E86C
:10B21000030027F02FFC80B927F060FC95E80300BD
:10B220000A2305AA84E80300FFF7C0FF94E803009F
:10B2300003AB83E8030000F041F809B030BD00BF64
:10B24000E84A002008B5074B1A78824208D01870E7
:10B250004FF4F0120023044825F0BEFAFFF7CEFFAA
:10B26000002008BDA7A50020A8270020034B1878C0
:10B27000B0FA80F04009FFF7E5BF00BFA7A50020A6
:10B2800070B50C4615460B4900221E4629F0F1F90F
:10B2900008B9002070BD012C08D10749224630466C
:10B2A000A8470028F6DDFFF7A9FFF2E76FF01500C9
:10B2B000F0E700BF1E350600A7A500207FB56B464E
:10B2C00083E8030093E80300002206AB03E90300D0
:10B2D000039202A8034A029226F0E2FD07B05DF84D
:10B2E00004FB00BFE8E605000268034B9A420CBF6E
:10B2F00008300020704700BFE8E60500084A094B07
:10B300000021117019700121517059700221917042
:10B3100099700321D170D97004211171197170478E
:10B32000E4A50020A8A5002008B50349034841F67C
:10B33000902231F021FF08BDF4E60500F44A002018
:10B3400004281FB530D830BB11B9002004B010BD9F
:10B35000174B1A68012383401343154C9A4223600C
:10B36000F3D08DF800008DF8011031F04EFD4FF450
:10B370007A72A0FB020302FB0131C00B40EA41409C
:10B38000C90BCDE9020104AB13E90F0004B0BDE81D
:10B39000104000F073BC064B1A680029DAD1012373
:10B3A000834022EA0303D8E76FF01500CEE700BF21
:10B3B000D866002013B516496A4629F05AF908B133
:10B3C000009810B9002002B010BD0A2201A926F091
:10B3D000C1F80446019803782F2B16D10A2201A93F
:10B3E000013026F0B7F8019B1B78C2B26BB9049903
:10B3F0000B23E4B203FB0411D20800F00700012381
:10B400008340885C03438B54DCE76FF01500DAE778
:10B41000CF380600F8B50B4E002734465525208856
:10B4200020B1636813B9FEF7B7FA6060013D04F11B
:10B430001004F4D10137052F06F5AA66EDD1284690
:10B44000F8BD00BFF44A00202DE9F04186B00D465A
:10B450001746414901AA0446984629F00AF9E0B185
:10B460000198D0B10A2203A926F074F8039B1E7834
:10B47000002E55D1394CC0B2142303FB0044132DC8
:10B480002A46214628BF13224046B847002801DD3E
:10B490002654002006B0BDE8F081314901AA2046BB
:10B4A00029F0E7F800283ED0019800283BD00A2276
:10B4B00002A926F04FF80646029803782F2B2FD1C9
:10B4C0000A2202A9013026F045F8029B1A783ABBFD
:10B4D0000A2D25D8F6B2042E22D8C4B2542C1FD877
:10B4E000CDE90322ADF8142003A92A464046B84707
:10B4F0000028CFDDBDF80C00FEF74EFA194ADDF842
:10B500000E50DDF81210552303FB06431C0102EB1D
:10B510000313BDF80C601653C3E90105D960B8E701
:10B520006FF01500B6E7104901AA204629F0A1F8EE
:10B530000028AED0019B002BABD1052D28BF0525DF
:10B540000A492A464046B8470028A3DD074908486B
:10B550002A4631F011FE9CE75A3506009112002070
:10B56000CF380600F44A002074350600A8A5002054
:10B57000E4A50020064A002312F8011B814204D0F2
:10B580000133052BF8D1FF207047D8B2704700BFB8
:10B59000E4A5002004289ABF014B185CFF207047E7
:10B5A000E4A50020014B196827F0F8BAD8660020FE
:10B5B000F8B50020FFF7DEFF0A4F04460425AC4231
:10B5C00001DD2046F8BD7E5DFF2E08D03046FFF736
:10B5D000E9FF20B13046BDE8F840FFF7CBBF013DA1
:10B5E000EDE700BFE4A5002004289DBF034B00EB5E
:10B5F000800003EB80000020704700BF9112002004
:10B60000542937B505460C4602D9002003B030BD99
:10B610000428FAD801A8FEF74BFA0028F5DB84428B
:10B62000F3DA019B53F82420542AEED8034855231B
:10B6300013FB052300EB0310E8E700BFF44A0020EA
:10B6400082B073B50C46542C06A981E80C0006465E
:10B6500006D96FF0150002B0BDE8704002B0704727
:10B660000428F6D801A8FEF723FA0028F3DB844269
:10B67000EFDA019B53F82450542DEAD80F4C552390
:10B6800013FB065304EB0314102206A9204631F0E5
:10B6900069FF08B90020DEE7EB080B2212FB063237
:10B6A000074905F00705885C0123AB4003438B5431
:10B6B00006AB0FCB84E80F00ECE700BFF44A002094
:10B6C000ADA50020042870B50C4615D8042913D860
:10B6D00088420FD00A4D2CBF4B1C411C2E5C29BF49
:10B6E000421A221A6918E8183CBF4919401931F06A
:10B6F00051FD2E55002070BD6FF01500FBE700BF17
:10B70000E4A500200F49002270B510460C46012523
:10B7100011F8013BFF2B0CD112F0010307D00023DD
:10B720000133052B08D022FA03F6F607F8D4235488
:10B7300070BD05FA03F31A4301300528E8D16FF014
:10B740001B00F5E7E4A50020042810B50FD8094C2C
:10B75000235CFF2B0BD0C0F10402411CD2B2214468
:10B76000204431F017FDFF232371002010BD6FF03E
:10B770001500FBE7E4A50020042970B505460C463A
:10B7800010D8042811D8C1F10402094ED2B2C2F176
:10B790000401C2F105003144304431F0FBFC355561
:10B7A000002070BD6FF01500FBE76FF01200F8E7A6
:10B7B000E4A50020042870B5044615461AD8132ABB
:10B7C0001BD80F4E00EB8000142206EB800026F001
:10B7D000C0F9132D1CBF142303FB0466094A18BFCC
:10B7E0000023116818BF73550123A3400B43136056
:10B7F000002070BD6FF01500FBE76FF01B00F8E74D
:10B8000091120020F04A002070B5114A114C124DDF
:10B810000021137813F0010317D10133552B0CD1FC
:10B8200014F8010B15F8013B98420ED1013105299E
:10B8300002F10B02EDD1002070BDD81003F0070615
:10B84000105CF04010F0010FE6E70120F4E700BFC4
:10B85000ADA50020A8A50020E4A500202DE9F04F0B
:10B86000DFF814813C4F8BB0002546460024E310DE
:10B8700004F0070AFB5C23FA0AF3DA0707EBE40992
:10B880002BD57068FEF76AF8F268B368ADF8080067
:10B89000CDF80A30CDF80E20002A5AD1002B0CBF6B
:10B8A0004FF0020B4FF0060B14222C4B00210DEB36
:10B8B0000200CDE9005431F037FE5A4602A905A82E
:10B8C00005F044FC002841DB99F80030012202FA1F
:10B8D0000AF223EA020389F800300134552C06F1FC
:10B8E0001006C4D10135052D08F5AA6807F10B072C
:10B8F000BBD11B4C1B482A46214605F027FC0028DB
:10B9000024DB194B22681A60184D2279184E194F02
:10B910001A7100243268E240D30710D53B460E224C
:10B920000021009405A831F0FFFD2846FAF764FDD8
:10B930002946024605A805F009FC002806DB01346B
:10B94000052C05F11405E5D1002030600BB0BDE8F1
:10B95000F08F4FF00A0BA7E7ADA500205E3506007B
:10B96000E4A500206D350600A8A500209112002056
:10B97000F04A002080350600F44A002008B5FFF7A1
:10B98000BDFCFFF7D1FC0A4805F01AFC00280DDBCE
:10B99000084A00231360084A19460133052B5160F9
:10B9A0001160C2F8071002F10B02F6D108BD00BF0A
:10B9B0008E350600F04A0020ADA500202DE9F04F9D
:10B9C0002648DFF8A4A0DFF8A480DFF8A4909BB09D
:10B9D00028F04BFE224923480CAA05F017FC0CADB9
:10B9E000002453460E220021009403A831F09CFD50
:10B9F00003A828F03AFE4FF4AA67DFF878B067434F
:10BA000000260A2208EB070109EB070031F0AAFD26
:10BA100088B1F31006F00702EB5CD340DB070AD5D0
:10BA2000CDE900465B461422002107A831F07CFDD9
:10BA300007A828F01AFE0136552E07F11007E0D1AD
:10BA40000134052C05F10B05CBD1FFF757FCFFF7AF
:10BA50006BFC00201BB0BDE8F08F00BF6D35060009
:10BA6000B5B302008E35060080350600F4E6050009
:10BA7000F44A00205E3506002DE9F0472DED028BDB
:10BA800082B09DED0C8B07460C46164622B1174B33
:10BA90001A68174B43F82120DFF85880DFF85090E0
:10BAA000042505E018F805A0BAF1FF0F08D1013D03
:10BAB0000020FFF75FFD8542F4DA6FF0850010E0AB
:10BAC00059F82410504627F069F80028EFD08DED82
:10BAD000008B334622465146384627F094F800281A
