:020000022000DC
:10600000A0D400209D070300813405007107030020
:10601000710703007107030071070300000000000F
:10602000000000000000000000000000C1080300A4
:1060300071070300000000002D0803007107030032
:10604000E10A0300E1560400E10A0300E10A03004B
:10605000E10A0300E10A0300E10A0300E10A030088
:10606000E10A0300E10A0300E10A0300E10A030078
:10607000E10A0300E10A0300E10A0300E10A030068
:10608000E10A0300E10A0300E10A0300E10A030058
:10609000E10A0300E10A0300E10A0300E10A030048
:1060A000E10A0300E10A0300E10A0300E10A030038
:1060B000E10A0300E10A0300E10A0300E10A030028
:1060C000E10A0300E10A0300E10A0300E10A030018
:1060D000E10A0300E10A0300E10A0300E10A030008
:1060E000E10A0300E10A0300E10A0300E10A0300F8
:1060F000E10A0300E10A0300E10A0300E10A0300E8
:1061000053B94AB9002908BF00281CBF4FF0FF311E
:106110004FF0FF3000F00CB8ADF1080C6DE904CE83
:1061200000F008F8DDF804E0DDE9022304B0704770
:10613000704700BF2DE9F04786468C460846089E0A
:10614000154674461946002B40F0C2808542B2FACB
:1061500082F245D94AB1C2F1200300FA02FC2EFABC
:1061600003F3954043EA0C0C94404FEA154EA8B255
:10617000BCFBFEF8230C0EFB18CC08FB00F943EA2D
:106180000C43994528D9EB1808F1FF3704D29945FB
:1061900002D9A8F102072B44A3EB0903A4B2B3FB75
:1061A000FEFC0EFB1C330CFB00F044EA0344A0424F
:1061B00014D92C190CF1FF3304D2A04202D9ACF14E
:1061C00002032C44241A43EA07401EB1D4400023A2
:1061D00034607360BDE8F0874746DDE76346F1E76A
:1061E00092BB431B01214FEA154EAFB2B3FBFEFC3D
:1061F000200C0EFB1C330CFB07F840EA03439845C8
:1062000062D9EB180CF1FF3004D2984502D9ACF1F9
:1062100002002B44A3EB0803A4B2B3FBFEFC0EFB6D
:106220001C330CFB07F744EA0344A7424ED92C1950
:106230000CF1FF3304D2A74202D9ACF102032C4483
:10624000E41B43EA0040C0E7C2F1200320FA03F157
:10625000954090402EFA03F303434FEA154EAFB238
:10626000B1FBFEFC0EFB1C10190C0CFB07F841EAFD
:106270000041884504FA02F422D969180CF1FF3074
:1062800004D2884502D9ACF102002944A1EB0801EF
:106290009BB2B1FBFEFC0EFB1C110CFB07F743EAA3
:1062A00001439F420ED9EB180CF1FF3104D29F42FB
:1062B00002D9ACF102012B44DB1B41EA004192E719
:1062C0006046E3E76146F7E76046A3E76346B7E762
:1062D000834206D916B9002108467BE7C6E900E0EB
:1062E000F9E7B3FA83F78FB9834201D3724508D82F
:1062F000BEEB020460EB030301209C461EB90021A3
:1063000068E73846FAE7C6E9004CF8E7C7F1200C21
:10631000BB4022FA0CF41C432EFA0CF120FA0CF3C9
:10632000B84001434FEA14490EFA07F5B3FBF9F8F8
:106330001FFA84FE09FB18300B0C08FB0EFA43EA27
:1063400000439A4502FA07F240D9E31808F1FF30FA
:1063500004D29A4502D9A8F102002344A3EB0A0310
:1063600089B2B3FBF9F809FB183308FB0EFE41EACA
:1063700003418E452CD9611808F1FF3304D28E45B4
:1063800002D9A8F10203214443EA0040A0FB02988D
:10639000A1EB0E014145CE46434602D306D14D4501
:1063A00004D2B9EB020E68EB04030138002EA6D02C
:1063B000B5EB0E0261EB030101FA0CFC22FA07F3C4
:1063C0004CEA0303F940C6E9003198E74046C5E7C7
:1063D0004346D9E710F8012B11F8013B012A28BFE9
:1063E0009A42F7D0D01A7047034611F8012B03F8F0
:1063F000012B002AF9D17047034613F8012B002A1C
:10640000FBD1181A01387047F7B5B44DD5F85C3197
:10641000996811F0010124D101AA40F603400BF064
:106420007FFB044600286DD1019CE3681B78ABB963
:106430000CF02EFEBFF35B8FD5F8D430BFF35B8F2B
:1064400005F1D40203F00903BFF35B8F52E8001F8C
:1064500042E800300028F9D1BFF35B8F204622F0DC
:10646000F9FB01AA002141F203000BF059FB04469D
:10647000002847D1019B9A4EDA68D2F80100D2F881
:10648000051003C6184622F0E5FB214601AA41F299
:1064900001000BF045FB0446A0BB0198C3685A7885
:1064A00085F870205A88A5F872201A7985F871202D
:1064B000B3F80720A5F87420B3F80530A5F87630B6
:1064C00022F0C8FB214601AA41F202000BF028FB92
:1064D0000446B8B9019FFA68531C413218685968DC
:1064E000344603C4083393422646F7D17D482DF045
:1064F000A4F8384622F0AEFB95F87C305F0604D451
:106500006FF01204204603B0F0BD01AA002142F250
:1065100003000BF005FB04460028F3D1019B724EEB
:10652000DA68D2F80100D2F8051003C6184622F046
:1065300091FB214601AA42F202000BF0F1FA044657
:106540000028DFD1019CE368B3F8012091B249B182
:10655000D97839B1A5F80421DA78114606F1280076
:1065600033F08AF8204622F075FB95F87C6016F02F
:10657000200618D1022140F66D400BF075FA044652
:10658000002800F0A28002210C3031F05AF90123DA
:10659000037046702146324640F66D400BF0C0FA5B
:1065A00004460028AED195F89C301E0712D501AAEA
:1065B000002142F21C000BF0B3FA04460028A1D1DE
:1065C0000198C368D3F80120D3F80530C5E9382312
:1065D00022F040FB95F8D8305C060FD501AA0021C7
:1065E00042F22A000BF09CFA044600288AD1019856
:1065F000C3685B7885F8203122F02CFB082142F239
:1066000001000BF031FA044600285ED008210C305E
:1066100031F017F995F8D81011F0400F024640F20A
:10662000022308BF032388074CBF43F02C0043F02C
:106630000C0095F8D9308F0648BF40F0400013F0A9
:10664000090F95F8A23018BF40F4006003F006036C
:10665000CE0748BF40F01000062B08BF40F4C070C2
:1066600000212DF08CF92146002242F201000BF0AE
:1066700057FA044600287FF445AF95F87C30B5F80A
:106680000411980624D4C9B901AA41F205000BF0FF
:1066900047FA044600287FF435AFB5F80431019C71
:1066A0004BB9E368B3F80120A5F804219A880F4894
:1066B000114632F0E1FF204622F0CCFA082140F6E4
:1066C00001400BF0D1F9044690B96FF0680419E766
:1066D0000029F3D16FF0040414E700BF200100206B
:1066E00098010020A0010020F801002028020020CD
:1066F00008210C3031F0A5F895F8D830D9070246BA
:1067000053BF4FF000512CA1D1E9000128482DF0D2
:1067100036F92146002240F601400BF001FA04460A
:1067200000287FF4EFAE014601AA4FF601400BF0BE
:10673000F7F9044620BB019822F08CFA214601AA01
:106740004FF602400BF0ECF90446C8B90198C36853
:10675000B3F80130A5F8C13022F07CFA95F8C130C9
:106760005B070DD501AA21464FF603400BF0D8F97F
:1067700030B90198C3685B7885F8C03022F06AFAB6
:106780002DF0CFFC044600287FF4BCAE0DF0D0FE07
:10679000044600287FF4B6AEEB79002B3FF4B2AE8E
:1067A000082104482DF041F80BF048FDAAE600BF8F
:1067B00010880002F4010020908800020080002070
:1067C0002DE9F843D0E90C35D0F82C805C19303431
:1067D000A0450F46164619D81D4DA3FB05011AA367
:1067E000D3E90023FFF78CFC0346A4EB0800A0FBD1
:1067F000050123F07F4414A3D3E90023FFF780FCB5
:1068000020F07F403C603060BDE8F883DFF84090C6
:106810000DA3D3E90023A8FB0901FFF771FC04468F
:1068200005F1300008A3D3E90023A0FB0901FFF71D
:1068300067FC24F07F4420F07F403C603060BDE87E
:10684000F88300BFAFF300808D49FD1A07000000F8
:1068500000CA9A3B000000009FED0D7B124B134ACB
:106860001348144910B483ED007B9FED0B7B82ED40
:10687000007B9FED0B7B104B4FF0FF34002281ED2E
:10688000007B04601A605DF8044B14F0E1BE00BFA9
:10689000FFFFFFFFFF1F00000000000000000000DE
:1068A0001F00000000000000A00200204838002067
:1068B000146D0020980200200C6D002000000000E4
:1068C000002800F05F812DE9F04FB54C94F86A2064
:1068D00012F001058DB040F0A78194F82500FF2348
:1068E00000F0030084F826301EF0DAF994F86A000C
:1068F000420727D494F8292094F8353004EB82021B
:1069000004EB8303D66AD3F8388086B1A4483146B5
:1069100016F022FE33785B0605D5062111F0C8FD7E
:10692000002800F083819E48414616F015FE33781A
:1069300013F00E0F40F0B780236A93B10C200DB016
:10694000BDE8F08F2A4604F16B01C0F3C0001EF0D1
:1069500043FBFF2884F82600CCD028461EF0E6F939
:10696000C8E713F09FFF8146002800F0718113F003
:10697000A5FF8246002800F0688117F01BFA054643
:10698000002800F06781D0F888004FF6FF732B8550
:1069900005F11C0B002800F04F8105F1780105F18D
:1069A0007C0211F091FDB5F876307E4A23F4EF6356
:1069B00023F0070343F4887343F00103A5F876300E
:1069C0001346D2F80120C5F89B21C5F8A12113F880
:1069D000012B9B88A5F89F31A5F8A53195F89A3130
:1069E00002F0010262F3000362F3410385F89A3179
:1069F00095F8393003F03F0363F07F0385F83930B1
:106A000095F88E3023F0070385F88E3095F83C30EA
:106A100023F00703002785F83C304FF4C023C5F866
:106A200088312846C5E91277C5F88870A5F88C70BA
:106A30006F86C5F82E7085F83B702F65A5F88E71AE
:106A4000A5F8847119F084FF85F85071C5F8549148
:106A500017F06EFC95F8943160F3020385F89431D9
:106A600017F06CFC95F8943160F3C50385F8943108
:106A700095F8803167F3410385F88031012128467C
:106A800018F0BCF805F1D40019F0EAFCC4E9189A32
:106A9000C4F820B0C5E905772F70ED611FF0CEFB7B
:106AA000002840F0C58094F824300121C3F342034C
:106AB0000DF12B008DF82B3011F0A4FE02460028BA
:106AC00062D098F80110304616F008FB31233649A1
:106AD000A360364BB4F86870A0FB01010025C01814
:106AE00041F107012CA3D3E90023C4E90555257022
:106AF0006560E560FFF704FB206113F0B7F900F172
:106B000009083FB9357805F00F05A5F10105B5FA7B
:106B100085F56D0994F82400236965F3000010F0F1
:106B2000010584F824004BD0214A0992002010600E
:106B30000225204A204F04930BAE019305920321B6
:106B4000CDE90200069443460090089607972A462E
:106B50000B9513F029F8314613F06AFFA0B91749D5
:106B600005914AF2D8330093CDE90300CDE9010045
:106B70000797089606944346012203210B9512F0CD
:106B8000DFFF43E016F0F6B9236A002B3FF4D6AEE0
:106B900016F0AEF9D2E600BF8D49FD1A07000000DD
:106BA000CC6D0020CDF2050000CA9A3B8C49FD1A3D
:106BB000C06D002059D10300F99F03006DCC030084
:106BC0002B4A2C48049303F2471306940295912113
:106BD0001360A7FB000301FB0731274B0793274BEB
:106BE00005934FF6FF730992022703930BAE1EA382
:106BF000D3E900230B970896FFF782FA4346CDE9C5
:106C000000503A462846032112F0CEFF314613F0D9
:106C10000FFF0028B8D194F86A3043F0010384F8DC
:106C20006A3016F0BBFE60B1002088E6122086E6CE
:106C300016F05EF9032082E605F18000C5F88800B1
:106C4000ABE601201EF00EF8EEE7484613F030FEEA
:106C5000072074E6504613F037FE484613F028FE2E
:106C6000F6E700BFAFF300808D49FD1A0700000072
:106C7000C06D0020002AE784F99F030059D103006A
:106C800070B590F824308AB0C3F342030D46044631
:106C900001210DF1230016468DF8233011F0B2FDCD
:106CA00071780246284616F019FA1F491F4AA0FBC0
:106CB0000131981841F1070119A3D3E90023FFF727
:106CC0001FFA23699842054621D21B1A002201921D
:106CD000174A0293174BA21AA3FB02320221920910
:106CE00000230A4409AE099113490591CDE9033304
:106CF0000321D2B206960093184612F0B5FF314632
:106D000013F096FE38B9256100200AB070BDFBD99A
:106D1000C21A0023DBE70C200AB070BDAFF300807D
:106D20008D49FD1A0700000000CA9A3B8C49FD1AE4
:106D3000CC6D002089888888F99F0300000000003E
:106D400038B5194C9DF810E094F848C01CF00105C6
:106D500023D163F3420C400194F83230A1874FEA0B
:106D6000CE0E0EF0180E00F0200040EA0E0023F0C8
:106D7000380303430D4884F832309121A2FB00030D
:106D800084F848C001FB023105A3D3E90023FFF7D3
:106D9000B7F9C4E91000284638BD0C25284638BD8F
:106DA0008D49FD1A0700000050380020002AE784B2
:106DB00010B504469DF8080022844FEA411CC0002B
:106DC000A17D00F018000CF0200C4CEA000C0C48DF
:106DD00021F038014CEA010CA3FB0002912184F858
:106DE00016C001FB032104A3D3E90023FFF788F9B0
:106DF000606210BDAFF300808D49FD1A07000000EE
:106E0000002AE784000000002DE9F047044600F165
:106E1000350190F8480094F832305B4DDFF88081FE
:106E2000C0F3400060F386138CB084F8323013F066
:106E30006FF894F83220A38F5448E46102F079028D
:106E4000002784F832209121A3FB0002C4E90577D2
:106E5000277001FB03214AA3D3E90023FFF750F970
:106E6000651B626C4A4B6760AD08A3FB053502F1F8
:106E70000903984298BF3A46C5F3470522644FF08C
:106E800031028CBF19460146A26005EB4502E7605E
:106E9000216148F82210064612F0E8FF236A00F14B
:106EA00009074FEA450A002B4AD00DF12C09AA44E4
:106EB00008EB8A030993CDF820900694A38F3348FA
:106EC0004FF00008A3FB0002CDF80C80912101FBDC
:106ED0000321236904932F4B07932F4B05934FF006
:106EE000020A27A3D3E90023CDF82CA0FFF708F965
:106EF000104619464FF47A720023FFF701F9043562
:106F0000EDB2CDE9016003213B462A46CDF8008071
:106F1000404612F049FE494613F08AFD60B994F8E4
:106F2000483043F0010384F8483016F0EBFA08B318
:106F300000200CB0BDE8F0870C200CB0BDE8F08755
:106F40000DF12C09CDE90A3321694B460AAA032029
:106F500001F096F90028AAD10B99104808A3D3E9AB
:106F60000023A1FB0001FFF7CBF80A9B20F07F472D
:106F70001F449CE750461DF075FED9E7AFF3008033
:106F80008D49FD1A0700000050380020002AE784D0
:106F9000BD86F21AF99F03008DD7030000CA9A3B01
:106FA0005C6E0020000000002DE9F04F05468BB01C
:106FB0008B46012002219A46144621F0E3FB002271
:106FC00002218146012011F0CFFA3B494FF4D472DF
:106FD000284611F059FA461DF6B2384B0095324654
:106FE0000121002012F058FE10F0FD0F0CD0344AA1
:106FF0003449354840F62F032AF048FB404080F3DF
:1070000011884FF0030002DF304BA4FB03482046F9
:1070100027A3D3E900234146FFF772F82C4B20F059
:107020007F47A7FB03310722E01A02FB071168EB39
:1070300001014FF47A720023FFF762F8CDE9017085
:10704000CDF800B008950695296995F93940214891
:107050000491214931EA240128BF014605911F4CC2
:1070600007944FF6FE7103915346324601210020EA
:1070700012F066FD10F0FD0F0CD0114A11491248B4
:1070800040F644032AF002FB404080F311884FF0A1
:10709000030002DFB9F1000F02D10BB0BDE8F08FA1
:1070A0000122022110460BB0BDE8F04F11F05CBA8E
:1070B0008D49FD1A07000000A03800205DDD0300A7
:1070C000ECCC0500B0CD050088C7050000CA9A3B8E
:1070D0008D49FD1AD53D04007D3F040005DD030008
:1070E0002DE9F043C469228D4FF6FF739A428DB0AB
:1070F00000F088800546204619F022FF95F82830D8
:10710000012B00F00F81022B00F00281002B00F018
:10711000E18094F85071002F40F0FD80E68DB4F8C6
:107120003080002E71D1AA8C08F101060023CDE930
:107130000A33B6B2002A70D094F93930002BC0F26D
:1071400048810023A4F88A3195F82630D90740F108
:10715000EF800023A4F88E310DF12702314620463E
:1071600019F032FC743000F04681B4F888312BB14C
:10717000B34240F20D819B1BA4F88831B4F88431EE
:107180002BB1B34240F2FB809B1BA4F88431258EC7
:1071900017B9A84500F0EA800135ADB294F8D130B6
:1071A00013F001065AD1DDE90A130A46002B40F01C
:1071B000ED80002900F0DC801E461846228DE4692F
:1071C0000694CDE903570532A74D0290CDE900168C
:1071D000D2B201210020059512F046FD10F0FD0FFE
:1071E00010D013F04FFC84420CD0A04AA049A14813
:1071F00040F215532AF04AFA404080F311884FF0CC
:10720000030002DF0DB0BDE8F083AA8C46440023E2
:10721000CDE90A33B6B2002A8ED195F82630DA07C6
:1072200097D4B4F88A31002B00F08280B34240F248
:10723000FA809B1BA4F88A31B4F88E31002B8BD0D6
:107240009E4280F0DE809B1B9BB20022062BA4F89E
:107250008E31228600F2AC8001277DE794F9392037
:107260006FF30003002A84F8D13077DB94F87600BE
:10727000C0F3C00100F007001EF046FEB4F86E2017
:10728000B4F86C30134403F2D51303447A4A7B48B4
:107290000721E3FB0021104671A3D3E90023FEF789
:1072A0002FFFDDE90A1320F07F422069226190421E
:1072B00035BF161A801A002000260A46002B7FF4DC
:1072C0007DAF56EA010C7FF479AF002850D0194603
:1072D0001E4673E794F88E3003F01803182B7FF4E2
:1072E00018AFA18DB4F886218B1D9A42C4BF931F9D
:1072F0005B1AB4F88211CCBF9BB21346994200F0DE
:107300008C80A4F88231A4F88431A4F8882100E7A5
:107310003D2784F85071394620460DB0BDE8F04352
:1073200017F02AB90023A4F88831A4F88431F0E6D4
:10733000B4F88E31002B83D1628DB4F88C3140F2D9
:10734000E24101FB02F242F2107101FB0323013B17
:10735000B3FBF2F39BB2A4F88E316FE794F8770099
:10736000012100F007001EF0D1FD87E73D4615E73B
:10737000002D4BD000261146304633461EE7002331
:10738000A4F88431204619F0BFFB00E7304615E72A
:1073900013F0E0FA014600283BD00023A4F888311E
:1073A000238DC3801B230371006813F09DFAE5E66B
:1073B00094F939309342BFF6CFAEB8F1000F7FF4A5
:1073C0004BAFD4F878315A08DB0743D4C4F878219E
:1073D000C2E628460AAA0BA904F1D409FFF7F0F97E
:1073E000484619F07FF818B3484619F07BF818B3EF
:1073F00000232386A5E69DF82710204617F0BCF849
:1074000000E70821204617F0B7F8FBE6002FB1D1BE
:10741000F8E60123A4F88831B0E6B4F88811002911
:107420007FF477AE6FE73E21204617F0A5F8E9E636
:10743000FF2017F059F8D7E70246D4E91E0111F0F2
:107440005BF80028D4D194F83C30580744BFA38D92
:10745000238676E642F00042C4F87821FCE600BFBD
:107460008D49FD1A07000000C5DC0300ECCC0500C7
:10747000FCCD050088C705008C49FD1A00CA9A3B5F
:107480002DE9F04F87B0CDE90432BDF844200378F0
:107490000292BDF84820BDF84080BDF84C50468EA1
:1074A000B0F82E90B0F814B1019104460392002B6D
:1074B00000F0CB80013EB6B2A368D4F80C71721B09
:1074C00092B2002B009209DAE168626823F000436F
:1074D00091422CBF7F18BF18A360FF1A009A638DDA
:1074E00013FB02F39BB2B3FBF8F218FB02F080B27D
:1074F00083421FFA82FA80F09780C01A40F2E2427B
:107500005D4902FB00F0A0FB010159A3D3E9002370
:10751000FEF7F6FD20F07F400744D94494F8393057
:107520004D44AD1B554440F2E246DB09E58506FBC0
:1075300008F500F08E80226C0099A36CDFF838B15A
:1075400002FB1133A3641EF0CBFE814694F8740154
:10755000C0F342001EF0C6FE059B814406FB03F308
:1075600005FB09F9236509F57429444B09F23F2904
:10757000A3FB09394FEA994303FB0AF02364A5EB07
:107580000309A36C6A080344963A934228BF134642
:10759000C4E911230023C4F87C31A0FB0B0134A300
:1075A000D3E90023FEF7ACFD049B3F1A3448A0FB4F
:1075B0000330800A06FB00F02DA3D3E90023A0FBD3
:1075C0000B01FEF79DFD20F07F46029BA385039BE8
:1075D000A4F88C3129462046A4F82A8019F030FA04
:1075E000284BA18D2B44881DB3FBF5F39AB2904232
:1075F000A4F8862102D2521A063A92B2019BA4F84C
:10760000822113B10023A4F88E313B464A4631460D
:107610002046FFF7C9FC94F8803143F0010384F859
:10762000803107B0BDE8F08F08FB1231124840F2FC
:10763000E24389B203FB01F1A1FB00010CA3D3E9F2
:107640000023FEF75DFD3F1A67E74E445E44B6B285
:1076500032E7049B0848A3FB000105A3D3E90023FC
:10766000FEF74EFD20F07F46A9460136ADE700BF8C
:107670008D49FD1A0700000000CA9A3B83DE1B43B8
:107680005917B7D17FC3C9012DE9F04F04460B68E4
:10769000077F1668D3F800A0638CD0F81E0095B061
:1076A00015464A7CADF84C30FF2AC7F38013894653
:1076B0000D9212908DF83F3072D198461A4612AB57
:1076C00093E803000DF1400B1090ADF84410F80959
:1076D0000AF1710127680A915B460C900B9716F02E
:1076E00033FE0A99002843D196F89A310C9A0A90F1
:1076F00068F3410362F3000386F89A311098BBF8EF
:107700000430C6F8A101A6F8A531DAF87130C6F840
:107710009B318B88A6F89F31E38D94F83010A972C5
:107720002B81D4F82A306B60D4F83A30AB6105F184
:10773000180094F83E300371052111F063F86B7F57
:1077400000F03F0060F305036B7794F83F30C3F31C
:107750000401A977A18EE981012803F01F0389B2F2
:1077600006D91B3303F01F030B2B01D80A9A59BB10
:107770000022CAF8142095F820300B9862F3000319
:1077800085F82030E56801262146267113F0A2F81D
:1077900028682E71294613F0A7F815B0BDE8F08FC0
:1077A0000DF1400B10460DF13F015A461CF0D0FF81
:1077B0009DF83F80277F08F102085FFA88F88DF86E
:1077C0003F8008F0010282E7D9F800305A60E38E6A
:1077D0002B82EB8940F2E24808FB03F71146638EE7
:1077E0000A93304619F040F994F83F3096F8742126
:1077F0005B0963F3430286F874211EF071FD0C905F
:1078000096F87401C0F342001EF06CFD0C9B184406
:1078100007FB00F0BA4B00F5742000F23F20A3FBF9
:1078200000307B08800C963B6862AB6294F8313084
:1078300008FB03F3AB63238FA6F88C31394630463F
:1078400019F0FEF8AF4BB04AC6F890213B44B3FBA9
:10785000F7F39AB2A6F88621298A881D824204DDB0
:10786000C1F57F41FA310A4492B2A6F882216B68D1
:10787000C6F87831234613F81C2FC2F34018DA07F4
:1078800000F104814FF48073A3839AF826001DF061
:10789000B9FC04F12B03002800F0EE80626AC4F802
:1078A0002B20228D9A800D9BFF2B00F0E980BDF8E4
:1078B0004C301298A4F82930C4F82500BBF80430E5
:1078C000A4F8233010989DF83F30C4F81F00A37728
:1078D000EB8963862B8AA386B6F88C31E38696F80B
:1078E0007431C3F3420384F83830304616F06EFA30
:1078F000A881E08021460B98D9F8044012F0EAFFF5
:10790000AB89E3801C23D4F800B02371B8F1000FD9
:1079100040F0D18084F81C802146584612F0E4FFE4
:1079200095F85B00B5F85080B5F85240012100F0A1
:1079300007001EF0EBFA444404F2D514DFF8D481BA
:107940000444834671480721E4FB080131230024E5
:10795000B360746068A3D3E90023F460FEF7D0FB42
:1079600020F07F4030616D6A0A9A7D1BD9F80C7057
:1079700040F2E24303FB027702212246012010F08D
:10798000F3FD504615F0A4FD07F2B2470246A7EBFF
:107990000B07A7FB0801174657A3D3E90023FEF7FF
:1079A000AFFBCDF804A0D9F808305949009120F078
:1079B0007F48BA1C3A3BD2B220464344012112F020
:1079C000ADF9012800F082809AF82430DB076AD4F0
:1079D000304616F0FBF94F4BA5FB035A044646A36D
:1079E000D3E9002328465146FEF78AFBD9F8083030
:1079F000494A0792A3F13A09484B069620F07F477F
:107A0000A7FB0331E81A464B059340F2D1130893C4
:107A100033694FF0000BCDE903B34FF0070303FBCD
:107A200007116AEB01014FF47A720023FEF768FB3D
:107A30000534E4B2CDE90170CDF800804B46224612
:107A40000121584612F07CF810F0FD0F0CD0354A99
:107A5000354936484FF4E97329F018FE404080F369
:107A600011884FF0030002DF01220221104610F0BE
:107A70007BFD15B0BDE8F08FC4F82B00988012E7AD
:107A80000022C4F82520A4F8292017E7254A284910
:107A90002648F82329F0FAFD404080F311884FF082
:107AA000030002DFEEE60023012200931846114690
:107AB00012F0F2F88CE76B7F43F040036B77281DE0
:107AC0001CF03EFC4FF00108E88323E712F0DAFFD8
:107AD00082453FF479AF134A1649144840F279239E
:107AE00029F0D4FD404080F311884FF0030002DFFD
:107AF0006AE700BFAFF300808D49FD1A0700000060
:107B000083DE1B437FC3C901404B4C008C49FD1AE7
:107B1000993D040000CA9A3B693D04008D49FD1A55
:107B2000D53D04009CD20500B0CD050088C70500F6
:107B30004CCA0500F8D205002DE9F04F8DB01F4664
:107B4000BDF860300793CDE90501BDF868309DF8B8
:107B50005C90BDF864B004930020164615F02CFF2D
:107B6000002800F0658109F001080446404612F043
:107B7000BFF90390B8F1000F6DD1169B03993A46F7
:107B8000404616F0E1FB002840F06381236A04F1CF
:107B90001C020892002B65D0D4F820A0DAF800501F
:107BA00007F0010B9AF85A00C0F3C00100F007007B
:107BB0001EF0AAF9BAF85210BAF8502000F2D51304
:107BC0000A441344CC48CD4A0721E3FB0021104668
:107BD000C7A3D3E90023FEF793FA20F07F40286182
:107BE00030461DF07FF894F833306FF3410384F88A
:107BF0003330FF2384F83430002E00F01D81A9F1CA
:107C00000203012B40F2298194F84810089869F387
:107C1000420184F8481094F833106BF30001DDE959
:107C2000052384F8331016990968616216998988CA
:107C300021850499218600960021FFF7B9F8606438
:107C40001EF0FCFA002840F013812046FFF7DCF814
:107C50000DB0BDE8F08F062110F02AFC00288CD171
:107C60001220F5E712F01EFE0990002800F0738143
:107C700016F0A0F80546002800F06A81203010F0C8
:107C8000D5FD05F11C0A002840F01D81032105F1F6
:107C900024001DF0EDFF079BD5F888006B854FF69B
:107CA000FF73A5F82CB02B85002800F0198105F191
:107CB0007C0205F1780110F007FCB5F8763023F46A
:107CC000EF6323F0070343F4887343F00103A5F83F
:107CD000763095F88E304FF0000B23F0070385F8CF
:107CE0008E300121C5F888B0A5F88CB0284616F072
:107CF00085FFC5F82EB0A5F832B005F134001CF0B0
:107D0000C9FA95F8393060F30503012185F8393057
:107D10000DF12F001DF0ACFF049B9DF82F20A5F85E
:107D20008C31774B85F83BB0A3FB0213DB0803EBE8
:107D30004303A2EB830295F83930A98DA5F88EB1E3
:107D400003F03F0385F8393095F83C30A5F884B14D
:107D5000053223F0030385F83A20079A85F83C3072
:107D600040F2E24B674B0BFB02FB4FF4C0225B443B
:107D7000C5F88821881DB3FBFBF39AB28242A5F8AF
:107D8000862102DD063A521A92B2A5F882212846CF
:107D900018F0DEFD5946284618F052FE099BC5F83A
:107DA0005431002385F8503116F0C2FA95F8942129
:107DB00060F3020285F8942116F0C0FA95F8942138
:107DC00060F3C50285F8942195F88021002363F3C0
:107DD000410285F8802105F1D40018F041FB95F8A7
:107DE0009A21169907F0010B6BF3410285F89A214D
:107DF0003122AA600023169A6B60EB601268C5F806
:107E0000A12195F89A218988A5F8A51169F30002A6
:107E1000039985F89A210A68C5F89B218A88A5F8F4
:107E20009F21C4F820A0C5E905332B70ED61B9E6A8
:107E30000C200DB0BDE8F08F1DF094FB00283FF43E
:107E4000DEAE1699384632461DF0C6F884F8340086
:107E5000D5E60B200DB0BDE8F08F00201CF066FFCA
:107E600094F8333043F00203C14684F83330CBE654
:107E7000256AEB6E63B1244A2449254840F21D432C
:107E800029F004FC404080F311884FF0030002DF2A
:107E900005F1600105F15C0010F01AFB06460028B0
:107EA0003AD02F68EE66D7F85451002D42D02846BC
:107EB00012F0FEFC384615F083FF002303202362F6
:107EC0000DB0BDE8F08F104A12491148C12329F0C6
:107ED000DDFB404080F311884FF0030002DFD5E660
:107EE00005F18000C5F88800E1E600BFAFF300802F
:107EF0008D49FD1A0700000000CA9A3B8C49FD1A03
:107F0000ABAAAAAA7FC3C90128D30500E0CB05000C
:107F100088C70500E4C70500104A1149114840F21E
:107F20001F4329F0B3FB404080F311884FF003005A
:107F300002DFB6E7094A0A490A4840F2264329F017
:107F4000A5FB404080F311884FF0030002DFAEE74D
:107F5000099812F0ADFC07207AE600BF28D305008F
:107F60003CCD050088C705002DE9F04F04468DB0D3
:107F700090F81C80238D406AADF82C30E307C8F3DD
:107F8000C0170E461546C8F340180A9000F10D813F
:107F90000023A383B37C707C13F001031CBFD4F8CF
:107FA0001E30C4F82B3004F12B0214BF638CC4F8CC
:107FB0002B30FF28938004F1250904F11F0240F0C3
:107FC000E5800023BDF82C100A98C4F82530A9F8E4
:107FD0000430A777C4F81F0091803368D3F800906D
:107FE000EB8963862B8AA386B9F83030E3861EF0CE
:107FF00075F984F838002F68384615F0E7FE00213F
:10800000A881E080384618F02FFDD6F804A020683B
:10801000214612F05FFCAB89AAF806301C23DAF87F
:1080200000408AF80430B8F1000F40F0CC808AF8A4
:108030001C805146204612F057FCBB687A6895F8C0
:108040005A00B5F80E80F568674C934238BF134666
:10805000C0F3C00103F1090A00F0070040F2E24357
:1080600003FB08F81DF050FF002202212D1A012009
:1080700010F07AFA484615F075FCA5FB044558A3A4
:10808000D3E90023834629462046FEF739F8CDF888
:108090000490B3685549009120F07F490BF1040228
:1080A000A3EB0A03D2B24B440121002011F036FEAB
:1080B00010F0FD0F0CD04E4A4E494F4840F23D3370
:1080C00029F0E4FA404080F311884FF0030002DF0A
:1080D0004FF0000B5B4603220121CDF800B058465B
:1080E00011F0DAFD384615F071FEB36806463E48D9
:1080F000A3EB0A0AA8FB000139A3D3E90023FDF78B
:10810000FFFF19463D4B08933D4B069340F26D33FC
:10811000079709933B698046CDE904B310460023D5
:108120004FF47A72FDF7ECFF364B0722A9FB0331BF
:10813000CDE9028002FB0911E01A65EB01014FF461
:108140007A720023FDF7DCFF0536F6B2CDE9009028
:10815000534632460121584611F00EFD10F0FD0F36
:108160000CD0234A2349244840F26E3329F08EFA7A
:10817000404080F311884FF0030002DF012202210A
:1081800010460DB0BDE8F04F10F0EEB904F11E013D
:108190001CF0DEFAA37FBDF82C200A98C4F8250055
:1081A0000233A377A9F8042017E7114A16491248A9
:1081B00040F2BD2329F06AFA404080F311884FF065
:1081C000030002DFE4E66B7F43F040036B77281D7A
:1081D0001CF0B6F84FF00108E88328E7AFF3008001
:1081E0008D49FD1A0700000000CA9A3B493F040070
:1081F00028D30500B0CD050088C705004D3F040019
:108200007D3F04008D49FD1A4CCA050000000000A6
:108210000538C3B2042B0CD870B580B20D4615F0EA
:10822000DDFD044618B190F93930002B03DA002047
:1082300070BD0020704790F876000F4EC0F3C0016B
:1082400000F007001DF060FE0C4A00F2B550072157
:10825000E0FB0621104606A3D3E90023FDF750FFFB
:1082600020F07F402860204670BD00BFAFF3008043
:108270008D49FD1A0700000000CA9A3B8C49FD1A7F
:108280002DE9F04F93B0FF240B930B1D0A930023AD
:10829000CDE90E33054616468DF837409B464FF024
:1082A000040A1F469946984610AB0693564B059311
:1082B000564B03930FAB01930EAB002000930223A8
:1082C00010930490029033460DF13702294611F0C5
:1082D00069FD022815D0109BCBB9FF2C26D033683E
:1082E000BB4223D0BAF1000F40D00AF1FF3AFF247D
:1082F0005FFA8AFA8DF83740D6E72946002011F058
:108300009DFD109B022BF8D0109B002BE5D0404A1E
:10831000404941484FF4F77329F0B8F9404080F3E1
:1083200011884FF0030002DFFF2CD8D19DF83700F1
:10833000FF2829D011A9FFF76BFF0028B4D0FF2C2C
:108340000E9F119B0AD041463846099311F090FDCB
:108350000A9B03EB09029042099B17D8B8469DF887
:1083600037403768DDF83CB099469DE72B49284AED
:1083700029484FF4FB7329F089F9404080F31188B4
:108380004FF0030002DFB0E7FF2C34D02448072170
:10839000A9FB000301FB093119A3D3E90023FDF771
:1083A000AFFE044600B140341E4AABF57423A3F57A
:1083B0001073934216D81A480721A8FB000301FB4B
:1083C00008310FA3D3E90023FDF79AFE164BA3FB58
:1083D0000B2304EB93440B9B044400201C6013B05C
:1083E000BDE8F08F0BF1E87B0BF5D43B08F1FF38CB
:1083F0000BF5A57BDFE76FF0090013B0BDE8F08F48
:1084000000CA9A3B00000000594204005D4204008B
:1084100074D30500B8D3050088C70500C0D3050094
:108420008D49FD1ABFBDF07F83DE1B4300000000B5
:108430002DE9F043C668476873683D491A68D0F86B
:108440000090A7F57423A3F510738B4283B0804688
:1084500007D907F1E87707F5D43709F1FF3907F5B0
:10846000A57773681169DD89CDF8049006F11003D2
:1084700001AA0220FFF704FF00284ED10199A1EBC9
:1084800009031B0237D40846494611F0F1FC0346A4
:1084900028480721A3FB000201FB032122A3D3E903
:1084A0000023FDF72DFE34690444002C346109DB00
:1084B00040F2E24305FB03F3A3422FD2E41AA342A6
:1084C000FCD33461D8F800301A48A3EB0903A3FBAE
:1084D0000002072101FB032113A3D3E90023FDF7C9
:1084E0000FFE154BA3FB0737A0EB974020443061EC
:1084F00003B0BDE8F083484611F0BAFC03460D48CE
:108500000721A3FB000201FB032107A3D3E90023FA
:10851000FDF7F6FD3469241AC7E73469002CD1D180
:1085200003B0BDE8F08300BF00CA9A3B0000000022
:10853000BFBDF07F8D49FD1A83DE1B4300000000A4
:1085400010B5334C3349002304F1FF3C14F83320B9
:10855000072A02EB820E05D811F83E206FF3451270
:1085600001F83E201CF833206FF300020CF8332092
:108570000133082BEAD1284A284C002313700A78CB
:1085800063F300020A7091F8282063F3000281F877
:10859000282091F8502063F3000281F8502091F8D0
:1085A000782063F3000281F8782091F8A02063F32B
:1085B000000281F8A02091F8C82063F3000281F83E
:1085C000C82091F8F02063F3000281F8F02091F8C0
:1085D000182163F3000281F81821114A9FED0A7BEC
:1085E0001370104B83ED007B0F4B236028B1BDE867
:1085F00010400E490E4831F006B9BDE810400C4855
:1086000031F00FB9AFF30080FFFFFFFFFFFFFFFF67
:10861000ED790020AC7800207B900020BC77002012
:108620007A90002018410020A0BB0D00194F0400D3
:10863000E8400020000000002DE9F04F8FB00DF160
:1086400037010446DFF8E0A0DFF8E0800DF13600E6
:1086500012F0C8F99DF836309DF837B00B9311F041
:1086600005FCDAF80060A6FB085629A3D3E900232D
:108670000027814631462846FDF742FDCDE90777C0
:10868000069420F07F44DAF80400234B0593A0FB06
:1086900008011FA3D3E90023FDF732FD1F4B20F093
:1086A0007F40A4FB0331072202FB0411CDE90370D4
:1086B000E81A66EB01014FF47A720023FDF720FD02
:1086C0000097CDE901404B460B985A46032111F023
:1086D00037FA10F0FD0404D06FF08B000FB0BDE846
:1086E000F08F0F480F4A002325F046FE20B9DAF834
:1086F0000C000FB0BDE8F08F9DF837209DF83600D4
:1087000000942346032111F0C7FA6FF07300E5E7E8
:108710008D49FD1A07000000695604008D49FD1AB5
:10872000607A0020447B0B00787A002000CA9A3BD4
:1087300038B50F4D044611F099FBA96811F098FB6C
:10874000696803460B48B3FBF4F4A1FB00011C4429
:1087500005A3D3E90023FDF7D3FC20F07F4084423A
:1087600094BF0020012038BD8D49FD1A070000008C
:10877000787A002000CA9A3BF0B5C468636883B079
:108780000546002B63D11FF043FB00201FF066FB62
:10879000002108461FF054FB0022252108201FF06D
:1087A00093FB454B019301A81FF076FB434940F230
:1087B0005B601FF021FC237AC3F3420262F30613CD
:1087C000204623721DF0ACFF1CF0CCFE58BB637A30
:1087D0009B071FD127682E6838461DF033FB0644DF
:1087E0006A6806F1090101201FF060FD1FF04CFED0
:1087F000204614F079FE811C3246C9B238461DF07D
:108800002FFB054670BB20461DF0B6FA88B9002044
:1088100003B0F0BD01201CF019FA4178821C0078E9
:108820001FF0E4FCD6E7607A10F0030018BF0120C7
:10883000F1E7234A2349244840F22C4328F026FF3D
:10884000404080F311884FF0030002DFDFE793F828
:1088500020309A0797D01D4821461FF097FA1FF045
:1088600085FBD4E7164A1A49174840F2144328F00A
:108870000DFF184B0721A5FB030301FB05310CA3DA
:10888000D3E90023FDF73CFC13490246134828F0C6
:10889000FDFE404080F311884FF0030002DF1048D6
:1088A00021461FF073FA1FF061FB6FF08B00AFE7FA
:1088B00000CA9A3B00000000D6BE898E555555006F
:1088C0006CD70500F4C8050088C70500E95F0400FF
:1088D00008C805008D49FD1A1CD80500F0D7050011
:1088E000F1620400000000002DE9F041C46894F931
:1088F0001630002B8CB0C0F2FF80636805460E4630
:10890000002B40F0EE80A37D6FF30003A3751FF0F2
:108910007FFA00201FF0A2FA002108461FF090FA0B
:108920000022252108201FF0CFFA012012F05CF967
:108930000746002800F0C78007F11C001FF0EEFA80
:10894000874B0B930BA81FF0A7FA864940F25B6098
:108950001FF052FBA07DC0F3410025301DF092FABC
:10896000814821461FF012FAA37D9B0603D4636859
:10897000002B00F0A58096201FF08CFC00231A46E7
:10898000194618461FF09EFB1CF0ECFD002838D15C
:10899000A37D13F0180F59D1D4F800802F684046FA
:1089A0001DF050FA07446A6807F1090100201FF022
:1089B0007DFC1FF069FD1FF0F5FB204614F0E0FF81
:1089C000011DC9B240463A461DF04AFA80460028C9
:1089D00040F0998016B9636A002B4ED1636843B1A9
:1089E000624B0122022100209D600FF0F3FD002860
:1089F00035D120461DF0C0F9D0B900200CB0BDE83B
:108A0000F081A07DC0F3C0001CF020F907460DF1F5
:108A10002B001CF01FFC79788046BA1C38781FF0B8
:108A2000E5FB9DF82B00002241461FF0FDFDB3E75A
:108A30004F4A5049504840F20B2328F027FE40404F
:108A400080F311884FF0030002DFD6E701201CF00D
:108A5000FDF84178821C00781FF0C8FB9CE7444A6F
:108A60004649454840F2062328F010FE404080F376
:108A700011884FF0030002DFBBE7414A0792414AE9
:108A8000059240F2F31200930892CDE90366CDE916
:108A9000016606943B463146032211F051F810F06E
:108AA000FD0F9BD0324A384933484FF4FA7328F00F
:108AB000EDFD404080F311884FF0030002DF8DE7A9
:108AC0001FF060FB60E72A4A30492B484FF4C5731A
:108AD00028F0DCFD404080F311884FF0030002DFF6
:108AE0002AE7636893F82030D90705D4636893F8C0
:108AF00020309A077FF507AF254821461FF046F939
:108B00001FF034FA79E71A4A22491B4840F2E5136C
:108B100028F0BCFD204B0721A8FB030301FB083113
:108B20000DA3D3E90023FDF7EBFA1C4902461C48CC
:108B300028F0ACFD404080F311884FF0030002DFC5
:108B4000184821461FF022F91FF010FA6FF08B0031
:108B500054E700BFAFF3008000CA9A3B000000005A
:108B6000D6BE898E55555500498C0200980D0020BF
:108B700028D80500F4C8050088C70500FCC8050012
:108B8000696E0400096F04002CCB0500B8D70500FE
:108B9000E95F040008C805008D49FD1A74D8050076
:108BA000F0D70500456D040038B504461EF07AF88C
:108BB000A37DA27DC3F34103013303F00303032B21
:108BC00008BF002363F3420214BF03F125002520F0
:108BD000A2751DF057F963680BB123694BB911F009
:108BE00045F9C11C00201FF0D5FBBDE838401FF03F
:108BF0004BBC1FF0FDFB054611F038F9C11C0020ED
:108C00001FF0C8FB1FF040FC1FF0F2FB294611F0DB
:108C10002FF90B4A03460721A0FB020201FB0321A7
:108C200005A3D3E90023FDF76BFA23691B1A23611F
:108C300038BD00BFAFF3008000CA9A3B00000000BF
:108C40008D49FD1A000000002DE9F0478AB0044666
:108C50001FF0BEF9C0B250B91DF06CF9C4482146EE
:108C60001FF094F80AB0BDE8F0471FF07FB91FF07D
:108C7000CFF905461FF0EEFA07461FF0F5FA8146D8
:108C80001FF02CFD06461FF00BFD82461FF0A4FAD4
:108C9000EDB280461FF084FA1DF04CF9002DDDD0B6
:108CA000012011F0A1FF0546002800F04D8117F0CA
:108CB000FF07F6B240F0E380002E40F0DA804FF07C
:108CC000FF093A464B46314620461EF011FA00286D
:108CD000C4D02A7F616800238DF823305FFA88F7BB
:108CE00002F00F03002900F0EC80616891F8201079
:108CF000880700F1E680072BB0D0A17D090740F17D
:108D00004381002B40F0C4806B7F063B1F2BA5D80E
:108D1000042011F069FF0028A0D01FF0BDFB636A9A
:108D2000074643B9238C40F2712202FB03F3B0FBE8
:108D3000F3F203FB120723681A698E4B0721A2FB8B
:108D4000030301FB023188A3D3E90023FDF7D8F91F
:108D50006FF44A7C00EB0C03BB42FFF47FAF1FF0C3
:108D600011FA484663681CF05BFAE37D9907804678
:108D700040F1E581002800F0E281824601271FF0E2
:108D800055F9CDE9027A09AB049305F11E0301936D
:108D90002B7FC3F380130146074600930022012373
:108DA00020461EF0BFF938461FF0BEF81FF006F946
:108DB000002840F0CA81704821461EF0E7FF626833
:108DC00092F8203043F0010382F82030A37D43F075
:108DD0008003A37511F02AFF172202714FF6FF726C
:108DE000C28095F81CC082463B46CCF3401C00F183
:108DF0001C0207F1200E1D6858689968DF68D7606B
:108E00001033734515605060916002F11002F2D189
:108E10001B6813609AF81C30CAF808406CF34513BD
:108E20008AF81C301FF0E4FA002ECAF81000099BE3
:108E3000CAF8143008BF4FF0FF098AF81990E37D93
:108E400013F0020303D0B8F1000318BF01239AF80E
:108E50001A2063F300028AF81A2011F0E7FECAF81C
:108E60000C00DAF8000051460AB0BDE8F04711F0F6
:108E70000BBF5FFA8AF01CF061FA814621E7A07D02
:108E80005FFA89F1C0F3C0001CF0EEF9814618E7E3
:108E9000012B40F089806A7F0C2A7FF4DFAE2A7FA5
:108EA000CDF80090194600230193D20905F124035F
:108EB00020461EF071F800287FF42AAF2B7F03F0C4
:108EC0000F03002B70D16B7F052B7FF6C7AE252BD0
:108ED0003FF6C4AEA27D02F02102202A09D16268C9
:108EE000002A00F0C180052B7FF6B8AE252B3FF697
:108EF000B5AE63682BB12B7F03F00F03072B7FF414
:108F0000ADAE03209DF8238011F06EFE05460028CB
:108F10003FF4A4AE11F08AFE4FF6FF73EB800523F9
:108F20002B71002F3CD17F20AB7E2876002E08BF0E
:108F30004FF0FF0968F34103286885F81990AB7674
:108F4000294611F0A1FE89E60C4A0D490D4840F270
:108F5000C72328F09BFB404080F311884FF00300AB
:108F600002DFA4E6AFF3008000CA9A3B00000000D5
:108F70005D6D04008D49FD1A4D6F040028D8050071
:108F8000B8D7050088C70500B9F1FF0F8DF8249008
:108F9000C2F380184BD0227E91453FF4B2AE90E7E9
:108FA0001FF00AF9C0B2BFE7062B8CD04521D9408B
:108FB00011F0010139D1012B10D16B7F0C2B7FF403
:108FC0004DAE2A7FCDF800900DF123030193D20915
:108FD00005F1240320461DF0DFFF08BB2B7F03F0C3
:108FE0000F03042B7FF43AAE6B7F063B1F2B3FF63B
:108FF00035AEA37DDB077FF531AE1FF017F82B7F71
:109000000278C3F38013B3EBD21F7FF427AE08308E
:10901000062205F11E0130F080FF00287FF41EAE0D
:109020006B7F002B7FF465AF18E66B7F5BE705F184
:109030001E0A09AA514640461CF036FA00283FF4A1
:109040003DAFE37D03F0010343457FF437AF514665
:10905000062204F1080030F060FF00287FF42EAFF4
:109060002B7F03F00F034CE6962007921FF012F9B6
:10907000079A10461EF0DEFF032011F0B5FD804672
:1090800000283FF4EBAD11F0D1FD4FF6FF73A8F8C7
:109090000630052388F80430002F64D17F23002E8A
:1090A00088F8183014BF4B46FF2388F8193098F819
:1090B0001A30D8F800006FF3410388F81A3041469F
:1090C00011F0E2FD1EF0B2FF06460322337862F390
:1090D000030333702B7F3278C3F3801363F3C7121B
:1090E0000C233270484673701CF09AF8E27D9207A8
:1090F0003DD500283BD03178324641F0400102F89E
:10910000021B0168C6F8021083889380D5F81E30D0
:10911000B3606B8CB38130461EF006FF1EF04EFF2D
:10912000002835D11FF0B0F9A37D204843F001039A
:109130002146A3750AB0BDE8F0471EF027BEA77D03
:1091400004F1190AC7F3801719E6194A19491A4890
:1091500040F2A44328F09AFA404080F311884FF07F
:10916000030002DF27E61FF027F8C3B297E7A37DCD
:109170003278C3F3801363F38612334603F8022B6D
:10918000D4F81920C6F80220B4F81D209A80BDE753
:10919000074A084908484FF4A56328F077FA404089
:1091A00080F311884FF0030002DFBBE7716D04000C
:1091B00028D80500C0D7050088C7050000000000BA
:1091C0002DE9F041C468A2894FF6FF739A4282B03C
:1091D00000F0C78005461EF0A9F82B89628AE08A54
:1091E0001A4492B21044637FA28280B2411CE18291
:1091F0005E064FF00001618204F1180100F18C80DD
:1092000003F03F000B46A17F009004F11F001BF00C
:109210004FF80646D4E90B231344D4E90D0200218C
:109220000244E1626163A16AA26394F872208B42F6
:1092300028BF0B4612F00402236377D01EF0E8FD2E
:1092400000201EF00BFE201D1EF026FE2389A17AB1
:1092500040F25B6043EA01411EF0CEFE30461CF056
:1092600011FE214658481EF091FD96201FF012F87D
:1092700094F85A2094F85B00C2F3C003002102F076
:10928000070200F007001EF01DFF20461EF0B0F898
:1092900027682E6838461CF0D5FD06446A6806F13A
:1092A000090100201FF002F880461FF0C1F80020DD
:1092B0001FF0D8F8236B94F85B0003F13002A36B26
:1092C00000F00700012103EB42051EF03BFE454480
:1092D000054494F85B0000F00700022824D004281D
:1092E0000CBF4FF4BC73282301211D441EF02CFE3B
:1092F00028441FF08FF8A18905313246C9B238469B
:109300001CF0AEFD054698BB20461CF035FDD0B9DB
:10931000002002B0BDE8F0810A4603F03F03E18B74
:109320001BF012F8064675E71823DDE7D4E91701AC
:109330000FF0E2F8002881D194F8723043F0040372
:1093400084F872307AE7214A2149224840F25513C5
:1093500028F09CF9404080F311884FF0030002DFB1
:10936000D6E71D4821461EF011FD1EF0FFFDCFE798
:10937000164A1A49174840F24B1328F087F9184B40
:109380000721A5FB030301FB05310DA3D3E900234E
:10939000FCF7B6FE13490246134828F077F940401F
:1093A00080F311884FF0030002DF104821461EF0C1
:1093B000EDFC1EF0DBFD6FF08B00AAE7AFF3008041
:1093C00000CA9A3B0000000049760400F4D805006A
:1093D000F4C8050088C70500E95F040008C8050057
:1093E0008D49FD1A48D90500F0D70500C55F040076
:1093F000F0B5C468A2894FF6FF739A4285B000F0B9
:109400008B8005461DF092FF2B89628AE08A1A4400
:1094100092B21044637FA28280B2411CE1825E0658
:109420004FF00001618204F118015FD403F03F00A6
:109430000B46A17F009004F11F001AF039FF064689
:10944000204603A91EF0A2F8039B94F872101A7824
:1094500061F3C3021A70039A94F872301178C3F35F
:10946000400363F3820111701EF0D2FC00201EF055
:10947000F5FC201D1EF010FD2389A17A40F25B60EF
:1094800043EA01411EF0B8FD30461CF0FBFC039995
:1094900020461EF04FF8214637481EF077FC9620F4
:1094A0001EF0F8FE94F85B0000F007001EF0C2FD0D
:1094B00027682E6838461CF0C5FC06446A6806F129
:1094C000090101201EF0F2FE1EF0DEFFA189053128
:1094D0003246C9B238461CF0C3FC054618BB2046CC
:1094E0001CF04AFC50B9002005B0F0BD0A4603F05C
:1094F0003F03E18B1AF028FF0646A1E71F4A2049E7
:10950000204840F2031328F0C1F8404080F311884E
:109510004FF0030002DFE6E71B4821461EF036FC51
:109520001EF024FDDFE7154A18491648F92328F0F4
:10953000ADF8174B0721A5FB030301FB05310CA375
:10954000D3E90023FCF7DCFD12490246124828F05B
:109550009DF8404080F311884FF0030002DF0F4870
:1095600021461EF013FC1EF001FD6FF08B00BBE7DF
:1095700000CA9A3B000000007D74040054D9050025
:10958000F4C8050088C70500E95F040008C80500A5
:109590008D49FD1AA4D90500F0D70500C55F040068
:1095A0002DE9F0472DED028B9FED498B4A4E84B09B
:1095B00004464FF02003EFF3118783F31288BFF3C3
:1095C0006F8FD4F8C8508DB9022104F1E00030F05B
:1095D00063F8002843D100238DED008B029304F142
:1095E000D00239463D4825F0A5FBE2E7D4F8CC206F
:1095F0002B68C4F8C830954208BFC4F8CC30D4F802
:10960000E03043F00203C4F8E030EB6823F00403D9
:1096100043F00103EB606B6887F31188BFF36F8F32
:10962000284698474FF02003EFF3118983F31288FF
:10963000BFF36F8FEB68990723F0010219D4EA603A
:10964000D4F8E03023F00203C4F8E03089F3118845
:10965000BFF36F8FDB05ACD425F04CFAA9E704F11A
:10966000D80500220121284630F01CFA0028F8D144
:10967000B1E7306823F00303EB600028E0D0002757
:10968000D0F80080BA460028DAD0426895420146F8
:109690000BD1016897B972683160824200D1716064
:1096A00040F808AB24F042FE3946B8F1000F0BD069
:1096B000D8F8002040460F469046E4E739607268CB
:1096C000824208BF7760EBE74246F3E7AFF30080E2
:1096D000FFFFFFFFFFFFFFFF708A0020A390002025
:1096E000014824F025BF00BF5003002007B530F02B
:1096F00016FA4FF47A72A0FB020302FB0131C00B91
:10970000074A40EA4140106000234FF400420548F8
:10971000CDE9002325F0ECFC002003B05DF804FB4C
:109720000045002000110020014B187800F096BB86
:10973000348B0020044B1A78824202D01870FFF755
:10974000F3BF0020704700BF348B002008B530F015
:10975000E6F94FF47A72A0FB020302FB0131084ADA
:10976000C30B126843EA41439B1A47F230529342BB
:1097700004DDBDE808400120FFF7DCBF08BD00BFE5
:109780000045002008B530F0CAF94FF47A72A0FB0A
:10979000020302FB0131C00B044A40EA4140106061
:1097A000BDE808400020FFF7C5BF00BF004500200E
:1097B000014B1878704700BF348B00202DE9F04131
:1097C000194C1A4E1A4D1B4F92B0B44203D30020CD
:1097D00012B0BDE8F081B4F80480B8F1000F21D1D7
:1097E0002068F8B10368EBB12FF0A9FDD0B12B8848
:1097F00001339BB22B80A3802022009341463B463D
:1098000002A830F06CFB23680B4A1B6820210AA8D1
:1098100025F054FD0AA8FCF7EFFD0AA9024602A8AC
:1098200006F000FB0834D0E7B815002058160020D9
:10983000888A0020F2E105008CE205002DE9F04F56
:1098400083B000AF0D46164620493A469A4628F0A6
:10985000D8FB80B1386870B10A22391D25F0D0FDDF
:109860007B6893F800B0E8460446BBF1000F06D0D1
:109870006FF01500C5460C37BD46BDE8F08F3F2D93
:10988000F6D805F1080323F00703ADEB030D2A46D4
:1098900069465046B0470028E946EBDD0DF805B0B3
:1098A0000B4E0C4DB542E3D22B6848461968FCF7C5
:1098B00091FD40B9084BA2B21C88AA80944238BFDF
:1098C00014461C80D6E70835ECE700BF07E2050028
:1098D00058160020B8150020888A0020F8B50446E4
:1098E00010B900252846F8BD0378002BF9D00F4E9B
:1098F0000F4FBE420FD30D4EBE42F2D230682FF052
:109900001EFD30B1356821462868FCF763FD00284C
:10991000E8D00836F0E730682FF011FD18B135684F
:109920002B68A342DED00836E3E700BF600E0600D6
:10993000000F060070B5054698B94FF6FF7070BD70
:109940000834B442F9D220682FF0F9FC0028F7D08F
:10995000236829461868FCF73DFD0028F0D1A0884F
:10996000EDE7014C014EECE7B81500205816002039
:1099700070B5094C094E0546B44201D3002008E0F9
:1099800020682FF0DCFC28B1A388AB4202D1236809
:10999000186870BD0834EFE7B8150020581600208D
:1099A00070B5194C194D8CB00022002303A9204634
:1099B00024F078FB08B10CB070BD2B68059E586888
:1099C000DDE9031226F0AFF90028EDDBFF238DF867
:1099D0001830B6FA86F35B0907908DF8203030F026
:1099E0009EF84FF47A72A0FB020302FB0131C00B18
:1099F00040EA4140C90B8DE8030006ABCDE90A01FE
:109A00000FCB00F045FACFE74C120020684600204B
:109A10001FB50A4C2468A46884420DD183F0010369
:109A2000CDE90112039306480022002301A924F086
:109A3000E3FA044824F07CFD04B010BD6846002021
:109A40004C120020584600201FB50023CDE90233F8
:109A5000044B8DF80C0001A8019326F08DF905B098
:109A60005DF804FBD0AA05000268034B9A420CBFC4
:109A700008300020704700BFD0AA0500014B0360EA
:109A800001207047B8AA0500014B036055207047BC
:109A900004450020044B1A68044B9A4214BF6FF02F
:109AA00012000020704700BF68460020BCAA0500D5
:109AB00008B5074B93F90010002906DBFFF7EAFF12
:109AC000C0B2401A18BF012008BD0020FCE700BF4B
:109AD0002410002007B5FFF7DDFF0DF107018DF819
:109AE00007000122024806F09DF903B05DF804FB6F
:109AF00019E2050038B5044600282FD0194D2B680F
:109B0000834229D053B1986840B183685B6803B140
:109B100098472B680021986804F078FF1249134B8E
:109B20008C4214BFED2100215522002026F015F9AA
:109B3000002812DBA0682C6070B1012104F066FFE0
:109B40002B68986883680A491B6898472B6898684F
:109B500083689B6803B19847002038BD6FF01200FE
:109B6000FBE700BF68460020BCAA050004450020B2
:109B7000119A020038B5054648B90648FFF7BAFF02
:109B8000041E02DB2846FFF75FFF204638BD6FF05A
:109B90001504FAE7BCAA0500F7B50C4615460D49B1
:109BA00001AA1E4628F02DFA68B1019B6BB9012C61
:109BB0000DD1094F224639463046A847002802DD1C
:109BC0003878FFF7D7FF03B0F0BD0020FBE76FF058
:109BD0001500F8E72AE20500241000200148FFF7ED
:109BE00089BF00BFBCAA050008B50B480B492FF080
:109BF000C6FD0B4828F037F818B10948012128F0B4
:109C00000FF8084A002342F8043B0133552BFAD1E0
:109C1000BDE80840FFF7E2BF58460020A1990200C6
:109C2000C8A4050004450020F8B50F4D0F4E761B63
:109C300007460C4605EBC105C6F3C706A64201DC84
:109C400000200CE02A683B689A4209D13C716B689D
:109C500038461B68984718B1431E012BF0D9F8BD50
:109C600001340835EAE700BF54F70500E4F70500C2
:109C700070B40D4B0D4CE41A0022C4F3C704944297
:109C800003DC6FF0150070BC70471E680568AE42BB
:109C900002F1010206D15D688D4203D170BCD1B2E0
:109CA000FFF7C2BF0833EAE754F70500E4F7050001
:109CB0000D4B0E4AD21A70B4C2F3C7020024A2425E
:109CC00003DC6FF0150070BC70471E680568AE427B
:109CD00006D15D688D4203D1E1B270BCFFF7A4BF2D
:109CE00001340833EBE700BF54F70500E4F7050043
:109CF00000B58BB0064B074A2821684625F0DEFAEE
:109D000005490122684606F08DF80BB05DF804FBAA
:109D100072E205007CE20500358B00202DE9F84356
:109D20004768044600254FF001087B68AB420DD818
:109D3000214922482FF067FDA3681B680BB120461C
:109D40009847398939BB0020BDE8F8833A6802EBAF
:109D5000C50352F835001979DB88D0F810C0D0F867
:109D60000890DCF80060DA0754BF43F4B01383F4C2
:109D7000D01323F4801208FA01FEDB074CBF46EA39
:109D80000E0626EA0E06CCF80060D9F80030984797
:109D900070B90135C9E740F2E7304FF47A72002319
:109DA00000EBC1300021FCF7ABF924F025FFCAE736
:109DB0006FF00400C8E700BFF19C0200801600208D
:109DC00008B5074B5A784AB901221A700548002293
:109DD000002324F015FC044825F0E4FF002008BD12
:109DE000358B00208016002098A4050008B54FF49C
:109DF000F0120023024824F037FC00EAE07008BDAE
:109E000080160020F7B50C461646114901AA1F46D8
:109E100028F0F7F8B0B1019BA3B9012C15D10D4D75
:109E2000224629463846B047002806DB2B780A48E8
:109E30006C7023B125F0B6FF002003B0F0BD25F013
:109E4000CDFFF9E76FF00100F7E76FF01500F4E7D9
:109E500072E20500358B002098A405001FB5002391
:109E6000CDE90233044B8DF80C0001A8019325F0D5
:109E700083FF05B05DF804FBF4AA05000268034BFC
:109E80009A420CBF08300020704700BFF4AA0500BA
:109E900084B030B589B00CAC84E80F000023019386
:109EA0000CAD084B00930FCD02AC0FC495E8030036
:109EB00084E80300684625F05FFF09B0BDE8304044
:109EC00004B07047F8AA05000268034B9A420CBF21
:109ED00008300020704700BFF8AA050084B030B5F4
:109EE0008BB00EAC84E80F00002301930EAD084B3D
:109EF00000930FCD02AC0FC495E80F0084E80F006B
:109F0000684625F039FF0BB0BDE8304004B070471B
:109F1000FCAA05001FB50023CDE90233044B8DF8E0
:109F20000C0001A8019325F027FF05B05DF804FBA4
:109F300000AB050082B038B504A981E80C000546E5
:109F4000114823F015FE0446A0B1AB68012B0CD0DC
:109F5000022B05D0A3B9BDE8384002B025F088BF78
:109F600025F08DFF00282046F5DCBDE8384002B022
:109F700025F077BF6FF00400BDE8384002B07047AD
:109F80006FF08500F8E700BF72E2050082B010B5FF
:109F900002A981E80C0004460B4823F0E9FD78B1E2
:109FA000A368022B04D00020BDE8104002B0704727
:109FB00025F065FF0028CCBF00200120A060F2E75B
:109FC0006FF00400F0E700BF72E20500014B187863
:109FD000704700BF398B00200D4A52F82030013302
:109FE00042F820300B4A0123117883400B430A4981
:109FF0000978DBB2137023EA01030849084A09789B
:10A0000050780B43181A537018BF0120704700BFD7
:10A010006C460020398B0020378B0020388B0020C5
:10A020002C10002010B5114A52F82030002B19DDF9
:10A03000013B42F820300E4A2BB9137801218140B0
:10A0400023EA010313700B480B4B047810780B4A7A
:10A050005978127820EA040010435870401A18BF4B
:10A06000012010BD6FF01500FBE700BF6C4600201B
:10A07000398B0020378B00202C100020388B0020DB
:10A08000044A012312788340D8B213401B1A584265
:10A0900058417047398B002010B5084B084A18709A
:10A0A000084B51781C78084B1B7823EA04031843AB
:10A0B0005070401A18BF012010BD00BF388B00201F
:10A0C0002C100020378B0020398B0020074B0022FA
:10A0D0001A70074B074A1978074B50781B7823EA08
:10A0E0000103181A537018BF01207047388B0020E5
:10A0F000378B00202C100020398B0020074B084A9A
:10A100001870084B51781B7823EA00030648007842
:10A1100018435070401A18BF01207047378B002039
:10A120002C100020398B0020388B0020074B084969
:10A1300000221A70074B084A1B78097850780B43A5
:10A14000181A537018BF0120704700BF378B0020CA
:10A15000388B0020398B00202C100020A0F1E00368
:10A16000072B03D82030C0B2FFF736BF064B0622BC
:10A1700013F8011F19B1013AFAD100207047187085
:10A180000028F8D0F9E700BF2E100020A0F1E0036E
:10A19000072B10B405D820305DF8044BC0B2FFF790
:10A1A00041BF0023064A194612F8014F0133A0426D
:10A1B00008BF1170062BF7D100205DF8044B7047E3
:10A1C0002E100020A0F1E003072B03D82030C0B2EE
:10A1D000FFF756BF064A002312F8011F884204D039
:10A1E0000133062BF8D1002070470120704700BFD3
:10A1F0002E100020024B00221A605A60704700BFE8
:10A200002D100020FF280DD8084B002213F8011F45
:10A2100021B10132062AF9D10020704718700028B8
:10A22000F7D0F9E76FF08500704700BF25100020D8
:10A2300010B50023054A194612F8014F0133844234
:10A2400008BF1170062BF7D1002010BD251000208B
:10A25000024B00221A609A80704700BF261000202F
:10A26000054A062312F8011F814203D0013BF9D1B0
:10A27000184670470120704725100020004870479D
:10A280002C10002000487047251000202DE9F041D7
:10A290000B4E337883B10B4CDFF82C80002542F253
:10A2A0000F772046414601352FF0ADFA0A2D44F8CC
:10A2B000207C04F15804F4D100203070BDE8F08116
:10A2C00035100020101D0020C90105002DE9F041C6
:10A2D000C269037ED17D90B0044609B1032B3DD005
:10A2E000023B012B517D07D8002937D1204610B001
:10A2F000BDE8F04125F03EBF21B1937D13B9204662
:10A3000025F0D6FE0AAD1822002128462FF0CCFDFC
:10A31000D4E90467D4F8008023798DF8383010220E
:10A32000002106A8CDE90C67CDF82C802FF0BCFDEC
:10A33000E3699B680793E36808930A4BC3E90267E4
:10A34000C3F800800123049310AB13E90F008DE8DC
:10A350000F0006A895E80C0025F0D3FB10B0BDE86F
:10A36000F08100BF000000200B4A30B500230446F6
:10A37000282000FB03F18D18515C41B90FCC0FC5AB
:10A380000FCC0FC594E8030085E8030030BD01330E
:10A39000282BEED1FAE700BFB01600202DE9F843D4
:10A3A000027E0346002A6ED13B4D2A6882426AD162
:10A3B000D269547D24B119B9BDE8F84325F0DABE5D
:10A3C000107D032828D8DFE800F0020E1F60013955
:10A3D000042921D8DFE801F01E0320051E00022118
:10A3E00019E0032117E00139042915D801A050F81C
:10A3F00021F000BF15A4020019A40200DFA302008F
:10A40000E3A3020015A402000429EAD001F0FB0135
:10A41000012901D101211976197EA1B3D069002843
:10A420000DDD5C6D611C0AD01C32002152F8046FF6
:10A43000A64204D001318842F8D101221A760022C6
:10A4400018462A60FFF742FF2C68E4B9134EDFF884
:10A450005080A14616F8087CAFB12B6806F8089C1E
:10A4600023B14FF4A470002124F0C6FB012F01D0CA
:10A47000022F03D141463046FFF71AFC0134282C45
:10A4800006F12806E6D1BDE8F8830229A7D0BFD996
:10A4900004390129BED9BFE7AC460020B816002018
:10A4A0003CAC050082B02DE9F0412F4E06A981E8B1
:10A4B0000C000024582202FB04F0851931588B420D
:10A4C0004AD1203030442FF0ACF9EB691968D5E956
:10A4D00004238A1843EBE17308998A42099A93414D
:10A4E000804603DA04212846FFF758FF582707FB68
:10A4F000046701212846FFF751FFFB69DB7D53B15B
:10A500003B7E032B07D1284625F0FCFD012328467E
:10A510003B76FFF7DBFE284625F0F4FD582303FBCE
:10A520000463DB695A7D22B19B7D13B1284625F077
:10A53000BFFD18F1770F4FF058031DBF5C4342F287
:10A540000F72331903FB046317BF3251012200223B
:10A550001A7683F8502002E001340A2CABD1BDE812
:10A56000F041002002B07047F01C002082B02DE9BD
:10A57000F047044608A9406881E80C0025F06BFA12
:10A580003B4B1D687DB9D4E902C23A4F4FF0580EDB
:10A5900042F20F780EFB05F6F419B959414507D080
:10A5A00001350A2DF6D1BDE8F047002002B0704712
:10A5B000D0F804809DF83010DDF82490DFF8B8E082
:10A5C0002171C4E902C2DDE90AC0C4E904C0002166
:10A5D0004FF0FF3247F8069021766265C4F81C8080
:10A5E000DEE902211C60D8F8103013EB020A41EBBF
:10A5F000E373D44570EB03030CDBDEF800309945C0
:10A600000CD1D8F80C309A1841EBE371944570EBFB
:10A61000010103DA05212046FFF7C0FE2046002194
:10A62000FFF7BCFE582303FB0575D8F800402969E5
:10A630000C442FF074FA4FF47A72A0FB020302FB71
:10A640000131C30B43EA4143E11A21EAE17140F2CF
:10A65000E7304FF47A72002300EBC1304914FBF766
:10A660004FFD203602460B46B81923F0C9FF9AE782
:10A67000AC460020F01C0020000000202DE9F04135
:10A680008AB00446FFF720FC00286CD02046FFF774
:10A690001BFC524D47680446002642F20F782B6897
:10A6A0009F420CD043450AD0EB69DB7D3BB12B7E4A
:10A6B000032B04D102232B762846FFF707FE013631
:10A6C0000A2E05F15805EAD1454D286808B9002041
:10A6D0002CE0C369227A197E914204D0426D013286
:10A6E00004BF62684265016862689142EFD01968F0
:10A6F000D0E904238A1843EBE173D4E90461B24240
:10A700008B4116DB237ADBB10123214602A88DF8A9
:10A71000003025F08DFB6846FFF726FE217A286879
:10A72000C1F10301C9B2FFF739FE02200AB0BDE84A
:10A73000F0810421FFF732FE2B68002BC7D0E1E740
:10A740006068284A11780029C1D0012905D15169D2
:10A75000884202D1117E0029D6D10133282B02F183
:10A760002802EFD1B3E7204600F0E8FE0028DDD054
:10A77000204600F0E3FE837A01469BB14368E03B4C
:10A78000072B02D80378072B0CD0174BD1E9040212
:10A79000D3E9025485429441BEBFC3E902024FF09F
:10A7A00000441C600E4B18680028BFD04B68E03B8B
:10A7B000072B8CD80B78072B89D1C3695B7D13B12C
:10A7C000007E0028B2D002A802248DF8004026F0B6
:10A7D00020F86846FFF7C8FDA7E700BFF01C00207F
:10A7E000AC460020B0160020000000202DE9F0410A
:10A7F0000B4E337883B10B4CDFF82C8000254FF0E3
:10A80000FF372046414601352EF0FDFF0A2D44F862
:10A81000207C04F15804F4D100203070BDE8F081B0
:10A820003610002080200020110305002DE9F04F94
:10A83000A3B000F083FE044600287FD0037A476867
:10A840000293837A0393036901930DF1380BA7F107
:10A85000E003B0F80080D0F814A0DFF8349104933E
:10A8600018AD5E46D9F800200023013246F8043BBB
:10A8700045F8043B37D0D9F80C204449D0680592FC
:10A88000FBF7A8FD059A60B9D9F8081088B2B8425C
:10A8900007D1C1F30740404503D1029BB3EB116FD1
:10A8A00021D0039B002B5ED0927932B1049B072B01
:10A8B00003D85FFA88F2072A15D099F8502092B988
:10A8C000D9F854207AB9484625F031FDD9E9061265
:10A8D00051EA020035D0019B994272EB0A0230DA4C
:10A8E000484625F00AFD18AB9E4209F15809B9D136
:10A8F00000255BF8040B18B1019A534625F021FDA1
:10A9000001350A2DF5D10025DFF88880284618AFDB
:10A9100057F8256076B138B9214606A825F079FFA9
:10A92000414606A8FFF7A4F9019A5346304625F0A0
:10A9300085FC012001350A2DEAD1400023B0BDE895
:10A94000F08FD9F80C20517909B146F8049C99F898
:10A95000101019B112790AB145F8049C89F8508099
:10A96000C9F85470BFE799F81020002ABBD099F8B5
:10A9700050204245B7D1D9F85420BA42B3D1484605
:10A9800025F0D5FC45F8049CADE700BF46E3050083
:10A990006020002070AC050082B02DE9F041044633
:10A9A00006A9406881E80C00DDE9088725F053F826
:10A9B00043682D48079AD3F80CC0A66800210446C6
:10A9C00003689A423BD1C368DD68AC4537D18568DE
:10A9D000AE4234D1457C95BB58254D43601990F863
:10A9E0005020B2BB582202FB014101220A741E68AA
:10A9F00016EB080647F10007C1E906672FF08FF84C
:10AA00004FF47A72A0FB020302FB0131C30B43EA4D
:10AA10004143F61A002E17DD4FF4004740F2E730AD
:10AA200000214FF47A720023E6FB0701FBF768FB75
:10AA3000203502460B46601923F0E2FD04E00131A7
:10AA40000A2900F15800BBD1BDE8F041002002B056
:10AA50007047426D002AC5D042463B46BDE8F041F2
:10AA600002B025F0EBBB00BF6020002082B02DE9D2
:10AA7000F84F82460AA940682E4E81E80C00DDE9B5
:10AA80000C4524F0E8FF4768DDF82C90DAF8080060
:10AA9000D7F80CC033460022B0461968894526D144
:10AAA000D968C9688C4522D1996888421FD1597CE0
:10AAB000E9B94FF0580B0BFB028B584625F037FCD9
:10AAC00022462B46584625F0B9FBDAF80810002339
:10AAD0003268013201D1727C7AB101330A2B06F15E
:10AAE0005806F5D1BDE8F84F002002B0704701329A
:10AAF0000A2A03F15803D0D1E7E75820434308EB73
:10AB0000030048F803904FF000084FF00009C0E937
:10AB10000217C0E906899DF838300371028280F877
:10AB2000502042657B79002BDCD122462B4625F054
:10AB300008FCD7E7602000202DE9F04700F0FEFC7C
:10AB400008B1837AF3B90020BDE8F087037A43F0B7
:10AB500002030372F7E7232BF5D9A5F1E003072BD6
:10AB600023D8F3B2072B20D1EDE7A3689D4225D16E
:10AB700094F80C80FFF72AFA49EA000038EA000846
:10AB80001CD1E0E7104F3B78002BDCD006884568ED
:10AB9000072EA5F10403DBB2DDD1192BD6D9232B67
:10ABA000D1D9A5F1E003072BCDD9084C90F8089036
:10ABB00004F1240AEDB2A388B342D6D00C34544534
:10ABC000F9D100233B70BEE73A8B002094AC05001E
:10ABD00070B500F0B3FC034608B1827ADAB9002000
:10ABE00070BD01318842FADD32F8025F1C88A5424F
:10ABF000F7D10B4A03F11806154618685968144630
:10AC000003C40833B3422246F7D1FFF7DFF92B7AAA
:10AC100018432872E3E7034A00215078E2E700BFB7
:10AC2000D02300200C0F002070B5002506460560DB
:10AC300000F060FE044678B101F0C2FF30B900F0C8
:10AC40002BFF012370603370304670BD064B1B78BC
:10AC5000012BF4D02846F5E701F0B2FF0028EED032
:10AC600023462046EEE700BF3B8B002008B5094B8A
:10AC70001B7823B1012B06D06FF0850008BDBDE81D
:10AC8000084025F096BFFFF7F9FABDE8084001300B
:10AC900001F068B8B446002008B5094B1B7823B111
:10ACA000012B06D06FF0850008BDBDE8084025F0F7
:10ACB00088BFFFF7E7FABDE80840013001F078B837
:10ACC000B446002037B508490848094D6C462EF0B7
:10ACD0009AFD2046FFF7A8FF94E8030085E80300EB
:10ACE000002003B030BD00BFF5AC020000240020FE
:10ACF000B446002002490348012205F093B800BF82
:10AD00003B8B0020C8E4050082B00DF1080C0CE973
:10AD1000030019469DF8003010461BB1012B05D0E9
:10AD2000054A00E0054A02B024F0C8BA019B044A73
:10AD300002B024F0C3BA00BFE7E40500DCE405007C
:10AD4000E0E40500034A034692E8030083E80300B9
:10AD500018467047B446002030B589B001AD0F4C9D
:10AD60002846FFF761FF94E80C0095E8030025F002
:10AD700061FC80B925F092FC95E803000A2305AA3E
:10AD800084E80300FFF7C0FF94E8030003AB83E807
:10AD9000030000F041F809B030BD00BFB446002008
:10ADA00008B5074B1A78824208D018704FF4F01299
:10ADB0000023044823F058FCFFF7CEFF002008BD15
:10ADC0003B8B002000240020034B1878B0FA80F061
:10ADD0004009FFF7E5BF00BF3B8B002070B50C4674
:10ADE00015460B4900221E4627F00BF908B9002032
:10ADF00070BD012C08D1074922463046A8470028DB
:10AE0000F6DDFFF7A9FFF2E76FF01500F0E700BFEE
:10AE1000D2E405003B8B00207FB56B4683E803003E
:10AE200093E80300002206AB03E90300039202A8A3
:10AE3000034A029224F0A0FF07B05DF804FB00BFB4
:10AE4000C8AE05000268034B9A420CBF08300020D0
:10AE5000704700BFC8AE050008B5034903484FF46A
:10AE6000AA622FF013F808BDD4AE0500C04600203A
:10AE700013B516496A4627F0C4F808B1009810B90E
:10AE8000002002B010BD0A2201A924F0B9FA04463C
:10AE9000019803782F2B16D10A2201A9013024F042
:10AEA000AFFA019B1B78C2B26BB904990B23E4B2D1
:10AEB00003FB0411D20800F0070001238340885CE3
:10AEC00003438B54DCE76FF01500DAE7E1E7050098
:10AED00038B5074C5525208820B1636813B9FEF7B3
:10AEE00047FD6060013D04F11004F4D1284638BDEF
:10AEF000C04600202DE9F04186B00D461746424974
:10AF000001AA0446984627F07CF8E0B10198D0B138
:10AF10000A2203A924F074FA039B1E78002E56D14E
:10AF20003A4CC0B2142303FB0044132D2A46214699
:10AF300028BF13224046B847002801DD26540020D0
:10AF400006B0BDE8F081324901AA204627F059F841
:10AF500000283FD0019800283CD00A2202A924F002
:10AF60004FFA0646029803782F2B30D102A90A2205
:10AF7000013024F045FA029B1978314311F0FF01AA
:10AF800025D10A2D23D8C4B2542C20D8CDE90311E1
:10AF9000ADF814102A4603A94046B8470028CFDD73
:10AFA000BDF80C00FEF7E4FCF6B21A4ADDF80E50CC
:10AFB000DDF81210552303FB06431C0102EB0313BB
:10AFC000BDF80C601653C3E90105D960B7E76FF00F
:10AFD0001500B5E7104901AA204627F012F800280D
:10AFE000ADD0019B002BAAD1003D18BF01250B4914
:10AFF0002A464046B8470028A2DD084908482A46A4
:10B000002EF044FF9BE700BF0EE50500488B0020B3
:10B01000E1E70500C046002028E505003C8B002044
:10B020005C8B00201FB528BB19B9002005B05DF866
:10B0300004FB12490B6843F001029A420A60F4D003
:10B040004FF48073ADF800302EF069FD4FF47A7242
:10B05000A0FB020302FB0131C00B40EA4140C90BD7
:10B06000CDE9020104AB13E90F0005B05DF804EB74
:10B0700000F032BA6FF01500D8E700BF644D002031
:10B0800010B5044B00241C70034B1C70FFF7E4FE4A
:10B09000204610BD5C8B00203C8B0020034B1B78AE
:10B0A000181A18BF4FF0FF30C0B270475C8B0020F9
:10B0B00010B9024B18787047FF2070475C8B002056
:10B0C000014B196825F043BB644D002010B5094BB6
:10B0D00000201C78FFF7E2FF50B9FF2C08D0204673
:10B0E000FFF7EEFF00B12046BDE81040FFF7D6BFE6
:10B0F00010BD00BF5C8B00200028024818BF002054
:10B10000704700BF488B0020542913B50C4602D964
:10B11000002002B010BD0028FAD101A8FEF7B4FC4F
:10B120000028F5DB8442F3DA019B53F82430542BDA
:10B13000EED8024800EB0310EBE700BFC04600204A
:10B1400082B037B50C46542C06A981E80C0006D90C
:10B150006FF0150003B0BDE8304002B07047002822
:10B16000F6D101A8FEF790FC0028F3DB8442EFDA69
:10B17000019B53F82450542DEAD80C4C04EB0514D1
:10B18000102206A920462EF0C8FE08B90020E1E7EB
:10B19000EA08074905F00705885C0123AB40034333
:10B1A0008B5406AB0FCB84E80F00EFE7C0460020BE
:10B1B0003D8B0020044B1A78FF2A06BF0020187030
:10B1C0006FF01B00704700BF5C8B002030B9054B4F
:10B1D0001A78FF2A02D0FF221A7070476FF015000C
:10B1E000704700BF5C8B002019B928B9044B187058
:10B1F00070476FF0150070476FF01200704700BF86
:10B200005C8B002070B51446054680B9132A11D80E
:10B210000A4E1422304624F008FC094A1368132C05
:10B2200043F0010318BF35551360002070BD6FF067
:10B230001500FBE76FF01B00F8E700BF488B00200C
:10B24000BC4600200C490B7813F0010312D10133E6
:10B25000552B07D0DA1003F007008A5CC24012F0C9
:10B26000010FF3E7054B1878054B1B78C01A18BF80
:10B2700001207047012070473D8B00203C8B00204F
:10B280005C8B00202DE9F047324D334EDFF8E4802F
:10B290008AB00024E71004F00709F35D23FA09F3EC
:10B2A000DA0729D56868FEF745FBEA68AB68ADF8B0
:10B2B0000800CDF80A30CDF80E20002A46D1002B28
:10B2C0000CBF4FF0020A4FF0060A00211422009131
:10B2D00043460DEB020001942EF001FE524602A9F6
:10B2E00005A804F09FFD00282DDBF35D012202FA82
:10B2F00009F223EA0203F3550134552C05F1100538
:10B30000C8D1164C16480122214604F08BFD0028B6
:10B3100019DB2278134B144C1A702368DB0710D505
:10B320000021124B00910E2205A82EF0D8FD1048E6
:10B33000FBF762F80E49024605A804F073FD0028E9
:10B3400001DB002020600AB0BDE8F0874FF00A0A58
:10B35000BBE700BFC04600203D8B00205C8B002077
:10B3600021E505003C8B0020BC46002034E50500AB
:10B37000488B002012E505000A4B10B500241C7014
:10B38000094B1C70FFF768FD084804F085FD002894
:10B3900006DB074B1C60074B5C601C60C3F8074072
:10B3A00010BD00BF5C8B00203C8B002042E50500F7
:10B3B000BC4600203D8B0020F0B52148214E224D97
:10B3C000224F8FB026F019FE00242149214802AAFD
:10B3D00004F088FD204B00940E22214605A82EF093
:10B3E0007EFD05A826F009FE0A22294630462EF0E9
:10B3F00094FDA0B10EAB03EBE40304F0070213F8D5
:10B40000303CD340DB070AD50021019400913B4634
:10B41000142209A82EF063FD09A826F0EEFD0134E0
:10B42000552C06F1100605F11005DDD10B4B00245B
:10B430001C700B4B1C70FFF70FFD20460FB0F0BDCA
:10B4400021E50500C0460020D4AE050012E5050048
:10B4500071AE020042E5050034E505005C8B00207A
:10B460003C8B00202DE9F74FDDE90CAB07460C467D
:10B47000154622B1154B1A68154B43F82120DFF809
:10B480005480DFF84C90002213E0FF2E18D059F8BA
:10B490002410304625F05BF990B12246CDE900AB8F
:10B4A0002B463146384625F081F900284FF0FF320F
:10B4B00008DD0020FFF7F2FD824298F80060E4DA30
:10B4C0006FF0850003B0BDE8F08F00BF644D002031
:10B4D000104C00205C8B002010B58AB06C4684E8CC
:10B4E0000F0000230593064B049394E80F000AAC69
:10B4F00004E90F0004A824F03FFC0AB010BD00BF0F
:10B5000024B4050084B030B589B00CAC84E80F00D9
:10B51000002301930CAD084B00930FCD02AC0FC478
:10B5200095E8030084E80300684624F025FC09B090
:10B53000BDE8304004B070472CB405000268034BEE
:10B540009A420CBF08300020704700BF2CB40500A1
:10B5500007B56B4683E8030093E8030025F086F8FF
:10B56000024B185C03B05DF804FB00BF5D8B00204C
:10B5700013B56B4683E80600044693E8030025F004
:10B5800075F8044B1C54044802B0BDE8104022F08A
:10B59000CFBF00BF5D8B0020940300207FB56B46BA
:10B5A00083E8030093E80300002206AB03E90300ED
:10B5B000039202A8034A029224F0DEFB07B05DF872
:10B5C00004FB00BF34B40500074B1A78074B82B068
:10B5D000162102FB013301938DF8002002AB13E921
:10B5E000030002B0FFF7DABF6F8B0020708B0020E2
:10B5F00002490348012204F015BC00BF6F8B0020F4
:10B6000034E6050008B5002006F030FE002802DA16
:10B6100010F1780F07D1044804F094FC0348044962
:10B620002EF0F1F8002008BDF403002030240020A3
:10B63000F1B5020070B503788AB004460E4607AD36
:10B64000032B20D8DFE803F002191B1D11492846FF
:10B65000FAF7CAFE059563780493A3780393E37819
:10B6600002932379019363790093A3790A4A1E21F7
:10B67000304623F023FE0AB070BD0849E7E70849C9
:10B68000E5E70849E3E7084A0A21284623F016FEC1
:10B69000E0E700BF47E6050070E605004EE605005E
:10B6A00055E605005FE6050069E6050010B592B0B5
:10B6B000044629F09AF86946FFF7BCFF08A920461E
:10B6C00008F0AEFC9DF82130012B13D10A4822F07E
:10B6D0002FFF204629F089F8084B19780F221623EE
:10B6E00013FB01230649194425F0FBF810B905485E
:10B6F00022F01EFF12B010BD0C0400206F8B002042
:10B70000708B00201C0400202DE9F0418AB00D460A
:10B71000164629496A4604461F4626F072FCF8B1CF
:10B720000098E8B10A2201A923F06AFE019B1B7868
:10B7300003BB162D1ED1C4B2022C1BD8DFF88C809F
:10B740006C432A4608EB04013846B047002813DD55
:10B7500004F10F0002A94044FFF76CFF00200BE04A
:10B7600016496A46204626F04CFC78B1009B6BB91E
:10B77000012D04D06FF015000AB0BDE8F08110492A
:10B780002A463846B04700EAE070F5E70D496A46B8
:10B79000204626F036FC0028E0D000980028DDD0B6
:10B7A000072DE7D12EF0B5FB0128D7D80649C0EB0D
:10B7B000C0002A460144E4E793E6050038E60500A8
:10B7C0006F8B00209CE60500618B0020708B0020B1
:10B7D000022808B50CD80F22162313FB00230548B6
:10B7E0000549184425F07DF8B0FA80F0400908BDFD
:10B7F0000020FCE7708B0020D4F20500014B187884
:10B80000FFF7E6BF6F8B00202DE9F0410C4690B0AA
:10B8100005464FF0160808A9204615FB08F7FFF764
:10B8200009FF0E4E216807F10F029319B150A2884B
:10B830009A80A2799A710021094B0095112203A8E0
:10B840002EF04DFB4246F11903A804F0EBFA05482F
:10B8500022F06EFE10B0BDE8F08100BF708B0020BA
:10B86000B1E605001C04002038B50F23162414FB94
:10B870000034094B09491C440546204625F031F89F
:10B8800048B12146002006F0D5FB28460349BDE813
:10B890003840FFF7B9BF38BD708B0020D4F20500E7
:10B8A00010B502288AB002D900200AB010BD0F23BB
:10B8B000162414FB00340D4B0D491C44204625F082
:10B8C00010F80028F0D02146002008F029FB04469B
:10B8D0000028E9D0694608F0A3FB204628F067FE5F
:10B8E0009DF82400831E58425841DEE7708B0020EB
:10B8F000D4F20500014B1878FFF7D2BF6F8B002000
:10B90000F0B58DB0FFF77AFF98B9FFF7F3FF80F03D
:10B9100001035B00DBB2214D2A7803EB0213112BEC
:10B9200009DC022B2DD0102B23D0002420460DB093
:10B93000F0BD0223EFE7202B1BD0122BF5D107F02F
:10B9400083FA00232B7004460028EFD1144F0FCF49
:10B9500002AE0FC63B6813493360032200942346AE
:10B9600002A807F03FFA04460028DFD102232B701B
:10B97000DBE707F069FA00232B7004460028D4D0D7
:10B98000D4E7074E0FCE07AC0FC433682360002303
:10B9900004490093032207A8E3E700BFB28B00200D
:10B9A000F0A705002C04002030B593B0054628F020
:10B9B0001CFF69460446FFF73DFE08A9284608F02B
:10B9C0002FFB9DF82130012B05D1FFF717FF2146F2
:10B9D00018B906F02FFB13B030BD034B1878FFF7F2
:10B9E00013FFFFF78DFFF6E76F8B002030B593B0A4
:10B9F0000D4608A9044608F013FB9DF82130012BE1
:10BA00000BD1204628F0F1FE6946FFF713FE0E4BDE
:10BA100000221A701DB1FFF773FF13B030BDFFF79E
:10BA20006FFF204628F0E1FE084B19780F221623FD
:10BA300013FB01230649194424F053FF0028ECD1DD
:10BA4000044822F075FDE8E7B28B00206F8B0020E0
:10BA5000708B00201C04002008B5064808F03AFA54
:10BA6000054808F037FD054808F04EFDFFF748FF90
:10BA7000002008BDD0030020B4030020A403002050
:10BA800008B5044B1878FFF7EFFEBDE80840FFF754
:10BA900037BF00BF6F8B0020014B1878704700BF85
:10BAA0006F8B002070B5084D0646002429463046AD
:10BAB00024F017FF30B10134032C05F11605F5D140
:10BAC0006FF01204204670BD7F8B0020022808B55D
:10BAD00010D80A4B1A7882420AD018704FF4F0122C
